S011000048756D616E44656C61792E733337FB
S113000000000220C5020000F1020000F10200001D
S1130010F1020000F1020000F1020000F102000010
S1130020F1020000F1020000F1020000F10D0000F5
S1130030F1020000F1020000910F0000D50F000052
S1130040F1020000F1020000F5560000F102000088
S1130050F1020000F1020000F1020000F1020000D0
S1130060F1020000F1020000F10200001957000043
S1130070F1020000F1020000F10200005D05000041
S1130080F1020000F1020000F1020000F1020000A0
S1130090F1020000F1020000F1020000F102000090
S11300A0F1020000F1020000F1020000F102000080
S11300B0F1020000F1020000F1020000F102000070
S11300C0F1020000F1020000F1020000F102000060
S11300D0F1020000F1020000F102000010B5054C2D
S11300E0237833B9044B13B10448AFF300800123E0
S11300F0237010BD84000020000000004C7A000032
S1130100084B10B51BB108480849AFF300800848F4
S1130110036803B910BD074B002BFBD0BDE81040AA
S1130120184700BF000000004C7A0000880000203F
S11301308000002000000000154B002B08BF134B6B
S11301409D46A3F5803A00218B460F461348144A76
S1130150121A05F0CCFF0F4B002B00D098470E4B22
S1130160002B00D098470020002104000D000D480A
S1130170002802D00C48AFF3008005F087FF200070
S1130180290005F019FB05F06DFF00BF0000080011
S11301900000022000000000000000008400002095
S11301A0AC250020000000000000000080B582B0F3
S11301B000AF3A4A394B5B6C43F400535364384AFA
S11301C0374BD3F8203143F00403C2F82031344ACA
S11301D0334BD3F8203123F44073C2F82031304A32
S11301E02F4BD3F8B83023F47063C2F8B8302C4ADC
S11301F02B4BD3F8B83043F48063C2F8B830274BA4
S113020010221A6200BF254BDB6A03F02003002B87
S1130210F9D0244A234B1B6843F001031360214A9D
S1130220204BDB6843F08073D3601F4B1F4A1A6076
S11302301F4803F06FFC034603F5D52303F2FC4388
S11302407B607B68DB081B4AA2FB03239B0A3B60A1
S1130250194A3B68013B1361174B0222C3F8F02093
S1130260154B4FF48072C3F804234FF06043134AD4
S1130270C3F8B02F4FF06043114AC3F8802E4FF0FB
S113028060424FF06043D3F8003E43F00103C2F8EC
S1130290003E012318460837BD4680BD00800C404F
S11302A000600040F0ED00E0001000E0FF130140AA
S11302B006000C0017916502000004E055CEACC5A1
S11302C009000100064880470649074A074B9A423D
S11302D0BEBF51F8040B42F8040BF8E7FFF72CFFFC
S11302E071040000587A00000000002084000020FF
S11302F0FEE700BF80B400AF044BDB6C1B0EDBB227
S11303001846BD465DF8047B704700BFB081E00F1E
S113031080B582B000AF00F01FF87860074B5B68CF
S113032003F00F031A467B68D3407B60044A7B6862
S113033013607B6818460837BD4680BD00800C40BA
S11303400800002080B400AF024B1846BD465DF89B
S1130350047B7047006CDC0280B582B000AF334B85
S1130360DB6A03F47053B3F5805F0AD0B3F5005F22
S113037003D0B3F5006F08D00BE02D4B1B687B60F6
S113038047E04FF400437B6043E02A4B1B687B60EB
S11303903FE0264BDB6803F4E063B3F5007F1BD03A
S11303A0B3F5007F05D8002B24D0B3F5807F16D099
S11303B02BE0B3F5806F09D0B3F5A06F03D0B3F58C
S11303C0407F06D021E01C4B7B6021E01B4B7B600F
S11303D01EE01B4B7B601BE01A4B7B6018E0FFF7B1
S11303E089FF0346122B02D9174B7B6010E0174B91
S11303F07B600DE0FFF77EFF0346122B02D9144BFE
S11304007B6005E0134B7B6002E000237B6000BF50
S113041000BF064B1B6803F4E0339B0B01337A687F
S1130420B2FBF3F318460837BD4680BD00800C408C
S11304300400002000000020003FAB01406F400199
S1130440809FD500C0D8A70040B56400C0CF6A0023
S1130450804F120040420F0080B400AF034B1B6872
S11304601846BD465DF8047B704700BF00000020BD
S113047080B400AFBD465DF8047B704780B400AF24
S11304804FF400431846BD465DF8047B704700BF37
S113049080B400AF4FF47A731846BD465DF8047B10
S11304A0704700BF80B400AF034B1B681846BD46BD
S11304B05DF8047B704700BF0400002080B483B063
S11304C000AF0346FB71084997F907305B09FA79D5
S11304D002F01F02012000FA02F241F823200C3737
S11304E0BD465DF8047B704700E100E080B483B052
S11304F000AF0346FB71094997F907305B09FA79A4
S113050002F01F02012000FA02F2603341F82320B6
S11305100C37BD465DF8047B704700BF00E100E086
S113052080B483B000AF786039607B683A689A64BD
S11305300C37BD465DF8047B704700BF80B483B0C0
S113054000AF786039607B68DA6C3B681A437B687B
S1130550DA640C37BD465DF8047B704798B500AF8C
S1130560164B1B6903F08003002B26D0144B1C6828
S1130570124804F0C5FE03461A46124B1A55104B96
S11305801B6801330E4A13600F4B1B6801330E4A7C
S113059013600B4B1B68082B02D1094B00221A6015
S11305A0094B1B68082B08DD054B00221A60064B1B
S11305B000221A60054B00221A6098BD00C4004056
S11305C0A4000020AC000020A8000020A00000200F
S11305D080B483B000AF78607B68002B03D0064BF7
S11305E001221A7002E0044B00221A700C37BD4637
S11305F05DF8047B704700BFB4000020B0B588B03C
S113060000AF2748012103F017FA2648012103F01F
S113061013FA032000210422012303F063FF0320C3
S113062001210122002303F05DFF1F4BFB611F4BDF
S11306303C1D1D460FCD0FC495E8030084E803005C
S11306401B48012103F0F8F900233B713B1DF869B5
S1130650194604F099FDFB6940F203125A651248E9
S11306600421FFF75DFF0F20FFF740FF0E48042130
S1130670FFF764FF0F20FFF721FFF869052104F05D
S113068047FD0C4B1B689B6818460021022200237F
S113069005F04EFD084B01221A702037BD46B0BD4F
S11306A04081040000D2040000C4004050700000E7
S11306B00012040074000020B500002080B483B050
S11306C000AF0346FB71FB79002B03D0054B0122DD
S11306D01A6602E0034B00221A660C37BD465DF829
S11306E0047B704700A0084080B483B000AF7860FA
S11306F000BF054B5A6E7B681340002BF9D10C37B1
S1130700BD465DF8047B704700A0084080B483B008
S113071000AF78600549054B9A6A7B68DB43134058
S11307208B620C37BD465DF8047B704700A008401F
S113073080B500AF00202849002204F03DF90120D3
S11307402549002204F038F902202349002204F04C
S113075033F903202049002204F02EF904201E4915
S1130760002204F029F905201B49002204F024F991
S113077006201949002204F01FF907201649002217
S113078004F01AF90020FF21002204F0E1F901200D
S1130790FF21002204F0DCF90220FF21002204F0F2
S11307A0D7F90320FF21002204F0D2F90420FF210D
S11307B0002204F0CDF90520FF21002204F0C8F93D
S11307C00620FF21002204F0C3F90720FF210022A4
S11307D004F0BEF980BD00BF00F00FF080B500AF9B
S11307E007202649002204F0E7F8062024490022C5
S11307F004F0E2F805202249002204F0DDF8042088
S11308001F49002204F0D8F803201D49002204F0F7
S1130810D3F802201A49002204F0CEF80120184926
S1130820002204F0C9F800204FF02041002204F017
S1130830C3F807200721002204F08AF906200721C3
S1130840002204F085F905200721002204F080F934
S113085004200721002204F07BF903200721002251
S113086004F076F902200721002204F071F9012036
S11308700721002204F06CF980BD00BF00E00F5096
S113088000E00FF080B582B000AF0346FB7125484D
S1130890012103F0D1F82448032103F0E1FA2348AD
S11308A0402102F067FF012003F046FC20480121AB
S11308B003F0C2F84FF0FF30FFF728FF1D4803F0A4
S11308C0EBFE0820012103F04DFF1020012103F06D
S11308D049FF8020012103F045FF4FF4807001217E
S11308E003F040FF4FF40070012103F03BFFFB795C
S11308F0002B0DD04FF4402004F0F0F94FF4803079
S113090003F00EFF0C4A0C4BDB6F43F00803D36774
S1130910FFF70EFF4FF0FF30FFF7E6FE0837BD4646
S113092080BD00BF0043020002001A0060002600E0
S1130930003628002073000000800C4080B58AB087
S113094000AF7860786805F07BFC0346BB61002348
S11309503B624FF0FF30FFF7C7FE0120FFF7AEFE0A
S1130960FFF73CFF00233B6246E03A6ABB699A42C8
S113097003DA7B681B787B6201E020237B627B6A5D
S1130980203B7B62214A7B6A32F81330FB820023CE
S1130990FB6128E01E493A6A1346DB009B1A9B0060
S11309A0CA18FB69134408339B793B6118493A6AB6
S11309B01346DB009B1A9B00FA6913440B441B7813
S11309C0FB60FA8AFB6942FA03F303F00103002B8C
S11309D006D0FA683B6910461946012203F0E2FE8C
S11309E0FB690133FB61FB690D2BD3DD7B680133AC
S11309F07B603B6A01333B623B6A062BB5DD00201A
S1130A00FFF75CFE2837BD4680BD00BF687200005A
S1130A106870000080B487B000AFF860B9607A6095
S1130A20FB6803F10473DA00BB6813449B007B6129
S1130A307B697A681A601C37BD465DF8047B704791
S1130A4080B500AF024801210122FFF7E3FF80BD1A
S1130A5000600C4080B582B000AF0346FB71074BC9
S1130A601B68002B04D0054B1B68FA791046984785
S1130A70012318460837BD4680BD00BFC4000020CE
S1130A8080B582B000AF78603960114A7B6813602A
S1130A90104B114A1A600F4A3B6853600F4B0022F7
S1130AA01A700E4B00225A7004F082F9034603F4C4
S1130AB08073002B09D004F053F9064B5B68002BBC
S1130AC003D0044B5B68042098470837BD4680BDBB
S1130AD0C4000020B8000020550A0000C80000200F
S1130AE080B582B000AF0346FB71FB79012B02D9BC
S1130AF0FB79032B04D913484FF4957102F072FB70
S1130B00FB79023B104AD35CFF2B04D10D4840F221
S1130B102B1102F067FBFB79022B02D0FB79032B2C
S1130B200CD1FB79023B084AD25C0132D1B2064AAD
S1130B30D154FB79022B01D1FFF782FF0837BD4660
S1130B4080BD00BF34730000C800002080B584B0AD
S1130B5000AF78600023FB607B6803F00703002B81
S1130B6004D07B6823F0070308337B6001F09EFA0E
S1130B70164B1B68002B05D1154B23F007031A46AF
S1130B80124B1A60134B1A687B68134442F21F32EB
S1130B90934213D80F4B1A687B681A440D4B1B6899
S1130BA09A420BD9094B1A680A4B1B681344FB6021
S1130BB0084B1A687B681344064A136001F0BEFAB6
S1130BC0FB6818461037BD4680BD00BFF8230020DF
S1130BD0D4000020F423002080B582B000AF7860F8
S1130BE07B68002B03D00348AB2102F0FBFA0837E3
S1130BF0BD4680BD4873000080B483B000AF786008
S1130C007B6803F108027B685A607B684FF0FF320F
S1130C109A607B6803F108027B68DA607B6803F101
S1130C2008027B681A617B6800221A600C37BD4693
S1130C305DF8047B704700BF80B483B000AF786078
S1130C407B6800221A610C37BD465DF8047B70474F
S1130C5080B485B000AF786039607B685B68FB6006
S1130C603B68FA685A60FB689A683B689A60FB685C
S1130C709B683A685A60FB683A689A603B687A688D
S1130C801A617B681B685A1C7B681A601437BD465E
S1130C905DF8047B704700BF80B485B000AF786016
S1130CA039603B681B68BB60BB68B3F1FF3F03D18D
S1130CB07B681B69FB600CE07B680833FB6002E027
S1130CC0FB685B68FB60FB685B681A68BB689A42F8
S1130CD0F6D9FB685A683B685A603B685B683A68B7
S1130CE09A603B68FA689A60FB683A685A603B68A5
S1130CF07A681A617B681B685A1C7B681A6014370F
S1130D00BD465DF8047B704780B485B000AF786061
S1130D107B681B69FB607B685B687A6892689A6091
S1130D207B689B687A6852685A60FB685A687B687B
S1130D309A4203D17B689A68FB685A607B680022F8
S1130D401A61FB681B685A1EFB681A60FB681B6803
S1130D5018461437BD465DF8047B704780B485B0EF
S1130D6000AFF860B9607A60FB68043BFB60FB6825
S1130D704FF080721A60FB68043BFB60BB6823F091
S1130D800102FB681A60FB68043BFB60094AFB68CC
S1130D901A60FB68143BFB607A68FB681A60FB68A6
S1130DA0203BFB60FB6818461437BD465DF8047BA6
S1130DB0704700BFB90D000080B582B000AF094B89
S1130DC01B68B3F1FF3F03D00748F22102F00AFA8F
S1130DD04FF0BF0383F31188BFF36F8FBFF34F8FBF
S1130DE07B60FEE70C000020CC73000000000000D4
S1130DF0074B19680868B0E8F00F80F30988BFF35F
S1130E006F8F4FF0000080F311884EF00D0E704785
S1130E101024002006480068006880F3088862B641
S1130E2061B6BFF34F8FBFF36F8F00DF00BF0000C9
S1130E3008ED00E080B584B000AF284BFB60FB6890
S1130E401B78DBB2BB60FB68FF221A70FB681B785F
S1130E50DBB2FB71FB79DBB223F04003DAB2204B47
S1130E601A70204B07221A6009E01E4B1B68013BD5
S1130E701C4A1360FB79DBB25B00DBB2FB71FB79CC
S1130E80DBB2DBB25BB2002BEFDB164B1B681B0241
S1130E90144A1360134B1B6803F4E063114A136094
S1130EA0BB68DAB2FB681A700F4A0F4B1B6843F435
S1130EB07F0313600C4A0C4B1B6843F07F431360A1
S1130EC000F068F9094B00221A60FFF7A3FFFFF74F
S1130ED073FF002318461037BD4680BD00E400E0D0
S1130EE0082400200C24002020ED00E00C00002049
S1130EF080B582B000AF4FF0BF0383F31188BFF316
S1130F006F8FBFF34F8F7B600A4B1B680133094A15
S1130F101360084B1B68012B09D1074B1B68DBB21C
S1130F20002B04D0054840F27F1102F05BF908372A
S1130F30BD4680BD0C00002004ED00E0CC73000031
S1130F4080B582B000AF0D4B1B68002B04D10C4858
S1130F504FF4C37102F046F9084B1B68013B074A82
S1130F601360064B1B68002B04D100237B607B6855
S1130F7083F311880837BD4680BD00BF0C000020F4
S1130F80CC7300000000000000000000000000001E
S1130F90EFF30980BFF36F8F0D4B1A6820E9F00F50
S1130FA010602DE908404FF0BF0080F3118801F074
S1130FB04BFA4FF0000080F31188BDE8084019682F
S1130FC00868B0E8F00F80F30988BFF36F8F7047AB
S1130FD01024002080B582B000AF4FF0BF0383F32C
S1130FE01188BFF36F8FBFF34F8F7B6001F070F9EF
S1130FF00346002B03D0064B4FF080521A600023A7
S11310003B603B6883F311880837BD4680BD00BF51
S113101004ED00E080B588B000AF7860574B1B68E2
S11310207A689A4202D9554B1B687B60544A544BE8
S11310301B6823F001031360524B1A687B68013B61
S11310405149096801FB03F31344FB614F4B1B68CF
S1131050FA699A4204D94D4B1B68FA69D31AFB61A9
S113106072B6BFF34F8FBFF36F8F01F095FB03464A
S1131070002B10D1464A434B1B681360404A404B37
S11310801B6843F001031360414A3F4B1B68013B5B
S1131090136062B66FE03E4AFB691360394B00226D
S11310A01A60374A364B1B6843F0010313607B68B0
S11310B03B613B69002B04D0BFF34F8F30BFBFF3BC
S11310C06F8F2F4B1B68FB602D4AFB6823F00103D5
S11310D0136062B6FB6803F48033002B1DD02A4BE7
S11310E01A68284B1968FB69CB1A1344013B7B61CE
S11310F0264B1B687A699A4204D3234B1B687A698E
S11311009A4203D9204B1B68013B7B61204A7B69CF
S113111013607B68013BBB6118E01B4B1B687A685A
S113112002FB03F2174B1B68D31ABB60164B1B68F8
S1131130BA68B2FBF3F3BB611549BB690133124AC8
S1131140126802FB03F2BB68D31A0B600D4B00223A
S11311501A60FFF7CDFE0A4A094B1B6843F00103EE
S11311601360B86901F094F8094A074B1B68013B06
S11311701360FFF7E5FE2037BD4680BD0024002044
S113118010E000E018E000E0FC230020042400202C
S113119014E000E080B400AF0B4B80221A600A4BCD
S11311A01B686FF07F42B2FBF3F3084A1360084BED
S11311B000221A60074B7F221A60074B03221A6031
S11311C0BD465DF8047B7047FC230020002400200A
S11311D00424002014E000E010E000E080B582B0B8
S11311E000AFEFF305837B607B680F2B0ED90F4AAA
S11311F07B6813441B78FB700D4B1B78FA789A427A
S113120004D20C4840F29E2101F0ECFF0A4B1B680B
S113121003F4E062094B1B689A4204D9054840F282
S1131220AE2101F0DFFF0837BD4680BDF0E300E0EA
S113123008240020CC7300000CED00E00C240020F6
S113124080B584B000AF786039607B68FB60FB6870
S1131250002B04D12A4840F21B1101F0C3FFFFF711
S113126047FEFB681A68FB68DB6BF968096C01FBD5
S113127003F31A44FB685A60FB6800229A63FB6814
S11312801A68FB689A60FB681A68FB68DB6B013BB1
S1131290F968096C01FB03F31A44FB68DA60FB6824
S11312A0FF2283F84420FB68FF2283F845203B6833
S11312B0002B14D1FB681B69002B1AD0FB68103378
S11312C0184601F05BF90346002B12D00D4B4FF08A
S11312D080521A60BFF34F8FBFF36F8F09E0FB6832
S11312E010331846FFF788FCFB6824331846FFF7D1
S11312F083FCFFF725FE012318461037BD4680BD49
S11313005074000004ED00E090B58BB002AFF860BB
S1131310B9601346FB71FB68002B04D114484FF4E9
S1131320C47101F05FFFBB68002B02D10023FB6195
S113133004E0FB68BA6802FB03F3FB61FB69483312
S11313401846FFF703FCB861BB69002B0BD0BB69DF
S113135048337B61FC79BB690093F868B9687A69A2
S1131360234600F007F8BB6918462437BD4690BDF4
S11313705074000080B584B000AFF860B9607A6042
S1131380FB70BB68002B03D1BB69BA691A6002E029
S1131390BB697A681A60BB69FA68DA63BB69BA68C0
S11313A01A64B8690121FFF74BFF1037BD4680BDB1
S11313B080B58AB000AFF860B9607A603B60002302
S11313C07B62FB683B623B6A002B04D1654840F2B8
S11313D0D92101F007FFBB68002B08D13B6A1B6CC5
S11313E0002B04D05F4840F2DA2101F0FBFE3B6899
S11313F0022B08D13B6ADB6B012B04D0594840F225
S1131400DB2101F0EFFE01F0A1FA0346002B07D126
S11314107B68002B04D0534840F2DE2101F0E2FE49
S1131420FFF766FD3B6A9A6B3B6ADB6B9A4202D319
S11314303B68022B29D1386AB9683A6800F012FA7D
S1131440F8613B6A5B6A002B10D03B6A2433184670
S113145001F094F80346002B13D0434B4FF0805215
S11314601A60BFF34F8FBFF36F8F0AE0FB69002B45
S113147007D03D4B4FF080521A60BFF34F8FBFF33C
S11314806F8FFFF75DFD012367E07B68002B03D1BD
S1131490FFF756FD002360E07B6A002B06D107F1BD
S11314A01403184601F0CCF801237B62FFF748FDD2
S11314B000F0FCFDFFF71CFD3B6A93F84430DBB2FF
S11314C05BB2B3F1FF3F03D13B6A002283F84420AF
S11314D03B6A93F84530DBB25BB2B3F1FF3F03D113
S11314E03B6A002283F84520FFF72AFD07F1140226
S11314F03B1D1046194601F0C1F80346002B24D1C8
S1131500386A00F0A9FA0346002B18D03B6A03F1AD
S113151010027B681046194600F0EAFF386A00F0B2
S113152033FA00F00BFE0346002B15D10E4B4FF09F
S113153080521A60BFF34F8FBFF36F8F0CE0386A8D
S113154000F022FA00F0FAFD6AE7386A00F01CFAAB
S113155000F0F4FD002300E062E718462837BD469A
S113156080BD00BF5074000004ED00E080B58CB075
S113157000AFF860B9607A603B60FB68BB62BB6A2D
S1131580002B04D1374840F29F3101F02BFEBB6899
S1131590002B08D1BB6A1B6C002B04D031484FF4DC
S11315A0687101F01FFE3B68022B08D1BB6ADB6B3C
S11315B0012B04D02B4840F2A13101F013FEFFF7B8
S11315C00DFEEFF311824FF0BF0383F31188BFF3D5
S11315D06F8FBFF34F8FFA61BB61FB697B62BB6A9C
S11315E09A6BBB6ADB6B9A4202D33B68022B2CD109
S11315F0BB6A93F8453087F82330B86AB9683A680B
S113160000F030F997F92330B3F1FF3F12D1BB6AF0
S11316105B6A002B16D0BB6A2433184600F0AEFF79
S11316200346002B0ED07B68002B0BD07B68012275
S11316301A6007E097F823300133DBB2DAB2BB6AF1
S113164083F845200123FB6201E00023FB627B6AEF
S11316507B617B6983F31188FB6A18463037BD468A
S113166080BD00BF5074000080B58AB000AFF86040
S1131670B9607A603B6000237B62FB683B623B6A33
S1131680002B04D1754840F2DC4101F0ABFDBB688E
S1131690002B08D13B6A1B6C002B04D06F4840F22E
S11316A0DD4101F09FFD01F051F90346002B07D104
S11316B07B68002B04D069484FF49C6101F092FDD3
S11316C0FFF716FC3B6A9B6BFB61FB69002B46D062
S11316D03B6ADB68BB61386AB96800F02FF93B6884
S11316E0002B21D1FB695A1E3B6A9A633B6A1B6833
S11316F0002B04D101F03EFA02463B6A5A603B6A71
S11317001B69002B27D03B6A1033184600F036FFC4
S11317100346002B1FD0524B4FF080521A60BFF388
S11317204F8FBFF36F8F16E03B6ABA69DA603B6A8A
S11317305B6A002B0FD03B6A2433184600F01EFF6F
S11317400346002B07D0464B4FF080521A60BFF37C
S11317504F8FBFF36F8FFFF7F3FB01237AE07B68B2
S1131760002B03D1FFF7ECFB002373E07B6A002B13
S113177006D107F11003184600F062FF01237B62D3
S1131780FFF7DEFB00F092FCFFF7B2FB3B6A93F835
S11317904430DBB25BB2B3F1FF3F03D13B6A0022BA
S11317A083F844203B6A93F84530DBB25BB2B3F173
S11317B0FF3F03D13B6A002283F84520FFF7C0FBBB
S11317C007F110023B1D1046194600F057FF03466F
S11317D0002B31D1386A00F029F90346002B25D0BB
S11317E03B6A1B68002B08D1FFF782FB3B6A5B68EE
S11317F0184601F0C9F8FFF7A3FB3B6A03F1240282
S11318007B681046194600F073FE386A00F0BCF895
S113181000F094FC0346002B1BD1114B4FF0805277
S11318201A60BFF34F8FBFF36F8F12E0386A00F076
S1131830ABF800F083FC43E7386A00F0A5F800F049
S11318407DFC386A00F0F2F80346002B01D0002337
S113185000E035E718462837BD4680BD50740000C7
S113186004ED00E080B586B000AFF860B9607A603E
S113187000237B61FB689B6B3B61FB681B6C002B4B
S11318800DD1FB681B68002B4FD1FB685B681846C1
S113189001F0F2F87861FB6800225A6045E07B6849
S11318A0002B1AD1FB689A68FB681B6C1046B96858
S11318B01A4604F011FCFB689A68FB681B6C1A4416
S11318C0FB689A60FB689A68FB685B689A422CD351
S11318D0FB681A68FB689A6027E0FB68DA68FB68B3
S11318E01B6C1046B9681A4604F0F6FBFB68DA680C
S11318F0FB681B6C5B421A44FB68DA60FB68DA68BD
S1131900FB681B689A4207D2FB685A68FB681B6C29
S11319105B421A44FB68DA607B68022B05D13B69A1
S1131920002B02D03B69013B3B613B695A1CFB68BD
S11319309A637B6918461837BD4680BD80B582B06E
S113194000AF786039607B681B6C002B19D07B6812
S1131950DA687B681B6C1A447B68DA607B68DA6837
S11319607B685B689A4203D37B681A687B68DA6099
S11319707B68DA687B681B6C386811461A4604F089
S1131980ABFB0837BD4680BD80B584B000AF78603E
S1131990FFF7AEFA7B6893F84530FB7313E07B687E
S11319A05B6A002B0AD07B682433184600F0E6FDFE
S11319B00346002B03D000F0B7FE00E007E0FB7BFA
S11319C0013BDBB2FB7397F90F30002BE7DC7B683C
S11319D0FF2283F84520FFF7B3FAFFF789FA7B6803
S11319E093F84430BB7313E07B681B69002B0ED063
S11319F07B681033184600F0C1FD0346002B01D06C
S1131A0000F092FEBB7B013BDBB2BB7300E003E062
S1131A1097F90E30002BE7DC7B68FF2283F8442023
S1131A20FFF78EFA1037BD4680BD00BF80B584B085
S1131A3000AF7860FFF75CFA7B689B6B002B02D1E8
S1131A400123FB6001E00023FB60FFF779FAFB68E8
S1131A5018461037BD4680BD80B584B000AF7860AD
S1131A60FFF746FA7B689A6B7B68DB6B9A4202D17C
S1131A700123FB6001E00023FB60FFF761FAFB68D0
S1131A8018461037BD4680BD80B485B000AF78607D
S1131A9039600023FB6014E00E4AFB6852F83330CF
S1131AA0002B0BD10B49FB683A6841F83320094AF3
S1131AB0FB68DB0013447A685A6005E0FB68013375
S1131AC0FB60FB68092BE7D91437BD465DF8047B3E
S1131AD0704700BF3C25002080B586B000AFF86099
S1131AE0B9607A60FB687B61FFF702FA7B6993F85F
S1131AF04430DBB25BB2B3F1FF3F03D17B69002218
S1131B0083F844207B6993F84530DBB25BB2B3F1D0
S1131B10FF3F03D17B69002283F84520FFF710FAC9
S1131B207B699B6B002B06D17B6924331846B9680B
S1131B307A6800F0FDFC7869FFF726FF1837BD4688
S1131B4080BD00BF80B58CB004AFF860B9603B6065
S1131B501346FB80FB889B001846FEF7F7FF78616D
S1131B607B69002B0ED05020FEF7F0FFF861FB6973
S1131B70002B03D0FB697A691A6305E07869FFF7E3
S1131B802BF801E00023FB61FB69002B13D0FA88DA
S1131B90BB6A0093FB6A0193FB69029300230393DE
S1131BA0F868B9683B6800F00FF8F86900F086F847
S1131BB00123BB6102E04FF0FF33BB61BB691846F0
S1131BC02037BD4680BD00BF80B586B000AFF86049
S1131BD0B9607A603B60BB6A1A6B7B6803F180432F
S1131BE0013B9B0013443B613B6923F007033B61CA
S1131BF03B6903F00703002B04D02F4840F22B313C
S1131C0001F0F0FA00237B6113E0BA687B691344A6
S1131C101978BA6A7B69134430330A461A71BA6870
S1131C207B6913441B78002B00D105E07B690133E9
S1131C307B617B69092BE8D9BB6A002283F83D20CC
S1131C403B6A022B01D902233B62BB6A3A6ADA621D
S1131C50BB6A3A6A1A64BB6A00225A64BB6A0433D8
S1131C601846FEF7E9FFBB6A18331846FEF7E4FF8F
S1131C70BB6ABA6A1A613B6AC3F10302BB6A9A611E
S1131C80BB6ABA6A5A62BB6A00229A64BB6A0022BF
S1131C9083F84C203869F9683A68FFF75FF8024620
S1131CA0BB6A1A607B6A002B02D07B6ABA6A1A602C
S1131CB01837BD4680BD00BFC074000080B582B037
S1131CC000AF7860FFF714F92B4B1B6801332A4AE5
S1131CD013602A4B1B68002B09D1284A7B681360C8
S1131CE0254B1B68012B10D100F084FD0DE0244B23
S1131CF01B68002B09D1214B1B68DA6A7B68DB6AFD
S1131D009A4202D81D4A7B6813601E4B1B6801333C
S1131D101C4A13607B68DB6A1A46012303FA02F249
S1131D20194B1B681343184A13607B68DA6A13461D
S1131D309B0013449B00154A1A447B6804331046E5
S1131D401946FEF785FFFFF7FBF80D4B1B68002BC8
S1131D500ED00A4B1B68DA6A7B68DB6A9A4207D2A8
S1131D600B4B4FF080521A60BFF34F8FBFF36F8F4E
S1131D700837BD4680BD00BFC024002010240020C9
S1131D80CC240020DC240020C824002014240020BB
S1131D9004ED00E080B584B000AF78600023FB6000
S1131DA07B68002B11D0104B1B68002B04D00F480C
S1131DB040F2CF4101F016FA00F078F9786800217A
S1131DC000F0ECFE00F0BAF9F860FB68002B07D1D4
S1131DD0074B4FF080521A60BFF34F8FBFF36F8FE2
S1131DE01037BD4680BD00BFE8240020C074000049
S1131DF004ED00E080B584B000AF7860FFF778F8B8
S1131E007B68002B02D1344B1B6800E07B68FB60CD
S1131E10FB6804331846FEF777FF0346002B15D101
S1131E20FB68DA6A2D4913469B0013449B000B445C
S1131E301B68002B0AD1FB68DB6A1A460123934016
S1131E40DA43274B1B681340254A1360FB689B6ADF
S1131E50002B04D0FB6818331846FEF755FFFB68C7
S1131E60043320481946FEF7F3FEFFF769F81E4BCA
S1131E701B68002B05D0FFF73BF800F043FDFFF78C
S1131E805FF8154B1B68FA689A4221D1164B1B6800
S1131E90002B11D0154B1B68002B04D0144840F2C2
S1131EA0576101F09FF9134B4FF080521A60BFF352
S1131EB04F8FBFF36F8F0BE00A4B1A680E4B1B68F2
S1131EC09A4203D1044B00221A6001E000F0BCFAEC
S1131ED01037BD4680BD00BF10240020142400200C
S1131EE0C8240020AC240020CC240020E8240020B6
S1131EF0C074000004ED00E0C024002080B584B06C
S1131F0000AF78600023FB607B68BB607B68002BBC
S1131F1004D1124840F2816101F064F9BB685B6945
S1131F200F4A934201D1012300E00023002B0FD07C
S1131F30BB689B6A0B4A93420AD0BB689B6A002B1E
S1131F4001D1012300E00023002B01D00123FB6019
S1131F50FB6818461037BD4680BD00BFC074000042
S1131F60AC2400208024002080B584B000AF7860C9
S1131F707B68FB607B68002B04D1234840F2AB6193
S1131F8001F030F9FB68002B3BD0204B1B68FA684A
S1131F909A4236D0FEF7ACFFF868FFF7AFFF03466E
S1131FA0002B2CD0FB6804331846FEF7ADFEFB680B
S1131FB0DB6A1A46012303FA02F2154B1B6813432A
S1131FC0134A1360FB68DA6A13469B0013449B00B0
S1131FD0104A1A44FB68043310461946FEF738FECB
S1131FE0FB68DA6A094B1B68DB6A9A4207D30A4B1F
S1131FF04FF080521A60BFF34F8FBFF36F8FFEF71D
S11320009FFF1037BD4680BDC0740000102400201F
S1132010C82400201424002004ED00E080B584B01E
S113202002AF002300931A4B01931A481A498C22D9
S11320300023FFF787FD78607B68012B02D100F055
S113204011FE78607B68012B15D14FF0BF0383F339
S11320501188BFF36F8FBFF34F8F3B600F4B4FF06F
S1132060FF321A600E4B01221A600E4B00221A60D6
S1132070FEF7E0FE08E07B68B3F1FF3F04D10A48B5
S113208040F2847101F0AEF80837BD4680BD00BF50
S1132090E42400204127000030750000E0240020E3
S11320A0CC240020C4240020C074000080B400AFFD
S11320B0044B1B680133034A1360BD465DF8047B7F
S11320C0704700BFE824002080B485B000AF00232F
S11320D0BB6001237B60144B1A687B689A4201D968
S11320E00123BB60114B1B68DB6A002B02D0002369
S11320F0FB6012E00E4B1B68012B02D90023FB602E
S11321000BE0BB68002B02D00023FB6005E0094B09
S11321101A68094B1B68D31AFB60FB68184614370E
S1132120BD465DF8047B7047C824002010240020BD
S113213014240020E0240020C424002080B584B0AE
S113214000AF0023FB600023BB603F4B1B68002BE8
S113215004D13E484FF4FD6101F044F8FEF7C8FE97
S1132160394B1B68013B384A1360374B1B68002B03
S113217063D1374B1B68002B5FD030E0354BDB68F5
S1132180DB68FB60FB6818331846FEF7BDFDFB688F
S113219004331846FEF7B8FDFB68DB6A1A460123D0
S11321A003FA02F22C4B1B6813432B4A1360FB689F
S11321B0DA6A13469B0013449B00284A1A44FB68BE
S11321C0043310461946FEF743FDFB68DA6A244BD4
S11321D01B68DB6A9A4202D3224B01221A601D4B10
S11321E01B68002BCAD1FB68002B01D000F08AFBCE
S11321F01D4B1B687B607B68002B10D000F068F8D7
S11322000346002B02D0174B01221A607B68013B66
S11322107B607B68002BF1D1134B00221A60114BB9
S11322201B68002B09D00123BB60104B4FF0805278
S11322301A60BFF34F8FBFF36F8FFEF781FEBB6849
S113224018461037BD4680BDE8240020C074000045
S1132250C024002080240020C8240020142400204E
S113226010240020D4240020D024002004ED00E019
S113227080B483B000AF054B1B687B607B68184655
S11322800C37BD465DF8047B704700BFC4240020B2
S113229080B582B000AF78600A4B1A687B681A4434
S11322A0094B1B689A4204D9084840F6711100F0A2
S11322B099FF044B1A687B681344024A1360083779
S11322C0BD4680BDC4240020E0240020C07400006A
S11322D080B586B000AF00237B614F4B1B68002B99
S11322E040F089804D4B1B6801333B614B4A3B698D
S11322F013603B69002B1AD1494B1B681B68002BE8
S113230004D0484840F6D91100F06CFF444B1B68D8
S1132310FB60454B1B68424A1360434AFB681360E9
S1132320424B1B680133414A136000F0EBFA404B07
S11323301B683A699A424FD3394B1B681B68002BC0
S113234001D1012300E00023002B04D0384B4FF0CF
S1132350FF321A6040E0324B1B68DB68DB68BB600D
S1132360BB685B687B603A697B689A4203D2304AF7
S11323707B68136030E0BB6804331846FEF7C4FC86
S1132380BB689B6A002B04D0BB6818331846FEF761
S1132390BBFCBB68DB6A1A46012303FA02F2254B35
S11323A01B681343234A1360BB68DA6A13469B0015
S11323B013449B00204A1A44BB6804331046194650
S11323C0FEF746FCBB68DA6A1C4B1B68DB6A9A4260
S11323D001D301237B61AFE7184B1B68DA6A164906
S11323E013469B0013449B000B441B68012B01D92B
S11323F001237B6104E0124B1B680133104A136014
S1132400104B1B68002B01D001237B617B691846AC
S11324101837BD4680BD00BFE8240020C424002036
S113242078240020C07400007C240020D8240020DC
S1132430E0240020C82400201424002010240020BC
S1132440D0240020D424002080B584B000AF224BD7
S11324501B68002B03D0214B01221A6039E01F4B6B
S113246000221A601E4B1B687B607B68B3FA83F3FF
S1132470FB70FB78C3F11F03FB601A49FA6813462B
S11324809B0013449B000B441B68002B04D116488B
S113249040F6F62100F0A6FEFA6813469B001344AA
S11324A09B00104A1344BB60BB685B685A68BB68F6
S11324B05A60BB685A68BB6808339A4204D1BB6847
S11324C05B685A68BB685A60BB685B68DB68074A2C
S11324D013601037BD4680BDE8240020D4240020BA
S11324E0C824002014240020C074000010240020FC
S11324F080B582B000AF786039607B68002B04D16E
S1132500094840F6063100F06DFE084B1B6818338D
S113251078681946FEF7C0FB3868012100F03EFBDD
S11325200837BD4680BD00BFC074000010240020E1
S113253080B584B000AFF860B9607A60FB68002BA6
S113254004D10C4840F6313100F04CFE0A4B1B68B4
S11325501833F8681946FEF77BFB7B68002B02D022
S11325604FF0FF33BB60B868796800F017FB103791
S1132570BD4680BDC07400001024002080B584B026
S113258000AF78607B68DB68DB68BB60BB68002BEE
S113259004D1244840F6613100F024FEBB681833AE
S11325A01846FEF7B1FB204B1B68002B1ED1BB68FD
S11325B004331846FEF7A8FBBB68DB6A1A460123FE
S11325C003FA02F2194B1B681343184A1360BB68E1
S11325D0DA6A13469B0013449B00154A1A44BB68ED
S11325E0043310461946FEF733FB05E0BB68183385
S11325F010481946FEF72CFBBB68DA6A0E4B1B68C1
S1132600DB6A9A4205D90123FB600C4B01221A6054
S113261001E00023FB6000F075F9FB6818461037F1
S1132620BD4680BDC0740000E8240020C8240020FA
S1132630142400208024002010240020D42400200E
S113264080B582B000AF78607B68002B04D1084865
S113265040F6C13100F0C6FD064B1A687B681A606B
S1132660054B1A687B685A600837BD4680BD00BFB9
S1132670C0740000D8240020C424002080B584B095
S113268000AF786039607B68002B04D1234840F6A2
S1132690CB3100F0A7FD3B68002B04D11F4840F666
S11326A0CC3100F09FFDFEF723FC1D4B1B68BB6083
S11326B03B681B68B3F1FF3F02D10023FB6026E0B7
S11326C07B681A68174B1B689A4207D07B685A6864
S11326D0BB689A4202D80123FB6018E07B685B6800
S11326E0BA68D21A3B681B689A420ED23B681A68D1
S11326F07B685968BB68CB1A1A443B681A607868CF
S1132700FFF79EFF0023FB6001E00123FB60FEF75F
S113271017FCFB6818461037BD4680BDC074000026
S1132720C4240020D824002080B400AF034B01222D
S11327301A60BD465DF8047B704700BFD4240020B6
S113274080B584B000AF786000F092F8FFF7BCFC6D
S1132750F860FB68012B17D9FFF7A8FC0B4B1A682C
S11327600B4B1B689A4204D20A4840F68C4100F095
S113277039FDFFF7A9FCF860FB68012B02D9F86862
S1132780FEF748FCFFF7DAFCDEE700BFE024002098
S1132790C4240020C074000080B483B000AF0123BF
S11327A03B600123FB710F4B1B68002B02D00023FD
S11327B0FB7110E00C4B1B68002B02D00023FB7153
S11327C009E00A4B1A680A4B19683B68CB1A9A420B
S11327D001D10223FB71FB7918460C37BD465DF825
S11327E0047B704780240020D4240020AC240020E3
S11327F0C024002080B582B000AF00237B600CE0D1
S11328007A6813469B0013449B00114A13441846EC
S1132810FEF7F2F97B6801337B607B68022BEFD90A
S11328200C48FEF7E9F90C48FEF7E6F90B48FEF709
S1132830E3F90B48FEF7E0F90A48FEF7DDF90A4B25
S1132840044A1A60094B044A1A600837BD4680BD21
S1132850142400205024002064240020802400201C
S113286094240020AC240020782400207C24002020
S113287080B582B000AF28E0FFF718FC164B1B6848
S1132880002B0CBF01230023DBB27B60FFF756FC57
S11328907B68002B19D1FEF72BFB0F4BDB68DB6841
S11328A03B603B6804331846FEF72EFA0B4B1B685B
S11328B0013B0A4A13600A4B1B68013B084A136038
S11328C0FEF73EFB386800F00DF8054B1B68002B43
S11328D0D2D10837BD4680BD94240020C0240020F6
S11328E0A824002080B582B000AF78607B681B6BA1
S11328F01846FEF771F97868FEF76EF90837BD4699
S113290080BD00BF80B483B000AF0E4B1B681B6852
S1132910002B01D1012300E00023002B04D00A4B3B
S11329204FF0FF321A6008E0064B1B68DB68DB6877
S11329307B607B685B68044A13600C37BD465DF8B6
S1132940047B704778240020E024002080B483B006
S113295000AF0B4B1B68002B02D101237B6008E006
S1132960084B1B68002B02D102237B6001E000238B
S11329707B607B6818460C37BD465DF8047B704766
S1132980CC240020E824002080B584B000AF786017
S11329907B68FB607B68002B64D0FB68DA6A334B8E
S11329A01B68DB6A9A425DD2FB689B69002B06DBDD
S11329B02E4B1B68DB6AC3F10302FB689A61FB6858
S11329C05969FB68DA6A13469B0013449B00284A42
S11329D01344994201D1012300E00023002B3CD091
S11329E0FB6804331846FEF78FF90346002B15D114
S11329F0FB68DA6A1E4913469B0013449B000B4490
S1132A001B68002B0AD1FB68DB6A1A46012393403A
S1132A10DA43184B1B681340164A1360134B1B68A8
S1132A20DA6AFB68DA62FB68DB6A1A46012303FA96
S1132A3002F2104B1B6813430E4A1360FB68DA6AF8
S1132A4013469B0013449B00094A1A44FB68043351
S1132A5010461946FEF7FCF804E0044B1B68DA6ADA
S1132A60FB68DA621037BD4680BD00BF1024002029
S1132A7014240020C824002080B584B000AF7860FE
S1132A807B68BB600023FB607B68002B64D0354B04
S1132A901B68BA689A4204D0334840F6C76100F014
S1132AA0A1FBBB685B6C002B04D12F4840F6C961C5
S1132AB000F098FBBB685B6C5A1EBB685A64BB6829
S1132AC0DA6ABB681B6C9A4246D0BB685B6C002B0D
S1132AD042D1BB6804331846FEF716F90346002BAF
S1132AE015D1BB68DA6A214913469B0013449B0045
S1132AF00B441B68002B0AD1BB68DB6A1A4601230E
S1132B009340DA431A4B1B681340194A1360BB689D
S1132B101A6CBB68DA62BB68DB6AC3F10302BB6888
S1132B209A61BB68DB6A1A46012303FA02F2104B6E
S1132B301B6813430E4A1360BB68DA6A13469B0092
S1132B4013449B00094A1A44BB68043310461946CF
S1132B50FEF77EF80123FB60FB6818461037BD467C
S1132B6080BD00BF10240020C07400001424002085
S1132B70C824002080B400AF074B1B68002B04D08E
S1132B80054B1B685A6C01325A64034B1B68184688
S1132B90BD465DF8047B70471024002080B584B0E6
S1132BA000AF78603960284B1B68FB60274B1B68BB
S1132BB004331846FEF7A8F80346002B0BD1234B29
S1132BC01B68DB6A1A4601239340DA43204B1B68D7
S1132BD013401F4A13607B68B3F1FF3F0AD13B687F
S1132BE0002B07D0194B1B6804331A481946FEF70B
S1132BF02FF826E0FA687B681344BB60134B1B680C
S1132C00BA685A60BA68FB689A4209D2124B1A68C9
S1132C100E4B1B68043310461946FEF73DF810E0CE
S1132C200E4B1A68094B1B68043310461946FEF70D
S1132C3033F80B4B1B68BA689A4202D2084ABB6845
S1132C4013601037BD4680BDC4240020102400202A
S1132C50C8240020AC2400207C24002078240020F8
S1132C60E024002080B584B002AF00237B6000F034
S1132C7083FA0E4B1B68002B0AD0022300930C4BE3
S1132C8001930C480C498C220023FEF75BFF78600B
S1132C907B68002B04D1094840F2331100F0A2FAFA
S1132CA07B6818460837BD4680BD00BF1C25002040
S1132CB020250020D92D0000387500004075000043
S1132CC080B588B000AFF860B9607A603B600023DB
S1132CD0FB61FB68002B04D11F484FF4D37100F053
S1132CE081FA1E4B1B68002B30D0BB683B617B68AC
S1132CF07B61FB68BB61BB68052B1CDCFFF726FE10
S1132D000346022B0BD1154B1A6807F1100310462A
S1132D101946BA6A0023FEF74BFBF86116E00F4B25
S1132D201A6807F110031046194600220023FEF723
S1132D303FFBF8610AE0094B1A6807F110031046DB
S1132D4019463A680023FEF711FCF861FB6918463E
S1132D502037BD4680BD00BF407500001C25002003
S1132D6080B586B002AF78603960194B1B68DB68A8
S1132D70DB68FB60FB6804331846FDF7C5FFFB689E
S1132D80DB69012B1DD1FB689A697B681344F868E1
S1132D9019463A687B6800F0C3F80346002B10D04C
S1132DA000230093F86800217A680023FFF788FF66
S1132DB0B860BB68002B04D106484FF4027100F0E0
S1132DC011FAFB685B6AF86898471037BD4680BD06
S1132DD0142500204075000080B584B000AF7860F1
S1132DE007F10803184600F057F8F860BB68F86864
S1132DF0194600F003F800F0D5F8F1E780B584B087
S1132E0000AF78603960FFF751F907F108031846FD
S1132E1000F066F8F860BB68002B31D13B68002BEA
S1132E200AD17A68FB689A4206D8FFF787F978686E
S1132E30F968FFF795FF25E03B68002B08D0134B9A
S1132E401B681B68002B0CBF01230023DBB23B6013
S1132E500F4B19687A68FB68D31A084619463A6812
S1132E60FEF73AFEFFF76AF90346002B0AD1094B35
S1132E704FF080521A60BFF34F8FBFF36F8F01E0A2
S1132E80FFF75CF91037BD4680BD00BF1825002050
S1132E901C25002004ED00E080B485B000AF78600C
S1132EA00E4B1B681B68002B0CBF01230023DBB2F5
S1132EB01A467B681A607B681B68002B05D1074B98
S1132EC01B68DB681B68FB6001E00023FB60FB6898
S1132ED018461437BD465DF8047B7047142500205E
S1132EE080B584B000AF7860FFF7C2F9F8600B4B8F
S1132EF01B68FA689A4205D200F0E2F87B68012266
S1132F001A6002E07B6800221A60044AFB681360BE
S1132F10FB6818461037BD4680BD00BF242500203D
S1132F2080B586B000AFF860B9607A603B6000237A
S1132F307B61FB68BA685A60FB68FA681A61BA6810
S1132F407B689A4212D87A683B68D21AFB689B69FC
S1132F509A4202D301237B611BE0104B1A68FB6881
S1132F60043310461946FDF797FE12E07A683B6871
S1132F709A4206D2BA683B689A4202D301237B6123
S1132F8007E0074B1A68FB68043310461946FDF73F
S1132F9083FE7B6918461837BD4680BD182500207E
S1132FA01425002080B58AB002AF73E0BB68002B03
S1132FB070DB3B69FB61FB695B69002B04D0FB6937
S1132FC004331846FDF7A0FE3B1D1846FFF788FFA3
S1132FD0B861BB68092B5CD801A252F823F000BF8A
S1132FE0093000000930000009300000953000006D
S1132FF05D3000008B300000093000000930000013
S1133000953000005D300000FA68FB699B691A4442
S1133010FB68F8691146BA69FFF782FF0346002B83
S11330201BD0FB695B6AF8699847FB69DB69012B74
S113303013D1FA68FB699B691A4400230093F86969
S113304000210023FFF73CFE78617B69002B04D14B
S1133050194840F2213100F0C5F81BE0FA68FB6919
S11330609A61FB699B69002B04D113484FF44E719C
S113307000F0B8F8FB699A69BB691344F86919460A
S1133080BA69BB69FFF74CFF04E0F869FDF7A4FDDA
S113309000E000BF094B1A6807F1080310461946FF
S11330A000220023FEF7E0FA0346002B7FF47EAFF4
S11330B02037BD4680BD00BF407500001C250020A0
S11330C080B588B002AF3FE0284B1B68DB681B6803
S11330D07B61264B1B68DB68DB683B613B6904331F
S11330E01846FDF711FE3B695B6A386998473B69EE
S11330F0DB69012B28D13B699A697B691344FB6026
S1133100FA687B699A420ED93B69FA685A603B694E
S11331103A691A61154B1A683B690433104619461B
S1133120FDF7BAFD10E000230093386900217A69A5
S11331300023FFF7C5FDB860BB68002B04D10C4821
S113314040F2923100F04EF8084B1B681B68002BCC
S1133150BAD1064B1B687B60064B1B68034A13609D
S1133160044A7B6813601837BD4680BD14250020CF
S1133170407500001825002080B500AFFDF7B8FEAB
S1133180124B1B68002B1DD11148FDF735FD11486A
S1133190FDF732FD104B0E4A1A60104B0D4A1A60AF
S11331A00A200C210022FEF7AFF80246074B1A60F2
S11331B0064B1B68002B05D0044B1B6818460849B6
S11331C0FEF762FCFDF7BCFE80BD00BF1C2500209D
S11331D0EC240020002500201425002018250020C0
S11331E0B475000080B483B000AF78603960FEE746
S11331F080B487B000AFF860B9607A60FB6803F10F
S11332000473DA00BB6813449B007B617B697A68B2
S11332101A601C37BD465DF8047B704780B485B0E6
S113322000AF786039607B6803F10473DA003B68AF
S113323013449B00FB60FB681B6818461437BD46AB
S11332405DF8047B704700BF80B584B000AF786040
S11332507B68002B03D07B68B3F5004F04D9084882
S113326040F2AB61FFF7BEFF7B68B3FA83F3C3F1AF
S11332701F03FB60FB6818461037BD4680BD00BFC6
S1133280BC75000080B400AF044BDB6C1B0EDBB2DA
S11332901846BD465DF8047B704700BFB081E00F5F
S11332A080B400AF054BDB6C03F47F031B0CDBB273
S11332B01846BD465DF8047B704700BFB081E00F3F
S11332C080B582B000AFFFF7EBFF03464A2B04D072
S11332D0792B02D0482B21D022E0164B1B699BB2DC
S11332E003F03F039BB21B02FB80124B9B6903F06C
S11332F0F0039AB2FB881343FB800E4BDB6903F0A7
S1133300F0031B099AB2FB881343FB80FB88B3F5D7
S1133310017F01D3084B09E0084B07E0074B05E0A8
S113332007484FF49F71FFF75DFF002318460837E5
S1133330BD4680BDD0FF0FE000366E010048E801B5
S11333402076000080B584B000AF78600123FB6074
S1133350FFF7B6FF02467B689A4204D30023FB6062
S11333600023BB600BE0FFF7ABFF03465A007B680A
S11333709A4202D30123BB6001E00223BB600848E8
S11333801E21FA68FFF734FF0549054B5B6823F4F7
S11333908072BB681B0213434B601037BD4680BD6F
S11333A000800C4080B582B000AF05481E21FFF7B5
S11333B035FF78607B6818460837BD4680BD00BF7E
S11333C000800C4080B582B000AF244B5B6903F4ED
S11333D0E063B3F5007F1CD0B3F5007F05D8002B64
S11333E025D0B3F5807F1FD02AE0B3F5C06F24D079
S11333F0B3F5E06F1ED0B3F5407F21D1FFF742FF54
S11334000346122B02D9164B7B6021E0154B7B60DF
S11334101EE0FFF737FF0346122B02D9124B7B60E5
S113342016E0124B7B6013E0114B7B6010E0114BF4
S11334307B600DE0104B7B600AE0104B7B6007E083
S113344000237B600E4840F2BD11FFF7CBFE00BFA6
S11334507B6818460837BD4680BD00BF00800C401D
S1133460804F120040420F0040B56400C0CF6A0094
S1133470C0D8A700809FD500406F4001003FAB013A
S11334802076000080B582B000AF0F4800F034FC15
S11334900346FB70FB78072B05D0092B07D1FCF7FB
S11334A05BFF78600BE0FFF78DFF786007E0002397
S11334B07B60064840F2F711FFF794FE00BF7B687B
S11334C018460837BD4680BD06000C002076000073
S11334D080B485B000AF78603960204B5B6803F03E
S11334E00703FB60FB68012B01D9042B02D10023E5
S11334F0FB7202E00123FB7200BF7B68184A93420F
S113350007D9FB7A002B01D0052300E00423FB60DC
S113351016E07B68124A93420BD87B68114A9342A7
S113352007D9FB7A002B01D0032300E00123FB60C1
S113353006E0FB7A002B01D0022300E00023FB60AD
S11335400649064B5B6823F00702FB6813434B6094
S11335501437BD465DF8047B704700BF00000C4083
S11335600048E8010024F40080B582B000AF0D4BA0
S1133570DB6B002B14BF01230023FB71094B41F6C5
S11335807132DA63FCF7DEFE034618460021FFF7CA
S11335909FFFFB79002B02D0024B0022DA6308372D
S11335A0BD4680BD00000C4080B584B000AF78609B
S11335B039600C4BDB6B002B14BF01230023FB731E
S11335C0084B41F67132DA6378683968FFF780FF97
S11335D0FB7B002B02D0034B0022DA631037BD467D
S11335E080BD00BF00000C4090B585B000AF78608E
S11335F00023BB607B683B4A934208D03A4A93421B
S113360005D03A484FF48061FFF7ECFD00E000BFBD
S1133610786800F071FB0346FB607B68314A934293
S113362003D0314A934206D00CE0314B9B6A03F03D
S11336300303FB600CE02E4B9B6A03F00C039B0816
S1133640FB6005E0294840F22F41FFF7CBFD00BFA6
S1133650FB68032B39D801A252F823F093360000FB
S11336606D360000753600007D360000FCF706FF5D
S1133670B86032E0FCF716FFB8602EE0FCF748FEB5
S11336800446FFF78FFE0346013324FA03F3BB60BD
S113369023E00023BB607B68124A934203D07B681B
S11336A0114A934210D1124B9A6A7B680D498B429E
S11336B001D1102300E0142322FA03F3002B03D0DA
S11336C0FCF7E6FEB86008E007E00023BB600748AB
S11336D040F25A41FFF786FD00BFBB681846143715
S11336E0BD4690BD02001A0003001C0020760000B5
S11336F000800C4080B483B000AF7860094B5B6DF0
S113370003F00103002B00D006E000BF054B1A6D47
S11337107B681340002BF9D10C37BD465DF8047B60
S1133720704700BF00800C4080B582B000AF1048E5
S113373000F0E2FA0346FB70FB78032B07D0092B59
S113374009D0022B0BD1FCF7ADFE78600AE0FCF740
S113375095FE786006E0FCF7FFFD786002E0002348
S11337607B6000BF7B6818460837BD4680BD00BF3C
S113377007232200B0B584B000AF786039607B685D
S11337801B0903F00F03FB60FB68013B062B00F2EF
S11337903A8101A252F823F0B5370000073A00003D
S11337A0073A0000F3370000253800007B3800009A
S11337B0873900003B68002B02D03B68082B04D9F2
S11337C095484FF4E261FFF70DFDFFF7CDFE9349F5
S11337D0924B1B6823F4E0323B68013B9B03134389
S11337E00B60FCF795FDB860B8680021FFF7DCFEBC
S11337F00FE13B68002B03D03B68B3F5007F04D98D
S1133800854840F22371FFF7EDFC3868FFF71CFD93
S113381038608249814B9B6823F00F023B68134355
S11338208B60F6E03B68002B03D03B68B3F5007F68
S113383004D9794840F22B71FFF7D4FCFFF794FECA
S1133840FCF78AFD02463B68B2FBF3F31846FFF728
S113385079FD3868FFF7F8FC386070496F4B5B6896
S113386023F00F023B6813434B60FCF751FDB86033
S1133870B8680021FFF798FECBE07B68684A934262
S113388027D0674A934203D8664A934207D073E02D
S1133890654A934237D0654A934255D06CE03B6801
S11338A0B3F5004F04D95C4840F24671FFF79AFC27
S11338B00420FFF71FFF3868FFF7C6FC386057493C
S11338C0564B9B6E23F0F0023B681B0113438B663F
S11338D058E03B68B3F5004F04D94F4840F25471A7
S11338E0FFF780FC0420FFF705FF3868FFF7ACFC06
S11338F038604A49494B9B6E23F470623B681B0253
S113390013438B663EE03B680F2B02D93B68802B48
S113391004D9414840F26371FFF764FC0420FFF7C7
S1133920E9FE3868FFF790FC38603C4D3B4B9B6EDA
S113393023F440541020FFF787FC02463B689B1A8F
S11339401B032343AB661DE03B68082B04D93248B4
S113395040F27371FFF746FC0420FFF7CBFE386892
S1133960FFF772FC38602D492C4B9B6E23F0030249
S11339703B6813438B6605E0274840F28171FFF7EB
S113398031FC00BF45E07B68294A934203D0294AB1
S1133990934218D030E03B68082B04D91E4840F20B
S11339A08A71FFF71FFC4020FFF7A4FE3868FFF779
S11339B04BFC38601949194B1B6F23F003023B6819
S11339C013430B671EE03B68082B04D9124840F2EE
S11339D09971FFF707FC4020FFF78CFE3868FFF76A
S11339E033FC38600D490D4B1B6F23F030023B68EC
S11339F01B0113430B6705E0074840F2A771FFF76B
S1133A00F1FB00BF05E0044840F2AD71FFF7EAFBAB
S1133A1000BF1037BD46B0BD2076000000800C40CA
S1133A2060261400601610006000260060062A005C
S1133A30700716007017180080B586B000AF786064
S1133A400B46FB7000233B617B681B0A03F00F03EA
S1133A50013B092B33D801A252F823F0993A000014
S1133A609F3A0000853A0000BF3A0000BF3A0000C8
S1133A70A53A0000AF3A0000BF3A0000BF3A000088
S1133A80B93A00001B4B7B611B4800F043F8034626
S1133A901846FFF757FC18E0184B7B6115E0184BEC
S1133AA07B6112E0174B7B6101233B610DE0164BF8
S1133AB07B6110233B6108E0144B7B6105E01448F3
S1133AC040F62B01FFF78EFB10E07B681B0B03F025
S1133AD01F03FB603B69002B02D03869FFF70AFE25
S1133AE0FB787869F9681A46FFF782FB1837BD46F8
S1133AF080BD00BF40800C400043020008800C40A1
S1133B0044800C4058800C4060800C4078800C400D
S1133B102076000090B585B000AF78607B6803F430
S1133B207813B3F5B01F00F0AB80B3F5B01F1AD80B
S1133B30B3F5402F00F0BF80B3F5402F08D8B3F59C
S1133B40003F3CD0B3F5802F2DD0002B27D0BEE012
S1133B50B3F5801F3CD0B3F5A01F47D0B3F5602F59
S1133B6000F0AD80B3E0B3F5081F00F0AC80B3F50E
S1133B70081F0AD8B3F5D01F25D0B3F5E01F7AD0BB
S1133B80B3F5C01F00F08980A1E0B3F5201F4ED02B
S1133B90B3F5281F62D0B3F5181F35D097E0FCF7B2
S1133BA0DBFBF8609BE0FCF7D7FBF8604E4B9B68AF
S1133BB003F00F031A46FB68D340FB608FE0FCF769
S1133BC0A7FBF8608BE04948FFF70EFDF86086E03C
S1133BD04648FFF709FDF860434B9B6E03F0F00382
S1133BE01B091A46FB68D340FB6078E03F48FFF7A7
S1133BF0FBFCF8603C4B9B6E03F470631B0A1A4693
S1133C00FB68D340FB606AE03848FFF7EDFCF860DE
S1133C10354B9B6E03F440531C0B1020FFF714FB31
S1133C20034623441A46FB68D340FB6057E02F4801
S1133C30FFF7DAFCF8602C4B9B6E03F440531B0B2C
S1133C401A46FB68D340FB60274BDB6F03F0070386
S1133C500133FA68B2FBF3F3FB6040E02348FFF75B
S1133C60C3FCF860204B9B6E03F003031A46FB6809
S1133C70D340FB6033E01E48FFF7B6FCF8602EE04B
S1133C801B48FFF7B1FCF860174B1B6F03F00303ED
S1133C901A46FB68D340FB6021E01548FFF7A4FCFB
S1133CA0F860114B1B6F03F030031B091A46FB68C5
S1133CB0D340FB6013E0FFF7E5FBF8600FE0FFF78C
S1133CC081FBF8600BE0FFF72FFDF86007E00023AD
S1133CD0FB6008484FF41261FFF784FA00BFFB68E9
S1133CE018461437BD4690BD00800C4002001A00EF
S1133CF003001C002076000080B584B000AF78601B
S1133D000123FB737B6803F00F03BB60BB68013BBB
S1133D10062B00F2938001A252F823F0393D0000F3
S1133D206F3D0000AB3D00003D3E00003D3E000005
S1133D30E73D0000093E0000474BDB6A03F4705383
S1133D40B3F5805F09D0B3F5005F03D0B3F5006F1E
S1133D5006D008E00223FB7308E00323FB7305E0AD
S1133D600423FB7302E00523FB7300BF6EE03A4BB0
S1133D709B6A03F00303022B06D0032B07D0012B0D
S1133D8008D10323FB730FE00223FB730CE006232B
S1133D90FB7309E0304B9B6A03F48033002B02D0A1
S1133DA00A23FB7300E000BF50E02B4B9B6A03F037
S1133DB00C03082B06D00C2B07D0042B08D10323AB
S1133DC0FB730FE00223FB730CE00623FB7309E093
S1133DD0214B9B6A03F48013002B02D00A23FB734C
S1133DE000E000BF32E01C4B1B6803F08053002B43
S1133DF003D0B3F1805F03D028E00723FB7302E014
S1133E000923FB7300BF21E0134BDB6A03F4603327
S1133E10B3F5803F08D0B3F5003F08D0B3F5004FA9
S1133E2008D10923FB7308E00223FB7305E0032395
S1133E30FB7302E00123FB7300BF07E00023FB7365
S1133E40064840F6D141FFF7CDF900BFFB7B184689
S1133E501037BD4680BD00BF00800C4020760000B6
S1133E6080B588B000AF78600B46FB700323FB611C
S1133E700323FB7600233B617B6803F00F03FB60A5
S1133E80FB68013B062B00F2438101A252F823F0A8
S1133E90AD3E00009B3F00009B3F0000114100002D
S1133EA011410000694000009F400000FB78023B84
S1133EB0082B52D801A252F823F000BFE13E0000C3
S1133EC0EB3E0000F53E0000373F00005B3F000082
S1133ED05B3F00005B3F00005B3F00004F3F000082
S1133EE00423FB610023FB763DE00323FB610123F4
S1133EF0FB7638E00223FB610223FB76FFF7E0F94F
S1133F00034601331846FFF71DFAFCF7A5FA0246EB
S1133F10844B9A4206D9844A834B1B6843F060035E
S1133F20136020E0804A804B1B6823F0600343F059
S1133F302003136017E00123FB610323FB76FFF7E3
S1133F40BFF9034601331846FFF7FCF90BE0774845
S1133F5040F67651FFF746F9E0E0744840F67B51AD
S1133F60FFF740F9DAE0FB7E18460121012200F058
S1133F7009F9FFF7F9FA6C4AFB6953626C48FFF7D9
S1133F80C9FD03461846FFF7DDF9FCF7C1F9B8602F
S1133F90B8680021FFF708FBC0E0FB78013B092B60
S1133FA03CD801A252F823F0D13F0000D73F0000D3
S1133FB0E73F00001D4000001D400000F73F0000E7
S1133FC01D4000001D4000001D4000001340000083
S1133FD000237B6128E000200121012200F0D2F8B7
S1133FE002237B6120E001200121012200F0CAF8B4
S1133FF001237B6118E0FCF78BF9B860B868FFF720
S1134000A1F94C4804210122FFF7F2F803237B6154
S11340100AE000237B6101233B6105E0434840F64D
S11340201D61FFF7DFF879E0FB68022B0DD13E49F3
S11340303D4B9B6A23F4803323F003037A691A43CC
S11340403B691B0413438B6268E03749364B9B6A18
S113405023F4801323F00C037A6992001A433B691A
S11340601B0513438B6259E0FB78072B02D0092B05
S113407007D00DE02C4A2C4B1B6823F080531360AF
S11340800CE0294A284B1B6843F08053136005E079
S1134090264840F67861FFF7A5F83FE03EE0FB785C
S11340A0032B13D0092B21D0022B2AD1002001216C
S11340B0012200F067F81C4B40225A6200BF1A4BE1
S11340C0DB6A03F48033002BF9D020E001200121C6
S11340D0012200F057F8144B60225A6200BF124BC1
S11340E0DB6A03F40033002BF9D010E00E4B2022DE
S11340F05A6200BF0C4BDB6A03F40043002BF9D077
S113410005E00A4840F6B761FFF76CF806E005E001
S1134110064840F68C71FFF765F800BF2037BD46AE
S113412080BD00BF0048E80100800C4020760000FC
S11341300043020040800C4080B582B000AF78603C
S11341407B68802B04D90D4841F2AB21FFF74AF874
S11341500B4B9B6D03F00803002B00D00BE07B6836
S113416003F007037B600649054BDB6F23F007026E
S11341707B681343CB670837BD4680BD20760000BB
S113418000800C4080B586B000AF0346FB710B463F
S1134190BB7113467B71FB79042B32D801A252F810
S11341A023F000BFF1410000E3410000C7410000DB
S11341B0B9410000D541000001233B610223FB60AB
S11341C001237B6123E004233B610823FB60032379
S11341D07B611CE010233B612023FB6005237B6192
S11341E015E040233B618023FB6007237B610EE0E5
S11341F04FF480733B614FF40073FB6009237B61D0
S113420005E00F4841F25631FEF7ECFF14E0BB79AC
S1134210002B0ED00B4A3B6913627B79002B0BD029
S113422000BF09487969FEF7F9FF0346002BF8D06F
S113423002E0044AFB6813621837BD4680BD00BF24
S11342402076000000800C402C800C4080B487B0A5
S113425000AFF860B9607A60FB6803F10473DA00B8
S1134260BB6813449B007B617B697A681A601C37C6
S1134270BD465DF8047B704780B485B000AFF8603C
S1134280B9607A60FB681A68BB68DB431A407B68D4
S11342901A43FB681A601437BD465DF8047B704707
S11342A080B582B000AF03463960FB71FB79002B07
S11342B01FD0FB79012B19D0FB79022B13D0FB798A
S11342C0032B0DD0FB79042B07D0FB79052B02D1EE
S11342D041F6FF730FE000230DE04FF6FF730AE091
S11342E04FF6FF7307E04FF6FF7304E04FF6FF73DA
S11342F001E04FF6FF733A68134103F00103002B0A
S113430004D10B484FF45D71FEF76CFF0949FA794B
S11343103B68012000FA03F318461346DB001344FC
S11343209B000B44103358600837BD4680BD00BF66
S1134330847600000060004080B582B000AF034680
S11343403960FB71FB79002B1FD0FB79012B19D04D
S1134350FB79022B13D0FB79032B0DD0FB79042BB3
S113436007D0FB79052B02D141F6FF730FE0002340
S11343700DE04FF6FF730AE04FF6FF7307E04FF6C8
S1134380FF7304E04FF6FF7301E04FF6FF733A68E2
S1134390134103F00103002B04D10B4840F2A13177
S11343A0FEF720FF0949FA793B68012000FA03F37C
S11343B018461346DB0013449B000B44103318606B
S11343C00837BD4680BD00BF847600000060004011
S11343D080B586B000AFB9607A601A460346FB73B5
S11343E01346BB7300237B61FB7B002B1FD0FB7B3D
S11343F0012B19D0FB7B022B13D0FB7B032B0DD09D
S1134400FB7B042B07D0FB7B052B02D141F6FF730A
S11344100FE000230DE04FF6FF730AE04FF6FF7341
S113442007E04FF6FF7304E04FF6FF7301E04FF629
S1134430FF73BA68134103F00103002B03D1224830
S1134440C421FEF7CFFE7B68072B0ED87B689B0048
S11344501A46072303FA02F1FB7B7A689200934021
S11344601A481A46FFF708FF10E07B68083B7B6197
S11344707B699B001A46072303FA02F1FB7B7A69E6
S11344809200934012481A46FFF7F6FEBB7B114890
S113449079681A46FFF7DAFE97F820300E487968F3
S11344A01A46FFF7D3FE0D4A7B68012101FA03F394
S11344B0C2F81C3197F82430094879681A46FFF786
S11344C0C5FE1837BD4680BDE87600000061004097
S11344D004610040086100400C610040006000403D
S11344E01061004090B585B000AFB9607B600346B1
S11344F0FB731346BB73FB7B002B1FD0FB7B012B91
S113450019D0FB7B022B13D0FB7B032B0DD0FB7B41
S1134510042B07D0FB7B052B02D141F6FF730FE080
S113452000230DE04FF6FF730AE04FF6FF7307E038
S11345304FF6FF7304E04FF6FF7301E04FF6FF738D
S1134540BA68134103F00103002B04D1374840F249
S11345500F11FEF747FEBB7B002B0DD07B68002BB1
S113456005D0FB7B1846B968FFF7E6FE04E0FB7B49
S11345701846B968FFF794FEBB68072B1CD82C4C6F
S1134580FA7B2B48F97B0B46DB000B449B0003446E
S11345905968BB689B0018460F238340DB430B40DC
S11345A0B97BB8688000814019431346DB0013448B
S11345B09B002344596024E01D4CFA7B1C48F97B82
S11345C00B46DB000B449B00034408331968BB68AB
S11345D003F18043083B9B0018460F238340DB43D1
S11345E01940B87BBB6803F18043083B9B0000FA89
S11345F003F319431346DB0013449B00234408339D
S11346001960BB7B002B0DD17B68002B05D0FB7B95
S11346101846B968FFF790FE04E0FB7B1846B968BA
S1134620FFF73EFE1437BD4690BD00BFE87600009C
S11346300060004080B483B000AF0346FB71FB7997
S1134640002B06D0084A084B1B6843F00103136093
S113465005E0054A044B1B6823F0010313600C3783
S1134660BD465DF8047B704700A0084080B487B065
S113467000AFF860B9607A60FB6803F10473DA0094
S1134680BB6813449B007B617B697A681A601C37A2
S1134690BD465DF8047B704780B584B000AF786098
S11346A01D4B5B68FB607B68002B03D11B484721D3
S11346B0FEF798FD0020FFF7BDFFFB6823F483039A
S11346C023F01F03FB607B685B68FA681343FB609D
S11346D07B681B7A1A46FB681343FB607B685B7A32
S11346E01A46FB681343FB607B68DB68FA68134374
S11346F0FB607B681B8A1A46FB681343FB60064A0F
S1134700FB6853607B681B78002B02D00120FFF705
S113471091FF1037BD4680BD00A008404C770000D3
S113472080B485B000AF78600D4B5B68FB60FB68BC
S113473023F48033FB607B68002B08D0B3F5803F03
S113474000D005E0FB6843F48033FB6000E000BF69
S1134750034AFB6853601437BD465DF8047B704719
S113476000A0084080B483B000AF03460A46FB8033
S113477013467B717B79002B06D00949084B9A6854
S1134780FB8813438B6006E00549054B9A68FB8858
S1134790DB4313408B600C37BD465DF8047B7047E8
S11347A000A0084080B584B000AFF860B96013463B
S11347B0FB71FB68072B04DD6E4840F21911FEF70C
S11347C011FDBB68272B04DD6A484FF49071FEF796
S11347D009FDFB68072B00F2C38001A252F823F005
S11347E0014800002D480000594800008548000099
S11347F0B1480000DD4800000949000035490000C7
S1134800BB681F2B07DCBA68FB795B4811461A4664
S1134810FFF72CFFAAE0BB68203BBB60BA68FB79BA
S1134820564811461A46FFF721FF9FE0BB681F2B2D
S113483007DCBA68FB79524811461A46FFF716FF9F
S113484094E0BB68203BBB60BA68FB794D481146D5
S11348501A46FFF70BFF89E0BB681F2B07DCBA6819
S1134860FB79494811461A46FFF700FF7EE0BB6812
S1134870203BBB60BA68FB79444811461A46FFF7EF
S1134880F5FE73E0BB681F2B07DCBA68FB79404870
S113489011461A46FFF7EAFE68E0BB68203BBB609E
S11348A0BA68FB793B4811461A46FFF7DFFE5DE024
S11348B0BB681F2B07DCBA68FB79374811461A46D8
S11348C0FFF7D4FE52E0BB68203BBB60BA68FB79BB
S11348D0324811461A46FFF7C9FE47E0BB681F2B52
S11348E007DCBA68FB792E4811461A46FFF7BEFE6C
S11348F03CE0BB68203BBB60BA68FB7929481146A1
S11349001A46FFF7B3FE31E0BB681F2B07DCBA6819
S1134910FB79254811461A46FFF7A8FE26E0BB6836
S1134920203BBB60BA68FB79204811461A46FFF762
S11349309DFE1BE0BB681F2B07DCBA68FB791C4893
S113494011461A46FFF792FE10E0BB68203BBB609D
S1134950BA68FB79174811461A46FFF787FE05E047
S113496004484FF4C571FEF73DFC00BF1037BD4647
S113497080BD00BF4C77000040A0084050A0084014
S113498044A0084054A0084048A0084058A008404B
S11349904CA008405CA00840CCA00840B4A008404B
S11349A0D0A00840B8A00840D4A00840BCA008404B
S11349B0D8A00840C0A0084080B586B000AFF86019
S11349C0B9607A60FB68072B04DD5F4840F2A311ED
S11349D0FEF708FCFB68072B00F2AC8001A252F83A
S11349E023F000BF054A0000294A00004D4A000098
S11349F0714A0000954A0000BD4A0000E54A0000E3
S1134A000D4B0000514B1B6C7B61BB68DB437A6927
S1134A1013407B61BA687B6813407A6913437B61F6
S1134A204A4A7B6913648BE0484B5B6C7B61BB68CF
S1134A30DB437A6913407B61BA687B6813407A6907
S1134A4013437B61414A7B69536479E03F4B9B6C20
S1134A507B61BB68DB437A6913407B61BA687B681E
S1134A6013407A6913437B61384A7B69936467E036
S1134A70364BDB6C7B61BB68DB437A6913407B613B
S1134A80BA687B6813407A6913437B612F4A7B6958
S1134A90D36455E02D4BD3F8CC307B61BB68DB434A
S1134AA07A6913407B61BA687B6813407A6913435F
S1134AB07B61264A7B69C2F8CC3041E0234BD3F8B2
S1134AC0D0307B61BB68DB437A6913407B61BA6891
S1134AD07B6813407A6913437B611C4A7B69C2F883
S1134AE0D0302DE0194BD3F8D4307B61BB68DB4365
S1134AF07A6913407B61BA687B6813407A6913430F
S1134B007B61124A7B69C2F8D43019E00F4BD3F8A9
S1134B10D8307B61BB68DB437A6913407B61BA6838
S1134B207B6813407A6913437B61084A7B69C2F846
S1134B30D83005E0044840F2E311FEF753FB00BF10
S1134B401837BD4680BD00BF4C77000000A0084068
S1134B5080B586B000AFF860B9607A60FB68072B57
S1134B6004DD5C4840F2FB11FEF73CFBFB68072BBD
S1134B7000F2AC8001A252F823F000BF9D4B00006C
S1134B80C14B0000E54B0000094C00002D4C000017
S1134B90554C00007D4C0000A54C00004E4B1B6D95
S1134BA07B61BB68DB437A6913407B61BA687B68CD
S1134BB013407A6913437B61474A7B69136586E036
S1134BC0454B5B6D7B61BB68DB437A6913407B615A
S1134BD0BA687B6813407A6913437B613E4A7B69F8
S1134BE0536574E03C4B9B6D7B61BB68DB437A6926
S1134BF013407B61BA687B6813407A6913437B6115
S1134C00354A7B69936562E0334BDB6D7B61BB683E
S1134C10DB437A6913407B61BA687B6813407A6925
S1134C2013437B612C4A7B69D36550E02A4BD3F84C
S1134C30B4307B61BB68DB437A6913407B61BA683B
S1134C407B6813407A6913437B61234A7B69C2F80A
S1134C50B4303CE0204BD3F8B8307B61BB68DB4315
S1134C607A6913407B61BA687B6813407A6913439D
S1134C707B61194A7B69C2F8B83028E0164BD3F837
S1134C80BC307B61BB68DB437A6913407B61BA68E3
S1134C907B6813407A6913437B610F4A7B69C2F8CE
S1134CA0BC3014E00C4BD3F8C0307B61BB68DB43F1
S1134CB07A6913407B61BA687B6813407A6913434D
S1134CC07B61054A7B69C2F8C03000E000BF183739
S1134CD0BD4680BD4C77000000A0084080B483B07E
S1134CE000AF78600649064B5B6823F4E0127B68EA
S1134CF013434B600C37BD465DF8047B704700BF1F
S1134D0000A0084080B487B000AFF860B9607A6052
S1134D10FB6803F10473DA00BB6813449B007B61F6
S1134D207B697A681A601C37BD465DF8047B70475E
S1134D3080B400AF034B00229A60BD465DF8047B4B
S1134D40704700BF00600C4080B400AF034B4AF6CC
S1134D50E8529A60BD465DF8047B704700600C40E1
S1134D6080B582B000AF0F4B01229A600E4B9B6856
S1134D7003F001037B607B68002B01D0FFF7E4FFA5
S1134D800A4800210122FFF7BDFF08480021002244
S1134D90FFF7B8FF7B68002B01D0FFF7C9FF083786
S1134DA0BD4680BD00A00C4000600C4024600C4057
S1134DB080B485B000AF174B5B687B600023FB6059
S1134DC00023BB601CE0144ABB68DB0013445B682F
S1134DD03B60114ABB6852F833207B681340002BB8
S1134DE00BD07A683B681340002B06D10A4ABB6893
S1134DF052F83330FA681343FB60BB680133BB607D
S1134E00BB680F2BDFD9FB6818461437BD465DF825
S1134E10047B704700A00C40B077000080B584B0DC
S1134E2000AF78607B68002B03D11B483E21FEF75E
S1134E30D9F91A4B5B69DBB203F00F03DBB29B00B9
S1134E40FB73164B1B6903F0C0039B09DAB2FB7BAF
S1134E501343FB737B68FA7B9A70104B1B69DBB2BC
S1134E6003F03F03DAB27B685A700C4B9B6903F082
S1134E70F0031B09DBB21B01FB73084BDB6903F076
S1134E80F0031B09DAB2FB7B1343FB737B68FA7BE9
S1134E901A701037BD4680BD30780000D0FF0FE097
S1134EA080B483B000AF78607B680D4A93420BD026
S1134EB07B680C4A934207D07B680B4A934203D029
S1134EC07B680A4A934201D1012300E0002303F0E6
S1134ED00103DBB218460C37BD465DF8047B70470E
S1134EE0000001400004014000080140000C0140A2
S1134EF080B582B000AF786039607868FFF7D0FF82
S1134F000346002B03D134484D21FEF76BF93B686F
S1134F101B7883F00103DBB2002B02D07B680222F2
S1134F205A607B6800225A623B689B781A063B6889
S1134F30DB781B041A433B689B799B021A433B684A
S1134F40DB791B0213433A68127A1A433B685B7895
S1134F50002B01D0402300E000231A433B685B7A16
S1134F60002B01D0802300E000231A433B689B7A86
S1134F70002B01D0202300E000231A433B68DB7A96
S1134F80002B01D0102300E000231A433B681B7957
S1134F90002B02D04FF4005300E000231A433B6877
S1134FA05B79002B02D04FF0805300E000231A43BA
S1134FB03B681B7B002B01D0082300E000231A432D
S1134FC07B681A603B681B78002B02D07B68012247
S1134FD05A600837BD4680BD0079000080B586B0B0
S1134FE000AFF860B9607A60FB707B68002B03D176
S1134FF04348C621FEF7F6F8BB68002B03D14148AD
S1135000FEF788FDB860FB78202B15D0202B02DC3E
S1135010002B05D037E0402B1AD0602B27D032E08C
S1135020BB681A097B689A4203D23548EC21FEF723
S1135030D9F810237B612CE0BB68DA087B689A42BC
S113504003D22F48F121FEF7CDF808237B6120E03D
S1135050BB682D4AA2FB03239A087B689A4203D2B9
S11350602748F621FEF7BEF806237B6111E0BB68F2
S11350709A087B689A4203D22148FB21FEF7B2F8D2
S113508004237B6105E01E4840F20111FEF7AAF8F3
S113509032E0BB689A007B69796801FB03F35B0823
S11350A013443B617B697A6802FB03F33A69B2FB00
S11350B0F3F33B613B69043B3B613B699B013B610F
S11350C03B69124A934204D90D4840F21711FEF786
S11350D089F83A690D4B13403B61FB681B6823F068
S11350E06002FB681A60FB681A68FB781A43FB6865
S11350F01A60FB683A695A611837BD4680BD00BF23
S11351001479000040810400ABAAAAAAC0FF1F00C2
S113511080B584B000AF78600B46FB707B68144A9E
S1135120934214D07B68134A934210D07B68124A8E
S113513093420CD07B68114A934208D07B68104A92
S1135140934204D00F4840F21E21FEF74BF8FB783F
S1135150DB43FB60FB6803F00503FB60FB685A005C
S11351607B68DA60FA787B68DA601037BD4680BD08
S113517000C0004000C4004000C8004000E00040FF
S113518000E400401479000080B582B000AF78607C
S113519039607B68264A934214D07B68254A93423F
S11351A010D07B68244A93420CD07B68234A9342F4
S11351B008D07B68224A934204D0224840F2452119
S11351C0FEF710F8786800F03FF83B689B7C002BF2
S11351D005D07B681B6843F080427B681A603B689B
S11351E0DB7C002B07D03B681B7D43F01003DBB254
S11351F01A467B689A653B685B7B1A463B681B8A48
S113520013433A68D2891A437B685A603B685968E9
S11352103B689A683B681B7B7868FFF7DFFE3B6856
S11352201B781A467B68DA600837BD4680BD00BF2C
S113523000C0004000C4004000C8004000E000403E
S113524000E400401479000080B582B000AF7860BB
S11352507B68254A934214D07B68244A934210D039
S11352607B68234A93420CD07B68224A934208D03D
S11352707B68214A934204D020484FF45771FDF7CC
S1135280B1FF7B6840F6AA62DA607B6800221A608C
S11352907B6841F205025A607B6800229A607B6851
S11352A000225A617B680022DA647B6841F6F97255
S11352B09A647B6800225A657B680B4A934202D148
S11352C07B6800221A657B6800229A657B68074A1E
S11352D0934203D07B68064A934202D17B68002242
S11352E0DA650837BD4680BD00C0004000C40040F8
S11352F000C8004000E0004000E4004014790000D1
S113530080B483B000AF786000BF7B681B6903F092
S11353108003002BF9D07B68DB69DBB218460C37BD
S1135320BD465DF8047B704780B483B000AF03468C
S1135330FB71084997F907305B09FA7902F01F02FB
S1135340012000FA02F241F823200C37BD465DF833
S1135350047B704700E100E080B483B000AF0346F3
S1135360FB71094997F907305B09FA7902F01F02CA
S1135370012000FA02F2603341F823200C37BD46C5
S11353805DF8047B704700BF00E100E080B483B0A7
S113539000AF03463960FB7197F90730002B0BDA35
S11353A00D49FB7903F00F03043B3A68D2B2520172
S11353B0D2B20B441A7609E0084997F907303A68E3
S11353C0D2B25201D2B20B4483F800230C37BD464B
S11353D05DF8047B704700BF00ED00E000E100E0F1
S11353E080B483B000AF7860044A7B68C2F81C3193
S11353F00C37BD465DF8047B704700BF0060004079
S113540090B585B002AF396011461A460346FB7168
S11354100B46BB7113467B71FA79BC797B79009397
S11354203B7E0193104639683A682346FEF7D0FF65
S11354300C37BD4690BD00BF80B400AF044BDB6C9D
S11354401B0EDBB21846BD465DF8047B704700BFF7
S1135450B081E00F80B582B000AFFFF7EDFF0346E7
S1135460FB713B1D1846FFF7D9FCFB790F2B0AD9BA
S11354703B79022B07D9054A044B1B6823F05003E0
S113548043F0100313600837BD4680BDC0800C4054
S113549080B483B000AF78604FF6FF7318460C37C2
S11354A0BD465DF8047B704780B483B000AF78607C
S11354B07B685B6A18460C37BD465DF8047B704711
S11354C080B483B000AF786039607B683A689A61D1
S11354D00C37BD465DF8047B704700BF80B483B0D1
S11354E000AF786039607B68DA683B681A437B6890
S11354F0DA600C37BD465DF8047B704780B582B036
S113550000AF786039607868FFF7C2FF02463B68F5
S11355109A4204D2054840F29B31FDF763FE7B6852
S11355203A68DA610837BD4680BD00BF28790000BB
S113553080B582B000AF7860074B1B681846002125
S11355404FF0FF320023FCF78FF80346012B02D102
S11355500248FBF7F3F9EFE78C250020982500209B
S113556080B582B000AF7860264B1B68042B1ADC30
S1135570254B57221A70244B41225A70224B492240
S11355809A70214B54221A711F4B00225A711F4BDF
S11355901B681846002100220023FBF709FF0020A6
S11355A0FCF728FC2DE0174B1B68013B154A1360E0
S11355B0144B1B68092B01DD312200E03022124B11
S11355C01A70104B1A68124B83FB02139910D317ED
S11355D0C91A0B469B000B445B00D11ACBB2303383
S11355E0DAB2094B5A70084B00229A70074B1B68B9
S11355F01846002100220023FBF7DAFE8020FCF786
S1135600C9FBB1E710000020982500208C2500205C
S11356106766666680B584B000AF17480121FEF75F
S11356200BFA16480121FFF759FF144843F2685159
S1135630FFF764FF3B4600221A60043300221A601D
S1135640043300221A60043300221A700133012348
S11356503B7001237B700A23BB703B460748194605
S1135660FFF746FC0220FFF75FFE04480121FFF725
S113567035FF1037BD4680BD0052040000000140D4
S113568080B582B002AF12480121FEF7D5F901209E
S1135690092101220023FEF725FF012300930120A5
S11356A0092101220023FFF7ABFE0B20FFF754FE74
S11356B00120FFF739FE0B20FFF74EFE0B20FFF70A
S11356C033FE0B200021FFF761FEBD4680BD00BF05
S11356D000D2040080B582B000AF7860034B1B6831
S11356E00348194600F00CFDF8E700BF2825002008
S11356F09079000080B500AF05480121FFF7E0FE76
S1135700044B1B78DBB20133DAB2024B1A7080BD52
S1135710000001402C250020B0B500AF2048FFF761
S1135720C3FE02461F4B1A601E4B1B68184600F04E
S1135730E9F902460B461046194617A3D3E900239C
S113574000F056FA02460B4614461D46164B1B78CB
S1135750DBB2184600F0E6F902460B46204629461D
S113576000F094F802460B461046194600F052FC2D
S113577002460E4B1A600D4B1B680D48194600F08B
S1135780BFFC0C4B1B681846FCF7EEFB4FF4007093
S1135790FFF726FEB0BD00BF6666666666465240E9
S11357A000000140942500202C25002028250020FD
S11357B094790000A025002080B582B002AFFFF7E5
S11357C049FEFAF7F3FC00200021FBF759F9032006
S11357D0FBF786F9FAF712FF0120FAF7F9FE002029
S11357E0FBF750F8FFF716FFFFF74AFF01200021EF
S11357F00322FBF789FD0246184B1A60174B1B68FE
S1135800002B07D0154B1B681846002100220023EB
S1135810FBF7CEFD01230093114B0193114812496C
S113582096220023FCF78EF9022300930F4B019379
S11358300F48104996220023FCF784F902230093B1
S1135840002301930C480D4996220023FCF77AF9B2
S1135850FCF7E4FB00231846BD4680BD8C250020E0
S1135860A4250020D556000098790000A02500202A
S113587061550000A079000031550000A8790000AE
S113588081F0004102E000BF83F0004330B54FEAED
S113589041044FEA430594EA050F08BF90EA020F5A
S11358A01FBF54EA000C55EA020C7FEA645C7FEAED
S11358B0655C00F0E2804FEA5454D4EB5555B8BF10
S11358C06D420CDD2C4480EA020281EA030382EA81
S11358D0000083EA010180EA020281EA0303362D13
S11358E088BF30BD11F0004F4FEA01314FF4801CE6
S11358F04CEA113102D0404261EB410113F0004FF8
S11359004FEA03334CEA133302D0524263EB4303AE
S113591094EA050F00F0A780A4F10104D5F1200E4C
S11359200DDB02FA0EFC22FA05F2801841F10001A7
S113593003FA0EF2801843FA05F359410EE0A5F17B
S113594020050EF1200E012A03FA0EFC28BF4CF0AC
S1135950020C43FA05F3C01851EBE37101F0004562
S113596007D54FF0000EDCF1000C7EEB00006EEB6F
S11359700101B1F5801F1BD3B1F5001F0CD34908F9
S11359805FEA30004FEA3C0C04F101044FEA445250
S113599012F5800F80F09A80BCF1004F08BF5FEAD7
S11359A0500C50F1000041EB045141EA050130BDB7
S11359B05FEA4C0C404141EB010111F4801FA4F15A
S11359C00104E9D191F0000F04BF01460020B1FAAF
S11359D081F308BF2033A3F10B03B3F120020CDAE7
S11359E00C3208DD02F1140CC2F10C0201FA0CF0C5
S11359F021FA02F10CE002F11402D8BFC2F1200C2A
S1135A0001FA02F120FA0CFCDCBF41EA0C019040DF
S1135A10E41AA2BF01EB0451294330BD6FEA040428
S1135A201F3C1CDA0C340EDC04F11404C4F1200213
S1135A3020FA04F001FA02F340EA030021FA04F325
S1135A4045EA030130BDC4F10C04C4F1200220FA7C
S1135A5002F001FA04F340EA0300294630BD21FABA
S1135A6004F0294630BD94F0000F83F4801306BF80
S1135A7081F480110134013D4EE77FEA645C18BF74
S1135A807FEA655C29D094EA050F08BF90EA020F0B
S1135A9005D054EA000C04BF1946104630BD91EA03
S1135AA0030F1EBF0021002030BD5FEA545C05D106
S1135AB04000494128BF41F0004130BD14F5800445
S1135AC03CBF01F5801130BD01F0004545F0FE41B9
S1135AD041F470014FF0000030BD7FEA645C1ABFEE
S1135AE0194610467FEA655C1CBF0B46024650EA25
S1135AF0013406BF52EA033591EA030F41F4002151
S1135B0030BD00BF90F0000F04BF0021704730B5D6
S1135B104FF4806404F132044FF000054FF00001AB
S1135B2050E700BF90F0000F04BF0021704730B56C
S1135B304FF4806404F1320410F0004548BF404241
S1135B404FF000013EE700BF42004FEAE2014FEA96
S1135B5031014FEA02701FBF12F07F4393F07F4F71
S1135B6081F06051704792F0000F14BF93F07F4FA3
S1135B70704730B54FF4607401F0004521F00041E6
S1135B8020E700BF50EA010208BF704730B54FF06C
S1135B9000050AE050EA010208BF704730B511F071
S1135BA0004502D5404261EB41014FF4806404F1A9
S1135BB032045FEA915C3FF4DCAE4FF003025FEA2B
S1135BC0DC0C18BF03325FEADC0C18BF033202EBB3
S1135BD0DC02C2F1200300FA03FC20FA02F001FA0D
S1135BE003FE40EA0E0021FA02F11444C1E600BFAC
S1135BF070B54FF0FF0C4CF4E06C1CEA11541DBF5F
S1135C001CEA135594EA0C0F95EA0C0F00F0DEF829
S1135C102C4481EA030621EA4C5123EA4C5350EA0E
S1135C20013518BF52EA033541F4801143F480135F
S1135C3038D0A0FB02CE4FF00005E1FB02E506F0F0
S1135C400042E0FB03E54FF00006E1FB03569CF045
S1135C50000F18BF4EF0010EA4F1FF04B6F5007F4B
S1135C6064F5407404D25FEA4E0E6D4146EB0606BD
S1135C7042EAC62141EA55514FEAC52040EA5E5046
S1135C804FEACE2EB4F1FD0C88BFBCF5E06F1ED8F0
S1135C90BEF1004F08BF5FEA500E50F1000041EB27
S1135CA0045170BD06F0004646EA010140EA0200D4
S1135CB081EA0301B4EB5C04C2BFD4EB0C0541EAF6
S1135CC0045170BD41F480114FF0000E013C00F30B
S1135CD0AB8014F1360FDEBF002001F0004170BD2F
S1135CE0C4F10004203C35DA0C341BDC04F1140448
