S011000048756D616E44656C61792E733337FB
S113000000000220C5020000F1020000F10200001D
S1130010F1020000F1020000F1020000F102000010
S1130020F1020000F1020000F10200006110000082
S1130030F1020000F102000001120000451200006C
S1130040F1020000F102000081570000F1020000FB
S1130050F1020000F1020000F1020000F1020000D0
S1130060F1020000F1020000F1020000A9570000B3
S1130070F1020000F1020000F1020000E1060000BC
S1130080F1020000F1020000F1020000F1020000A0
S1130090F1020000F1020000F1020000F102000090
S11300A0F1020000F1020000F1020000F102000080
S11300B0F1020000F1020000F1020000F102000070
S11300C0F1020000F1020000F1020000F102000060
S11300D0F1020000F1020000F102000010B5054C2D
S11300E0237833B9044B13B10448AFF300800123E0
S11300F0237010BD8400002000000000A07A0000DE
S1130100084B10B51BB108480849AFF300800848F4
S1130110036803B910BD074B002BFBD0BDE81040AA
S1130120184700BF00000000A07A000088000020EB
S11301308000002000000000154B002B08BF134B6B
S11301409D46A3F5803A00218B460F461348144A76
S1130150121A06F0F4F80F4B002B00D098470E4B00
S1130160002B00D098470020002104000D000D480A
S1130170002802D00C48AFF3008006F0AFF820004E
S1130180290005F05BFB05F09FFF00BF000008009D
S11301900000022000000000000000008400002095
S11301A0A8250020000000000000000080B582B0F7
S11301B000AF3A4A394B5B6C43F400535364384AFA
S11301C0374BD3F8203143F00403C2F82031344ACA
S11301D0334BD3F8203123F44073C2F82031304A32
S11301E02F4BD3F8B83023F47063C2F8B8302C4ADC
S11301F02B4BD3F8B83043F48063C2F8B830274BA4
S113020010221A6200BF254BDB6A03F02003002B87
S1130210F9D0244A234B1B6843F001031360214A9D
S1130220204BDB6843F08073D3601F4B1F4A1A6076
S11302301F4803F093FC034603F5D52303F2FC4364
S11302407B607B68DB081B4AA2FB03239B0A3B60A1
S1130250194A3B68013B1361174B0222C3F8F02093
S1130260154B4FF48072C3F804234FF06043134AD4
S1130270C3F8B02F4FF06043114AC3F8802E4FF0FB
S113028060424FF06043D3F8003E43F00103C2F8EC
S1130290003E012318460837BD4680BD00800C404F
S11302A000600040F0ED00E0001000E0FF130140AA
S11302B006000C0017916502000004E055CEACC5A1
S11302C009000100064880470649074A074B9A423D
S11302D0BEBF51F8040B42F8040BF8E7FFF72CFFFC
S11302E071040000AC7A00000000002084000020AB
S11302F0FEE700BF80B400AF044BDB6C1B0EDBB227
S11303001846BD465DF8047B704700BFB081E00F1E
S113031080B582B000AF00F01FF87860074B5B68CF
S113032003F00F031A467B68D3407B60044A7B6862
S113033013607B6818460837BD4680BD00800C40BA
S11303400800002080B400AF024B1846BD465DF89B
S1130350047B7047006CDC0280B582B000AF334B85
S1130360DB6A03F47053B3F5805F0AD0B3F5005F22
S113037003D0B3F5006F08D00BE02D4B1B687B60F6
S113038047E04FF400437B6043E02A4B1B687B60EB
S11303903FE0264BDB6803F4E063B3F5007F1BD03A
S11303A0B3F5007F05D8002B24D0B3F5807F16D099
S11303B02BE0B3F5806F09D0B3F5A06F03D0B3F58C
S11303C0407F06D021E01C4B7B6021E01B4B7B600F
S11303D01EE01B4B7B601BE01A4B7B6018E0FFF7B1
S11303E089FF0346122B02D9174B7B6010E0174B91
S11303F07B600DE0FFF77EFF0346122B02D9144BFE
S11304007B6005E0134B7B6002E000237B6000BF50
S113041000BF064B1B6803F4E0339B0B01337A687F
S1130420B2FBF3F318460837BD4680BD00800C408C
S11304300400002000000020003FAB01406F400199
S1130440809FD500C0D8A70040B56400C0CF6A0023
S1130450804F120040420F0080B400AF034B1B6872
S11304601846BD465DF8047B704700BF00000020BD
S113047080B400AFBD465DF8047B704780B400AF24
S11304804FF400431846BD465DF8047B704700BF37
S113049080B400AF4FF47A731846BD465DF8047B10
S11304A0704700BF80B400AF034B1B681846BD46BD
S11304B05DF8047B704700BF0400002080B483B063
S11304C000AF7860002318460C37BD465DF8047B06
S11304D0704700BF80B483B000AF7860FEE700BF10
S11304E080B483B000AF786039603B684FF4005249
S11304F05A60002318460C37BD465DF8047B7047EC
S113050080B483B000AF7860012318460C37BD4631
S11305105DF8047B704700BF80B485B000AFF8601D
S1130520B9607A60002318461437BD465DF8047B31
S1130530704700BF80B586B000AFF860B9607A60DC
S113054000237B6111E000F07BF938613B69B3F172
S1130550FF3F09D0BB685A1CBA603A69D2B21A701C
S11305607B6901337B6100E004E07B685A1E7A609A
S1130570002BE8D17B69002B02DC4FF0FF3300E055
S11305807B6918461837BD4680BD00BF90B585B05D
S113059000AF7860184B1B68002B02D1164B174A2A
S11305A01A60154B1B68FB60134B1A687B68134475
S11305B0EFF3088214462246934212D9104B1B686B
S11305C09B68184605F094FD04460E4806F009F8A9
S11305D0034620460B491A4600F016F8012005F0A0
S11305E073FD054B1A687B681344034A1360FB6868
S11305F018461437BD4690BDA0000020A825002051
S1130600740000209070000080B586B000AFF860E0
S1130610B9607A6000237B6109E0BB685A1CBA6048
S11306201B78184600F04AF97B6901337B617A69CB
S11306307B689A42F1DB7B6818461837BD4680BD5B
S113064080B483B000AF0346FB71084997F90730C3
S11306505B09FA7902F01F02012000FA02F241F864
S113066023200C37BD465DF8047B704700E100E0B1
S113067080B483B000AF0346FB71094997F9073092
S11306805B09FA7902F01F02012000FA02F26033DA
S113069041F823200C37BD465DF8047B704700BF4A
S11306A000E100E080B483B000AF786039607B681B
S11306B03A689A640C37BD465DF8047B704700BF06
S11306C080B483B000AF786039607B68DA6C3B68D3
S11306D01A437B68DA640C37BD465DF8047B7047C7
S11306E098B500AF164B1B6903F08003002B26D08E
S11306F0144B1C68124804F045FE03461A46124B7C
S11307001A55104B1B6801330E4A13600F4B1B68BC
S113071001330E4A13600B4B1B68082B02D1094BA3
S113072000221A60094B1B68082B08DD054B0022C8
S11307301A60064B00221A60054B00221A6098BD0D
S113074000C40040A8000020B0000020AC0000203D
S1130750A400002080B483B000AF78607B68002BD5
S113076003D0064B01221A7002E0044B00221A70D7
S11307700C37BD465DF8047B704700BFB80000200D
S1130780B0B588B000AF2748012103F079F92648B5
S1130790012103F075F9032000210422012303F051
S11307A0E3FE032001210122002303F0DDFE1F4BA1
S11307B0FB611F4B3C1D1D460FCD0FC495E8030084
S11307C084E803001B48012103F05AF900233B711C
S11307D03B1DF869194604F019FDFB6940F2031248
S11307E05A6512480421FFF75DFF0F20FFF740FF11
S11307F00E480421FFF764FF0F20FFF721FFF8697B
S1130800052104F0C7FC0C4B1B689B6818460021AB
S11308100222002305F01AFE084B01221A70203729
S1130820BD46B0BD4081040000D2040000C40040B5
S1130830AC7000000012040074000020B900002015
S113084080B582B000AF4FF0FF337B60174B1B784D
S113085083F00103DBB2002B01D0FFF791FF03F01B
S113086019FD3860124B1B68002B16DD114B1B68F9
S1130870114AD35CDBB27B600E4B1B6801330D4A1B
S113088013600C4B1B68082B02D10A4B00221A6020
S1130890074B1B68013B064A1360386803F00AFDE6
S11308A07B6818460837BD4680BD00BFB9000020EC
S11308B0AC000020A4000020B000002080B582B06D
S11308C000AF0346FB71144B1B7883F00103DBB2CA
S11308D0002B01D0FFF754FF104B1B78002B06D0E0
S11308E0FB790A2B03D10E480D2104F05FFDFB793F
S11308F00B48194604F05AFD084B1B78002B06D010
S1130900FB790D2B03D106480A2104F04FFDFB7936
S113091018460837BD4680BDB9000020B800002045
S113092000C4004080B483B000AF0346FB71FB7980
S1130930002B03D0054B01221A6602E0034B002270
S11309401A660C37BD465DF8047B704700A008406A
S113095080B483B000AF786000BF054B5A6E7B68EB
S11309601340002BF9D10C37BD465DF8047B70476A
S113097000A0084080B483B000AF78600549054BFF
S11309809A6A7B68DB4313408B620C37BD465DF883
S1130990047B704700A0084080B500AF00202849C0
S11309A0002204F04BF801202549002204F046F807
S11309B002202349002204F041F8032020490022A8
S11309C004F03CF804201E49002204F037F8052006
S11309D01B49002204F032F806201949002204F0D1
S11309E02DF807201649002204F028F80020FF21E2
S11309F0002204F0EFF80120FF21002204F0EAF8BD
S1130A000220FF21002204F0E5F80320FF21002248
S1130A1004F0E0F80420FF21002204F0DBF80520B4
S1130A20FF21002204F0D6F80620FF21002204F062
S1130A30D1F80720FF21002204F0CCF880BD00BFCC
S1130A4000F00FF080B500AF07202649002203F024
S1130A50F5FF06202449002203F0F0FF0520224977
S1130A60002203F0EBFF04201F49002203F0E6FFFD
S1130A7003201D49002203F0E1FF02201A4900224D
S1130A8003F0DCFF01201849002203F0D7FF002007
S1130A904FF02041002203F0D1FF0720072100225C
S1130AA004F098F806200721002204F093F80520AA
S1130AB00721002204F08EF804200721002204F00C
S1130AC089F803200721002204F084F8022007217A
S1130AD0002204F07FF801200721002204F07AF8B4
S1130AE080BD00BF00E00F5000E00FF080B582B081
S1130AF000AF0346FB712548012102F0C1FF2448E1
S1130B00032103F0D1F92348402102F057FE0120CC
S1130B1003F036FB2048012102F0B2FF4FF0FF3012
S1130B20FFF728FF1D4803F0F9FD0820012103F019
S1130B305BFE1020012103F057FE8020012103F009
S1130B4053FE4FF48070012103F04EFE4FF4007009
S1130B50012103F049FEFB79002B0DD04FF4402016
S1130B6004F0FEF84FF4803003F01CFE0C4A0C4BEA
S1130B70DB6F43F00803D367FFF70EFF4FF0FF303E
S1130B80FFF7E6FE0837BD4680BD00BF0043020004
S1130B9002001A0060002600003628007C73000062
S1130BA000800C4080B58AB000AF7860786805F0AA
S1130BB018FD0346BB6100233B624FF0FF30FFF793
S1130BC0C7FE0120FFF7AEFEFFF73CFF00233B62A8
S1130BD046E03A6ABB699A4203DA7B681B787B6217
S1130BE001E020237B627B6A203B7B62214A7B6A93
S1130BF032F81330FB820023FB6128E01E493A6A75
S1130C001346DB009B1A9B00CA18FB691344083384
S1130C109B793B6118493A6A1346DB009B1A9B0097
S1130C20FA6913440B441B78FB60FA8AFB6942FAA5
S1130C3003F303F00103002B06D0FA683B69104666
S1130C401946012203F0F0FDFB690133FB61FB69E6
S1130C500D2BD3DD7B6801337B603B6A01333B6240
S1130C603B6A062BB5DD0020FFF75CFE2837BD4646
S1130C7080BD00BFC4720000C470000080B487B09F
S1130C8000AFF860B9607A60FB6803F10473DA00BE
S1130C90BB6813449B007B617B697A681A601C37CC
S1130CA0BD465DF8047B704780B500AF0248012162
S1130CB00122FFF7E3FF80BD00600C4080B582B0E5
S1130CC000AF0346FB71074B1B68002B04D0054B98
S1130CD01B68FA7910469847012318460837BD4621
S1130CE080BD00BFC800002080B582B000AF78602E
S1130CF03960114A7B681360104B114A1A600F4A1D
S1130D003B6853600F4B00221A700E4B00225A703E
S1130D1004F090F8034603F48073002B09D004F028
S1130D2061F8064B5B68002B03D0044B5B6804201E
S1130D3098470837BD4680BDC8000020BC0000208D
S1130D40BD0C0000CC00002080B582B000AF03468B
S1130D50FB71FB79012B02D9FB79032B04D91348CE
S1130D604FF4957102F062FAFB79023B104AD35CAE
S1130D70FF2B04D10D4840F22B1102F057FAFB79F6
S1130D80022B02D0FB79032B0CD1FB79023B084ADE
S1130D90D25C0132D1B2064AD154FB79022B01D183
S1130DA0FFF782FF0837BD4680BD00BF9073000087
S1130DB0CC00002080B584B000AF78600023FB60D5
S1130DC07B6803F00703002B04D07B6823F0070340
S1130DD008337B6001F08EF9164B1B68002B05D19C
S1130DE0154B23F007031A46124B1A60134B1A686B
S1130DF07B68134442F21F32934213D80F4B1A6894
S1130E007B681A440D4B1B689A420BD9094B1A682C
S1130E100A4B1B681344FB60084B1A687B68134435
S1130E20064A136001F0AEF9FB6818461037BD4658
S1130E3080BD00BFFC230020D8000020F823002040
S1130E4080B582B000AF78607B68002B03D0034884
S1130E50AB2102F0EBF90837BD4680BDA473000056
S1130E6080B483B000AF78607B6803F108027B68CC
S1130E705A607B684FF0FF329A607B6803F1080286
S1130E807B68DA607B6803F108027B681A617B681F
S1130E9000221A600C37BD465DF8047B704700BF22
S1130EA080B483B000AF78607B6800221A610C378D
S1130EB0BD465DF8047B704780B485B000AF7860B0
S1130EC039607B685B68FB603B68FA685A60FB6862
S1130ED09A683B689A60FB689B683A685A60FB684A
S1130EE03A689A603B687A681A617B681B685A1C86
S1130EF07B681A601437BD465DF8047B704700BFF9
S1130F0080B485B000AF786039603B681B68BB6013
S1130F10BB68B3F1FF3F03D17B681B69FB600CE046
S1130F207B680833FB6002E0FB685B68FB60FB687E
S1130F305B681A68BB689A42F6D9FB685A683B68D2
S1130F405A603B685B683A689A603B68FA689A60E2
S1130F50FB683A685A603B687A681A617B681B6868
S1130F605A1C7B681A601437BD465DF8047B7047D1
S1130F7080B485B000AF78607B681B69FB607B68D8
S1130F805B687A6892689A607B689B687A68526842
S1130F905A60FB685A687B689A4203D17B689A68F6
S1130FA0FB685A607B6800221A61FB681B685A1E42
S1130FB0FB681A60FB681B6818461437BD465DF869
S1130FC0047B704780B485B000AFF860B9607A6084
S1130FD0FB68043BFB60FB684FF080721A60FB689F
S1130FE0043BFB60BB6823F00102FB681A60FB68EA
S1130FF0043BFB60094AFB681A60FB68143BFB6016
S11310007A68FB681A60FB68203BFB60FB68184643
S11310101437BD465DF8047B704700BF2110000003
S113102080B582B000AF094B1B68B3F1FF3F03D01A
S11310300748F22102F0FAF84FF0BF0383F3118856
S1131040BFF36F8FBFF34F8F7B60FEE70C00002070
S113105028740000000000000000000000000000F0
S1131060074B19680868B0E8F00F80F30988BFF3EC
S11310706F8F4FF0000080F311884EF00D0E704713
S11310801424002006480068006880F3088862B6CB
S113109061B6BFF34F8FBFF36F8F00DF00BF000057
S11310A008ED00E080B584B000AF284BFB60FB681E
S11310B01B78DBB2BB60FB68FF221A70FB681B78ED
S11310C0DBB2FB71FB79DBB223F04003DAB2204BD5
S11310D01A70204B07221A6009E01E4B1B68013B63
S11310E01C4A1360FB79DBB25B00DBB2FB71FB795A
S11310F0DBB2DBB25BB2002BEFDB164B1B681B02CF
S1131100144A1360134B1B6803F4E063114A136021
S1131110BB68DAB2FB681A700F4A0F4B1B6843F4C2
S11311207F0313600C4A0C4B1B6843F07F4313602E
S113113000F068F9094B00221A60FFF7A3FFFFF7DC
S11311406FFF002318461037BD4680BD00E400E061
S11311500C2400201024002020ED00E00C000020CE
S113116080B582B000AF4FF0BF0383F31188BFF3A3
S11311706F8FBFF34F8F7B600A4B1B680133094AA3
S11311801360084B1B68012B09D1074B1B68DBB2AA
S1131190002B04D0054840F27F1102F047F80837CD
S11311A0BD4680BD0C00002004ED00E02874000062
S11311B080B582B000AF0D4B1B68002B04D10C48E6
S11311C04FF4C37102F032F8084B1B68013B074A25
S11311D01360064B1B68002B04D100237B607B68E3
S11311E083F311880837BD4680BD00BF0C00002082
S11311F0287400000000000000000000000000004F
S1131200EFF30980BFF36F8F0D4B1A6820E9F00FDD
S113121010602DE908404FF0BF0080F3118801F001
S113122037F94FF0000080F31188BDE808401968D1
S11312300868B0E8F00F80F30988BFF36F8F704738
S11312401424002080B582B000AF4FF0BF0383F3B5
S11312501188BFF36F8FBFF34F8F7B6001F05CF891
S11312600346002B03D0064B4FF080521A60002334
S11312703B603B6883F311880837BD4680BD00BFDF
S113128004ED00E080B588B000AF7860574B1B6870
S11312907A689A4202D9554B1B687B60544A544B76
S11312A01B6823F001031360524B1A687B68013BEF
S11312B05149096801FB03F31344FB614F4B1B685D
S11312C0FA699A4204D94D4B1B68FA69D31AFB6137
S11312D072B6BFF34F8FBFF36F8F01F081FA0346ED
S11312E0002B10D1464A434B1B681360404A404BC5
S11312F01B6843F001031360414A3F4B1B68013BE9
S1131300136062B66FE03E4AFB691360394B0022FA
S11313101A60374A364B1B6843F0010313607B683D
S11313203B613B69002B04D0BFF34F8F30BFBFF349
S11313306F8F2F4B1B68FB602D4AFB6823F0010362
S1131340136062B6FB6803F48033002B1DD02A4B74
S11313501A68284B1968FB69CB1A1344013B7B615B
S1131360264B1B687A699A4204D3234B1B687A691B
S11313709A4203D9204B1B68013B7B61204A7B695D
S113138013607B68013BBB6118E01B4B1B687A68E8
S113139002FB03F2174B1B68D31ABB60164B1B6886
S11313A0BA68B2FBF3F3BB611549BB690133124A56
S11313B0126802FB03F2BB68D31A0B600D4B0022C8
S11313C01A60FFF7CDFE0A4A094B1B6843F001037C
S11313D01360B86900F080FF094A074B1B68013BA2
S11313E01360FFF7E5FE2037BD4680BD04240020CE
S11313F010E000E018E000E00024002008240020B1
S113140014E000E080B400AF0B4B80221A600A4B5A
S11314101B686FF07F42B2FBF3F3084A1360084B7A
S113142000221A60074B7F221A60074B03221A60BE
S1131430BD465DF8047B704700240020042400208E
S11314400824002014E000E010E000E080B582B041
S113145000AFEFF305837B607B680F2B0ED90F4A37
S11314607B6813441B78FB700D4B1B78FA789A4207
S113147004D20C4840F29E2101F0D8FE0A4B1B68AE
S113148003F4E062094B1B689A4204D9054840F210
S1131490AE2101F0CBFE0837BD4680BDF0E300E08D
S11314A00C240020287400000CED00E0102400201F
S11314B080B584B000AF786039607B68FB60FB68FE
S11314C0002B04D12A4840F21B1101F0AFFEFFF7B4
S11314D047FEFB681A68FB68DB6BF968096C01FB63
S11314E003F31A44FB685A60FB6800229A63FB68A2
S11314F01A68FB689A60FB681A68FB68DB6B013B3F
S1131500F968096C01FB03F31A44FB68DA60FB68B1
S1131510FF2283F84420FB68FF2283F845203B68C0
S1131520002B14D1FB681B69002B1AD0FB68103305
S1131530184601F047F80346002B12D00D4B4FF02C
S113154080521A60BFF34F8FBFF36F8F09E0FB68BF
S113155010331846FFF784FCFB6824331846FFF762
S11315607FFCFFF725FE012318461037BD4680BDDA
S1131570AC74000004ED00E090B58BB002AFF860ED
S1131580B9601346FB71FB68002B04D114484FF477
S1131590C47101F04BFEBB68002B02D10023FB6138
S11315A004E0FB68BA6802FB03F3FB61FB694833A0
S11315B01846FFF7FFFBB861BB69002B0BD0BB6972
S11315C048337B61FC79BB690093F868B9687A6930
S11315D0234600F007F8BB6918462437BD4690BD82
S11315E0AC74000080B584B000AFF860B9607A6074
S11315F0FB70BB68002B03D1BB69BA691A6002E0B7
S1131600BB697A681A60BB69FA68DA63BB69BA684D
S11316101A64B8690121FFF74BFF1037BD4680BD3E
S113162080B58AB000AFF860B9607A603B6000238F
S11316307B62FB683B623B6A002B04D1654840F245
S1131640D92101F0F3FDBB68002B08D13B6A1B6C68
S1131650002B04D05F4840F2DA2101F0E7FD3B683B
S1131660022B08D13B6ADB6B012B04D0594840F2B2
S1131670DB2101F0DBFD01F08DF90346002B07D1DE
S11316807B68002B04D0534840F2DE2101F0CEFDEC
S1131690FFF766FD3B6A9A6B3B6ADB6B9A4202D3A7
S11316A03B68022B29D1386AB9683A6800F012FA0B
S11316B0F8613B6A5B6A002B10D03B6A24331846FE
S11316C000F080FF0346002B13D0434B4FF08052B1
S11316D01A60BFF34F8FBFF36F8F0AE0FB69002BD3
S11316E007D03D4B4FF080521A60BFF34F8FBFF3CA
S11316F06F8FFFF75DFD012367E07B68002B03D14B
S1131700FFF756FD002360E07B6A002B06D107F14A
S11317101403184600F0B8FF01237B62FFF748FD6D
S113172000F0E8FCFFF71CFD3B6A93F84430DBB2A1
S11317305BB2B3F1FF3F03D13B6A002283F844203C
S11317403B6A93F84530DBB25BB2B3F1FF3F03D1A0
S11317503B6A002283F84520FFF72AFD07F11402B3
S11317603B1D1046194600F0ADFF0346002B24D163
S1131770386A00F0A9FA0346002B18D03B6A03F13B
S113178010027B681046194600F0D6FE386A00F055
S113179033FA00F0F7FC0346002B15D10E4B4FF043
S11317A080521A60BFF34F8FBFF36F8F0CE0386A1B
S11317B000F022FA00F0E6FC6AE7386A00F01CFA4E
S11317C000F0E0FC002300E062E718462837BD463D
S11317D080BD00BFAC74000004ED00E080B58CB0A7
S11317E000AFF860B9607A603B60FB68BB62BB6ABB
S11317F0002B04D1374840F29F3101F017FDBB683C
S1131800002B08D1BB6A1B6C002B04D031484FF469
S1131810687101F00BFD3B68022B08D1BB6ADB6BDE
S1131820012B04D02B4840F2A13101F0FFFCFFF75B
S11318300DFEEFF311824FF0BF0383F31188BFF362
S11318406F8FBFF34F8FFA61BB61FB697B62BB6A29
S11318509A6BBB6ADB6B9A4202D33B68022B2CD196
S1131860BB6A93F8453087F82330B86AB9683A6898
S113187000F030F997F92330B3F1FF3F12D1BB6A7E
S11318805B6A002B16D0BB6A2433184600F09AFE1C
S11318900346002B0ED07B68002B0BD07B68012203
S11318A01A6007E097F823300133DBB2DAB2BB6A7F
S11318B083F845200123FB6201E00023FB627B6A7D
S11318C07B617B6983F31188FB6A18463037BD4618
S11318D080BD00BFAC74000080B58AB000AFF86072
S11318E0B9607A603B6000237B62FB683B623B6AC1
S11318F0002B04D1754840F2DC4101F097FCBB6831
S1131900002B08D13B6A1B6C002B04D06F4840F2BB
S1131910DD4101F08BFC01F03DF80346002B07D1BB
S11319207B68002B04D069484FF49C6101F07EFC75
S1131930FFF716FC3B6A9B6BFB61FB69002B46D0EF
S11319403B6ADB68BB61386AB96800F02FF93B6811
S1131950002B21D1FB695A1E3B6A9A633B6A1B68C0
S1131960002B04D101F02AF902463B6A5A603B6A13
S11319701B69002B27D03B6A1033184600F022FE67
S11319800346002B1FD0524B4FF080521A60BFF316
S11319904F8FBFF36F8F16E03B6ABA69DA603B6A18
S11319A05B6A002B0FD03B6A2433184600F00AFE12
S11319B00346002B07D0464B4FF080521A60BFF30A
S11319C04F8FBFF36F8FFFF7F3FB01237AE07B6840
S11319D0002B03D1FFF7ECFB002373E07B6A002BA1
S11319E006D107F11003184600F04EFE01237B6276
S11319F0FFF7DEFB00F07EFBFFF7B2FB3B6A93F8D8
S1131A004430DBB25BB2B3F1FF3F03D13B6A002247
S1131A1083F844203B6A93F84530DBB25BB2B3F100
S1131A20FF3F03D13B6A002283F84520FFF7C0FB48
S1131A3007F110023B1D1046194600F043FE034611
S1131A40002B31D1386A00F029F90346002B25D048
S1131A503B6A1B68002B08D1FFF782FB3B6A5B687B
S1131A60184600F0B5FFFFF7A3FB3B6A03F124021D
S1131A707B681046194600F05FFD386A00F0BCF838
S1131A8000F080FB0346002B1BD1114B4FF080521A
S1131A901A60BFF34F8FBFF36F8F12E0386A00F004
S1131AA0ABF800F06FFB43E7386A00F0A5F800F0EC
S1131AB069FB386A00F0F2F80346002B01D00023DA
S1131AC000E035E718462837BD4680BDAC740000F9
S1131AD004ED00E080B586B000AFF860B9607A60CC
S1131AE000237B61FB689B6B3B61FB681B6C002BD9
S1131AF00DD1FB681B68002B4FD1FB685B6818464F
S1131B0000F0DEFF7861FB6800225A6045E07B68E4
S1131B10002B1AD1FB689A68FB681B6C1046B968E5
S1131B201A4604F001FCFB689A68FB681B6C1A44B3
S1131B30FB689A60FB689A68FB685B689A422CD3DE
S1131B40FB681A68FB689A6027E0FB68DA68FB6840
S1131B501B6C1046B9681A4604F0E6FBFB68DA68A9
S1131B60FB681B6C5B421A44FB68DA60FB68DA684A
S1131B70FB681B689A4207D2FB685A68FB681B6CB7
S1131B805B421A44FB68DA607B68022B05D13B692F
S1131B90002B02D03B69013B3B613B695A1CFB684B
S1131BA09A637B6918461837BD4680BD80B582B0FC
S1131BB000AF786039607B681B6C002B19D07B68A0
S1131BC0DA687B681B6C1A447B68DA607B68DA68C5
S1131BD07B685B689A4203D37B681A687B68DA6027
S1131BE07B68DA687B681B6C386811461A4604F017
S1131BF09BFB0837BD4680BD80B584B000AF7860DC
S1131C00FFF7AEFA7B6893F84530FB7313E07B680B
S1131C105B6A002B0AD07B682433184600F0D2FCA0
S1131C200346002B03D000F0A3FD00E007E0FB7B9C
S1131C30013BDBB2FB7397F90F30002BE7DC7B68C9
S1131C40FF2283F84520FFF7B3FAFFF789FA7B6890
S1131C5093F84430BB7313E07B681B69002B0ED0F0
S1131C607B681033184600F0ADFC0346002B01D00E
S1131C7000F07EFDBB7B013BDBB2BB7300E003E005
S1131C8097F90E30002BE7DC7B68FF2283F84420B1
S1131C90FFF78EFA1037BD4680BD00BF80B584B013
S1131CA000AF7860FFF75CFA7B689B6B002B02D176
S1131CB00123FB6001E00023FB60FFF779FAFB6876
S1131CC018461037BD4680BD80B584B000AF78603B
S1131CD0FFF746FA7B689A6B7B68DB6B9A4202D10A
S1131CE00123FB6001E00023FB60FFF761FAFB685E
S1131CF018461037BD4680BD80B485B000AF78600B
S1131D0039600023FB6014E00E4AFB6852F833305C
S1131D10002B0BD10B49FB683A6841F83320094A80
S1131D20FB68DB0013447A685A6005E0FB68013302
S1131D30FB60FB68092BE7D91437BD465DF8047BCB
S1131D40704700BF3C25002080B586B000AFF86026
S1131D50B9607A60FB687B61FFF702FA7B6993F8EC
S1131D604430DBB25BB2B3F1FF3F03D17B690022A5
S1131D7083F844207B6993F84530DBB25BB2B3F15E
S1131D80FF3F03D17B69002283F84520FFF710FA57
S1131D907B699B6B002B06D17B6924331846B96899
S1131DA07A6800F0E9FB7869FFF726FF1837BD462B
S1131DB080BD00BF80B58CB004AFF860B9603B60F3
S1131DC01346FB80FB889B001846FEF7F3FF7861FF
S1131DD07B69002B0ED05020FEF7ECFFF861FB6905
S1131DE0002B03D0FB697A691A6305E07869FFF771
S1131DF027F801E00023FB61FB69002B13D0FA886C
S1131E00BB6A0093FB6A0193FB690293002303936B
S1131E10F868B9683B6800F00FF8F86900F086F8D4
S1131E200123BB6102E04FF0FF33BB61BB6918467D
S1131E302037BD4680BD00BF80B586B000AFF860D6
S1131E40B9607A603B60BB6A1A6B7B6803F18043BC
S1131E50013B9B0013443B613B6923F007033B6157
S1131E603B6903F00703002B04D02F4840F22B31C9
S1131E7001F0DCF900237B6113E0BA687B69134449
S1131E801978BA6A7B69134430330A461A71BA68FE
S1131E907B6913441B78002B00D105E07B69013377
S1131EA07B617B69092BE8D9BB6A002283F83D205A
S1131EB03B6A022B01D902233B62BB6A3A6ADA62AB
S1131EC0BB6A3A6A1A64BB6A00225A64BB6A043366
S1131ED01846FEF7E5FFBB6A18331846FEF7E0FF25
S1131EE0BB6ABA6A1A613B6AC3F10302BB6A9A61AC
S1131EF0BB6ABA6A5A62BB6A00229A64BB6A00224D
S1131F0083F84C203869F9683A68FFF75BF80246B1
S1131F10BB6A1A607B6A002B02D07B6ABA6A1A60B9
S1131F201837BD4680BD00BF1C75000080B582B067
S1131F3000AF7860FFF714F92B4B1B6801332A4A72
S1131F4013602A4B1B68002B09D1284A7B68136055
S1131F50254B1B68012B10D100F070FC0DE0244BC5
S1131F601B68002B09D1214B1B68DA6A7B68DB6A8A
S1131F709A4202D81D4A7B6813601E4B1B680133CA
S1131F801C4A13607B68DB6A1A46012303FA02F2D7
S1131F90194B1B681343184A13607B68DA6A1346AB
S1131FA09B0013449B00154A1A447B680433104673
S1131FB01946FEF781FFFFF7FBF80D4B1B68002B5A
S1131FC00ED00A4B1B68DA6A7B68DB6A9A4207D236
S1131FD00B4B4FF080521A60BFF34F8FBFF36F8FDC
S1131FE00837BD4680BD00BFC4240020142400204F
S1131FF0D0240020E0240020CC2400201824002039
S113200004ED00E080B584B000AF78600023FB608D
S11320107B68002B11D0104B1B68002B04D00F4899
S113202040F2CF4101F002F900F064F87868002131
S113203000F0D8FD00F0A6F8F860FB68002B07D18B
S1132040074B4FF080521A60BFF34F8FBFF36F8F6F
S11320501037BD4680BD00BFEC2400201C75000075
S113206004ED00E080B584B002AF002300931A4B66
S113207001931A481A498C220023FFF79BFE7860CB
S11320807B68012B02D100F011FE78607B68012B84
S113209015D14FF0BF0383F31188BFF36F8FBFF3E4
S11320A04F8F3B600F4B4FF0FF321A600E4B0122F3
S11320B01A600E4B00221A60FEF7F4FF08E07B68FA
S11320C0B3F1FF3F04D10A4840F2847101F0AEF845
S11320D00837BD4680BD00BFE824002089270000E2
S11320E08C750000E4240020D0240020C8240020A3
S11320F01C75000080B400AF044B1B680133034A15
S11321001360BD465DF8047B704700BFEC240020DB
S113211080B485B000AF0023BB6001237B60144B07
S11321201A687B689A4201D90123BB60114B1B6872
S1132130DB6A002B02D00023FB6012E00E4B1B680D
S1132140012B02D90023FB600BE0BB68002B02D0FB
S11321500023FB6005E0094B1A68094B1B68D31A7E
S1132160FB60FB6818461437BD465DF8047B704776
S1132170CC2400201424002018240020E42400206F
S1132180C824002080B584B000AF0023FB60002386
S1132190BB603F4B1B68002B04D13E484FF4FD61EC
S11321A001F044F8FEF7DCFF394B1B68013B384A69
S11321B01360374B1B68002B63D1374B1B68002B14
S11321C05FD030E0354BDB68DB68FB60FB681833BD
S11321D01846FEF7CDFEFB6804331846FEF7C8FE2A
S11321E0FB68DB6A1A46012303FA02F22C4B1B68D4
S11321F013432B4A1360FB68DA6A13469B001344AB
S11322009B00284A1A44FB68043310461946FEF71B
S113221053FEFB68DA6A244B1B68DB6A9A4202D3DA
S1132220224B01221A601D4B1B68002BCAD1FB688C
S1132230002B01D000F08AFB1D4B1B687B607B6880
S1132240002B10D000F068F80346002B02D0174B87
S113225001221A607B68013B7B607B68002BF1D113
S1132260134B00221A60114B1B68002B09D0012369
S1132270BB60104B4FF080521A60BFF34F8FBFF317
S11322806F8FFEF795FFBB6818461037BD4680BDBB
S1132290EC2400201C750000C424002084240020A9
S11322A0CC2400201824002014240020D82400204A
S11322B0D424002004ED00E080B483B000AF054BCB
S11322C01B687B607B6818460C37BD465DF8047B51
S11322D0704700BFC824002080B582B000AF78608A
S11322E00A4B1A687B681A44094B1B689A4204D942
S11322F0084840F6711100F099FF044B1A687B6896
S11323001344024A13600837BD4680BDC824002028
S1132310E42400201C75000080B586B000AF0023C3
S11323207B614F4B1B68002B40F089804D4B1B6831
S113233001333B614B4A3B6913603B69002B1AD163
S1132340494B1B681B68002B04D0484840F6D91140
S113235000F06CFF444B1B68FB60454B1B68424A12
S11323601360434AFB681360424B1B680133414AC4
S1132370136000F0EBFA404B1B683A699A424FD362
S1132380394B1B681B68002B01D1012300E000239B
S1132390002B04D0384B4FF0FF321A6040E0324B30
S11323A01B68DB68DB68BB60BB685B687B603A69A1
S11323B07B689A4203D2304A7B68136030E0BB6882
S11323C004331846FEF7D4FDBB689B6A002B04D087
S11323D0BB6818331846FEF7CBFDBB68DB6A1A46A8
S11323E0012303FA02F2254B1B681343234A1360AB
S11323F0BB68DA6A13469B0013449B00204A1A44C4
S1132400BB68043310461946FEF756FDBB68DA6A0A
S11324101C4B1B68DB6A9A4201D301237B61AFE743
S1132420184B1B68DA6A164913469B0013449B0039
S11324300B441B68012B01D901237B6104E0124B7F
S11324401B680133104A1360104B1B68002B01D02A
S113245001237B617B6918461837BD4680BD00BFE8
S1132460EC240020C82400207C2400201C750000DB
S113247080240020DC240020E4240020CC2400203C
S11324801824002014240020D4240020D824002060
S113249080B584B000AF224B1B68002B03D0214BC6
S11324A001221A6039E01F4B00221A601E4B1B6880
S11324B07B607B68B3FA83F3FB70FB78C3F11F0383
S11324C0FB601A49FA6813469B0013449B000B44B3
S11324D01B68002B04D1164840F6F62100F0A6FE36
S11324E0FA6813469B0013449B00104A1344BB60D4
S11324F0BB685B685A68BB685A60BB685A68BB684B
S113250008339A4204D1BB685B685A68BB685A6056
S1132510BB685B68DB68074A13601037BD4680BD43
S1132520EC240020D8240020CC24002018240020EF
S11325301C7500001424002080B582B000AF7860C0
S113254039607B68002B04D1094840F6063100F05D
S11325506DFE084B1B68183378681946FEF7D0FCEB
S11325603868012100F03EFB0837BD4680BD00BF3E
S11325701C7500001424002080B584B000AFF860FE
S1132580B9607A60FB68002B04D10C4840F6313105
S113259000F04CFE0A4B1B681833F8681946FEF726
S11325A08BFC7B68002B02D04FF0FF33BB60B86814
S11325B0796800F017FB1037BD4680BD1C7500001C
S11325C01424002080B584B000AF78607B68DB6899
S11325D0DB68BB60BB68002B04D1244840F6613142
S11325E000F024FEBB6818331846FEF7C1FC204BEC
S11325F01B68002B1ED1BB6804331846FEF7B8FCD9
S1132600BB68DB6A1A46012303FA02F2194B1B6802
S11326101343184A1360BB68DA6A13469B001344D9
S11326209B00154A1A44BB68043310461946FEF74A
S113263043FC05E0BB68183310481946FEF73CFC20
S1132640BB68DA6A0E4B1B68DB6A9A4205D9012320
S1132650FB600C4B01221A6001E00023FB6000F0D8
S113266075F9FB6818461037BD4680BD1C7500001F
S1132670EC240020CC2400201824002084240020F2
S113268014240020D824002080B582B000AF7860E4
S11326907B68002B04D1084840F6C13100F0C6FD28
S11326A0064B1A687B681A60054B1A687B685A6087
S11326B00837BD4680BD00BF1C750000DC24002027
S11326C0C824002080B584B000AF786039607B688E
S11326D0002B04D1234840F6CB3100F0A7FD3B6822
S11326E0002B04D11F4840F6CC3100F09FFDFEF7CB
S11326F037FD1D4B1B68BB603B681B68B3F1FF3F94
S113270002D10023FB6026E07B681A68174B1B6824
S11327109A4207D07B685A68BB689A4202D8012360
S1132720FB6018E07B685B68BA68D21A3B681B6878
S11327309A420ED23B681A687B685968BB68CB1A08
S11327401A443B681A607868FFF79EFF0023FB6019
S113275001E00123FB60FEF72BFDFB6818461037F0
S1132760BD4680BD1C750000C8240020DC24002068
S113277080B400AF034B01221A60BD465DF8047BB0
S1132780704700BFD824002080B584B000AF7860C3
S113279000F092F8FFF7BCFCF860FB68012B17D936
S11327A0FFF7A8FC0B4B1A680B4B1B689A4204D228
S11327B00A4840F68C4100F039FDFFF7A9FCF860A7
S11327C0FB68012B02D9F868FEF75CFDFFF7DAFC21
S11327D0DEE700BFE4240020C82400201C750000AC
S11327E080B483B000AF01233B600123FB710F4B26
S11327F01B68002B02D00023FB7110E00C4B1B68FC
S1132800002B02D00023FB7109E00A4B1A680A4B23
S113281019683B68CB1A9A4201D10223FB71FB79F8
S113282018460C37BD465DF8047B704784240020AD
S1132830D8240020B0240020C424002080B582B015
S113284000AF00237B600CE07A6813469B001344BE
S11328509B00114A13441846FEF702FB7B680133C0
S11328607B607B68022BEFD90C48FEF7F9FA0C4821
S1132870FEF7F6FA0B48FEF7F3FA0B48FEF7F0FA08
S11328800A48FEF7EDFA0A4B044A1A60094B044A57
S11328901A600837BD4680BD182400205424002047
S11328A0682400208424002098240020B0240020E0
S11328B07C2400208024002080B582B000AF28E072
S11328C0FFF718FC164B1B68002B0CBF01230023D9
S11328D0DBB27B60FFF756FC7B68002B19D1FEF757
S11328E03FFC0F4BDB68DB683B603B6804331846F6
S11328F0FEF73EFB0B4B1B68013B0A4A13600A4B75
S11329001B68013B084A1360FEF752FC386800F06C
S11329100DF8054B1B68002BD2D10837BD4680BD8E
S113292098240020C4240020AC24002080B582B068
S113293000AF78607B681B6B1846FEF781FA7868F5
S1132940FEF77EFA0837BD4680BD00BF80B483B071
S113295000AF0E4B1B681B68002B01D1012300E064
S11329600023002B04D00A4B4FF0FF321A6008E01A
S1132970064B1B68DB68DB687B607B685B68044A2A
S113298013600C37BD465DF8047B70477C2400203F
S1132990E424002080B483B000AF0B4B1B68002BF1
S11329A002D101237B6008E0084B1B68002B02D195
S11329B002237B6001E000237B607B6818460C37B0
S11329C0BD465DF8047B7047D0240020EC24002031
S11329D080B584B000AF78607B68FB607B68002BB7
S11329E064D0FB68DA6A334B1B68DB6A9A425DD2B7
S11329F0FB689B69002B06DB2E4B1B68DB6AC3F16B
S1132A000302FB689A61FB685969FB68DA6A13463A
S1132A109B0013449B00284A1344994201D101238B
S1132A2000E00023002B3CD0FB6804331846FEF77B
S1132A309FFA0346002B15D1FB68DA6A1E49134638
S1132A409B0013449B000B441B68002B0AD1FB68BA
S1132A50DB6A1A4601239340DA43184B1B68134080
S1132A60164A1360134B1B68DA6AFB68DA62FB6868
S1132A70DB6A1A46012303FA02F2104B1B68134364
S1132A800E4A1360FB68DA6A13469B0013449B00EA
S1132A90094A1A44FB68043310461946FEF70CFA37
S1132AA004E0044B1B68DA6AFB68DA621037BD463F
S1132AB080BD00BF1424002018240020CC24002052
S1132AC080B584B000AF78607B68BB600023FB6096
S1132AD07B68002B64D0354B1B68BA689A4204D0DB
S1132AE0334840F6C76100F0A1FBBB685B6C002B68
S1132AF004D12F4840F6C96100F098FBBB685B6CB9
S1132B005A1EBB685A64BB68DA6ABB681B6C9A427B
S1132B1046D0BB685B6C002B42D1BB6804331846BB
S1132B20FEF726FA0346002B15D1BB68DA6A214961
S1132B3013469B0013449B000B441B68002B0AD1D3
S1132B40BB68DB6A1A4601239340DA431A4B1B68BD
S1132B501340194A1360BB681A6CBB68DA62BB681D
S1132B60DB6AC3F10302BB689A61BB68DB6A1A467D
S1132B70012303FA02F2104B1B6813430E4A13603D
S1132B80BB68DA6A13469B0013449B00094A1A4443
S1132B90BB68043310461946FEF78EF90123FB6027
S1132BA0FB6818461037BD4680BD00BF14240020C2
S1132BB01C75000018240020CC24002080B400AF31
S1132BC0074B1B68002B04D0054B1B685A6C013261
S1132BD05A64034B1B681846BD465DF8047B704776
S1132BE01424002080B584B000AF78603960284B8D
S1132BF01B68FB60274B1B6804331846FEF7B8F9C3
S1132C000346002B0BD1234B1B68DB6A1A460123B6
S1132C109340DA43204B1B6813401F4A13607B68C0
S1132C20B3F1FF3F0AD13B68002B07D0194B1B6857
S1132C3004331A481946FEF73FF926E0FA687B6820
S1132C401344BB60134B1B68BA685A60BA68FB68CC
S1132C509A4209D2124B1A680E4B1B680433104671
S1132C601946FEF74DF910E00E4B1A68094B1B6824
S1132C70043310461946FEF743F90B4B1B68BA6838
S1132C809A4202D2084ABB6813601037BD4680BD21
S1132C90C824002014240020CC240020B0240020C8
S1132CA0802400207C240020E424002080B584B00B
S1132CB002AF00237B6000F083FA0E4B1B68002BED
S1132CC00AD0022300930C4B01930C480C498C222C
S1132CD00023FFF76FF878607B68002B04D1094864
S1132CE040F2331100F0A2FA7B6818460837BD465B
S1132CF080BD00BF2025002024250020212E0000B7
S1132D00947500009C75000080B588B000AFF86031
S1132D10B9607A603B600023FB61FB68002B04D13F
S1132D201F484FF4D37100F081FA1E4B1B68002B2F
S1132D3030D0BB683B617B687B61FB68BB61BB686F
S1132D40052B1CDCFFF726FE0346022B0BD1154B8B
S1132D501A6807F1100310461946BA6A0023FEF7F1
S1132D605FFCF86116E00F4B1A6807F11003104678
S1132D70194600220023FEF753FCF8610AE0094BD0
S1132D801A6807F11003104619463A680023FEF743
S1132D9025FDF861FB6918462037BD4680BD00BF9C
S1132DA09C7500002025002080B586B002AF7860B5
S1132DB03960194B1B68DB68DB68FB60FB68043314
S1132DC01846FEF7D5F8FB68DB69012B1DD1FB68BB
S1132DD09A697B681344F86819463A687B6800F07E
S1132DE0C3F80346002B10D000230093F868002199
S1132DF07A680023FFF788FFB860BB68002B04D112
S1132E0006484FF4027100F011FAFB685B6AF86837
S1132E1098471037BD4680BD182500209C750000DA
S1132E2080B584B000AF786007F10803184600F05D
S1132E3057F8F860BB68F868194600F003F800F02A
S1132E40D5F8F1E780B584B000AF78603960FFF75A
S1132E5051F907F10803184600F066F8F860BB68FA
S1132E60002B31D13B68002B0AD17A68FB689A4267
S1132E7006D8FFF787F97868F968FFF795FF25E02A
S1132E803B68002B08D0134B1B681B68002B0CBF3E
S1132E9001230023DBB23B600F4B19687A68FB689F
S1132EA0D31A084619463A68FEF74EFFFFF76AF947
S1132EB00346002B0AD1094B4FF080521A60BFF32E
S1132EC04F8FBFF36F8F01E0FFF75CF91037BD46FA
S1132ED080BD00BF1C2500202025002004ED00E05B
S1132EE080B485B000AF78600E4B1B681B68002B64
S1132EF00CBF01230023DBB21A467B681A607B688F
S1132F001B68002B05D1074B1B68DB681B68FB6043
S1132F1001E00023FB60FB6818461437BD465DF8EA
S1132F20047B70471825002080B584B000AF78601A
S1132F30FFF7C2F9F8600B4B1B68FA689A4205D296
S1132F4000F0E2F87B6801221A6002E07B6800224C
S1132F501A60044AFB681360FB6818461037BD46C4
S1132F6080BD00BF2825002080B586B000AFF86082
S1132F70B9607A603B6000237B61FB68BA685A6081
S1132F80FB68FA681A61BA687B689A4212D87A6850
S1132F903B68D21AFB689B699A4202D301237B6186
S1132FA01BE0104B1A68FB68043310461946FDF702
S1132FB0A7FF12E07A683B689A4206D2BA683B6877
S1132FC09A4202D301237B6107E0074B1A68FB682E
S1132FD0043310461946FDF793FF7B6918461837EA
S1132FE0BD4680BD1C2500201825002080B58AB070
S1132FF002AF73E0BB68002B70DB3B69FB61FB69CC
S11330005B69002B04D0FB6904331846FDF7B0FF5D
S11330103B1D1846FFF788FFB861BB68092B5CD8D5
S113302001A252F823F000BF5130000051300000DB
S113303051300000DD300000A5300000D330000026
S11330405130000051300000DD300000A530000098
S1133050FA68FB699B691A44FB68F8691146BA6906
S1133060FFF782FF0346002B1BD0FB695B6AF869FC
S11330709847FB69DB69012B13D1FA68FB699B69EB
S11330801A4400230093F86900210023FFF73CFE53
S113309078617B69002B04D1194840F2213100F09A
S11330A0C5F81BE0FA68FB699A61FB699B69002B10
S11330B004D113484FF44E7100F0B8F8FB699A69D3
S11330C0BB691344F8691946BA69BB69FFF74CFF39
S11330D004E0F869FDF7B4FE00E000BF094B1A688C
S11330E007F108031046194600220023FEF7F4FBFB
S11330F00346002B7FF47EAF2037BD4680BD00BF62
S11331009C7500002025002080B588B002AF3FE008
S1133110284B1B68DB681B687B61264B1B68DB68DC
S1133120DB683B613B6904331846FDF721FF3B69CB
S11331305B6A386998473B69DB69012B28D13B6995
S11331409A697B691344FB60FA687B699A420ED9D9
S11331503B69FA685A603B693A691A61154B1A6807
S11331603B69043310461946FDF7CAFE10E00023FC
S11331700093386900217A690023FFF7C5FDB86020
S1133180BB68002B04D10C4840F2923100F04EF899
S1133190084B1B681B68002BBAD1064B1B687B606D
S11331A0064B1B68034A1360044A7B681360183794
S11331B0BD4680BD182500209C7500001C250020FC
S11331C080B500AFFDF7CCFF124B1B68002B1DD15F
S11331D01148FDF745FE1148FDF742FE104B0E4A1B
S11331E01A60104B0D4A1A600A200C210022FEF7C7
S11331F0C3F90246074B1A60064B1B68002B05D027
S1133200044B1B6818460849FEF776FDFDF7D0FF0E
S113321080BD00BF20250020F024002004250020CC
S1133220182500201C2500201076000080B483B0EF
S113323000AF78603960FEE780B487B000AFF86013
S1133240B9607A60FB6803F10473DA00BB68134465
S11332509B007B617B697A681A601C37BD465DF808
S1133260047B704780B485B000AF786039607B68B8
S113327003F10473DA003B6813449B00FB60FB68B2
S11332801B6818461437BD465DF8047B704700BFC1
S113329080B584B000AF78607B68002B03D07B6876
S11332A0B3F5004F04D9084840F2AB61FFF7BEFF05
S11332B07B68B3FA83F3C3F11F03FB60FB68184612
S11332C01037BD4680BD00BF1876000080B400AF43
S11332D0044BDB6C1B0EDBB21846BD465DF8047B69
S11332E0704700BFB081E00F80B400AF054BDB6CCA
S11332F003F47F031B0CDBB21846BD465DF8047B68
S1133300704700BFB081E00F80B582B000AFFFF717
S1133310EBFF03464A2B04D0792B02D0482B21D053
S113332022E0164B1B699BB203F03F039BB21B02C6
S1133330FB80124B9B6903F0F0039AB2FB881343A2
S1133340FB800E4BDB6903F0F0031B099AB2FB8888
S11333501343FB80FB88B3F5017F01D3084B09E0DD
S1133360084B07E0074B05E007484FF49F71FFF750
S11333705DFF002318460837BD4680BDD0FF0FE02F
S113338000366E010048E8017C76000080B584B008
S113339000AF78600123FB60FFF7B6FF02467B684D
S11333A09A4204D30023FB600023BB600BE0FFF7C9
S11333B0ABFF03465A007B689A4202D30123BB60E9
S11333C001E00223BB6008481E21FA68FFF734FFBE
S11333D00549054B5B6823F48072BB681B021343E9
S11333E04B601037BD4680BD00800C4080B582B074
S11333F000AF05481E21FFF735FF78607B6818464B
S11334000837BD4680BD00BF00800C4080B582B047
S113341000AF244B5B6903F4E063B3F5007F1CD079
S1133420B3F5007F05D8002B25D0B3F5807F1FD0DE
S11334302AE0B3F5C06F24D0B3F5E06F1ED0B3F526
S1133440407F21D1FFF742FF0346122B02D9164BCE
S11334507B6021E0154B7B601EE0FFF737FF0346DE
S1133460122B02D9124B7B6016E0124B7B6013E0E7
S1133470114B7B6010E0114B7B600DE0104B7B60C7
S11334800AE0104B7B6007E000237B600E4840F2AB
S1133490BD11FFF7CBFE00BF7B6818460837BD4659
S11334A080BD00BF00800C40804F120040420F00DE
S11334B040B56400C0CF6A00C0D8A700809FD50083
S11334C0406F4001003FAB017C76000080B582B0C4
S11334D000AF0F4800F034FC0346FB70FB78072B69
S11334E005D0092B07D1FCF737FF78600BE0FFF715
S11334F08DFF786007E000237B60064840F2F711F7
S1133500FFF794FE00BF7B6818460837BD4680BDB0
S113351006000C007C76000080B485B000AF7860B3
S11335203960204B5B6803F00703FB60FB68012BE9
S113353001D9042B02D10023FB7202E00123FB72A8
S113354000BF7B68184A934207D9FB7A002B01D04D
S1133550052300E00423FB6016E07B68124A9342D3
S11335600BD87B68114A934207D9FB7A002B01D010
S1133570032300E00123FB6006E0FB7A002B01D06B
S1133580022300E00023FB600649064B5B6823F03E
S11335900702FB6813434B601437BD465DF8047B98
S11335A0704700BF00000C400048E8010024F4000C
S11335B080B582B000AF0D4BDB6B002B14BF012331
S11335C00023FB71094B41F67132DA63FCF7BAFE52
S11335D0034618460021FFF79FFFFB79002B02D01A
S11335E0024B0022DA630837BD4680BD00000C4060
S11335F080B584B000AF786039600C4BDB6B002B76
S113360014BF01230023FB73084B41F67132DA63C4
S113361078683968FFF780FFFB7B002B02D0034BEF
S11336200022DA631037BD4680BD00BF00000C40A5
S113363090B585B000AF78600023BB607B683B4ADF
S1133640934208D03A4A934205D03A484FF48061F5
S1133650FFF7ECFD00E000BF786800F071FB034663
S1133660FB607B68314A934203D0314A934206D0CF
S11336700CE0314B9B6A03F00303FB600CE02E4B20
S11336809B6A03F00C039B08FB6005E0294840F2A9
S11336902F41FFF7CBFD00BFFB68032B39D801A2F4
S11336A052F823F0DB360000B5360000BD360000CA
S11336B0C5360000FCF7E2FEB86032E0FCF7F2FE2B
S11336C0B8602EE0FCF724FE0446FFF78FFE0346A5
S11336D0013324FA03F3BB6023E00023BB607B685F
S11336E0124A934203D07B68114A934210D1124B81
S11336F09A6A7B680D498B4201D1102300E01423A0
S113370022FA03F3002B03D0FCF7C2FEB86008E0F2
S113371007E00023BB60074840F25A41FFF786FDEB
S113372000BFBB6818461437BD4690BD02001A009E
S113373003001C007C76000000800C4080B483B041
S113374000AF7860094B5B6D03F00103002B00D0E0
S113375006E000BF054B1A6D7B681340002BF9D1BE
S11337600C37BD465DF8047B704700BF00800C40F9
S113377080B582B000AF104800F0E2FA0346FB7057
S1133780FB78032B07D0092B09D0022B0BD1FCF7B4
S113379089FE78600AE0FCF771FE786006E0FCF7C9
S11337A0DBFD786002E000237B6000BF7B68184685
S11337B00837BD4680BD00BF07232200B0B584B0E2
S11337C000AF786039607B681B0903F00F03FB606E
S11337D0FB68013B062B00F23A8101A252F823F068
S11337E0FD3700004F3A00004F3A00003B3800001C
S11337F06D380000C3380000CF3900003B68002B4F
S113380002D03B68082B04D995484FF4E261FFF7D6
S11338100DFDFFF7CDFE9349924B1B6823F4E03274
S11338203B68013B9B0313430B60FCF771FDB860DD
S1133830B8680021FFF7DCFE0FE13B68002B03D0E2
S11338403B68B3F5007F04D9854840F22371FFF744
S1133850EDFC3868FFF71CFD38608249814B9B689A
S113386023F00F023B6813438B60F6E03B68002BA8
S113387003D03B68B3F5007F04D9794840F22B713B
S1133880FFF7D4FCFFF794FEFCF766FD02463B68A5
S1133890B2FBF3F31846FFF779FD3868FFF7F8FC3D
S11338A0386070496F4B5B6823F00F023B68134329
S11338B04B60FCF72DFDB860B8680021FFF798FE57
S11338C0CBE07B68684A934227D0674A934203D887
S11338D0664A934207D073E0654A934237D0654AFB
S11338E0934255D06CE03B68B3F5004F04D95C4873
S11338F040F24671FFF79AFC0420FFF71FFF386877
S1133900FFF7C6FC38605749564B9B6E23F0F00214
S11339103B681B0113438B6658E03B68B3F5004FCB
S113392004D94F4840F25471FFF780FC0420FFF79C
S113393005FF3868FFF7ACFC38604A49494B9B6E79
S113394023F470623B681B0213438B663EE03B68C2
S11339500F2B02D93B68802B04D9414840F2637194
S1133960FFF764FC0420FFF7E9FE3868FFF790FCDA
S113397038603C4D3B4B9B6E23F440541020FFF7C2
S113398087FC02463B689B1A1B032343AB661DE07E
S11339903B68082B04D9324840F27371FFF746FCA8
S11339A00420FFF7CBFE3868FFF772FC38602D491E
S11339B02C4B9B6E23F003023B6813438B6605E09C
S11339C0274840F28171FFF731FC00BF45E07B6876
S11339D0294A934203D0294A934218D030E03B68E5
S11339E0082B04D91E4840F28A71FFF71FFC4020BF
S11339F0FFF7A4FE3868FFF74BFC38601949194BF0
S1133A001B6F23F003023B6813430B671EE03B6804
S1133A10082B04D9124840F29971FFF707FC4020A3
S1133A20FFF78CFE3868FFF733FC38600D490D4B07
S1133A301B6F23F030023B681B0113430B6705E047
S1133A40074840F2A771FFF7F1FB00BF05E0044807
S1133A5040F2AD71FFF7EAFB00BF1037BD46B0BDC1
S1133A607C76000000800C40602614006016100074
S1133A706000260060062A00700716007017180000
S1133A8080B586B000AF78600B46FB7000233B61C5
S1133A907B681B0A03F00F03013B092B33D801A2F7
S1133AA052F823F0E13A0000E73A0000CD3A000072
S1133AB0073B0000073B0000ED3A0000F73A000026
S1133AC0073B0000073B0000013B00001B4B7B61F0
S1133AD01B4800F043F803461846FFF757FC18E06C
S1133AE0184B7B6115E0184B7B6112E0174B7B612F
S1133AF001233B610DE0164B7B6110233B6108E021
S1133B00144B7B6105E0144840F62B01FFF78EFB54
S1133B1010E07B681B0B03F01F03FB603B69002B69
S1133B2002D03869FFF70AFEFB787869F9681A460B
S1133B30FFF782FB1837BD4680BD00BF40800C40B4
S1133B400043020008800C4044800C4058800C4024
S1133B5060800C4078800C407C76000090B585B085
S1133B6000AF78607B6803F47813B3F5B01F00F0FE
S1133B70AB80B3F5B01F1AD8B3F5402F00F0BF8067
S1133B80B3F5402F08D8B3F5003F3CD0B3F5802FF0
S1133B902DD0002B27D0BEE0B3F5801F3CD0B3F569
S1133BA0A01F47D0B3F5602F00F0AD80B3E0B3F5AC
S1133BB0081F00F0AC80B3F5081F0AD8B3F5D01F76
S1133BC025D0B3F5E01F7AD0B3F5C01F00F089808B
S1133BD0A1E0B3F5201F4ED0B3F5281F62D0B3F592
S1133BE0181F35D097E0FCF7B7FBF8609BE0FCF7B3
S1133BF0B3FBF8604E4B9B6803F00F031A46FB6857
S1133C00D340FB608FE0FCF783FBF8608BE049480E
S1133C10FFF70EFDF86086E04648FFF709FDF860FF
S1133C20434B9B6E03F0F0031B091A46FB68D34019
S1133C30FB6078E03F48FFF7FBFCF8603C4B9B6E71
S1133C4003F470631B0A1A46FB68D340FB606AE006
S1133C503848FFF7EDFCF860354B9B6E03F4405396
S1133C601C0B1020FFF714FB034623441A46FB6881
S1133C70D340FB6057E02F48FFF7DAFCF8602C4B89
S1133C809B6E03F440531B0B1A46FB68D340FB6046
S1133C90274BDB6F03F007030133FA68B2FBF3F33E
S1133CA0FB6040E02348FFF7C3FCF860204B9B6EA9
S1133CB003F003031A46FB68D340FB6033E01E485D
S1133CC0FFF7B6FCF8602EE01B48FFF7B1FCF86084
S1133CD0174B1B6F03F003031A46FB68D340FB60CA
S1133CE021E01548FFF7A4FCF860114B1B6F03F0AB
S1133CF030031B091A46FB68D340FB6013E0FFF74F
S1133D00E5FBF8600FE0FFF781FBF8600BE0FFF7DD
S1133D102FFDF86007E00023FB6008484FF41261B0
S1133D20FFF784FA00BFFB6818461437BD4690BD00
S1133D3000800C4002001A0003001C007C76000086
S1133D4080B584B000AF78600123FB737B6803F017
S1133D500F03BB60BB68013B062B00F2938001A2FA
S1133D6052F823F0813D0000B73D0000F33D000010
S1133D70853E0000853E00002F3E0000513E0000BD
S1133D80474BDB6A03F47053B3F5805F09D0B3F596
S1133D90005F03D0B3F5006F06D008E00223FB7385
S1133DA008E00323FB7305E00423FB7302E005230F
S1133DB0FB7300BF6EE03A4B9B6A03F00303022BD4
S1133DC006D0032B07D0012B08D10323FB730FE08C
S1133DD00223FB730CE00623FB7309E0304B9B6A60
S1133DE003F48033002B02D00A23FB7300E000BFEE
S1133DF050E02B4B9B6A03F00C03082B06D00C2BD2
S1133E0007D0042B08D10323FB730FE00223FB73B9
S1133E100CE00623FB7309E0214B9B6A03F4801337
S1133E20002B02D00A23FB7300E000BF32E01C4BDE
S1133E301B6803F08053002B03D0B3F1805F03D0E1
S1133E4028E00723FB7302E00923FB7300BF21E092
S1133E50134BDB6A03F46033B3F5803F08D0B3F54A
S1133E60003F08D0B3F5004F08D10923FB7308E0E5
S1133E700223FB7305E00323FB7302E00123FB73BE
S1133E8000BF07E00023FB73064840F6D141FFF76B
S1133E90CDF900BFFB7B18461037BD4680BD00BF7F
S1133EA000800C407C76000080B588B000AF78605C
S1133EB00B46FB700323FB610323FB7600233B616A
S1133EC07B6803F00F03FB60FB68013B062B00F2E9
S1133ED0438101A252F823F0F53E0000E33F0000C5
S1133EE0E33F00005941000059410000B140000087
S1133EF0E7400000FB78023B082B52D801A252F89D
S1133F0023F000BF293F0000333F00003D3F000085
S1133F107F3F0000A33F0000A33F0000A33F000039
S1133F20A33F0000973F00000423FB610023FB76BE
S1133F303DE00323FB610123FB7638E00223FB61B0
S1133F400223FB76FFF7E0F9034601331846FFF737
S1133F501DFAFCF781FA0246844B9A4206D9844A38
S1133F60834B1B6843F06003136020E0804A804B5E
S1133F701B6823F0600343F02003136017E0012360
S1133F80FB610323FB76FFF7BFF9034601331846B1
S1133F90FFF7FCF90BE0774840F67651FFF746F956
S1133FA0E0E0744840F67B51FFF740F9DAE0FB7E2D
S1133FB018460121012200F009F9FFF7F9FA6C4AC9
S1133FC0FB6953626C48FFF7C9FD03461846FFF7C7
S1133FD0DDF9FCF79DF9B860B8680021FFF708FB2C
S1133FE0C0E0FB78013B092B3CD801A252F823F036
S1133FF0194000001F4000002F40000065400000F1
S1134000654000003F40000065400000654000003E
S1134010654000005B40000000237B6128E0002035
S11340200121012200F0D2F802237B6120E001206B
S11340300121012200F0CAF801237B6118E0FCF79A
S113404067F9B860B868FFF7A1F94C480421012268
S1134050FFF7F2F803237B610AE000237B6101236D
S11340603B6105E0434840F61D61FFF7DFF879E066
S1134070FB68022B0DD13E493D4B9B6A23F48033F0
S113408023F003037A691A433B691B0413438B62CD
S113409068E03749364B9B6A23F4801323F00C0302
S11340A07A6992001A433B691B0513438B6259E0FA
S11340B0FB78072B02D0092B07D00DE02C4A2C4BA0
S11340C01B6823F0805313600CE0294A284B1B68BB
S11340D043F08053136005E0264840F67861FFF70B
S11340E0A5F83FE03EE0FB78032B13D0092B21D049
S11340F0022B2AD100200121012200F067F81C4B79
S113410040225A6200BF1A4BDB6A03F48033002B4F
S1134110F9D020E001200121012200F057F8144BCE
S113412060225A6200BF124BDB6A03F40033002B97
S1134130F9D010E00E4B20225A6200BF0C4BDB6A10
S113414003F40043002BF9D005E00A4840F6B761B8
S1134150FFF76CF806E005E0064840F68C71FFF7BF
S113416065F800BF2037BD4680BD00BF0048E801A8
S113417000800C407C7600000043020040800C402C
S113418080B582B000AF78607B68802B04D90D487D
S113419041F2AB21FFF74AF80B4B9B6D03F0080388
S11341A0002B00D00BE07B6803F007037B6006491B
S11341B0054BDB6F23F007027B681343CB6708379B
S11341C0BD4680BD7C76000000800C4080B586B082
S11341D000AF0346FB710B46BB7113467B71FB7941
S11341E0042B32D801A252F823F000BF3942000058
S11341F02B4200000F420000014200001D4200005B
S113420001233B610223FB6001237B6123E0042340
S11342103B610823FB6003237B611CE010233B61AB
S11342202023FB6005237B6115E040233B61802351
S1134230FB6007237B610EE04FF480733B614FF416
S11342400073FB6009237B6105E00F4841F256319E
S1134250FEF7ECFF14E0BB79002B0ED00B4A3B6950
S113426013627B79002B0BD000BF09487969FEF7F4
S1134270F9FF0346002BF8D002E0044AFB681362FE
S11342801837BD4680BD00BF7C76000000800C401E
S11342902C800C4080B483B000AFEFF310833B60FC
S11342A03B687B6072B67B6818460C37BD465DF888
S11342B0047B704780B483B000AF78607B68002BC8
S11342C000D162B60C37BD465DF8047B704700BF71
S11342D080B487B000AFF860B9607A60FB6803F11E
S11342E00473DA00BB6813449B007B617B697A68C2
S11342F01A601C37BD465DF8047B704780B485B0F6
S113430000AFF860B9607A60FB681A68BB68DB4389
S11343101A407B681A43FB681A601437BD465DF87F
S1134320047B704780B582B000AF03463960FB71EF
S1134330FB79002B1FD0FB79012B19D0FB79022BC1
S113434013D0FB79032B0DD0FB79042B07D0FB7919
S1134350052B02D141F6FF730FE000230DE04FF669
S1134360FF730AE04FF6FF7307E04FF6FF7304E0B4
S11343704FF6FF7301E04FF6FF733A68134103F001
S11343800103002B04D10B484FF45D71FEF74EFF7F
S11343900949FA793B68012000FA03F318461346E9
S11343A0DB0013449B000B44103358600837BD46B0
S11343B080BD00BFE07600000060004080B582B0A0
S11343C000AF03463960FB71FB79002B1FD0FB79EA
S11343D0012B19D0FB79022B13D0FB79032B0DD0C1
S11343E0FB79042B07D0FB79052B02D141F6FF732F
S11343F00FE000230DE04FF6FF730AE04FF6FF7362
S113440007E04FF6FF7304E04FF6FF7301E04FF649
S1134410FF733A68134103F00103002B04D10B48E6
S113442040F2A131FEF702FF0949FA793B68012005
S113443000FA03F318461346DB0013449B000B44B5
S1134440103318600837BD4680BD00BFE076000019
S11344500060004080B586B000AFB9607A601A464B
S11344600346FB731346BB7300237B61FB7B002B6A
S11344701FD0FB7B012B19D0FB7B022B13D0FB7BC2
S1134480032B0DD0FB7B042B07D0FB7B052B02D128
S113449041F6FF730FE000230DE04FF6FF730AE0CF
S11344A04FF6FF7307E04FF6FF7304E04FF6FF7318
S11344B001E04FF6FF73BA68134103F00103002BC8
S11344C003D12248C421FEF7B1FE7B68072B0ED826
S11344D07B689B001A46072303FA02F1FB7B7A6888
S11344E0920093401A481A46FFF708FF10E07B68D1
S11344F0083B7B617B699B001A46072303FA02F1A0
S1134500FB7B7A699200934012481A46FFF7F6FE45
S1134510BB7B114879681A46FFF7DAFE97F820301A
S11345200E4879681A46FFF7D3FE0D4A7B680121CD
S113453001FA03F3C2F81C3197F82430094879686A
S11345401A46FFF7C5FE1837BD4680BD4477000004
S11345500061004004610040086100400C610040BB
S1134560006000401061004090B585B000AFB960B4
S11345707B600346FB731346BB73FB7B002B1FD08E
S1134580FB7B012B19D0FB7B022B13D0FB7B032B72
S11345900DD0FB7B042B07D0FB7B052B02D141F60E
S11345A0FF730FE000230DE04FF6FF730AE04FF6B0
S11345B0FF7307E04FF6FF7304E04FF6FF7301E06B
S11345C04FF6FF73BA68134103F00103002B04D1C3
S11345D0374840F20F11FEF729FEBB7B002B0DD0AC
S11345E07B68002B05D0FB7B1846B968FFF7E6FE15
S11345F004E0FB7B1846B968FFF794FEBB68072B01
S11346001CD82C4CFA7B2B48F97B0B46DB000B4463
S11346109B0003445968BB689B0018460F238340E2
S1134620DB430B40B97BB8688000814019431346D3
S1134630DB0013449B002344596024E01D4CFA7BA7
S11346401C48F97B0B46DB000B449B0003440833F6
S11346501968BB6803F18043083B9B0018460F238D
S11346608340DB431940B87BBB6803F18043083BBC
S11346709B0000FA03F319431346DB0013449B0029
S1134680234408331960BB7B002B0DD17B68002BBE
S113469005D0FB7B1846B968FFF790FE04E0FB7B6E
S11346A01846B968FFF73EFE1437BD4690BD00BFFB
S11346B0447700000060004080B483B000AF03463C
S11346C0FB71FB79002B06D0084A084B1B6843F0AA
S11346D00103136005E0054A044B1B6823F0010342
S11346E013600C37BD465DF8047B704700A008409A
S11346F080B487B000AFF860B9607A60FB6803F1FA
S11347000473DA00BB6813449B007B617B697A689D
S11347101A601C37BD465DF8047B704780B584B0D1
S113472000AF78601D4B5B68FB607B68002B03D196
S11347301B484721FEF77AFD0020FFF7BDFFFB6809
S113474023F4830323F01F03FB607B685B68FA6830
S11347501343FB607B681B7A1A46FB681343FB60B8
S11347607B685B7A1A46FB681343FB607B68DB68F3
S1134770FA681343FB607B681B8A1A46FB68134381
S1134780FB60064AFB6853607B681B78002B02D0F1
S11347900120FFF791FF1037BD4680BD00A00840FF
S11347A0A877000080B485B000AF78600D4B5B68DB
S11347B0FB60FB6823F48033FB607B68002B08D02C
S11347C0B3F5803F00D005E0FB6843F48033FB6021
S11347D000E000BF034AFB6853601437BD465DF830
S11347E0047B704700A0084080B483B000AF034648
S11347F00A46FB8013467B717B79002B06D009495E
S1134800084B9A68FB8813438B6006E00549054B07
S11348109A68FB88DB4313408B600C37BD465DF818
S1134820047B704700A0084080B584B000AFF860F6
S1134830B9601346FB71FB68072B04DD6E4840F238
S11348401911FEF7F3FCBB68272B04DD6A484FF40B
S11348509071FEF7EBFCFB68072B00F2C38001A20A
S113486052F823F085480000B1480000DD480000FC
S11348700949000035490000614900008D490000E4
S1134880B9490000BB681F2B07DCBA68FB795B4899
S113489011461A46FFF72CFFAAE0BB68203BBB6019
S11348A0BA68FB79564811461A46FFF721FF9FE084
S11348B0BB681F2B07DCBA68FB79524811461A46BD
S11348C0FFF716FF94E0BB68203BBB60BA68FB7936
S11348D04D4811461A46FFF70BFF89E0BB681F2BB2
S11348E007DCBA68FB79494811461A46FFF700FF0E
S11348F07EE0BB68203BBB60BA68FB794448114644
S11349001A46FFF7F5FE73E0BB681F2B07DCBA6895
S1134910FB79404811461A46FFF7EAFE68E0BB6897
S1134920203BBB60BA68FB793B4811461A46FFF747
S1134930DFFE5DE0BB681F2B07DCBA68FB793748F4
S113494011461A46FFF7D4FE52E0BB68203BBB6019
S1134950BA68FB79324811461A46FFF7C9FE47E0A8
S1134960BB681F2B07DCBA68FB792E4811461A4630
S1134970FFF7BEFE3CE0BB68203BBB60BA68FB7936
S1134980294811461A46FFF7B3FE31E0BB681F2BD6
S113499007DCBA68FB79254811461A46FFF7A8FEDA
S11349A026E0BB68203BBB60BA68FB79204811460F
S11349B01A46FFF79DFE1BE0BB681F2B07DCBA6895
S11349C0FB791C4811461A46FFF792FE10E0BB68BB
S11349D0203BBB60BA68FB79174811461A46FFF7BB
S11349E087FE05E004484FF4C571FEF71FFC00BFC5
S11349F01037BD4680BD00BFA877000040A0084026
S1134A0050A0084044A0084054A0084048A00840D2
S1134A1058A008404CA008405CA00840CCA0084026
S1134A20B4A00840D0A00840B8A00840D4A00840D2
S1134A30BCA00840D8A00840C0A0084080B586B0FB
S1134A4000AFF860B9607A60FB68072B04DD5F484B
S1134A5040F2A311FEF7EAFBFB68072B00F2AC80DF
S1134A6001A252F823F000BF894A0000AD4A0000B9
S1134A70D14A0000F54A0000194B0000414B0000E8
S1134A80694B0000914B0000514B1B6C7B61BB6870
S1134A90DB437A6913407B61BA687B6813407A69A7
S1134AA013437B614A4A7B6913648BE0484B5B6C1C
S1134AB07B61BB68DB437A6913407B61BA687B68BE
S1134AC013407A6913437B61414A7B69536479E0FB
S1134AD03F4B9B6C7B61BB68DB437A6913407B6112
S1134AE0BA687B6813407A6913437B61384A7B69EF
S1134AF0936467E0364BDB6C7B61BB68DB437A69AC
S1134B0013407B61BA687B6813407A6913437B6105
S1134B102F4A7B69D36455E02D4BD3F8CC307B61AD
S1134B20BB68DB437A6913407B61BA687B681340D6
S1134B307A6913437B61264A7B69C2F8CC3041E031
S1134B40234BD3F8D0307B61BB68DB437A691340D5
S1134B507B61BA687B6813407A6913437B611C4AA2
S1134B607B69C2F8D0302DE0194BD3F8D4307B6187
S1134B70BB68DB437A6913407B61BA687B68134086
S1134B807A6913437B61124A7B69C2F8D43019E015
S1134B900F4BD3F8D8307B61BB68DB437A69134091
S1134BA07B61BA687B6813407A6913437B61084A66
S1134BB07B69C2F8D83005E0044840F2E311FEF7FF
S1134BC035FB00BF1837BD4680BD00BFA877000085
S1134BD000A0084080B586B000AFF860B9607A6084
S1134BE0FB68072B04DD5C4840F2FB11FEF71EFB5B
S1134BF0FB68072B00F2AC8001A252F823F000BF3F
S1134C00214C0000454C0000694C00008D4C000014
S1134C10B14C0000D94C0000014D0000294D0000AA
S1134C204E4B1B6D7B61BB68DB437A6913407B6130
S1134C30BA687B6813407A6913437B61474A7B698E
S1134C40136586E0454B5B6D7B61BB68DB437A692A
S1134C5013407B61BA687B6813407A6913437B61B4
S1134C603E4A7B69536574E03C4B9B6D7B61BB683A
S1134C70DB437A6913407B61BA687B6813407A69C5
S1134C8013437B61354A7B69936562E0334BDB6D8B
S1134C907B61BB68DB437A6913407B61BA687B68DC
S1134CA013407A6913437B612C4A7B69D36550E0D6
S1134CB02A4BD3F8B4307B61BB68DB437A69134079
S1134CC07B61BA687B6813407A6913437B61234A2A
S1134CD07B69C2F8B4303CE0204BD3F8B8307B6138
S1134CE0BB68DB437A6913407B61BA687B68134015
S1134CF07A6913437B61194A7B69C2F8B83028E0AA
S1134D00164BD3F8BC307B61BB68DB437A69134034
S1134D107B61BA687B6813407A6913437B610F4AED
S1134D207B69C2F8BC3014E00C4BD3F8C0307B6113
S1134D30BB68DB437A6913407B61BA687B681340C4
S1134D407A6913437B61054A7B69C2F8C03000E08D
S1134D5000BF1837BD4680BDA877000000A00840FA
S1134D6080B483B000AF78600649064B5B6823F4D7
S1134D70E0127B6813434B600C37BD465DF8047B3F
S1134D80704700BF00A0084080B487B000AFF8604F
S1134D90B9607A60FB6803F10473DA00BB681344FA
S1134DA09B007B617B697A681A601C37BD465DF89D
S1134DB0047B704780B400AF034B00229A60BD4669
S1134DC05DF8047B704700BF00600C4080B400AF06
S1134DD0034B4AF6E8529A60BD465DF8047B70477F
S1134DE000600C4080B582B000AF0F4B01229A6086
S1134DF00E4B9B6803F001037B607B68002B01D0A2
S1134E00FFF7E4FF0A4800210122FFF7BDFF08482D
S1134E1000210022FFF7B8FF7B68002B01D0FFF7C9
S1134E20C9FF0837BD4680BD00A00C4000600C409F
S1134E3024600C4080B485B000AF174B5B687B6086
S1134E400023FB600023BB601CE0144ABB68DB004A
S1134E5013445B683B60114ABB6852F833207B689B
S1134E601340002B0BD07A683B681340002B06D10B
S1134E700A4ABB6852F83330FA681343FB60BB68D4
S1134E800133BB60BB680F2BDFD9FB6818461437AE
S1134E90BD465DF8047B704700A00C400C78000010
S1134EA080B584B000AF78607B68002B03D11B48C9
S1134EB03E21FEF7BBF91A4B5B69DBB203F00F032B
S1134EC0DBB29B00FB73164B1B6903F0C0039B0909
S1134ED0DAB2FB7B1343FB737B68FA7B9A70104B4B
S1134EE01B69DBB203F03F03DAB27B685A700C4BE8
S1134EF09B6903F0F0031B09DBB21B01FB73084B36
S1134F00DB6903F0F0031B09DAB2FB7B1343FB7389
S1134F107B68FA7B1A701037BD4680BD8C78000020
S1134F20D0FF0FE080B483B000AF78607B680D4A97
S1134F3093420BD07B680C4A934207D07B680B4AA0
S1134F40934203D07B680A4A934201D1012300E0D3
S1134F50002303F00103DBB218460C37BD465DF8AD
S1134F60047B704700000140000401400008014038
S1134F70000C014080B582B000AF78603960786879
S1134F80FFF7D0FF0346002B03D134484D21FEF731
S1134F904DF93B681B7883F00103DBB2002B02D090
S1134FA07B6802225A607B6800225A623B689B78C5
S1134FB01A063B68DB781B041A433B689B799B0207
S1134FC01A433B68DB791B0213433A68127A1A438B
S1134FD03B685B78002B01D0402300E000231A4398
S1134FE03B685B7A002B01D0802300E000231A4346
S1134FF03B689B7A002B01D0202300E000231A4356
S11350003B68DB7A002B01D0102300E000231A4315
S11350103B681B79002B02D04FF4005300E00023BF
S11350201A433B685B79002B02D04FF0805300E0B9
S113503000231A433B681B7B002B01D0082300E0AC
S113504000231A437B681A603B681B78002B02D04C
S11350507B6801225A600837BD4680BD5C79000038
S113506080B586B000AFF860B9607A60FB707B6889
S1135070002B03D14348C621FEF7D8F8BB68002BA8
S113508003D14148FEF76AFDB860FB78202B15D0A8
S1135090202B02DC002B05D037E0402B1AD0602BEC
S11350A027D032E0BB681A097B689A4203D235489C
S11350B0EC21FEF7BBF810237B612CE0BB68DA0817
S11350C07B689A4203D22F48F121FEF7AFF80823F8
S11350D07B6120E0BB682D4AA2FB03239A087B680E
S11350E09A4203D22748F621FEF7A0F806237B61F3
S11350F011E0BB689A087B689A4203D22148FB21DD
S1135100FEF794F804237B6105E01E4840F2011188
S1135110FEF78CF832E0BB689A007B69796801FB82
S113512003F35B0813443B617B697A6802FB03F376
S11351303A69B2FBF3F33B613B69043B3B613B6976
S11351409B013B613B69124A934204D90D4840F2EA
S11351501711FEF76BF83A690D4B13403B61FB687E
S11351601B6823F06002FB681A60FB681A68FB780E
S11351701A43FB681A60FB683A695A611837BD46DE
S113518080BD00BF7079000040810400ABAAAAAAC8
S1135190C0FF1F0080B584B000AF78600B46FB7081
S11351A07B68144A934214D07B68134A934210D00C
S11351B07B68124A93420CD07B68114A934208D010
S11351C07B68104A934204D00F4840F21E21FEF738
S11351D02DF8FB78DB43FB60FB6803F00503FB6001
S11351E0FB685A007B68DA60FA787B68DA6010370B
S11351F0BD4680BD00C0004000C4004000C800405F
S113520000E0004000E400407079000080B582B006
S113521000AF786039607B68264A934214D07B687B
S1135220254A934210D07B68244A93420CD07B6871
S1135230234A934208D07B68224A934204D02248EE
S113524040F24521FDF7F2FF786800F03FF83B6833
S11352509B7C002B05D07B681B6843F080427B68F5
S11352601A603B68DB7C002B07D03B681B7D43F056
S11352701003DBB21A467B689A653B685B7B1A466F
S11352803B681B8A13433A68D2891A437B685A6085
S11352903B6859683B689A683B681B7B7868FFF7F2
S11352A0DFFE3B681B781A467B68DA600837BD4628
S11352B080BD00BF00C0004000C4004000C80040E2
S11352C000E0004000E400407079000080B582B046
S11352D000AF78607B68254A934214D07B68244AE7
S11352E0934210D07B68234A93420CD07B68224AB5
S11352F0934208D07B68214A934204D020484FF45B
S11353005771FDF793FF7B6840F6AA62DA607B6809
S113531000221A607B6841F205025A607B68002211
S11353209A607B6800225A617B680022DA647B6899
S113533041F6F9729A647B6800225A657B680B4ACD
S1135340934202D17B6800221A657B6800229A6529
S11353507B68074A934203D07B68064A934202D192
S11353607B680022DA650837BD4680BD00C0004076
S113537000C4004000C8004000E0004000E40040D9
S11353807079000080B483B000AF786000BF7B68A0
S11353901B6903F08003002BF9D07B68DB69DBB267
S11353A018460C37BD465DF8047B704780B483B063
S11353B000AF78600B46FB7000BF7B681B6903F08D
S11353C04003002BF9D0FA787B685A630C37BD464A
S11353D05DF8047B704700BF80B483B000AF034620
S11353E0FB71084997F907305B09FA7902F01F024B
S11353F0012000FA02F241F823200C37BD465DF883
S1135400047B704700E100E080B483B000AF034642
S1135410FB71094997F907305B09FA7902F01F0219
S1135420012000FA02F2603341F823200C37BD4614
S11354305DF8047B704700BF00E100E080B483B0F6
S113544000AF03463960FB7197F90730002B0BDA84
S11354500D49FB7903F00F03043B3A68D2B25201C1
S1135460D2B20B441A7609E0084997F907303A6832
S1135470D2B25201D2B20B4483F800230C37BD469A
S11354805DF8047B704700BF00ED00E000E100E040
S113549080B483B000AF7860044A7B68C2F81C31E2
S11354A00C37BD465DF8047B704700BF00600040C8
S11354B090B585B002AF396011461A460346FB71B8
S11354C00B46BB7113467B71FA79BC797B790093E7
S11354D03B7E0193104639683A682346FEF7BAFFCB
S11354E00C37BD4690BD00BF80B400AF044BDB6CED
S11354F01B0EDBB21846BD465DF8047B704700BF47
S1135500B081E00F80B582B000AFFFF7EDFF034636
S1135510FB713B1D1846FFF7C3FCFB790F2B0AD91F
S11355203B79022B07D9054A044B1B6823F050032F
S113553043F0100313600837BD4680BDC0800C40A3
S113554080B483B000AF78604FF6FF7318460C3711
S1135550BD465DF8047B704780B483B000AF7860CB
S11355607B685B6A18460C37BD465DF8047B704760
S113557080B483B000AF786039607B683A689A6120
S11355800C37BD465DF8047B704700BF80B483B020
S113559000AF786039607B68DA683B681A437B68DF
S11355A0DA600C37BD465DF8047B704780B582B085
S11355B000AF786039607868FFF7C2FF02463B6845
S11355C09A4204D2054840F29B31FDF72FFE7B68D6
S11355D03A68DA610837BD4680BD00BF84790000AF
S11355E080B582B000AF7860074B1B681846002175
S11355F04FF0FF320023FCF76FF90346012B02D171
S11356000248FBF7CFFAEFE78C250020982500200D
S113561080B582B000AF7860254B1B68042B17DC83
S1135620244B57221A70234B41225A70214B492292
S11356309A70204B54221A711E4B00225A711E4B31
S11356401B681846002100220023FBF7E9FF2DE028
S1135650174B1B68013B164A1360154B1B68092B3B
S113566001DD312200E03022124B1A70104B1A680F
S1135670124B83FB02139910D317C91A0B469B00D4
S11356800B445B00D11ACBB23033DAB2094B5A70F7
S1135690084B00229A70084B1B6818460021002210
S11356A00023FBF7BDFF8020FCF7ACFCB4E700BF90
S11356B010000020982500208C250020676666666F
S11356C080B584B000AF17480121FEF7D9F9164818
S11356D00121FFF75BFF144843F26851FFF766FFAF
S11356E03B4600221A60043300221A60043300226D
S11356F01A60043300221A70013301233B70012322
S11357007B700A23BB703B4607481946FFF732FCFF
S11357100220FFF761FE04480121FFF737FF10372D
S1135720BD4680BD005204000000014080B582B037
S113573002AF12480121FEF7A3F901200921012239
S11357400023FEF711FF0123009301200921012208
S11357500023FFF7ADFE0B20FFF756FE0120FFF7F5
S11357603BFE0B20FFF750FE0B20FFF735FE0B200E
S11357700021FFF763FEBD4680BD00BF00D20400D8
S113578080B500AF05480121FFF7F2FE044B1B78FA
S1135790DBB20133DAB2024B1A7080BD0000014063
S11357A03025002000000000B0B500AF1E48FFF710
S11357B0D3FE02461D4B1A601C4B1B68184600F0B2
S11357C0D3F902460B461046194615A3D3E9002324
S11357D000F040FA02460B4614461D46144B1B7853
S11357E0DBB2184600F0D0F902460B4620462946A3
S11357F000F07EF802460B461046194600F03CFCC9
S113580002460C4B1A600B4B1B680B48194600F000
S1135810F5FD4FF40070FFF73BFEB0BDAFF3008021
S11358206666666666465240000001409425002084
S1135830302500202C250020EC79000080B582B0B2
S113584002AFFFF75FFEFAF7B1FC00200021FBF77F
S11358504BFA0320FBF778FAFAF792FF0120FAF7E4
S113586079FF0020FBF742F9FFF72AFFFFF75EFFFD
S1135870012000210322FBF77FFE0246134B1A602E
S1135880124B1B68002B07D0104B1B6818460021D5
S113589000220023FBF7C4FE012300930C4B019369
S11358A00C480D49A0220023FCF784FA012300933D
S11358B00023019309480A49A0220023FCF77AFA3D
S11358C0FCF7D0FB00231846BD4680BD8C25002084
S11358D0A025002011560000F0790000E1550000D9
S11358E0F879000081F0004102E000BF83F000433A
S11358F030B54FEA41044FEA430594EA050F08BF67
S113590090EA020F1FBF54EA000C55EA020C7FEA2A
S1135910645C7FEA655C00F0E2804FEA5454D4EBA7
S11359205555B8BF6D420CDD2C4480EA020281EA71
S1135930030382EA000083EA010180EA020281EAA9
S11359400303362D88BF30BD11F0004F4FEA0131FB
S11359504FF4801C4CEA113102D0404261EB41010A
S113596013F0004F4FEA03334CEA133302D0524290
S113597063EB430394EA050F00F0A780A4F101044C
S1135980D5F1200E0DDB02FA0EFC22FA05F2801886
S113599041F1000103FA0EF2801843FA05F359416C
S11359A00EE0A5F120050EF1200E012A03FA0EFCEB
S11359B028BF4CF0020C43FA05F3C01851EBE37115
S11359C001F0004507D54FF0000EDCF1000C7EEB32
S11359D000006EEB0101B1F5801F1BD3B1F5001F70
S11359E00CD349085FEA30004FEA3C0C04F101048F
S11359F04FEA445212F5800F80F09A80BCF1004FB8
S1135A0008BF5FEA500C50F1000041EB045141EA39
S1135A10050130BD5FEA4C0C404141EB010111F43A
S1135A20801FA4F10104E9D191F0000F04BF0146E5
S1135A300020B1FA81F308BF2033A3F10B03B3F1C3
S1135A4020020CDA0C3208DD02F1140CC2F10C0253
S1135A5001FA0CF021FA02F10CE002F11402D8BFB1
S1135A60C2F1200C01FA02F120FA0CFCDCBF41EA7D
S1135A700C019040E41AA2BF01EB0451294330BD4C
S1135A806FEA04041F3C1CDA0C340EDC04F1140429
S1135A90C4F1200220FA04F001FA02F340EA030000
S1135AA021FA04F345EA030130BDC4F10C04C4F146
S1135AB0200220FA02F001FA04F340EA0300294626
S1135AC030BD21FA04F0294630BD94F0000F83F470
S1135AD0801306BF81F480110134013D4EE77FEA53
S1135AE0645C18BF7FEA655C29D094EA050F08BF9F
S1135AF090EA020F05D054EA000C04BF1946104680
S1135B0030BD91EA030F1EBF0021002030BD5FEAC3
S1135B10545C05D14000494128BF41F0004130BDEB
S1135B2014F580043CBF01F5801130BD01F000453F
S1135B3045F0FE4141F470014FF0000030BD7FEAB2
S1135B40645C1ABF194610467FEA655C1CBF0B46AD
S1135B50024650EA013406BF52EA033591EA030FC4
S1135B6041F4002130BD00BF90F0000F04BF0021BC
S1135B70704730B54FF4806404F132044FF00005EF
S1135B804FF0000150E700BF90F0000F04BF002168
S1135B90704730B54FF4806404F1320410F00045CE
S1135BA048BF40424FF000013EE700BF42004FEAC9
S1135BB0E2014FEA31014FEA02701FBF12F07F4346
S1135BC093F07F4F81F06051704792F0000F14BF43
S1135BD093F07F4F704730B54FF4607401F0004587
S1135BE021F0004120E700BF50EA010208BF7047DE
S1135BF030B54FF000050AE050EA010208BF7047D3
S1135C0030B511F0004502D5404261EB41014FF43B
S1135C10806404F132045FEA915C3FF4DCAE4FF03F
S1135C2003025FEADC0C18BF03325FEADC0C18BF26
S1135C30033202EBDC02C2F1200300FA03FC20FA77
S1135C4002F001FA03FE40EA0E0021FA02F11444C4
S1135C50C1E600BF70B54FF0FF0C4CF4E06C1CEAD9
S1135C6011541DBF1CEA135594EA0C0F95EA0C0F4E
S1135C7000F0DEF82C4481EA030621EA4C5123EAC1
S1135C804C5350EA013518BF52EA033541F48011F0
S1135C9043F4801338D0A0FB02CE4FF00005E1FBA3
S1135CA002E506F00042E0FB03E54FF00006E1FBED
S1135CB003569CF0000F18BF4EF0010EA4F1FF0430
S1135CC0B6F5007F64F5407404D25FEA4E0E6D4170
S1135CD046EB060642EAC62141EA55514FEAC52081
S1135CE040EA5E504FEACE2EB4F1FD0C88BFBCF5FD
