S011000048756D616E44656C61792E733337FB
S113000000000220C5020000F1020000F10200001D
S1130010F1020000F1020000F1020000F102000010
S1130020F1020000F1020000F1020000910D000055
S1130030F1020000F1020000310F0000750F000012
S1130040F1020000B9560000F1020000F1020000C4
S1130050F1020000F1020000F1020000F1020000D0
S1130060F1020000F1020000F1020000F1020000C0
S1130070F1020000F1020000F1020000F1020000B0
S1130080F1020000F1020000F1020000F1020000A0
S1130090F1020000F1020000F1020000F102000090
S11300A0F1020000F1020000F1020000F102000080
S11300B0F1020000F10200000D510000F102000005
S11300C0F1020000F1020000F1020000F102000060
S11300D0F1020000F1020000F102000010B5054C2D
S11300E0237833B9044B13B10448AFF300800123E0
S11300F0237010BD8400002000000000AC620000EA
S1130100084B10B51BB108480849AFF300800848F4
S1130110036803B910BD074B002BFBD0BDE81040AA
S1130120184700BF00000000AC62000088000020F7
S11301308000002000000000154B002B08BF134B6B
S11301409D46A3F5803A00218B460F461348144A76
S1130150121A05F062FB0F4B002B00D098470E4B90
S1130160002B00D098470020002104000D000D480A
S1130170002802D00C48AFF3008005F01DFB2000DE
S1130180290005F0A7FA05F003FB00BF00000800F2
S11301900000022000000000000000008400002095
S11301A078250020000000000000000080B582B027
S11301B000AF3A4A394B5B6C43F400535364384AFA
S11301C0374BD3F8203143F00403C2F82031344ACA
S11301D0334BD3F8203123F44073C2F82031304A32
S11301E02F4BD3F8B83023F47063C2F8B8302C4ADC
S11301F02B4BD3F8B83043F48063C2F8B830274BA4
S113020010221A6200BF254BDB6A03F02003002B87
S1130210F9D0244A234B1B6843F001031360214A9D
S1130220204BDB6843F08073D3601F4B1F4A1A6076
S11302301F4803F047FA034603F5D52303F2FC43B2
S11302407B607B68DB081B4AA2FB03239B0A3B60A1
S1130250194A3B68013B1361174B0222C3F8F02093
S1130260154B4FF48072C3F804234FF06043134AD4
S1130270C3F8B02F4FF06043114AC3F8802E4FF0FB
S113028060424FF06043D3F8003E43F00103C2F8EC
S1130290003E012318460837BD4680BD00800C404F
S11302A000600040F0ED00E0001000E0FF130140AA
S11302B006000C0017916502000004E055CEACC5A1
S11302C009000100064880470649074A074B9A423D
S11302D0BEBF51F8040B42F8040BF8E7FFF72CFFFC
S11302E071040000B86200000000002084000020B7
S11302F0FEE700BF80B400AF044BDB6C1B0EDBB227
S11303001846BD465DF8047B704700BFB081E00F1E
S113031080B582B000AF00F01FF87860074B5B68CF
S113032003F00F031A467B68D3407B60044A7B6862
S113033013607B6818460837BD4680BD00800C40BA
S11303400800002080B400AF024B1846BD465DF89B
S1130350047B7047006CDC0280B582B000AF334B85
S1130360DB6A03F47053B3F5805F0AD0B3F5005F22
S113037003D0B3F5006F08D00BE02D4B1B687B60F6
S113038047E04FF400437B6043E02A4B1B687B60EB
S11303903FE0264BDB6803F4E063B3F5007F1BD03A
S11303A0B3F5007F05D8002B24D0B3F5807F16D099
S11303B02BE0B3F5806F09D0B3F5A06F03D0B3F58C
S11303C0407F06D021E01C4B7B6021E01B4B7B600F
S11303D01EE01B4B7B601BE01A4B7B6018E0FFF7B1
S11303E089FF0346122B02D9174B7B6010E0174B91
S11303F07B600DE0FFF77EFF0346122B02D9144BFE
S11304007B6005E0134B7B6002E000237B6000BF50
S113041000BF064B1B6803F4E0339B0B01337A687F
S1130420B2FBF3F318460837BD4680BD00800C408C
S11304300400002000000020003FAB01406F400199
S1130440809FD500C0D8A70040B56400C0CF6A0023
S1130450804F120040420F0080B400AF034B1B6872
S11304601846BD465DF8047B704700BF00000020BD
S113047080B400AFBD465DF8047B704780B400AF24
S11304804FF400431846BD465DF8047B704700BF37
S113049080B400AF4FF47A731846BD465DF8047B10
S11304A0704700BF80B400AF034B1B681846BD46BD
S11304B05DF8047B704700BF0400002080B483B063
S11304C000AF0346FB71FB79002B03D0054B0122DF
S11304D01A6602E0034B00221A660C37BD465DF82B
S11304E0047B704700A0084080B483B000AF7860FC
S11304F000BF054B5A6E7B681340002BF9D10C37B3
S1130500BD465DF8047B704700A0084080B483B00A
S113051000AF78600549054B9A6A7B68DB4313405A
S11305208B620C37BD465DF8047B704700A0084021
S113053080B500AF00202849002204F08DF9012085
S11305402549002204F088F902202349002204F0FE
S113055083F903202049002204F07EF904201E4977
S1130560002204F079F905201B49002204F074F9F3
S113057006201949002204F06FF9072016490022C9
S113058004F06AF90020FF21002204F031FA01206E
S1130590FF21002204F02CFA0220FF21002204F0A3
S11305A027FA0320FF21002204F022FA0420FF216D
S11305B0002204F01DFA0520FF21002204F018FA9D
S11305C00620FF21002204F013FA0720FF21002255
S11305D004F00EFA80BD00BF00F00FF080B500AF4C
S11305E007202649002204F037F906202449002276
S11305F004F032F905202249002204F02DF90420E8
S11306001F49002204F028F903201D49002204F0A8
S113061023F902201A49002204F01EF90120184986
S1130620002204F019F900204FF02041002204F0C8
S113063013F907200721002204F0DAF90620072124
S1130640002204F0D5F905200721002204F0D0F996
S113065004200721002204F0CBF903200721002203
S113066004F0C6F902200721002204F0C1F9012098
S11306700721002204F0BCF980BD00BF00E00F5048
S113068000E00FF080B582B000AF0346FB7125484F
S1130690012102F0A9FF2448032103F0B9F92348FA
S11306A0402102F03FFE012003F094FB2048012189
S11306B002F09AFF4FF0FF30FFF728FF1D4803F0C8
S11306C03BFF0820012103F09DFF1020012103F0CE
S11306D099FF8020012103F095FF4FF480700121E0
S11306E003F090FF4FF40070012103F08BFFFB79BE
S11306F0002B0DD04FF4402004F040FA4FF480302A
S113070003F05EFF0C4A0C4BDB6F43F00803D36726
S1130710FFF70EFF4FF0FF30FFF7E6FE0837BD4648
S113072080BD00BF0043020002001A0060002600E2
S113073000362800105B000000800C4080B58AB0B1
S113074000AF7860786805F070F80346BB61002359
S11307503B624FF0FF30FFF7C7FE0120FFF7AEFE0C
S1130760FFF73CFF00233B6246E03A6ABB699A42CA
S113077003DA7B681B787B6201E020237B627B6A5F
S1130780203B7B62214A7B6A32F81330FB820023D0
S1130790FB6128E01E493A6A1346DB009B1A9B0062
S11307A0CA18FB69134408339B793B6118493A6AB8
S11307B01346DB009B1A9B00FA6913440B441B7815
S11307C0FB60FA8AFB6942FA03F303F00103002B8E
S11307D006D0FA683B6910461946012203F032FF3D
S11307E0FB690133FB61FB690D2BD3DD7B680133AE
S11307F07B603B6A01333B623B6A062BB5DD00201C
S1130800FFF75CFE2837BD4680BD00BF585A000084
S11308105858000080B487B000AFF860B9607A60BF
S1130820FB6803F10473DA00BB6813449B007B612B
S11308307B697A681A601C37BD465DF8047B704793
S113084080B400AF054A054B1B6923F00403136110
S113085030BFBD465DF8047B704700BF00ED00E08B
S113086080B500AF024801210122FFF7D3FF80BD0C
S113087000600C4080B582B000AF0346FB71074BAB
S11308801B68002B04D0054B1B68FA791046984767
S1130890012318460837BD4680BD00BFAC000020C8
S11308A080B582B000AF78603960114A7B6813600C
S11308B0104B114A1A600F4A3B6853600F4B0022D9
S11308C01A700E4B00225A7004F0C2F9034603F466
S11308D08073002B09D004F093F9064B5B68002B5E
S11308E003D0044B5B68042098470837BD4680BD9D
S11308F0AC000020A000002075080000B00000201B
S113090080B584B000AF0023FB730023BB6003F009
S1130910EBFA786000F072F80346FB70FB78022B68
S113092002D0FB78032B01D103F060FC00F066F8E1
S11309300346FB70FB78002B08D0FB78032B05D80B
S1130940FB78184600F07AF80346FB730F4B9B685C
S1130950002B05D00D4B9B68FA7B10469847B86076
S1130960BB6803F00103002BE0D1FB7B022B02D018
S1130970FB7B032B01D103F03FFC786803F0C4FA3E
S1130980FB7B18461037BD4680BD00BFA000002089
S113099080B582B000AF0346FB71FB79012B02D90D
S11309A0FB79032B04D913484FF4957102F0F2F943
S11309B0FB79023B104AD35CFF2B04D10D4840F273
S11309C02B1102F0E7F9FB79022B02D0FB79032B00
S11309D00CD1FB79023B084AD25C0132D1B2064AFF
S11309E0D154FB79022B01D1FFF73AFF0837BD46FA
S11309F080BD00BF245B0000B000002080B483B041
S1130A0000AF0123FB710C4B1B78002B07D1022391
S1130A10FB71094B5B78002B01D10323FB71FB793C
S1130A20032B01D90323FB71FB7918460C37BD4610
S1130A305DF8047B704700BFB000002080B584B02F
S1130A4000AF0346FB710123FB73FB79002B02D03B
S1130A50FB79042B04D922484FF4CF7102F09AF9A0
S1130A60204B1B68002B06D01E4B1B68FA791046DE
S1130A7098470346FB73FB7B83F00103DBB2002B37
S1130A8001D0002327E0FB79013B032B18D801A2F6
S1130A9052F823F0A50A0000AB0A0000B30A0000D4
S1130AA0BB0A0000FFF7CCFE0BE0002003F0FEFAC7
S1130AB007E0002003F040FB03E003F0A3FB00E0A9
S1130AC000BF084B5B68002B04D0064B5B68FA79C7
S1130AD010469847FB7918461037BD4680BD00BFC5
S1130AE0245B0000A000002080B584B000AF7860D3
S1130AF00023FB607B6803F00703002B04D07B68B2
S1130B0023F0070308337B6001F0A8F8164B1B6839
S1130B10002B05D1154B23F007031A46124B1A601C
S1130B20134B1A687B68134442F21F32934213D862
S1130B300F4B1A687B681A440D4B1B689A420BD9F9
S1130B40094B1A680A4B1B681344FB60084B1A686C
S1130B507B681344064A136001F0C8F8FB68184622
S1130B601037BD4680BD00BFE0230020BC0000203C
S1130B70DC23002080B582B000AF78607B68002B56
S1130B8003D00348AB2102F005F90837BD4680BD08
S1130B908C5B000080B483B000AF78607B6803F1A5
S1130BA008027B685A607B684FF0FF329A607B686A
S1130BB003F108027B68DA607B6803F108027B6852
S1130BC01A617B6800221A600C37BD465DF8047B0D
S1130BD0704700BF80B483B000AF78607B680022A8
S1130BE01A610C37BD465DF8047B704780B485B04C
S1130BF000AF786039607B685B68FB603B68FA68CB
S1130C005A60FB689A683B689A60FB689B683A681C
S1130C105A60FB683A689A603B687A681A617B6834
S1130C201B685A1C7B681A601437BD465DF8047B48
S1130C30704700BF80B485B000AF786039603B680E
S1130C401B68BB60BB68B3F1FF3F03D17B681B69C2
S1130C50FB600CE07B680833FB6002E0FB685B68C8
S1130C60FB60FB685B681A68BB689A42F6D9FB684C
S1130C705A683B685A603B685B683A689A603B68AC
S1130C80FA689A60FB683A685A603B687A681A6145
S1130C907B681B685A1C7B681A601437BD465DF874
S1130CA0047B704780B485B000AF78607B681B69B3
S1130CB0FB607B685B687A6892689A607B689B6873
S1130CC07A6852685A60FB685A687B689A4203D112
S1130CD07B689A68FB685A607B6800221A61FB682B
S1130CE01B685A1EFB681A60FB681B681846143799
S1130CF0BD465DF8047B704780B485B000AFF860F2
S1130D00B9607A60FB68043BFB60FB684FF080725B
S1130D101A60FB68043BFB60BB6823F00102FB68BC
S1130D201A60FB68043BFB60094AFB681A60FB68B5
S1130D30143BFB607A68FB681A60FB68203BFB602D
S1130D40FB6818461437BD465DF8047B704700BF46
S1130D50550D000080B582B000AF094B1B68B3F19C
S1130D60FF3F03D00748F22102F014F84FF0BF030D
S1130D7083F31188BFF36F8FBFF34F8F7B60FEE760
S1130D800C000020105C00000000000000000000C7
S1130D90074B19680868B0E8F00F80F30988BFF3BF
S1130DA06F8F4FF0000080F311884EF00D0E7047E6
S1130DB0EC23002006480068006880F3088862B6C7
S1130DC061B6BFF34F8FBFF36F8F00DF00BF00002A
S1130DD008ED00E080B584B000AF284BFB60FB68F1
S1130DE01B78DBB2BB60FB68FF221A70FB681B78C0
S1130DF0DBB2FB71FB79DBB223F04003DAB2204BA8
S1130E001A70204B07221A6009E01E4B1B68013B35
S1130E101C4A1360FB79DBB25B00DBB2FB71FB792C
S1130E20DBB2DBB25BB2002BEFDB164B1B681B02A1
S1130E30144A1360134B1B6803F4E063114A1360F4
S1130E40BB68DAB2FB681A700F4A0F4B1B6843F495
S1130E507F0313600C4A0C4B1B6843F07F43136001
S1130E6004F090F9094B00221A60FFF7A3FFFFF783
S1130E7071FF002318461037BD4680BD00E400E032
S1130E80E4230020E823002020ED00E00C000020F3
S1130E9080B582B000AF4FF0BF0383F31188BFF376
S1130EA06F8FBFF34F8F7B600A4B1B680133094A76
S1130EB01360084B1B68012B09D1074B1B68DBB27D
S1130EC0002B04D0054840F27F1101F063FF08377E
S1130ED0BD4680BD0C00002004ED00E0105C000065
S1130EE080B582B000AF0D4B1B68002B04D10C48B9
S1130EF04FF4C37101F04EFF084B1B68013B074AD6
S1130F001360064B1B68002B04D100237B607B68B5
S1130F1083F311880837BD4680BD00BF0C00002054
S1130F20105C000000000000000000000000000051
S1130F30EFF30980BFF36F8F0D4B1A6820E9F00FB0
S1130F4010602DE908404FF0BF0080F3118801F0D4
S1130F5053F84FF0000080F31188BDE80840196889
S1130F600868B0E8F00F80F30988BFF36F8F70470B
S1130F70EC23002080B582B000AF4FF0BF0383F3B1
S1130F801188BFF36F8FBFF34F8F7B6000F078FF42
S1130F900346002B03D0064B4FF080521A60002307
S1130FA03B603B6883F311880837BD4680BD00BFB2
S1130FB004ED00E080B582B000AFEFF305837B6001
S1130FC07B680F2B0ED90F4A7B6813441B78FB7088
S1130FD00D4B1B78FA789A4204D20C4840F29E21B9
S1130FE001F0D8FE0A4B1B6803F4E062094B1B684E
S1130FF09A4204D9054840F2AE2101F0CBFE0837ED
S1131000BD4680BDF0E300E0E4230020105C000056
S11310100CED00E0E823002080B584B000AF7860D8
S113102039607B68FB60FB68002B04D12A4840F2DE
S11310301B1101F0AFFEFFF72BFFFB681A68FB687A
S1131040DB6BF968096C01FB03F31A44FB685A6013
S1131050FB6800229A63FB681A68FB689A60FB6865
S11310601A68FB68DB6B013BF968096C01FB03F34D
S11310701A44FB68DA60FB68FF2283F84420FB68AB
S1131080FF2283F845203B68002B14D1FB681B69C1
S1131090002B1AD0FB681033184601F047F80346BA
S11310A0002B12D00D4B4FF080521A60BFF34F8FBC
S11310B0BFF36F8F09E0FB6810331846FFF76AFD32
S11310C0FB6824331846FFF765FDFFF709FF01238A
S11310D018461037BD4680BD945C000004ED00E066
S11310E090B58BB002AFF860B9601346FB71FB6832
S11310F0002B04D114484FF4C47101F04BFEBB68BB
S1131100002B02D10023FB6104E0FB68BA6802FBF8
S113111003F3FB61FB6948331846FFF7E5FCB8614C
S1131120BB69002B0BD0BB6948337B61FC79BB697D
S11311300093F868B9687A69234600F007F8BB6938
S113114018462437BD4690BD945C000080B584B039
S113115000AFF860B9607A60FB70BB68002B03D104
S1131160BB69BA691A6002E0BB697A681A60BB6934
S1131170FA68DA63BB69BA681A64B8690121FFF7CF
S11311804BFF1037BD4680BD80B58AB000AFF86014
S1131190B9607A603B6000237B62FB683B623B6A18
S11311A0002B04D1654840F2D92101F0F3FDBB685E
S11311B0002B08D13B6A1B6C002B04D05F4840F223
S11311C0DA2101F0E7FD3B68022B08D13B6ADB6BB7
S11311D0012B04D0594840F2DB2101F0DBFD01F082
S11311E08DF90346002B07D17B68002B04D05348AC
S11311F040F2DE2101F0CEFDFFF74AFE3B6A9A6B16
S11312003B6ADB6B9A4202D33B68022B29D1386AD2
S1131210B9683A6800F012FAF8613B6A5B6A002B1D
S113122010D03B6A2433184600F080FF0346002B9D
S113123013D0434B4FF080521A60BFF34F8FBFF36C
S11312406F8F0AE0FB69002B07D03D4B4FF08052B3
S11312501A60BFF34F8FBFF36F8FFFF741FE012377
S113126067E07B68002B03D1FFF73AFE002360E0C0
S11312707B6A002B06D107F11403184600F0B8FF6F
S113128001237B62FFF72CFE00F0E8FCFFF700FE71
S11312903B6A93F84430DBB25BB2B3F1FF3F03D156
S11312A03B6A002283F844203B6A93F84530DBB262
S11312B05BB2B3F1FF3F03D13B6A002283F84520C0
S11312C0FFF70EFE07F114023B1D1046194600F00D
S11312D0ADFF0346002B24D1386A00F0A9FA034677
S11312E0002B18D03B6A03F110027B6810461946A4
S11312F000F0D6FE386A00F033FA00F0F7FC03463B
S1131300002B15D10E4B4FF080521A60BFF34F8F54
S1131310BFF36F8F0CE0386A00F022FA00F0E6FCAD
S11313206AE7386A00F01CFA00F0E0FC002300E0F1
S113133062E718462837BD4680BD00BF945C0000B4
S113134004ED00E080B58CB000AFF860B9607A605D
S11313503B60FB68BB62BB6A002B04D1374840F298
S11313609F3101F017FDBB68002B08D1BB6A1B6CD1
S1131370002B04D031484FF4687101F00BFD3B6839
S1131380022B08D1BB6ADB6B012B04D02B4840F243
S1131390A13101F0FFFCFFF70DFEEFF311824FF0D6
S11313A0BF0383F31188BFF36F8FBFF34F8FFA61CD
S11313B0BB61FB697B62BB6A9A6BBB6ADB6B9A425B
S11313C002D33B68022B2CD1BB6A93F8453087F8D3
S11313D02330B86AB9683A6800F030F997F92330D5
S11313E0B3F1FF3F12D1BB6A5B6A002B16D0BB6A14
S11313F02433184600F09AFE0346002B0ED07B6877
S1131400002B0BD07B6801221A6007E097F8233089
S11314100133DBB2DAB2BB6A83F845200123FB62F5
S113142001E00023FB627B6A7B617B6983F31188A3
S1131430FB6A18463037BD4680BD00BF945C00008F
S113144080B58AB000AFF860B9607A603B60002371
S11314507B62FB683B623B6A002B04D1754840F217
S1131460DC4101F097FCBB68002B08D13B6A1B6C84
S1131470002B04D06F4840F2DD4101F08BFC01F0F9
S11314803DF80346002B07D17B68002B04D0694844
S11314904FF49C6101F07EFCFFF7FAFC3B6A9B6B06
S11314A0FB61FB69002B46D03B6ADB68BB61386A91
S11314B0B96800F02FF93B68002B21D1FB695A1E53
S11314C03B6A9A633B6A1B68002B04D101F02AF93A
S11314D002463B6A5A603B6A1B69002B27D03B6A71
S11314E01033184600F022FE0346002B1FD0524B47
S11314F04FF080521A60BFF34F8FBFF36F8F16E027
S11315003B6ABA69DA603B6A5B6A002B0FD03B6ABC
S11315102433184600F00AFE0346002B07D0464B3E
S11315204FF080521A60BFF34F8FBFF36F8FFFF7F6
S1131530D7FC01237AE07B68002B03D1FFF7D0FCB2
S1131540002373E07B6A002B06D107F110031846D1
S113155000F04EFE01237B62FFF7C2FC00F07EFB2D
S1131560FFF796FC3B6A93F84430DBB25BB2B3F10D
S1131570FF3F03D13B6A002283F844203B6A93F87F
S11315804530DBB25BB2B3F1FF3F03D13B6A0022CB
S113159083F84520FFF7A4FC07F110023B1D104619
S11315A0194600F043FE0346002B31D1386A00F09F
S11315B029F90346002B25D03B6A1B68002B08D170
S11315C0FFF766FC3B6A5B68184600F0B5FFFFF75F
S11315D087FC3B6A03F124027B681046194600F03D
S11315E05FFD386A00F0BCF800F080FB0346002B76
S11315F01BD1114B4FF080521A60BFF34F8FBFF3D2
S11316006F8F12E0386A00F0ABF800F06FFB43E72D
S1131610386A00F0A5F800F069FB386A00F0F2F8C7
S11316200346002B01D0002300E035E71846283795
S1131630BD4680BD945C000004ED00E080B586B03A
S113164000AFF860B9607A6000237B61FB689B6B34
S11316503B61FB681B6C002B0DD1FB681B68002BE6
S11316604FD1FB685B68184600F0DEFF7861FB68C9
S113167000225A6045E07B68002B1AD1FB689A6807
S1131680FB681B6C1046B9681A4604F0BBF8FB688B
S11316909A68FB681B6C1A44FB689A60FB689A683A
S11316A0FB685B689A422CD3FB681A68FB689A60F3
S11316B027E0FB68DA68FB681B6C1046B9681A46B9
S11316C004F0A0F8FB68DA68FB681B6C5B421A4400
S11316D0FB68DA60FB68DA68FB681B689A4207D229
S11316E0FB685A68FB681B6C5B421A44FB68DA604F
S11316F07B68022B05D13B69002B02D03B69013B7F
S11317003B613B695A1CFB689A637B69184618372E
S1131710BD4680BD80B582B000AF786039607B681B
S11317201B6C002B19D07B68DA687B681B6C1A442D
S11317307B68DA607B68DA687B685B689A4203D30B
S11317407B681A687B68DA607B68DA687B681B6C84
S1131750386811461A4604F055F80837BD4680BD6E
S113176080B584B000AF7860FFF792FB7B6893F894
S11317704530FB7313E07B685B6A002B0AD07B68FF
S11317802433184600F0D2FC0346002B03D000F0AB
S1131790A3FD00E007E0FB7B013BDBB2FB7397F9A1
S11317A00F30002BE7DC7B68FF2283F84520FFF72E
S11317B097FBFFF76DFB7B6893F84430BB7313E032
S11317C07B681B69002B0ED07B681033184600F031
S11317D0ADFC0346002B01D000F07EFDBB7B013B3A
S11317E0DBB2BB7300E003E097F90E30002BE7DCBB
S11317F07B68FF2283F84420FFF772FB1037BD4655
S113180080BD00BF80B584B000AF7860FFF740FBB7
S11318107B689B6B002B02D10123FB6001E000235A
S1131820FB60FFF75DFBFB6818461037BD4680BDC3
S113183080B584B000AF7860FFF72AFB7B689A6BB1
S11318407B68DB6B9A4202D10123FB6001E0002339
S1131850FB60FFF745FBFB6818461037BD4680BDAB
S113186080B485B000AF786039600023FB6014E079
S11318700E4AFB6852F83330002B0BD10B49FB683E
S11318803A6841F83320094AFB68DB0013447A685C
S11318905A6005E0FB680133FB60FB68092BE7D95C
S11318A01437BD465DF8047B704700BF1425002043
S11318B080B586B000AFF860B9607A60FB687B6180
S11318C0FFF7E6FA7B6993F84430DBB25BB2B3F11D
S11318D0FF3F03D17B69002283F844207B6993F89E
S11318E04530DBB25BB2B3F1FF3F03D17B69002229
S11318F083F84520FFF7F4FA7B699B6B002B06D134
S11319007B6924331846B9687A6800F0E9FB786982
S1131910FFF726FF1837BD4680BD00BF80B58CB0E9
S113192004AFF860B9603B601346FB80FB889B0002
S11319301846FFF7D9F878617B69002B0ED0502048
S1131940FFF7D2F8F861FB69002B03D0FB697A69D1
S11319501A6305E07869FFF70DF901E00023FB61E4
S1131960FB69002B13D0FA88BB6A0093FB6A0193CE
S1131970FB69029300230393F868B9683B6800F09D
S11319800FF8F86900F086F80123BB6102E04FF01C
S1131990FF33BB61BB6918462037BD4680BD00BF1D
S11319A080B586B000AFF860B9607A603B60BB6A0E
S11319B01A6B7B6803F18043013B9B0013443B613A
S11319C03B6923F007033B613B6903F00703002BEA
S11319D004D02F4840F22B3101F0DCF900237B6165
S11319E013E0BA687B6913441978BA6A7B691344B3
S11319F030330A461A71BA687B6913441B78002B8A
S1131A0000D105E07B6901337B617B69092BE8D94F
S1131A10BB6A002283F83D203B6A022B01D90223D2
S1131A203B62BB6A3A6ADA62BB6A3A6A1A64BB6AA4
S1131A3000225A64BB6A04331846FFF7CBF8BB6A2A
S1131A4018331846FFF7C6F8BB6ABA6A1A613B6ACC
S1131A50C3F10302BB6A9A61BB6ABA6A5A62BB6A7F
S1131A6000229A64BB6A002283F84C203869F96822
S1131A703A68FFF741F90246BB6A1A607B6A002B99
S1131A8002D07B6ABA6A1A601837BD4680BD00BFAF
S1131A90045D000080B582B000AF7860FFF7F8F90C
S1131AA02B4B1B6801332A4A13602A4B1B68002BFB
S1131AB009D1284A7B681360254B1B68012B10D180
S1131AC000F070FC0DE0244B1B68002B09D1214B66
S1131AD01B68DA6A7B68DB6A9A4202D81D4A7B6813
S1131AE013601E4B1B6801331C4A13607B68DB6A5E
S1131AF01A46012303FA02F2194B1B681343184ACE
S1131B0013607B68DA6A13469B0013449B00154AF2
S1131B101A447B68043310461946FFF767F8FFF749
S1131B20DFF90D4B1B68002B0ED00A4B1B68DA6AD9
S1131B307B68DB6A9A4207D20B4B4FF080521A60E3
S1131B40BFF34F8FBFF36F8F0837BD4680BD00BF13
S1131B509C240020EC230020A8240020B82400208A
S1131B60A4240020F023002004ED00E080B584B01C
S1131B7000AF78600023FB607B68002B11D0104B12
S1131B801B68002B04D00F4840F2CF4101F002F94A
S1131B9000F064F87868002100F0D8FD00F0A6F8A1
S1131BA0F860FB68002B07D1074B4FF080521A6096
S1131BB0BFF34F8FBFF36F8F1037BD4680BD00BF9B
S1131BC0C4240020045D000004ED00E080B584B06E
S1131BD002AF002300931A4B01931A481A498C222E
S1131BE00023FFF79BFE78607B68012B02D100F095
S1131BF011FE78607B68012B15D14FF0BF0383F38E
S1131C001188BFF36F8FBFF34F8F3B600F4B4FF0C3
S1131C10FF321A600E4B01221A600E4B00221A602A
S1131C20FFF7D8F808E07B68B3F1FF3F04D10A4816
S1131C3040F2847101F0AEF80837BD4680BD00BFA4
S1131C40C0240020F1220000745D0000BC240020A8
S1131C50A8240020A0240020045D000080B400AF6C
S1131C60044B1B680133034A1360BD465DF8047BD3
S1131C70704700BFC424002080B485B000AF0023A7
S1131C80BB6001237B60144B1A687B689A4201D9BC
S1131C900123BB60114B1B68DB6A002B02D00023BD
S1131CA0FB6012E00E4B1B68012B02D90023FB6082
S1131CB00BE0BB68002B02D00023FB6005E0094B5E
S1131CC01A68094B1B68D31AFB60FB681846143763
S1131CD0BD465DF8047B7047A4240020EC2300205B
S1131CE0F0230020BC240020A024002080B584B070
S1131CF000AF0023FB600023BB603F4B1B68002B3D
S1131D0004D13E484FF4FD6101F044F8FFF7C0F8F8
S1131D10394B1B68013B384A1360374B1B68002B57
S1131D2063D1374B1B68002B5FD030E0354BDB6849
S1131D30DB68FB60FB6818331846FEF7B3FFFB68EB
S1131D4004331846FEF7AEFFFB68DB6A1A4601232C
S1131D5003FA02F22C4B1B6813432B4A1360FB68F3
S1131D60DA6A13469B0013449B00284A1A44FB6812
S1131D70043310461946FEF739FFFB68DA6A244B30
S1131D801B68DB6A9A4202D3224B01221A601D4B64
S1131D901B68002BCAD1FB68002B01D000F08AFB22
S1131DA01D4B1B687B607B68002B10D000F068F82B
S1131DB00346002B02D0174B01221A607B68013BBB
S1131DC07B607B68002BF1D1134B00221A60114B0E
S1131DD01B68002B09D00123BB60104B4FF08052CD
S1131DE01A60BFF34F8FBFF36F8FFFF779F8BB68AB
S1131DF018461037BD4680BDC4240020045D000091
S1131E009C2400205C240020A4240020F023002033
S1131E10EC230020B0240020AC24002004ED00E0DA
S1131E2080B483B000AF054B1B687B607B681846A9
S1131E300C37BD465DF8047B704700BFA02400202A
S1131E4080B582B000AF78600A4B1A687B681A4488
S1131E50094B1B689A4204D9084840F6711100F0F6
S1131E6099FF044B1A687B681344024A13600837CD
S1131E70BD4680BDA0240020BC240020045D0000D9
S1131E8080B586B000AF00237B614F4B1B68002BED
S1131E9040F089804D4B1B6801333B614B4A3B69E1
S1131EA013603B69002B1AD1494B1B681B68002B3C
S1131EB004D0484840F6D91100F06CFF444B1B682D
S1131EC0FB60454B1B68424A1360434AFB6813603E
S1131ED0424B1B680133414A136000F0EBFA404B5C
S1131EE01B683A699A424FD3394B1B681B68002B15
S1131EF001D1012300E00023002B04D0384B4FF024
S1131F00FF321A6040E0324B1B68DB68DB68BB6061
S1131F10BB685B687B603A697B689A4203D2304A4B
S1131F207B68136030E0BB6804331846FEF7BAFEE2
S1131F30BB689B6A002B04D0BB6818331846FEF7B5
S1131F40B1FEBB68DB6A1A46012303FA02F2254B91
S1131F501B681343234A1360BB68DA6A13469B0069
S1131F6013449B00204A1A44BB68043310461946A4
S1131F70FEF73CFEBB68DA6A1C4B1B68DB6A9A42BC
S1131F8001D301237B61AFE7184B1B68DA6A16495A
S1131F9013469B0013449B000B441B68012B01D97F
S1131FA001237B6104E0124B1B680133104A136068
S1131FB0104B1B68002B01D001237B617B69184601
S1131FC01837BD4680BD00BFC4240020A0240020D3
S1131FD054240020045D000058240020B424002070
S1131FE0BC240020A4240020F0230020EC230020A3
S1131FF0AC240020B024002080B584B000AF224B74
S11320001B68002B03D0214B01221A6039E01F4BBF
S113201000221A601E4B1B687B607B68B3FA83F353
S1132020FB70FB78C3F11F03FB601A49FA6813467F
S11320309B0013449B000B441B68002B04D11648DF
S113204040F6F62100F0A6FEFA6813469B001344FE
S11320509B00104A1344BB60BB685B685A68BB684A
S11320605A60BB685A68BB6808339A4204D1BB689B
S11320705B685A68BB685A60BB685B68DB68074A80
S113208013601037BD4680BDC4240020B024002056
S1132090A4240020F0230020045D0000EC23002091
S11320A080B582B000AF786039607B68002B04D1C2
S11320B0094840F6063100F06DFE084B1B681833E2
S11320C078681946FEF7B6FD3868012100F03EFB3A
S11320D00837BD4680BD00BF045D0000EC2300202E
S11320E080B584B000AFF860B9607A60FB68002BFB
S11320F004D10C4840F6313100F04CFE0A4B1B6809
S11321001833F8681946FEF771FD7B68002B02D07E
S11321104FF0FF33BB60B868796800F017FB1037E5
S1132120BD4680BD045D0000EC23002080B584B072
S113213000AF78607B68DB68DB68BB60BB68002B42
S113214004D1244840F6613100F024FEBB68183302
S11321501846FEF7A7FD204B1B68002B1ED1BB6859
S113216004331846FEF79EFDBB68DB6A1A4601235A
S113217003FA02F2194B1B681343184A1360BB6835
S1132180DA6A13469B0013449B00154A1A44BB6841
S1132190043310461946FEF729FD05E0BB681833E1
S11321A010481946FEF722FDBB68DA6A0E4B1B681D
S11321B0DB6A9A4205D90123FB600C4B01221A60A9
S11321C001E00023FB6000F075F9FB681846103746
S11321D0BD4680BD045D0000C4240020A42400206A
S11321E0F02300205C240020EC230020B0240020F5
S11321F080B582B000AF78607B68002B04D10848BA
S113220040F6C13100F0C6FD064B1A687B681A60BF
S1132210054B1A687B685A600837BD4680BD00BF0D
S1132220045D0000B4240020A024002080B584B004
S113223000AF786039607B68002B04D1234840F6F6
S1132240CB3100F0A7FD3B68002B04D11F4840F6BA
S1132250CC3100F09FFDFEF71BFE1D4B1B68BB60DD
S11322603B681B68B3F1FF3F02D10023FB6026E00B
S11322707B681A68174B1B689A4207D07B685A68B8
S1132280BB689A4202D80123FB6018E07B685B6854
S1132290BA68D21A3B681B689A420ED23B681A6825
S11322A07B685968BB68CB1A1A443B681A60786823
S11322B0FFF79EFF0023FB6001E00123FB60FEF7B4
S11322C00FFEFB6818461037BD4680BD045D000054
S11322D0A0240020B424002080B400AF034B0122CA
S11322E01A60BD465DF8047B704700BFB02400202F
S11322F080B584B000AF786000F092F8FFF7BCFCC2
S1132300F860FB68012B17D9FFF7A8FC0B4B1A6880
S11323100B4B1B689A4204D20A4840F68C4100F0E9
S113232039FDFFF7A9FCF860FB68012B02D9F868B6
S113233002F072FFFFF7DAFCDEE700BFBC240020E6
S1132340A0240020045D000080B483B000AF01230A
S11323503B600123FB710F4B1B68002B02D0002351
S1132360FB7110E00C4B1B68002B02D00023FB71A7
S113237009E00A4B1A680A4B19683B68CB1A9A425F
S113238001D10223FB71FB7918460C37BD465DF879
S1132390047B70475C240020B024002088240020A3
S11323A09C24002080B582B000AF00237B600CE049
S11323B07A6813469B0013449B00114A1344184641
S11323C0FEF7E8FB7B6801337B607B68022BEFD967
S11323D00C48FEF7DFFB0C48FEF7DCFB0B48FEF76E
S11323E0D9FB0B48FEF7D6FB0A48FEF7D3FB0A4B92
S11323F0044A1A60094B044A1A600837BD4680BD76
S1132400F02300202C240020402400205C24002001
S11324107024002088240020542400205824002004
S113242080B582B000AF28E0FFF718FC164B1B689C
S1132430002B0CBF01230023DBB27B60FFF756FCAB
S11324407B68002B19D1FEF723FD0F4BDB68DB689B
S11324503B603B6804331846FEF724FC0B4B1B68B7
S1132460013B0A4A13600A4B1B68013B084A13608C
S1132470FEF736FD386800F00DF8054B1B68002B9D
S1132480D2D10837BD4680BD702400209C24002092
S11324908424002080B582B000AF78607B681B6B19
S11324A01846FEF767FB7868FEF764FB0837BD46FD
S11324B080BD00BF80B483B000AF0E4B1B681B68A7
S11324C0002B01D1012300E00023002B04D00A4B90
S11324D04FF0FF321A6008E0064B1B68DB68DB68CC
S11324E07B607B685B68044A13600C37BD465DF80B
S11324F0047B704754240020BC24002080B483B0A3
S113250000AF0B4B1B68002B02D101237B6008E05A
S1132510084B1B68002B02D102237B6001E00023DF
S11325207B607B6818460C37BD465DF8047B7047BA
S1132530A8240020C424002080B584B000AF7860B3
S11325407B68FB607B68002B64D0FB68DA6A334BE2
S11325501B68DB6A9A425DD2FB689B69002B06DB31
S11325602E4B1B68DB6AC3F10302FB689A61FB68AC
S11325705969FB68DA6A13469B0013449B00284A96
S11325801344994201D1012300E00023002B3CD0E5
S1132590FB6804331846FEF785FB0346002B15D170
S11325A0FB68DA6A1E4913469B0013449B000B44E4
S11325B01B68002B0AD1FB68DB6A1A46012393408F
S11325C0DA43184B1B681340164A1360134B1B68FD
S11325D0DA6AFB68DA62FB68DB6A1A46012303FAEB
S11325E002F2104B1B6813430E4A1360FB68DA6A4D
S11325F013469B0013449B00094A1A44FB680433A6
S113260010461946FEF7F2FA04E0044B1B68DA6A36
S1132610FB68DA621037BD4680BD00BFEC230020A2
S1132620F0230020A424002080B584B000AF78609B
S11326307B68BB600023FB607B68002B64D0354B58
S11326401B68BA689A4204D0334840F6C76100F068
S1132650A1FBBB685B6C002B04D12F4840F6C96119
S113266000F098FBBB685B6C5A1EBB685A64BB687D
S1132670DA6ABB681B6C9A4246D0BB685B6C002B61
S113268042D1BB6804331846FEF70CFB0346002B0B
S113269015D1BB68DA6A214913469B0013449B0099
S11326A00B441B68002B0AD1BB68DB6A1A46012362
S11326B09340DA431A4B1B681340194A1360BB68F2
S11326C01A6CBB68DA62BB68DB6AC3F10302BB68DD
S11326D09A61BB68DB6A1A46012303FA02F2104BC3
S11326E01B6813430E4A1360BB68DA6A13469B00E7
S11326F013449B00094A1A44BB6804331046194624
S1132700FEF774FA0123FB60FB6818461037BD46D8
S113271080BD00BFEC230020045D0000F0230020F6
S1132720A424002080B400AF074B1B68002B04D006
S1132730054B1B685A6C01325A64034B1B681846DC
S1132740BD465DF8047B7047EC23002080B584B05F
S113275000AF78603960284B1B68FB60274B1B680F
S113276004331846FEF79EFA0346002B0BD1234B85
S11327701B68DB6A1A4601239340DA43204B1B682B
S113278013401F4A13607B68B3F1FF3F0AD13B68D3
S1132790002B07D0194B1B6804331A481946FEF75F
S11327A025FA26E0FA687B681344BB60134B1B6868
S11327B0BA685A60BA68FB689A4209D2124B1A681E
S11327C00E4B1B68043310461946FEF733FA10E02B
S11327D00E4B1A68094B1B68043310461946FEF762
S11327E029FA0B4B1B68BA689A4202D2084ABB68A2
S11327F013601037BD4680BDA0240020EC230020C8
S1132800A4240020882400205824002054240020DC
S1132810BC24002080B584B002AF00237B6000F0AC
S113282083FA0E4B1B68002B0AD0022300930C4B37
S113283001930C480C498C220023FFF76FF8786051
S11328407B68002B04D1094840F2331100F0A2FA4E
S11328507B6818460837BD4680BD00BFF8240020B9
S1132860FC240020892900007C5D0000845D0000B8
S113287080B588B000AFF860B9607A603B6000232F
S1132880FB61FB68002B04D11F484FF4D37100F0A7
S113289081FA1E4B1B68002B30D0BB683B617B6800
S11328A07B61FB68BB61BB68052B1CDCFFF726FE64
S11328B00346022B0BD1154B1A6807F1100310467F
S11328C01946BA6A0023FEF75FFCF86116E00F4B65
S11328D01A6807F110031046194600220023FEF778
S11328E053FCF8610AE0094B1A6807F1100310461B
S11328F019463A680023FEF725FDF861FB6918467E
S11329002037BD4680BD00BF845D0000F824002050
S113291080B586B002AF78603960194B1B68DB68FC
S1132920DB68FB60FB6804331846FEF7BBF9FB6801
S1132930DB69012B1DD1FB689A697B681344F86835
S113294019463A687B6800F0C3F80346002B10D0A0
S113295000230093F86800217A680023FFF788FFBA
S1132960B860BB68002B04D106484FF4027100F034
S113297011FAFB685B6AF86898471037BD4680BD5A
S1132980F0240020845D000080B584B000AF78603E
S113299007F10803184600F057F8F860BB68F868B8
S11329A0194600F003F800F0D5F8F1E780B584B0DB
S11329B000AF78603960FFF751F907F10803184652
S11329C000F066F8F860BB68002B31D13B68002B3F
S11329D00AD17A68FB689A4206D8FFF787F97868C3
S11329E0F968FFF795FF25E03B68002B08D0134BEF
S11329F01B681B68002B0CBF01230023DBB23B6068
S1132A000F4B19687A68FB68D31A084619463A6866
S1132A10FEF74EFFFFF76AF90346002B0AD1094B74
S1132A204FF080521A60BFF34F8FBFF36F8F01E0F6
S1132A30FFF75CF91037BD4680BD00BFF4240020C9
S1132A40F824002004ED00E080B485B000AF786085
S1132A500E4B1B681B68002B0CBF01230023DBB249
S1132A601A467B681A607B681B68002B05D1074BEC
S1132A701B68DB681B68FB6001E00023FB60FB68EC
S1132A8018461437BD465DF8047B7047F0240020D7
S1132A9080B584B000AF7860FFF7C2F9F8600B4BE3
S1132AA01B68FA689A4205D200F0E2F87B680122BA
S1132AB01A6002E07B6800221A60044AFB68136013
S1132AC0FB6818461037BD4680BD00BF00250020B6
S1132AD080B586B000AFF860B9607A603B600023CF
S1132AE07B61FB68BA685A60FB68FA681A61BA6865
S1132AF07B689A4212D87A683B68D21AFB689B6951
S1132B009A4202D301237B611BE0104B1A68FB68D5
S1132B10043310461946FEF78DF812E07A683B68D4
S1132B209A4206D2BA683B689A4202D301237B6177
S1132B3007E0074B1A68FB68043310461946FEF792
S1132B4079F87B6918461837BD4680BDF424002007
S1132B50F024002080B58AB002AF73E0BB68002B7C
S1132B6070DB3B69FB61FB695B69002B04D0FB698B
S1132B7004331846FEF796F83B1D1846FFF788FF06
S1132B80B861BB68092B5CD801A252F823F000BFDE
S1132B90B92B0000B92B0000B92B0000452C000014
S1132BA00D2C00003B2C0000B92B0000B92B0000B9
S1132BB0452C00000D2C0000FA68FB699B691A443F
S1132BC0FB68F8691146BA69FFF782FF0346002BD8
S1132BD01BD0FB695B6AF8699847FB69DB69012BC9
S1132BE013D1FA68FB699B691A4400230093F869BE
S1132BF000210023FFF73CFE78617B69002B04D1A0
S1132C00194840F2213100F0C5F81BE0FA68FB696D
S1132C109A61FB699B69002B04D113484FF44E71F0
S1132C2000F0B8F8FB699A69BB691344F86919465E
S1132C30BA69BB69FFF74CFF04E0F869FDF79AFF36
S1132C4000E000BF094B1A6807F108031046194653
S1132C5000220023FEF7F4FB0346002B7FF47EAF33
S1132C602037BD4680BD00BF845D0000F8240020ED
S1132C7080B588B002AF3FE0284B1B68DB681B6857
S1132C807B61264B1B68DB68DB683B613B69043373
S1132C901846FEF707F83B695B6A386998473B6951
S1132CA0DB69012B28D13B699A697B691344FB607A
S1132CB0FA687B699A420ED93B69FA685A603B69A3
S1132CC03A691A61154B1A683B6904331046194670
S1132CD0FDF7B0FF10E000230093386900217A6902
S1132CE00023FFF7C5FDB860BB68002B04D10C4876
S1132CF040F2923100F04EF8084B1B681B68002B21
S1132D00BAD1064B1B687B60064B1B68034A1360F1
S1132D10044A7B6813601837BD4680BDF024002048
S1132D20845D0000F424002080B500AFFEF7B0F805
S1132D30124B1B68002B1DD11148FDF72BFF1148C6
S1132D40FDF728FF104B0E4A1A60104B0D4A1A600B
S1132D500A200C210022FEF7C3F90246074B1A6031
S1132D60064B1B68002B05D0044B1B68184608490A
S1132D70FEF776FDFEF7B4F880BD00BFF82400200E
S1132D80C8240020DC240020F0240020F4240020A7
S1132D90F85D000080B483B000AF78603960FEE76E
S1132DA080B487B000AFF860B9607A60FB6803F163
S1132DB00473DA00BB6813449B007B617B697A6807
S1132DC01A601C37BD465DF8047B704780B485B03B
S1132DD000AF786039607B6803F10473DA003B6804
S1132DE013449B00FB60FB681B6818461437BD4600
S1132DF05DF8047B704700BF80B584B000AF786095
S1132E007B68002B03D07B68B3F5004F04D90848D6
S1132E1040F2AB61FFF7BEFF7B68B3FA83F3C3F103
S1132E201F03FB60FB6818461037BD4680BD00BF1A
S1132E30005E000080B400AF044BDB6C1B0EDBB201
S1132E401846BD465DF8047B704700BFB081E00FB3
S1132E5080B400AF054BDB6C03F47F031B0CDBB2C7
S1132E601846BD465DF8047B704700BFB081E00F93
S1132E7080B582B000AFFFF7EBFF03464A2B04D0C6
S1132E80792B02D0482B21D022E0164B1B699BB230
S1132E9003F03F039BB21B02FB80124B9B6903F0C0
S1132EA0F0039AB2FB881343FB800E4BDB6903F0FB
S1132EB0F0031B099AB2FB881343FB80FB88B3F52C
S1132EC0017F01D3084B09E0084B07E0074B05E0FD
S1132ED007484FF49F71FFF75DFF0023184608373A
S1132EE0BD4680BDD0FF0FE000366E010048E8010A
S1132EF0645E000080B584B000AF78600123FB609D
S1132F00FFF7B6FF02467B689A4204D30023FB60B6
S1132F100023BB600BE0FFF7ABFF03465A007B685E
S1132F209A4202D30123BB6001E00223BB6008483C
S1132F301E21FA68FFF734FF0549054B5B6823F44B
S1132F408072BB681B0213434B601037BD4680BDC3
S1132F5000800C4080B582B000AF05481E21FFF709
S1132F6035FF78607B6818460837BD4680BD00BFD2
S1132F7000800C4080B582B000AF244B5B6903F441
S1132F80E063B3F5007F1CD0B3F5007F05D8002BB8
S1132F9025D0B3F5807F1FD02AE0B3F5C06F24D0CD
S1132FA0B3F5E06F1ED0B3F5407F21D1FFF742FFA8
S1132FB00346122B02D9164B7B6021E0154B7B6034
S1132FC01EE0FFF737FF0346122B02D9124B7B603A
S1132FD016E0124B7B6013E0114B7B6010E0114B49
S1132FE07B600DE0104B7B600AE0104B7B6007E0D8
S1132FF000237B600E4840F2BD11FFF7CBFE00BFFB
S11330007B6818460837BD4680BD00BF00800C4071
S1133010804F120040420F0040B56400C0CF6A00E8
S1133020C0D8A700809FD500406F4001003FAB018E
S1133030645E000080B582B000AF0F4800F034FC3D
S11330400346FB70FB78072B05D0092B07D1FDF74E
S113305083F978600BE0FFF78DFF786007E00023C9
S11330607B60064840F2F711FFF794FE00BF7B68CF
S113307018460837BD4680BD06000C00645E00009B
S113308080B485B000AF78603960204B5B6803F092
S11330900703FB60FB68012B01D9042B02D1002339
S11330A0FB7202E00123FB7200BF7B68184A934263
S11330B007D9FB7A002B01D0052300E00423FB6031
S11330C016E07B68124A93420BD87B68114A9342FC
S11330D007D9FB7A002B01D0032300E00123FB6016
S11330E006E0FB7A002B01D0022300E00023FB6002
S11330F00649064B5B6823F00702FB6813434B60E9
S11331001437BD465DF8047B704700BF00000C40D7
S11331100048E8010024F40080B582B000AF0D4BF4
S1133120DB6B002B14BF01230023FB71094B41F619
S11331307132DA63FDF706F9034618460021FFF7FA
S11331409FFFFB79002B02D0024B0022DA63083781
S1133150BD4680BD00000C4080B584B000AF7860EF
S113316039600C4BDB6B002B14BF01230023FB7372
S1133170084B41F67132DA6378683968FFF780FFEB
S1133180FB7B002B02D0034B0022DA631037BD46D1
S113319080BD00BF00000C4090B585B000AF7860E2
S11331A00023BB607B683B4A934208D03A4A93426F
S11331B005D03A484FF48061FFF7ECFD00E000BF12
S11331C0786800F071FB0346FB607B68314A9342E8
S11331D003D0314A934206D00CE0314B9B6A03F092
S11331E00303FB600CE02E4B9B6A03F00C039B086B
S11331F0FB6005E0294840F22F41FFF7CBFD00BFFB
S1133200FB68032B39D801A252F823F043320000A3
S11332101D320000253200002D320000FDF72EF98A
S1133220B86032E0FDF73EF9B8602EE0FDF770F8C3
S11332300446FFF78FFE0346013324FA03F3BB6011
S113324023E00023BB607B68124A934203D07B686F
S1133250114A934210D1124B9A6A7B680D498B42F2
S113326001D1102300E0142322FA03F3002B03D02E
S1133270FDF70EF9B86008E007E00023BB600748DB
S113328040F25A41FFF786FD00BFBB681846143769
S1133290BD4690BD02001A0003001C00645E0000DD
S11332A000800C4080B483B000AF7860094B5B6D44
S11332B003F00103002B00D006E000BF054B1A6D9C
S11332C07B681340002BF9D10C37BD465DF8047BB5
S11332D0704700BF00800C4080B582B000AF10483A
S11332E000F0E2FA0346FB70FB78032B07D0092BAE
S11332F009D0022B0BD1FDF7D5F878600AE0FDF771
S1133300BDF8786006E0FDF727F8786002E0002356
S11333107B6000BF7B6818460837BD4680BD00BF90
S113332007232200B0B584B000AF786039607B68B1
S11333301B0903F00F03FB60FB68013B062B00F243
S11333403A8101A252F823F065330000B73500003A
S1133350B7350000A3330000D53300002B34000040
S1133360373500003B68002B02D03B68082B04D99A
S113337095484FF4E261FFF70DFDFFF7CDFE934949
S1133380924B1B6823F4E0323B68013B9B031343DD
S11333900B60FCF7BDFFB860B8680021FFF7DCFEE6
S11333A00FE13B68002B03D03B68B3F5007F04D9E1
S11333B0854840F22371FFF7EDFC3868FFF71CFDE8
S11333C038608249814B9B6823F00F023B681343AA
S11333D08B60F6E03B68002B03D03B68B3F5007FBD
S11333E004D9794840F22B71FFF7D4FCFFF794FE1F
S11333F0FCF7B2FF02463B68B2FBF3F31846FFF753
S113340079FD3868FFF7F8FC386070496F4B5B68EA
S113341023F00F023B6813434B60FCF779FFB8605D
S1133420B8680021FFF798FECBE07B68684A9342B6
S113343027D0674A934203D8664A934207D073E081
S1133440654A934237D0654A934255D06CE03B6855
S1133450B3F5004F04D95C4840F24671FFF79AFC7B
S11334600420FFF71FFF3868FFF7C6FC3860574990
S1133470564B9B6E23F0F0023B681B0113438B6693
S113348058E03B68B3F5004F04D94F4840F25471FB
S1133490FFF780FC0420FFF705FF3868FFF7ACFC5A
S11334A038604A49494B9B6E23F470623B681B02A7
S11334B013438B663EE03B680F2B02D93B68802B9D
S11334C004D9414840F26371FFF764FC0420FFF71C
S11334D0E9FE3868FFF790FC38603C4D3B4B9B6E2F
S11334E023F440541020FFF787FC02463B689B1AE4
S11334F01B032343AB661DE03B68082B04D9324809
S113350040F27371FFF746FC0420FFF7CBFE3868E6
S1133510FFF772FC38602D492C4B9B6E23F003029D
S11335203B6813438B6605E0274840F28171FFF73F
S113353031FC00BF45E07B68294A934203D0294A05
S1133540934218D030E03B68082B04D91E4840F25F
S11335508A71FFF71FFC4020FFF7A4FE3868FFF7CD
S11335604BFC38601949194B1B6F23F003023B686D
S113357013430B671EE03B68082B04D9124840F242
S11335809971FFF707FC4020FFF78CFE3868FFF7BE
S113359033FC38600D490D4B1B6F23F030023B6840
S11335A01B0113430B6705E0074840F2A771FFF7BF
S11335B0F1FB00BF05E0044840F2AD71FFF7EAFB00
S11335C000BF1037BD46B0BD645E000000800C40F3
S11335D060261400601610006000260060062A00B1
S11335E0700716007017180080B586B000AF7860B9
S11335F00B46FB7000233B617B681B0A03F00F033F
S1133600013B092B33D801A252F823F049360000BC
S11336104F360000353600006F3600006F3600006C
S1133620553600005F3600006F3600006F3600002C
S1133630693600001B4B7B611B4800F043F80346CE
S11336401846FFF757FC18E0184B7B6115E0184B40
S11336507B6112E0174B7B6101233B610DE0164B4C
S11336607B6110233B6108E0144B7B6105E0144847
S113367040F62B01FFF78EFB10E07B681B0B03F079
S11336801F03FB603B69002B02D03869FFF70AFE79
S1133690FB787869F9681A46FFF782FB1837BD464C
S11336A080BD00BF40800C400043020008800C40F5
S11336B044800C4058800C4060800C4078800C4062
S11336C0645E000090B585B000AF78607B6803F459
S11336D07813B3F5B01F00F0AB80B3F5B01F1AD860
S11336E0B3F5402F00F0BF80B3F5402F08D8B3F5F1
S11336F0003F3CD0B3F5802F2DD0002B27D0BEE067
S1133700B3F5801F3CD0B3F5A01F47D0B3F5602FAD
S113371000F0AD80B3E0B3F5081F00F0AC80B3F562
S1133720081F0AD8B3F5D01F25D0B3F5E01F7AD00F
S1133730B3F5C01F00F08980A1E0B3F5201F4ED07F
S1133740B3F5281F62D0B3F5181F35D097E0FCF706
S113375003FEF8609BE0FCF7FFFDF8604E4B9B68AE
S113376003F00F031A46FB68D340FB608FE0FCF7BD
S1133770CFFDF8608BE04948FFF70EFDF86086E066
S11337804648FFF709FDF860434B9B6E03F0F003D6
S11337901B091A46FB68D340FB6078E03F48FFF7FB
S11337A0FBFCF8603C4B9B6E03F470631B0A1A46E7
S11337B0FB68D340FB606AE03848FFF7EDFCF86033
S11337C0354B9B6E03F440531C0B1020FFF714FB86
S11337D0034623441A46FB68D340FB6057E02F4856
S11337E0FFF7DAFCF8602C4B9B6E03F440531B0B81
S11337F01A46FB68D340FB60274BDB6F03F00703DB
S11338000133FA68B2FBF3F3FB6040E02348FFF7AF
S1133810C3FCF860204B9B6E03F003031A46FB685D
S1133820D340FB6033E01E48FFF7B6FCF8602EE09F
S11338301B48FFF7B1FCF860174B1B6F03F0030341
S11338401A46FB68D340FB6021E01548FFF7A4FC4F
S1133850F860114B1B6F03F030031B091A46FB6819
S1133860D340FB6013E0FFF7E5FBF8600FE0FFF7E0
S113387081FBF8600BE0FFF72FFDF86007E0002301
S1133880FB6008484FF41261FFF784FA00BFFB683D
S113389018461437BD4690BD00800C4002001A0043
S11338A003001C00645E000080B584B000AF786043
S11338B00123FB737B6803F00F03BB60BB68013B10
S11338C0062B00F2938001A252F823F0E93800009D
S11338D01F3900005B390000ED390000ED390000AC
S11338E097390000B9390000474BDB6A03F4705381
S11338F0B3F5805F09D0B3F5005F03D0B3F5006F73
S113390006D008E00223FB7308E00323FB7305E001
S11339100423FB7302E00523FB7300BF6EE03A4B04
S11339209B6A03F00303022B06D0032B07D0012B61
S113393008D10323FB730FE00223FB730CE006237F
S1133940FB7309E0304B9B6A03F48033002B02D0F5
S11339500A23FB7300E000BF50E02B4B9B6A03F08B
S11339600C03082B06D00C2B07D0042B08D10323FF
S1133970FB730FE00223FB730CE00623FB7309E0E7
S1133980214B9B6A03F48013002B02D00A23FB73A0
S113399000E000BF32E01C4B1B6803F08053002B97
S11339A003D0B3F1805F03D028E00723FB7302E068
S11339B00923FB7300BF21E0134BDB6A03F460337C
S11339C0B3F5803F08D0B3F5003F08D0B3F5004FFE
S11339D008D10923FB7308E00223FB7305E00323EA
S11339E0FB7302E00123FB7300BF07E00023FB73BA
S11339F0064840F6D141FFF7CDF900BFFB7B1846DE
S1133A001037BD4680BD00BF00800C40645E0000DE
S1133A1080B588B000AF78600B46FB700323FB6170
S1133A200323FB7600233B617B6803F00F03FB60F9
S1133A30FB68013B062B00F2438101A252F823F0FC
S1133A405D3A00004B3B00004B3B0000C13C0000D2
S1133A50C13C0000193C00004F3C0000FB78023BD5
S1133A60082B52D801A252F823F000BF913A00006B
S1133A709B3A0000A53A0000E73A00000B3B000027
S1133A800B3B00000B3B00000B3B0000FF3A000027
S1133A900423FB610023FB763DE00323FB61012348
S1133AA0FB7638E00223FB610223FB76FFF7E0F9A3
S1133AB0034601331846FFF71DFAFCF7CDFC024616
S1133AC0844B9A4206D9844A834B1B6843F06003B3
S1133AD0136020E0804A804B1B6823F0600343F0AE
S1133AE02003136017E00123FB610323FB76FFF738
S1133AF0BFF9034601331846FFF7FCF90BE077489A
S1133B0040F67651FFF746F9E0E0744840F67B5101
S1133B10FFF740F9DAE0FB7E18460121012200F0AC
S1133B207FF9FFF7F9FA6C4AFB6953626C48FFF7B7
S1133B30C9FD03461846FFF7DDF9FCF7E9FBB86059
S1133B40B8680021FFF708FBC0E0FB78013B092BB4
S1133B503CD801A252F823F0813B0000873B0000CF
S1133B60973B0000CD3B0000CD3B0000A73B00008D
S1133B70CD3B0000CD3B0000CD3B0000C33B00002B
S1133B8000237B6128E000200121012200F048F994
S1133B9002237B6120E001200121012200F040F991
S1133BA001237B6118E0FCF7B3FBB860B868FFF74A
S1133BB0A1F94C4804210122FFF7F2F803237B61A9
S1133BC00AE000237B6101233B6105E0434840F6A2
S1133BD01D61FFF7DFF879E0FB68022B0DD13E4948
S1133BE03D4B9B6A23F4803323F003037A691A4321
S1133BF03B691B0413438B6268E03749364B9B6A6D
S1133C0023F4801323F00C037A6992001A433B696E
S1133C101B0513438B6259E0FB78072B02D0092B59
S1133C2007D00DE02C4A2C4B1B6823F08053136003
S1133C300CE0294A284B1B6843F08053136005E0CD
S1133C40264840F67861FFF7A5F83FE03EE0FB78B0
S1133C50032B13D0092B21D0022B2AD100200121C0
S1133C60012200F0DDF81C4B40225A6200BF1A4BBF
S1133C70DB6A03F48033002BF9D020E0012001211A
S1133C80012200F0CDF8144B60225A6200BF124B9F
S1133C90DB6A03F40033002BF9D010E00E4B202232
S1133CA05A6200BF0C4BDB6A03F40043002BF9D0CB
S1133CB005E00A4840F6B761FFF76CF806E005E056
S1133CC0064840F68C71FFF765F800BF2037BD4603
S1133CD080BD00BF0048E80100800C40645E000025
S1133CE00043020040800C4080B586B000AF03461C
S1133CF0FB71FB79052B33D801A252F823F000BFE6
S1133D00193D0000233D0000313D00003F3D00000F
S1133D10493D0000533D00002A4BDB6ADBB27B6166
S1133D2024E0284BDB6A03F47F431B0A7B611DE01C
S1133D30244BDB6A03F47F031B0C7B6116E0214BED
S1133D40DB6A1B0E7B6111E01E4B1B6BDBB27B61DC
S1133D500CE01C4B1B6B03F47F431B0A7B6105E0E7
S1133D60194841F29401FFF715F827E01120FFF7F5
S1133D709BFD0346FB74FB7C052B01D1FFF7CCF9BB
S1133D801249124BDB6823F4FF6323F00703FA792B
S1133D9012021A437B691343CB60FB7C052B06D1CB
S1133DA0FCF7B6FAF860F8680021FFF7D5F908487F
S1133DB0FFF788FC03461846FFF79CF81837BD4602
S1133DC080BD00BFB081E00F645E000000800C4045
S1133DD00043020080B582B000AF78607B68802B1E
S1133DE004D90D4841F2AB21FEF7D4FF0B4B9B6D78
S1133DF003F00803002B00D00BE07B6803F00703FB
S1133E007B600649054BDB6F23F007027B68134395
S1133E10CB670837BD4680BD645E000000800C405F
S1133E2080B586B000AF0346FB710B46BB711346E9
S1133E307B71FB79042B32D801A252F823F000BF26
S1133E408D3E00007F3E0000633E0000553E0000B2
S1133E50713E000001233B610223FB6001237B616F
S1133E6023E004233B610823FB6003237B611CE004
S1133E7010233B612023FB6005237B6115E0402375
S1133E803B618023FB6007237B610EE04FF480736A
S1133E903B614FF40073FB6009237B6105E00F482D
S1133EA041F25631FEF776FF14E0BB79002B0ED0B9
S1133EB00B4A3B6913627B79002B0BD000BF094886
S1133EC07969FEF783FF0346002BF8D002E0044A29
S1133ED0FB6813621837BD4680BD00BF645E0000F6
S1133EE000800C402C800C4080B483B000AFEFF312
S1133EF010833B603B687B6072B67B6818460C3766
S1133F00BD465DF8047B704780B483B000AF786031
S1133F107B68002B00D162B60C37BD465DF8047B8C
S1133F20704700BF80B500AFFCF7F2F980BD00BF59
S1133F3080B400AF034B4AF6E8529A60BD465DF880
S1133F40047B704700600C4080B400AF034B002238
S1133F50C3F88420BD465DF8047B704700800C40A4
S1133F6080B400AF044B45F60E02C3F88420BD466E
S1133F705DF8047B704700BF00800C4080B584B0BE
S1133F8000AF0346FB71FB79002B0BD12B4BDB6A93
S1133F902B4A13601120FFF787FC03461A46294B6E
S1133FA01A7047E0254BD3F8843003F00103FB601B
S1133FB0FFF7D6FF0023BB60214B1B6803F001030E
S1133FC0BA681343BB601E4B1B6803F01003BA6846
S1133FD01343BB601A4B1B6803F04003BA681343D6
S1133FE0BB60174B1B6803F00403BA681343BB6040
S1133FF0134B1B6803F48073BA681343BB600F4A06
S1134000BB6813620F4B1B78052B05D00D4B1B7837
S113401011201946FFF7FCFC094B1B6803F0010350
S1134020002B02D1054B02221A62FB68002B01D03F
S1134030FFF78AFF1037BD4680BD00BF00800C40EB
S1134040042500200825002080B483B000AF164B5F
S11340501B699BB203F03F039BB21B02FB80124B14
S11340609B6903F0F0039AB2FB881343FB800E4B69
S1134070DB6903F0F0031B099AB2FB881343FB804E
S1134080FB88B3F5827F03D3FB88B3F5017F01D1AD
S1134090012300E0002303F00103DBB218460C37D0
S11340A0BD465DF8047B7047D0FF0FE080B586B055
S11340B000AF0346FB71FB79002B02D00020FFF711
S11340C05DFF1A4A194B1B6943F004031361FFF7A0
S11340D0BBFF0346FB75FB7D002B11D0144B1A6804
S11340E0144B1340FB60124AFB68C2F88030104B3B
S11340F05B6823F046033B610D4A3B69C2F8843098
S113410030BFFB7D002B05D0094AFB681360084AC9
S11341103B695360FB79002B03D00120FFF72EFF8E
S113412001E0FFF7FFFE1837BD4680BD00ED00E05B
S113413000E100E09CF1FD0080B586B000AF0346CD
S1134140FB71FB79002B02D00020FFF717FF234BF4
S1134150D3F8843003F001037B61FFF701FF1F4BA9
S11341604FF420721A627B69002B01D0FFF7ECFE3A
S11341701B4A1B4B1B6943F004031361FFF764FFE5
S11341800346FB74FB7C002B11D0164B1A68164BAC
S11341901340BB60134ABB68C2F88030114B5B68A4
S11341A023F04603FB600F4AFB68C2F8843030BF3B
S11341B0FB7C002B05D00B4ABB681360094AFB68E3
S11341C05360FB79002B03D00120FFF7D7FE01E0F9
S11341D0FFF7A8FE1837BD4680BD00BF00800C4025
S11341E000ED00E000E100E09CF1FD0080B500AFCF
S11341F00020FFF7C3FE80BD80B500AF0120FFF7AC
S1134200BDFE80BD80B584B000AF114B1B6823F0A8
S11342100C0343F00803BB600D4B1B6843F00C0315
S11342207B60FFF785FE0023FB6008E0084ABB685B
S11342301360074A7B681360FB680133FB60FB680B
S1134240032BF3DD024ABB6813601037BD4680BD03
S113425000600C4080B582B000AF03463960FB714A
S1134260FB79002B1FD0FB79012B19D0FB79022B92
S113427013D0FB79032B0DD0FB79042B07D0FB79EA
S1134280052B02D141F6FF730FE000230DE04FF63A
S1134290FF730AE04FF6FF7307E04FF6FF7304E085
S11342A04FF6FF7301E04FF6FF733A68134103F0D2
S11342B00103002B04D10B484FF45D71FEF76AFD36
S11342C00949FA793B68012000FA03F318461346BA
S11342D0DB0013449B000B44103358600837BD4681
S11342E080BD00BFC85E00000060004080B582B0A1
S11342F000AF03463960FB71FB79002B1FD0FB79BB
S1134300012B19D0FB79022B13D0FB79032B0DD091
S1134310FB79042B07D0FB79052B02D141F6FF73FF
S11343200FE000230DE04FF6FF730AE04FF6FF7332
S113433007E04FF6FF7304E04FF6FF7301E04FF61A
S1134340FF733A68134103F00103002B04D10B48B7
S113435040F2A131FEF71EFD0949FA793B680120BC
S113436000FA03F318461346DB0013449B000B4486
S1134370103318600837BD4680BD00BFC85E00001A
S11343800060004090B585B000AFB9607B60034623
S1134390FB731346BB73FB7B002B1FD0FB7B012BF2
S11343A019D0FB7B022B13D0FB7B032B0DD0FB7BA3
S11343B0042B07D0FB7B052B02D141F6FF730FE0E2
S11343C000230DE04FF6FF730AE04FF6FF7307E09A
S11343D04FF6FF7304E04FF6FF7301E04FF6FF73EF
S11343E0BA68134103F00103002B04D1374840F2AB
S11343F00F11FEF7CFFCBB7B002B0DD07B68002B8D
S113440005D0FB7B1846B968FFF770FF04E0FB7B1F
S11344101846B968FFF71EFFBB68072B1CD82C4C45
S1134420FA7B2B48F97B0B46DB000B449B000344CF
S11344305968BB689B0018460F238340DB430B403D
S1134440B97BB8688000814019431346DB001344EC
S11344509B002344596024E01D4CFA7B1C48F97BE3
S11344600B46DB000B449B00034408331968BB680C
S113447003F18043083B9B0018460F238340DB4332
S11344801940B87BBB6803F18043083B9B0000FAEA
S113449003F319431346DB0013449B0023440833FE
S11344A01960BB7B002B0DD17B68002B05D0FB7BF7
S11344B01846B968FFF71AFF04E0FB7B1846B96891
S11344C0FFF7C8FE1437BD4690BD00BF2C5F000047
S11344D00060004080B483B000AF0346FB71FB79F9
S11344E0002B06D0084A084B1B6843F001031360F5
S11344F005E0054A044B1B6823F0010313600C37E5
S1134500BD465DF8047B704700A0084080B487B0C6
S113451000AFF860B9607A60FB6803F10473DA00F5
S1134520BB6813449B007B617B697A681A601C3703
S1134530BD465DF8047B704780B584B000AF7860F9
S11345401D4B5B68FB607B68002B03D11B48472134
S1134550FEF720FC0020FFF7BDFFFB6823F4830374
S113456023F01F03FB607B685B68FA681343FB60FE
S11345707B681B7A1A46FB681343FB607B685B7A93
S11345801A46FB681343FB607B68DB68FA681343D5
S1134590FB607B681B8A1A46FB681343FB60064A70
S11345A0FB6853607B681B78002B02D00120FFF767
S11345B091FF1037BD4680BD00A00840905F000009
S11345C080B485B000AF78600D4B5B68FB60FB681E
S11345D023F48033FB607B68002B08D0B3F5803F65
S11345E000D005E0FB6843F48033FB6000E000BFCB
S11345F0034AFB6853601437BD465DF8047B70477B
S113460000A0084080B483B000AF03460A46FB8094
S113461013467B717B79002B06D00949084B9A68B5
S1134620FB8813438B6006E00549054B9A68FB88B9
S1134630DB4313408B600C37BD465DF8047B704749
S113464000A0084080B584B000AFF860B96013469C
S1134650FB71FB68072B04DD6E4840F21911FEF76D
S113466099FBBB68272B04DD6A484FF49071FEF771
S113467091FBFB68072B00F2C38001A252F823F0E0
S1134680A1460000CD460000F94600002547000081
S1134690514700007D470000A9470000D5470000AE
S11346A0BB681F2B07DCBA68FB795B4811461A46C6
S11346B0FFF72CFFAAE0BB68203BBB60BA68FB791C
S11346C0564811461A46FFF721FF9FE0BB681F2B8F
S11346D007DCBA68FB79524811461A46FFF716FF01
S11346E094E0BB68203BBB60BA68FB794D48114637
S11346F01A46FFF70BFF89E0BB681F2B07DCBA687B
S1134700FB79494811461A46FFF700FF7EE0BB6873
S1134710203BBB60BA68FB79444811461A46FFF750
S1134720F5FE73E0BB681F2B07DCBA68FB794048D1
S113473011461A46FFF7EAFE68E0BB68203BBB60FF
S1134740BA68FB793B4811461A46FFF7DFFE5DE085
S1134750BB681F2B07DCBA68FB79374811461A4639
S1134760FFF7D4FE52E0BB68203BBB60BA68FB791C
S1134770324811461A46FFF7C9FE47E0BB681F2BB3
S113478007DCBA68FB792E4811461A46FFF7BEFECD
S11347903CE0BB68203BBB60BA68FB792948114602
S11347A01A46FFF7B3FE31E0BB681F2B07DCBA687B
S11347B0FB79254811461A46FFF7A8FE26E0BB6898
S11347C0203BBB60BA68FB79204811461A46FFF7C4
S11347D09DFE1BE0BB681F2B07DCBA68FB791C48F5
S11347E011461A46FFF792FE10E0BB68203BBB60FF
S11347F0BA68FB79174811461A46FFF787FE05E0A9
S113480004484FF4C571FEF7C5FA00BF1037BD4622
S113481080BD00BF905F000040A0084050A0084049
S113482044A0084054A0084048A0084058A00840AC
S11348304CA008405CA00840CCA00840B4A00840AC
S1134840D0A00840B8A00840D4A00840BCA00840AC
S1134850D8A00840C0A0084080B586B000AFF8607A
S1134860B9607A60FB68072B04DD5F4840F2A3114E
S1134870FEF790FAFB68072B00F2AC8001A252F815
S113488023F000BFA5480000C9480000ED4800001F
S113489011490000354900005D49000085490000C8
S11348A0AD490000514B1B6C7B61BB68DB437A69EB
S11348B013407B61BA687B6813407A6913437B6158
S11348C04A4A7B6913648BE0484B5B6C7B61BB6831
S11348D0DB437A6913407B61BA687B6813407A6969
S11348E013437B61414A7B69536479E03F4B9B6C82
S11348F07B61BB68DB437A6913407B61BA687B6880
S113490013407A6913437B61384A7B69936467E097
S1134910364BDB6C7B61BB68DB437A6913407B619C
S1134920BA687B6813407A6913437B612F4A7B69B9
S1134930D36455E02D4BD3F8CC307B61BB68DB43AB
S11349407A6913407B61BA687B6813407A691343C0
S11349507B61264A7B69C2F8CC3041E0234BD3F813
S1134960D0307B61BB68DB437A6913407B61BA68F2
S11349707B6813407A6913437B611C4A7B69C2F8E4
S1134980D0302DE0194BD3F8D4307B61BB68DB43C6
S11349907A6913407B61BA687B6813407A69134370
S11349A07B61124A7B69C2F8D43019E00F4BD3F80B
S11349B0D8307B61BB68DB437A6913407B61BA689A
S11349C07B6813407A6913437B61084A7B69C2F8A8
S11349D0D83005E0044840F2E311FEF7DBF900BFEC
S11349E01837BD4680BD00BF905F000000A008409E
S11349F080B586B000AFF860B9607A60FB68072BB9
S1134A0004DD5C4840F2FB11FEF7C4F9FB68072B98
S1134A1000F2AC8001A252F823F000BF3D4A00002E
S1134A20614A0000854A0000A94A0000CD4A0000FE
S1134A30F54A00001D4B0000454B00004E4B1B6D1A
S1134A407B61BB68DB437A6913407B61BA687B682E
S1134A5013407A6913437B61474A7B69136586E097
S1134A60454B5B6D7B61BB68DB437A6913407B61BB
S1134A70BA687B6813407A6913437B613E4A7B6959
S1134A80536574E03C4B9B6D7B61BB68DB437A6987
S1134A9013407B61BA687B6813407A6913437B6176
S1134AA0354A7B69936562E0334BDB6D7B61BB68A0
S1134AB0DB437A6913407B61BA687B6813407A6987
S1134AC013437B612C4A7B69D36550E02A4BD3F8AE
S1134AD0B4307B61BB68DB437A6913407B61BA689D
S1134AE07B6813407A6913437B61234A7B69C2F86C
S1134AF0B4303CE0204BD3F8B8307B61BB68DB4377
S1134B007A6913407B61BA687B6813407A691343FE
S1134B107B61194A7B69C2F8B83028E0164BD3F898
S1134B20BC307B61BB68DB437A6913407B61BA6844
S1134B307B6813407A6913437B610F4A7B69C2F82F
S1134B40BC3014E00C4BD3F8C0307B61BB68DB4352
S1134B507A6913407B61BA687B6813407A691343AE
S1134B607B61054A7B69C2F8C03000E000BF18379A
S1134B70BD4680BD905F000000A0084080B483B0B3
S1134B8000AF78600649064B5B6823F4E0127B684B
S1134B9013434B600C37BD465DF8047B704700BF80
S1134BA000A0084080B487B000AFF860B9607A60B4
S1134BB0FB6803F10473DA00BB6813449B007B6158
S1134BC07B697A681A601C37BD465DF8047B7047C0
S1134BD080B400AF034B00229A60BD465DF8047BAD
S1134BE0704700BF00600C4080B400AF034B4AF62E
S1134BF0E8529A60BD465DF8047B704700600C4043
S1134C0080B582B000AF0F4B01229A600E4B9B68B7
S1134C1003F001037B607B68002B01D0FFF7E4FF06
S1134C200A4800210122FFF7BDFF084800210022A5
S1134C30FFF7B8FF7B68002B01D0FFF7C9FF0837E7
S1134C40BD4680BD00A00C4000600C4024600C40B8
S1134C5080B485B000AF174B5B687B600023FB60BA
S1134C600023BB601CE0144ABB68DB0013445B6890
S1134C703B60114ABB6852F833207B681340002B19
S1134C800BD07A683B681340002B06D10A4ABB68F4
S1134C9052F83330FA681343FB60BB680133BB60DE
S1134CA0BB680F2BDFD9FB6818461437BD465DF887
S1134CB0047B704700A00C40F45F000080B487B010
S1134CC000AFF860B9607A60FB6803F10473DA003E
S1134CD0BB6813449B007B617B697A681A601C374C
S1134CE0BD465DF8047B704780B584B000AF786042
S1134CF07B68012B03D90D487921FEF74BF87B68BB
S1134D00002B02D0012B04D007E0094B9B68FB6009
S1134D1006E0074BDB68FB6002E00023FB6000BF9A
S1134D20FB6818461037BD4680BD00BF74600000A4
S1134D300000084080B584B000AF786039607B68BB
S1134D40012B03D90F48A921FEF724F83B6803F08F
S1134D507F43002B03D00B48AE21FEF71BF87B6882
S1134D60002B02D0012B03D008E0074BFB6002E0CC
S1134D70064BFB6000BFFB683A681A601037BD46FB
S1134D8080BD00BF74600000080008400C000840AB
S1134D9080B582B000AF0346FB71FB790348002164
S1134DA01A46FFF78BFF0837BD4680BD0000084058
S1134DB080B485B000AF78607B681B78002B02D08C
S1134DC00123FB6001E00023FB607B685B78002B20
S1134DD003D0FB6843F00203FB607B689B78002BE5
S1134DE003D0FB6843F00403FB60044AFB681360D0
S1134DF01437BD465DF8047B704700BF00000840CF
S1134E0080B584B000AF78607B68002B03D11B4869
S1134E103E21FDF7BFFF1A4B5B69DBB203F00F03C2
S1134E20DBB29B00FB73164B1B6903F0C0039B09A9
S1134E30DAB2FB7B1343FB737B68FA7B9A70104BEB
S1134E401B69DBB203F03F03DAB27B685A700C4B88
S1134E509B6903F0F0031B09DBB21B01FB73084BD6
S1134E60DB6903F0F0031B09DAB2FB7B1343FB732A
S1134E707B68FA7B1A701037BD4680BDD86000008D
S1134E80D0FF0FE080B483B000AF78607B680D4A38
S1134E9093420BD07B680C4A934207D07B680B4A41
S1134EA0934203D07B680A4A934201D1012300E074
S1134EB0002303F00103DBB218460C37BD465DF84E
S1134EC0047B7047000001400004014000080140D9
S1134ED0000C014080B582B000AF7860396078681A
S1134EE0FFF7D0FF0346002B03D134484D21FDF7D3
S1134EF051FF3B681B7883F00103DBB2002B02D027
S1134F007B6802225A607B6800225A623B689B7865
S1134F101A063B68DB781B041A433B689B799B02A7
S1134F201A433B68DB791B0213433A68127A1A432B
S1134F303B685B78002B01D0402300E000231A4338
S1134F403B685B7A002B01D0802300E000231A43E6
S1134F503B689B7A002B01D0202300E000231A43F6
S1134F603B68DB7A002B01D0102300E000231A43B6
S1134F703B681B79002B02D04FF4005300E0002360
S1134F801A433B685B79002B02D04FF0805300E05A
S1134F9000231A433B681B7B002B01D0082300E04D
S1134FA000231A437B681A603B681B78002B02D0ED
S1134FB07B6801225A600837BD4680BDA8610000A5
S1134FC080B483B000AF0346FB71084997F90730FA
S1134FD05B09FA7902F01F02012000FA02F241F89B
S1134FE023200C37BD465DF8047B704700E100E0E8
S1134FF080B483B000AF0346FB71094997F90730C9
S11350005B09FA7902F01F02012000FA02F2603310
S113501041F823200C37BD465DF8047B704700BF80
S113502000E100E080B483B000AF03463960FB7157
S113503097F90730002B0BDA0D49FB7903F00F03C6
S1135040043B3A68D2B25201D2B20B441A7609E058
S1135050084997F907303A68D2B25201D2B20B44E8
S113506083F800230C37BD465DF8047B704700BF0E
S113507000ED00E000E100E080B400AF034B5B68AA
S11350801846BD465DF8047B704700BF0000084029
S113509080B483B000AF7860034A7B6893610C37B7
S11350A0BD465DF8047B70470000084080B483B0BF
S11350B000AF78600549054BDA697B68DB43134030
S11350C0CB610C37BD465DF8047B70470000084097
S11350D080B483B000AF78600549054BDA697B681A
S11350E01343CB610C37BD465DF8047B704700BFAA
S11350F00000084080B400AF034B1B691846BD464E
S11351005DF8047B704700BF0000084080B584B0A0
S113511000AF0020FFF7E8FD024680239A420AD040
S11351200020FFF735FE802300201946FFF702FE1A
S11351300120FFF72DFE0720FFF7AAFFEFF31182EE
S11351404FF0BF0383F31188BFF36F8FBFF34F8F0B
S1135150BA607B60FCF794FEF860FB68002B07D014
S1135160074B4FF080521A60BFF34F8FBFF36F8F1E
S113517000233B603B6883F311881037BD4680BD34
S113518004ED00E080B582B000AF80236FF07F4271
S1135190B2FBF3F31C4A13601C480121FEF724FA06
S11351A01B480221FEF734FC1A480221FEF7BAF824
S11351B018480121FEF718FA00233B7100237B7184
S11351C00123BB713B1D1846FFF7F2FD0220FFF7D8
S11351D06DFF1E20FF21FFF725FF1E20FFF708FFAC
S11351E01E20FFF7EDFE802300201946FFF7A2FDE5
S11351F00220FFF74DFF0220FFF76AFF0120FFF7AF
S1135200C7FD0837BD4680BD0C25002000430200C1
S113521002001A006016100090B58BB000AF7860E1
S1135220454B1B687A689A4202D9434B1B687B60E2
S113523080227B6803FB02F37B6200227B6A934239
S113524003D900227B6A9B1A7B62FFF715FFF86182
S11352500020FFF79DFD80240020FFF745FD034655
S1135260E31AFA691344FB61FEF73EFEB861FDF7E9
S11352706BF80346002B0DD18022FB69D31A002062
S11352801946FFF757FD0120FFF782FDB869FEF7C5
S11352903BFE4DE07A6AFB69D31A7B620020796A8F
S11352A0FFF748FD0120FFF773FD7B687B617B6995
S11352B0002B05D0FBF724FBBFF34F8FBFF36F8F99
S11352C0FFF7DAFE38610020FFF762FDFFF712FFF7
S11352D0034603F00203002B14BF01230023FB73D6
S11352E0B869FEF711FEFB7B002B03D07B68013B02
S11352F03B6217E03A69FB6913443B6180223B69D6
S1135300B3FBF2F33B6280223B6A03FB02F33A698C
S1135310D31A3B6180223B69D31A7B620020796AED
S1135320FFF708FD0120FFF733FD386AFCF788FD1D
S11353302C37BD4690BD00BF0C25002080B483B03F
S113534000AF0346FB71084997F907305B09FA7906
S113535002F01F02012000FA02F241F823200C3768
S1135360BD465DF8047B704700E100E080B485B081
S113537000AF786039607B6803F10473DA003B683E
S113538013449B00FB60FB681B6818461437BD463A
S11353905DF8047B704700BF80B582B000AF034660
S11353A03960FB71FB79002B1FD0FB79012B19D0DD
S11353B0FB79022B13D0FB79032B0DD0FB79042B43
S11353C007D0FB79052B02D141F6FF730FE00023D0
S11353D00DE04FF6FF730AE04FF6FF7307E04FF658
S11353E0FF7304E04FF6FF7301E04FF6FF733A6872
S11353F0134103F00103002B04D10C4840F2573150
S1135400FDF7C8FCFA791346DB0013449B001C33F8
S113541003F1804303F5C04318463968FFF7A6FF3C
S1135420034618460837BD4680BD00BFBC61000076
S113543080B400AF044BDB6C1B0EDBB21846BD46D8
S11354405DF8047B704700BFB081E00F80B582B087
S113545000AFFFF7EDFF0346FB713B1D1846FFF756
S1135460CFFCFB790F2B0AD93B79022B07D9054ACC
S1135470044B1B6823F0500343F0100313600837F8
S1135480BD4680BDC0800C4080B483B000AF78605E
S11354904FF6FF7318460C37BD465DF8047B704722
S11354A080B483B000AF78607B685B6A18460C37C1
S11354B0BD465DF8047B704780B582B000AF78606C
S11354C039607868FFF7E0FF02463B689A4204D2ED
S11354D0054840F29B31FDF75DFC7B683A68DA6170
S11354E00837BD4680BD00BF2062000080B582B091
S11354F000AF7860074B1B68184600214FF0FF325D
S11355000023FBF79DFF0346012B02D10248FBF762
S113551015F9EFE7642500207025002080B582B0DE
S113552000AF7860264B1B68042B1ADC254B5722EE
S11355301A70244B41225A70224B49229A70214BF3
S113554054221A711F4B00225A711F4B1B681846B4
S1135550002100220023FBF717FE8020FCF706FB46
S11355602DE0174B1B68013B154A1360144B1B6855
S1135570092B01DD312200E03022124B1A70104B4E
S11355801A68124B83FB02139910D317C91A0B46DE
S11355909B000B445B00D11ACBB23033DAB2094B17
S11355A05A70084B00229A70074B1B68184600215A
S11355B000220023FBF7E8FD8020FCF7D7FAB1E7CF
S11355C010000020702500206425002067666666B0
S11355D080B582B000AF786001200821FFF7DCFEBF
S11355E00346002B1AD0104B1B68184600214FF0BD
S11355F0FF320023FBF724FF0346012B0ED10B4B94
S11356001B781A460A4B1B68D31A1A46094B1A60B0
S1135610084B1B681846FBF791F802E08020FCF762
S1135620A5FA0837BD4680BD64250020140000207B
S11356306C2500201025002080B584B000AF1348ED
S11356400121FDF7D1FF124849F69601FFF734FF17
S11356503B4600221A60043300221A6004330022FD
S11356601A60043300221A70013301233B700123B2
S11356707B700923BB700123FB723B460448194627
S1135680FFF728FC1037BD4680BD00BF0052040060
S11356900000014080B500AF06480121FDF7A4FFDA
S11356A00120082101220023FEF76CFE0120FFF7F0
S11356B045FE80BD00D2040080B500AF0348FFF76B
S11356C0EFFE0246024B1A6080BD00BF000001409D
S11356D06C25002080B582B002AFFFF7B7FE002032
S11356E0FEF702FBFAF762FD00200021FBF7D8F871
S11356F00320FBF74DF90020FAF7C4FFFFF79CFFE6
S1135700FFF7C8FF012000210322FBF7E9FC024652
S1135710184B1A60174B1B68002B07D0154B1B68DE
S11357201846002100220023FBF72EFD01230093DD
S1135730002301931048114996220023FCF7EEF848
S113574001230093002301930D480E499622002360
S1135750FCF7E4F801230093002301930A480B4962
S113576096220023FCF7DAF8FCF730FA00231846F7
S1135770BD4680BD64250020D1550000886200002C
S11357801D55000094620000ED5400009C6200006E
S113579008B5074B044613B10021AFF30080054B55
S11357A01868836A03B19847204600F047F800BFA1
S11357B000000000A86200000E4B70B51E460E4C9F
S11357C00025E41AA410A54204D056F825309847C1
S11357D00135F8E700F034F8084B094C1E46E41A8A
S11357E0A4100025A54204D056F825309847013569
S11357F0F8E770BD780000207800002078000020D1
S11358007C00002010B5431E0A44914204D011F8D4
S1135810014B03F8014FF8E710BD034602449342DD
S113582002D003F8011BFAE77047034613F8012B73
S1135830002AFBD1181A013870470000FEE700BFA8
S1135840F8B500BFF8BC08BC9E467047F8B500BF69
S1135850F8BC08BC9E467047010105070703040213
S11358600302040605060D0E0E0E0D0D0D0D0E0E93
S11358700E0E0D0D010105070703040203020406C1
S113588005060F1010100F0F0F0F101010100F0F30
S113589001010507070304020302040605061112A9
S11358A01212111111111212121211110101050714
S11358B007030402030204060506131C1C1C13132D
S11358C013131C1C1C1C13130001050706020301FF
S11358D00302040604051D1E1E1E1D1D1D1D1E1E85
S11358E01E1E1D1D00010507060203010302040616
S11358F004051F2020201F1F1F1F202020201F1FE2
S11359000101050707030402030204060506212218
S113591022222121212122222222212107050201E2
S11359200306042323232323232307050201030659
S11359300424242424242424070502010306042522
S113594025252525252507050201030604262626E7
S113595026262626000107020627272727270000D8
S1135960000000000000131211100F0E0D0C0000B7
S113597000002125242601010304040203020D0E64
S11359800D0D0E0D0E0E01010304040203020F108F
S11359900F0F100F1010010103040402030211126F
S11359A01111121112120101030404020302131C47
S11359B013131C131C1C00010203040103021D1E0B
S11359C01D1D1E1D1E1E00010203040103021F20D3
S11359D01F1F201F202001010304040203022122AF
S11359E021212221222205070704040605060E0EA2
S11359F00D0D0E0E0D0D0507070404060506101007
S1135A000F0F10100F0F05070704040605061212E6
S1135A1011111212111105070704040605061C1CB6
S1135A2013131C1C131305070603040604051E1E8A
S1135A301D1D1E1E1D1D050706030406040520204A
S1135A401F1F20201F1F0507070404060506222226
S1135A5021212222212100000000001180020000E7
S1135A60000002060000200039000F00000040156D
S1135A7000204004001000223F0006005B044F0495
S1135A8066046D047D0407007F046F0400000000B9
S1135A90000A000080200000FFFF7704790A390023
S1135AA0B020790071007D04760406000E00700AAF
S1135AB03800B602B6083F0073043F08730C6D0447
S1135AC001113E0030223628802A6E040922390052
S1135AD080080F0001000800000158107C045800E1
S1135AE05E04582071040C0C740404000E00700C45
S1135AF03800541454045C04730467045004080C00
S1135B0078001C0010201428802A0C08482000006B
S1135B1001000000030040000C0000000000000031
S1135B2000000000433A2F53696C69636F6E4C6147
S1135B3062732F53696D706C6963697479537475FA
S1135B4064696F2F76342F646576656C6F70657247
S1135B502F73646B732F6765636B6F5F73646B5F25
S1135B6073756974652F76322E322F706C6174668A
S1135B706F726D2F656D6472762F736C6565702F0F
S1135B807372632F736C6565702E6300433A2F53F1
S1135B90696C69636F6E4C6162732F53696D706CCD
S1135BA0696369747953747564696F2F76342F64EB
S1135BB06576656C6F7065722F73646B732F6765A0
S1135BC0636B6F5F73646B5F73756974652F763293
S1135BD02E322F7574696C2F74686972645F7061FA
S1135BE07274792F6672656572746F732F536F7553
S1135BF07263652F706F727461626C652F4D656D91
S1135C004D616E672F686561705F312E630000001F
S1135C10433A2F53696C69636F6E4C6162732F53FF
S1135C20696D706C696369747953747564696F2FF5
S1135C3076342F646576656C6F7065722F73646B50
S1135C40732F6765636B6F5F73646B5F73756974E0
S1135C50652F76322E322F7574696C2F74686972D1
S1135C60645F70617274792F6672656572746F73A4
S1135C702F536F757263652F706F727461626C65F8
S1135C802F4743432F41524D5F434D332F706F7263
S1135C90742E6300433A2F53696C69636F6E4C61D1
S1135CA062732F53696D706C696369747953747589
S1135CB064696F2F76342F646576656C6F706572D6
S1135CC02F73646B732F6765636B6F5F73646B5FB4
S1135CD073756974652F76322E322F7574696C2F43
S1135CE074686972645F70617274792F6672656535
