S011000048756D616E44656C61792E733337FB
S113000000000220C5020000F1020000F10200001D
S1130010F1020000F1020000F1020000F102000010
S1130020F1020000F1020000F1020000D111000011
S1130030F1020000F102000071130000B51300008A
S1130040F1020000F1020000515F0000F102000023
S1130050F1020000F1020000F1020000F1020000D0
S1130060F1020000F1020000F1020000795F0000DB
S1130070F1020000F1020000F1020000E1060000BC
S1130080F1020000F1020000F1020000F1020000A0
S1130090F1020000F1020000F1020000F102000090
S11300A0F1020000F1020000F1020000F102000080
S11300B0F1020000F102000079590000F102000091
S11300C0F1020000F1020000F1020000F102000060
S11300D0F1020000F1020000F102000010B5054C2D
S11300E0237833B9044B13B10448AFF300800123E0
S11300F0237010BD8400002000000000C8820000AE
S1130100084B10B51BB108480849AFF300800848F4
S1130110036803B910BD074B002BFBD0BDE81040AA
S1130120184700BF00000000C882000088000020BB
S11301308000002000000000154B002B08BF134B6B
S11301409D46A3F5803A00218B460F461348144A76
S1130150121A06F0D6FC0F4B002B00D098470E4B1A
S1130160002B00D098470020002104000D000D480A
S1130170002802D00C48AFF3008006F091FC200068
S1130180290005F043FF06F081FB00BF00000800D2
S11301900000022000000000000000008400002095
S11301A0A8250020000000000000000080B582B0F7
S11301B000AF3A4A394B5B6C43F400535364384AFA
S11301C0374BD3F8203143F00403C2F82031344ACA
S11301D0334BD3F8203123F44073C2F82031304A32
S11301E02F4BD3F8B83023F47063C2F8B8302C4ADC
S11301F02B4BD3F8B83043F48063C2F8B830274BA4
S113020010221A6200BF254BDB6A03F02003002B87
S1130210F9D0244A234B1B6843F001031360214A9D
S1130220204BDB6843F08073D3601F4B1F4A1A6076
S11302301F4803F067FC034603F5D52303F2FC4390
S11302407B607B68DB081B4AA2FB03239B0A3B60A1
S1130250194A3B68013B1361174B0222C3F8F02093
S1130260154B4FF48072C3F804234FF06043134AD4
S1130270C3F8B02F4FF06043114AC3F8802E4FF0FB
S113028060424FF06043D3F8003E43F00103C2F8EC
S1130290003E012318460837BD4680BD00800C404F
S11302A000600040F0ED00E0001000E0FF130140AA
S11302B006000C0017916502000004E055CEACC5A1
S11302C009000100064880470649074A074B9A423D
S11302D0BEBF51F8040B42F8040BF8E7FFF72CFFFC
S11302E071040000D482000000000020840000207B
S11302F0FEE700BF80B400AF044BDB6C1B0EDBB227
S11303001846BD465DF8047B704700BFB081E00F1E
S113031080B582B000AF00F01FF87860074B5B68CF
S113032003F00F031A467B68D3407B60044A7B6862
S113033013607B6818460837BD4680BD00800C40BA
S11303400800002080B400AF024B1846BD465DF89B
S1130350047B7047006CDC0280B582B000AF334B85
S1130360DB6A03F47053B3F5805F0AD0B3F5005F22
S113037003D0B3F5006F08D00BE02D4B1B687B60F6
S113038047E04FF400437B6043E02A4B1B687B60EB
S11303903FE0264BDB6803F4E063B3F5007F1BD03A
S11303A0B3F5007F05D8002B24D0B3F5807F16D099
S11303B02BE0B3F5806F09D0B3F5A06F03D0B3F58C
S11303C0407F06D021E01C4B7B6021E01B4B7B600F
S11303D01EE01B4B7B601BE01A4B7B6018E0FFF7B1
S11303E089FF0346122B02D9174B7B6010E0174B91
S11303F07B600DE0FFF77EFF0346122B02D9144BFE
S11304007B6005E0134B7B6002E000237B6000BF50
S113041000BF064B1B6803F4E0339B0B01337A687F
S1130420B2FBF3F318460837BD4680BD00800C408C
S11304300400002000000020003FAB01406F400199
S1130440809FD500C0D8A70040B56400C0CF6A0023
S1130450804F120040420F0080B400AF034B1B6872
S11304601846BD465DF8047B704700BF00000020BD
S113047080B400AFBD465DF8047B704780B400AF24
S11304804FF400431846BD465DF8047B704700BF37
S113049080B400AF4FF47A731846BD465DF8047B10
S11304A0704700BF80B400AF034B1B681846BD46BD
S11304B05DF8047B704700BF0400002080B483B063
S11304C000AF7860002318460C37BD465DF8047B06
S11304D0704700BF80B483B000AF7860FEE700BF10
S11304E080B483B000AF786039603B684FF4005249
S11304F05A60002318460C37BD465DF8047B7047EC
S113050080B483B000AF7860012318460C37BD4631
S11305105DF8047B704700BF80B485B000AFF8601D
S1130520B9607A60002318461437BD465DF8047B31
S1130530704700BF80B586B000AFF860B9607A60DC
S113054000237B6111E000F065F938613B69B3F188
S1130550FF3F09D0BB685A1CBA603A69D2B21A701C
S11305607B6901337B6100E004E07B685A1E7A609A
S1130570002BE8D17B69002B02DC4FF0FF3300E055
S11305807B6918461837BD4680BD00BF90B585B05D
S113059000AF7860184B1B68002B02D1164B174A2A
S11305A01A60154B1B68FB60134B1A687B68134475
S11305B0EFF3088214462246934212D9104B1B686B
S11305C09B68184606F076F904460E4806F0EBFBE5
S11305D0034620460B491A4600F016F8012006F09F
S11305E055F9054B1A687B681344034A1360FB688A
S11305F018461437BD4690BDA0000020A825002051
S1130600740000205478000080B586B000AFF86014
S1130610B9607A6000237B6109E0BB685A1CBA6048
S11306201B78184600F034F97B6901337B617A69E1
S11306307B689A42F1DB7B6818461837BD4680BD5B
S113064080B483B000AF0346FB71084997F90730C3
S11306505B09FA7902F01F02012000FA02F241F864
S113066023200C37BD465DF8047B704700E100E0B1
S113067080B483B000AF0346FB71094997F9073092
S11306805B09FA7902F01F02012000FA02F26033DA
S113069041F823200C37BD465DF8047B704700BF4A
S11306A000E100E080B483B000AF786039607B681B
S11306B03A689A640C37BD465DF8047B704700BF06
S11306C080B483B000AF786039607B68DA6C3B68D3
S11306D01A437B68DA640C37BD465DF8047B7047C7
S11306E098B500AF164B1B6903F08003002B26D08E
S11306F0144B1C68124805F06FF803461A46124B57
S11307001A55104B1B6801330E4A13600F4B1B68BC
S113071001330E4A13600B4B1B68082B02D1094BA3
S113072000221A60094B1B68082B08DD054B0022C8
S11307301A60064B00221A60054B00221A6098BD0D
S113074000C40040A8000020B0000020AC0000203D
S1130750A4000020B0B588B000AF2748012103F001
S113076063F92648012103F05FF9032000210422E4
S1130770012304F083F8032001210122002304F063
S11307807DF81F4BFB611F4B3C1D1D460FCD0FC455
S113079095E8030084E803001B48012103F044F9B1
S11307A000233B713B1DF869194604F059FFFB69AE
S11307B040F203125A6512480421FFF773FF0F2019
S11307C0FFF756FF0E480421FFF77AFF0F20FFF7CB
S11307D037FFF869052104F007FF0C4B1B689B6881
S11307E0184600210222002306F012FA084B0122C7
S11307F01A702037BD46B0BD4081040000D2040009
S113080000C400407078000000120400740000204E
S1130810B900002080B582B000AF4FF0FF337B6099
S1130820174B1B7883F00103DBB2002B01D0FFF7D9
S113083091FF03F021FD3860124B1B68002B16DD7D
S1130840114B1B68114AD35CDBB27B600E4B1B68F7
S113085001330D4A13600C4B1B68082B02D10A4B61
S113086000221A60074B1B68013B064A1360386874
S113087003F012FD7B6818460837BD4680BD00BFF3
S1130880B9000020AC000020A4000020B00000202B
S113089080B582B000AF0346FB71144B1B7883F024
S11308A00103DBB2002B01D0FFF754FF104B1B7880
S11308B0002B06D0FB790A2B03D10E480D2104F03E
S11308C09FFFFB790B48194604F09AFF084B1B78ED
S11308D0002B06D0FB790D2B03D106480A2104F026
S11308E08FFFFB7918460837BD4680BDB90000204C
S11308F0B800002000C4004080B483B000AF0346B9
S1130900FB71FB79002B03D0054B01221A6602E030
S1130910034B00221A660C37BD465DF8047B704712
S113092000A0084080B483B000AF786000BF054BDE
S11309305A6E7B681340002BF9D10C37BD465DF825
S1130940047B704700A0084080B483B000AF786097
S11309500549054B9A6A7B68DB4313408B620C376D
S1130960BD465DF8047B704700A0084080B500AF29
S113097000202849002204F0EBF901202549002237
S113098004F0E6F902202349002204F0E1F90320EF
S11309902049002204F0DCF904201E49002204F05E
S11309A0D7F905201B49002204F0D2F90620194981
S11309B0002204F0CDF907201649002204F0C8F9FA
S11309C00020FF21002204F08FFA0120FF210022E1
S11309D004F08AFA0220FF21002204F085FA0320A1
S11309E0FF21002204F080FA0420FF21002204F0F9
S11309F07BFA0520FF21002204F076FA0620FF216D
S1130A00002204F071FA0720FF21002204F06CFA9E
S1130A1080BD00BF00F00FF080B500AF072026496D
S1130A20002204F095F906202449002204F090F9EC
S1130A3005202249002204F08BF904201F490022DA
S1130A4004F086F903201D49002204F081F90220F4
S1130A501A49002204F07CF901201849002204F00C
S1130A6077F900204FF02041002204F071F90720AB
S1130A700721002204F038FA06200721002204F09E
S1130A8033FA05200721002204F02EFA042007215E
S1130A90002204F029FA03200721002204F024FA9A
S1130AA002200721002204F01FFA0120072100225E
S1130AB004F01AFA80BD00BF00E00F5000E00FF010
S1130AC080B582B000AF0346FB712548012102F0D6
S1130AD0ABFF2448032103F0BBF92348402102F073
S1130AE041FE012003F020FB2048012102F09CFF7D
S1130AF04FF0FF30FFF728FF1D4803F099FF08204F
S1130B00012103F0FBFF1020012103F0F7FF8020F7
S1130B10012103F0F3FF4FF48070012103F0EEFF95
S1130B204FF40070012103F0E9FFFB79002B0DD095
S1130B304FF4402004F09EFA4FF4803003F0BCFFE1
S1130B400C4A0C4BDB6F43F00803D367FFF70EFF2F
S1130B504FF0FF30FFF7E6FE0837BD4680BD00BF0B
S1130B600043020002001A0060002600003628003C
S1130B70407B000000800C4080B58AB000AF7860F4
S1130B80786806F010F90346BB6100233B624FF01E
S1130B90FF30FFF7C7FE0120FFF7AEFEFFF73CFF73
S1130BA000233B6246E03A6ABB699A4203DA7B68F7
S1130BB01B787B6201E020237B627B6A203B7B62A3
S1130BC0214A7B6A32F81330FB820023FB6128E060
S1130BD01E493A6A1346DB009B1A9B00CA18FB693C
S1130BE0134408339B793B6118493A6A1346DB0086
S1130BF09B1A9B00FA6913440B441B78FB60FA8A26
S1130C00FB6942FA03F303F00103002B06D0FA68F0
S1130C103B6910461946012203F090FFFB6901333A
S1130C20FB61FB690D2BD3DD7B6801337B603B6A81
S1130C3001333B623B6A062BB5DD0020FFF75CFE07
S1130C402837BD4680BD00BF887A00008878000040
S1130C5080B487B000AFF860B9607A60FB6803F1D4
S1130C600473DA00BB6813449B007B617B697A6878
S1130C701A601C37BD465DF8047B704780B400AF32
S1130C80054A054B1B6923F00403136130BFBD46BD
S1130C905DF8047B704700BF00ED00E080B500AF55
S1130CA0024801210122FFF7D3FF80BD00600C4000
S1130CB080B582B000AF0346FB71074B1B68002B65
S1130CC004D0054B1B68FA7910469847012318464F
S1130CD00837BD4680BD00BFC800002080B582B083
S1130CE000AF78603960114A7B681360104B114A79
S1130CF01A600F4A3B6853600F4B00221A700E4B68
S1130D0000225A7004F020FA034603F48073002B87
S1130D1009D004F0F1F9064B5B68002B03D0044BB7
S1130D205B68042098470837BD4680BDC800002092
S1130D30BC000020B10C0000CC00002080B584B0C1
S1130D4000AF0023FB730023BB6003F077FA7860E5
S1130D5000F072F80346FB70FB78022B02D0FB789C
S1130D60032B01D103F00AFC00F066F80346FB7084
S1130D70FB78002B08D0FB78032B05D8FB781846AA
S1130D8000F07AF80346FB730F4B9B68002B05D0E9
S1130D900D4B9B68FA7B10469847B860BB6803F01C
S1130DA00103002BE0D1FB7B022B02D0FB7B032B46
S1130DB001D103F0E9FB786803F050FAFB7B184695
S1130DC01037BD4680BD00BFBC00002080B582B096
S1130DD000AF0346FB71FB79012B02D9FB79032B8E
S1130DE004D913484FF4957102F0F4F9FB79023BEE
S1130DF0104AD35CFF2B04D10D4840F22B1102F0B2
S1130E00E9F9FB79022B02D0FB79032B0CD1FB7996
S1130E10023B084AD25C0132D1B2064AD154FB7972
S1130E20022B01D1FFF73AFF0837BD4680BD00BF52
S1130E30547B0000CC00002080B483B000AF0123B9
S1130E40FB710C4B1B78002B07D10223FB71094B60
S1130E505B78002B01D10323FB71FB79032B01D9B0
S1130E600323FB71FB7918460C37BD465DF8047B00
S1130E70704700BFCC00002080B584B000AF0346AB
S1130E80FB710123FB73FB79002B02D0FB79042B4C
S1130E9004D922484FF4CF7102F09CF9204B1B680F
S1130EA0002B06D01E4B1B68FA7910469847034660
S1130EB0FB73FB7B83F00103DBB2002B01D0002327
S1130EC027E0FB79013B032B18D801A252F823F049
S1130ED0E10E0000E70E0000EF0E0000F70E000028
S1130EE0FFF7CCFE0BE0002003F0A8FA07E0002097
S1130EF003F0EAFA03E003F04DFB00E000BF084B07
S1130F005B68002B04D0064B5B68FA79104698475F
S1130F10FB7918461037BD4680BD00BF547B0000E6
S1130F20BC00002080B584B000AF78600023FB6073
S1130F307B6803F00703002B04D07B6823F00703CE
S1130F4008337B6001F0AAF8164B1B68002B05D10F
S1130F50154B23F007031A46124B1A60134B1A68F9
S1130F607B68134442F21F32934213D80F4B1A6822
S1130F707B681A440D4B1B689A420BD9094B1A68BB
S1130F800A4B1B681344FB60084B1A687B681344C4
S1130F90064A136001F0CAF8FB6818461037BD46CC
S1130FA080BD00BFFC230020D8000020F8230020CF
S1130FB080B582B000AF78607B68002B03D0034813
S1130FC0AB2102F007F90837BD4680BD687B0000FD
S1130FD080B483B000AF78607B6803F108027B685B
S1130FE05A607B684FF0FF329A607B6803F1080215
S1130FF07B68DA607B6803F108027B681A617B68AE
S113100000221A600C37BD465DF8047B704700BFB0
S113101080B483B000AF78607B6800221A610C371B
S1131020BD465DF8047B704780B485B000AF78603E
S113103039607B685B68FB603B68FA685A60FB68F0
S11310409A683B689A60FB689B683A685A60FB68D8
S11310503A689A603B687A681A617B681B685A1C14
S11310607B681A601437BD465DF8047B704700BF87
S113107080B485B000AF786039603B681B68BB60A2
S1131080BB68B3F1FF3F03D17B681B69FB600CE0D5
S11310907B680833FB6002E0FB685B68FB60FB680D
S11310A05B681A68BB689A42F6D9FB685A683B6861
S11310B05A603B685B683A689A603B68FA689A6071
S11310C0FB683A685A603B687A681A617B681B68F7
S11310D05A1C7B681A601437BD465DF8047B704760
S11310E080B485B000AF78607B681B69FB607B6867
S11310F05B687A6892689A607B689B687A685268D1
S11311005A60FB685A687B689A4203D17B689A6884
S1131110FB685A607B6800221A61FB681B685A1ED0
S1131120FB681A60FB681B6818461437BD465DF8F7
S1131130047B704780B485B000AFF860B9607A6012
S1131140FB68043BFB60FB684FF080721A60FB682D
S1131150043BFB60BB6823F00102FB681A60FB6878
S1131160043BFB60094AFB681A60FB68143BFB60A4
S11311707A68FB681A60FB68203BFB60FB681846D2
S11311801437BD465DF8047B704700BF9111000021
S113119080B582B000AF094B1B68B3F1FF3F03D0A9
S11311A00748F22102F016F84FF0BF0383F31188C9
S11311B0BFF36F8FBFF34F8F7B60FEE70C000020FF
S11311C0EC7B0000000000000000000000000000B4
S11311D0074B19680868B0E8F00F80F30988BFF37B
S11311E06F8F4FF0000080F311884EF00D0E7047A2
S11311F00824002006480068006880F3088862B666
S113120061B6BFF34F8FBFF36F8F00DF00BF0000E5
S113121008ED00E080B584B000AF284BFB60FB68AC
S11312201B78DBB2BB60FB68FF221A70FB681B787B
S1131230DBB2FB71FB79DBB223F04003DAB2204B63
S11312401A70204B07221A6009E01E4B1B68013BF1
S11312501C4A1360FB79DBB25B00DBB2FB71FB79E8
S1131260DBB2DBB25BB2002BEFDB164B1B681B025D
S1131270144A1360134B1B6803F4E063114A1360B0
S1131280BB68DAB2FB681A700F4A0F4B1B6843F451
S11312907F0313600C4A0C4B1B6843F07F431360BD
S11312A004F0A6FB094B00221A60FFF7A3FFFFF727
S11312B06FFF002318461037BD4680BD00E400E0F0
S11312C0002400200424002020ED00E00C00002075
S11312D080B582B000AF4FF0BF0383F31188BFF332
S11312E06F8FBFF34F8F7B600A4B1B680133094A32
S11312F01360084B1B68012B09D1074B1B68DBB239
S1131300002B04D0054840F27F1101F063FF083739
S1131310BD4680BD0C00002004ED00E0EC7B000025
S113132080B582B000AF0D4B1B68002B04D10C4874
S11313304FF4C37101F04EFF084B1B68013B074A91
S11313401360064B1B68002B04D100237B607B6871
S113135083F311880837BD4680BD00BF0C00002010
S1131360EC7B000000000000000000000000000012
S1131370EFF30980BFF36F8F0D4B1A6820E9F00F6C
S113138010602DE908404FF0BF0080F3118801F090
S113139053F84FF0000080F31188BDE80840196845
S11313A00868B0E8F00F80F30988BFF36F8F7047C7
S11313B00824002080B582B000AF4FF0BF0383F350
S11313C01188BFF36F8FBFF34F8F7B6000F078FFFE
S11313D00346002B03D0064B4FF080521A600023C3
S11313E03B603B6883F311880837BD4680BD00BF6E
S11313F004ED00E080B582B000AFEFF305837B60BD
S11314007B680F2B0ED90F4A7B6813441B78FB7043
S11314100D4B1B78FA789A4204D20C4840F29E2174
S113142001F0D8FE0A4B1B6803F4E062094B1B6809
S11314309A4204D9054840F2AE2101F0CBFE0837A8
S1131440BD4680BDF0E300E000240020EC7B0000FA
S11314500CED00E00424002080B584B000AF786077
S113146039607B68FB60FB68002B04D12A4840F29A
S11314701B1101F0AFFEFFF72BFFFB681A68FB6836
S1131480DB6BF968096C01FB03F31A44FB685A60CF
S1131490FB6800229A63FB681A68FB689A60FB6821
S11314A01A68FB68DB6B013BF968096C01FB03F309
S11314B01A44FB68DA60FB68FF2283F84420FB6867
S11314C0FF2283F845203B68002B14D1FB681B697D
S11314D0002B1AD0FB681033184601F047F8034676
S11314E0002B12D00D4B4FF080521A60BFF34F8F78
S11314F0BFF36F8F09E0FB6810331846FFF768FDF0
S1131500FB6824331846FFF763FDFFF709FF012347
S113151018461037BD4680BD707C000004ED00E025
S113152090B58BB002AFF860B9601346FB71FB68ED
S1131530002B04D114484FF4C47101F04BFEBB6876
S1131540002B02D10023FB6104E0FB68BA6802FBB4
S113155003F3FB61FB6948331846FFF7E3FCB8610A
S1131560BB69002B0BD0BB6948337B61FC79BB6939
S11315700093F868B9687A69234600F007F8BB69F4
S113158018462437BD4690BD707C000080B584B0F9
S113159000AFF860B9607A60FB70BB68002B03D1C0
S11315A0BB69BA691A6002E0BB697A681A60BB69F0
S11315B0FA68DA63BB69BA681A64B8690121FFF78B
S11315C04BFF1037BD4680BD80B58AB000AFF860D0
S11315D0B9607A603B6000237B62FB683B623B6AD4
S11315E0002B04D1654840F2D92101F0F3FDBB681A
S11315F0002B08D13B6A1B6C002B04D05F4840F2DF
S1131600DA2101F0E7FD3B68022B08D13B6ADB6B72
S1131610012B04D0594840F2DB2101F0DBFD01F03D
S11316208DF90346002B07D17B68002B04D0534867
S113163040F2DE2101F0CEFDFFF74AFE3B6A9A6BD1
S11316403B6ADB6B9A4202D33B68022B29D1386A8E
S1131650B9683A6800F012FAF8613B6A5B6A002BD9
S113166010D03B6A2433184600F080FF0346002B59
S113167013D0434B4FF080521A60BFF34F8FBFF328
S11316806F8F0AE0FB69002B07D03D4B4FF080526F
S11316901A60BFF34F8FBFF36F8FFFF741FE012333
S11316A067E07B68002B03D1FFF73AFE002360E07C
S11316B07B6A002B06D107F11403184600F0B8FF2B
S11316C001237B62FFF72CFE00F0E8FCFFF700FE2D
S11316D03B6A93F84430DBB25BB2B3F1FF3F03D112
S11316E03B6A002283F844203B6A93F84530DBB21E
S11316F05BB2B3F1FF3F03D13B6A002283F845207C
S1131700FFF70EFE07F114023B1D1046194600F0C8
S1131710ADFF0346002B24D1386A00F0A9FA034632
S1131720002B18D03B6A03F110027B68104619465F
S113173000F0D6FE386A00F033FA00F0F7FC0346F6
S1131740002B15D10E4B4FF080521A60BFF34F8F10
S1131750BFF36F8F0CE0386A00F022FA00F0E6FC69
S11317606AE7386A00F01CFA00F0E0FC002300E0AD
S113177062E718462837BD4680BD00BF707C000074
S113178004ED00E080B58CB000AFF860B9607A6019
S11317903B60FB68BB62BB6A002B04D1374840F254
S11317A09F3101F017FDBB68002B08D1BB6A1B6C8D
S11317B0002B04D031484FF4687101F00BFD3B68F5
S11317C0022B08D1BB6ADB6B012B04D02B4840F2FF
S11317D0A13101F0FFFCFFF70DFEEFF311824FF092
S11317E0BF0383F31188BFF36F8FBFF34F8FFA6189
S11317F0BB61FB697B62BB6A9A6BBB6ADB6B9A4217
S113180002D33B68022B2CD1BB6A93F8453087F88E
S11318102330B86AB9683A6800F030F997F9233090
S1131820B3F1FF3F12D1BB6A5B6A002B16D0BB6ACF
S11318302433184600F09AFE0346002B0ED07B6832
S1131840002B0BD07B6801221A6007E097F8233045
S11318500133DBB2DAB2BB6A83F845200123FB62B1
S113186001E00023FB627B6A7B617B6983F311885F
S1131870FB6A18463037BD4680BD00BF707C00004F
S113188080B58AB000AFF860B9607A603B6000232D
S11318907B62FB683B623B6A002B04D1754840F2D3
S11318A0DC4101F097FCBB68002B08D13B6A1B6C40
S11318B0002B04D06F4840F2DD4101F08BFC01F0B5
S11318C03DF80346002B07D17B68002B04D0694800
S11318D04FF49C6101F07EFCFFF7FAFC3B6A9B6BC2
S11318E0FB61FB69002B46D03B6ADB68BB61386A4D
S11318F0B96800F02FF93B68002B21D1FB695A1E0F
S11319003B6A9A633B6A1B68002B04D101F02AF9F5
S113191002463B6A5A603B6A1B69002B27D03B6A2C
S11319201033184600F022FE0346002B1FD0524B02
S11319304FF080521A60BFF34F8FBFF36F8F16E0E2
S11319403B6ABA69DA603B6A5B6A002B0FD03B6A78
S11319502433184600F00AFE0346002B07D0464BFA
S11319604FF080521A60BFF34F8FBFF36F8FFFF7B2
S1131970D7FC01237AE07B68002B03D1FFF7D0FC6E
S1131980002373E07B6A002B06D107F1100318468D
S113199000F04EFE01237B62FFF7C2FC00F07EFBE9
S11319A0FFF796FC3B6A93F84430DBB25BB2B3F1C9
S11319B0FF3F03D13B6A002283F844203B6A93F83B
S11319C04530DBB25BB2B3F1FF3F03D13B6A002287
S11319D083F84520FFF7A4FC07F110023B1D1046D5
S11319E0194600F043FE0346002B31D1386A00F05B
S11319F029F90346002B25D03B6A1B68002B08D12C
S1131A00FFF766FC3B6A5B68184600F0B5FFFFF71A
S1131A1087FC3B6A03F124027B681046194600F0F8
S1131A205FFD386A00F0BCF800F080FB0346002B31
S1131A301BD1114B4FF080521A60BFF34F8FBFF38D
S1131A406F8F12E0386A00F0ABF800F06FFB43E7E9
S1131A50386A00F0A5F800F069FB386A00F0F2F883
S1131A600346002B01D0002300E035E71846283751
S1131A70BD4680BD707C000004ED00E080B586B0FA
S1131A8000AFF860B9607A6000237B61FB689B6BF0
S1131A903B61FB681B6C002B0DD1FB681B68002BA2
S1131AA04FD1FB685B68184600F0DEFF7861FB6885
S1131AB000225A6045E07B68002B1AD1FB689A68C3
S1131AC0FB681B6C1046B9681A4605F00FF8FB68F2
S1131AD09A68FB681B6C1A44FB689A60FB689A68F6
S1131AE0FB685B689A422CD3FB681A68FB689A60AF
S1131AF027E0FB68DA68FB681B6C1046B9681A4675
S1131B0004F0F4FFFB68DA68FB681B6C5B421A4460
S1131B10FB68DA60FB68DA68FB681B689A4207D2E4
S1131B20FB685A68FB681B6C5B421A44FB68DA600A
S1131B307B68022B05D13B69002B02D03B69013B3A
S1131B403B613B695A1CFB689A637B6918461837EA
S1131B50BD4680BD80B582B000AF786039607B68D7
S1131B601B6C002B19D07B68DA687B681B6C1A44E9
S1131B707B68DA607B68DA687B685B689A4203D3C7
S1131B807B681A687B68DA607B68DA687B681B6C40
S1131B90386811461A4604F0A9FF0837BD4680BDCF
S1131BA080B584B000AF7860FFF792FB7B6893F850
S1131BB04530FB7313E07B685B6A002B0AD07B68BB
S1131BC02433184600F0D2FC0346002B03D000F067
S1131BD0A3FD00E007E0FB7B013BDBB2FB7397F95D
S1131BE00F30002BE7DC7B68FF2283F84520FFF7EA
S1131BF097FBFFF76DFB7B6893F84430BB7313E0EE
S1131C007B681B69002B0ED07B681033184600F0EC
S1131C10ADFC0346002B01D000F07EFDBB7B013BF5
S1131C20DBB2BB7300E003E097F90E30002BE7DC76
S1131C307B68FF2283F84420FFF772FB1037BD4610
S1131C4080BD00BF80B584B000AF7860FFF740FB73
S1131C507B689B6B002B02D10123FB6001E0002316
S1131C60FB60FFF75DFBFB6818461037BD4680BD7F
S1131C7080B584B000AF7860FFF72AFB7B689A6B6D
S1131C807B68DB6B9A4202D10123FB6001E00023F5
S1131C90FB60FFF745FBFB6818461037BD4680BD67
S1131CA080B485B000AF786039600023FB6014E035
S1131CB00E4AFB6852F83330002B0BD10B49FB68FA
S1131CC03A6841F83320094AFB68DB0013447A6818
S1131CD05A6005E0FB680133FB60FB68092BE7D918
S1131CE01437BD465DF8047B704700BF3C250020D7
S1131CF080B586B000AFF860B9607A60FB687B613C
S1131D00FFF7E6FA7B6993F84430DBB25BB2B3F1D8
S1131D10FF3F03D17B69002283F844207B6993F859
S1131D204530DBB25BB2B3F1FF3F03D17B690022E4
S1131D3083F84520FFF7F4FA7B699B6B002B06D1EF
S1131D407B6924331846B9687A6800F0E9FB78693E
S1131D50FFF726FF1837BD4680BD00BF80B58CB0A5
S1131D6004AFF860B9603B601346FB80FB889B00BE
S1131D701846FFF7D7F878617B69002B0ED0502006
S1131D80FFF7D0F8F861FB69002B03D0FB697A698F
S1131D901A6305E07869FFF70BF901E00023FB61A2
S1131DA0FB69002B13D0FA88BB6A0093FB6A01938A
S1131DB0FB69029300230393F868B9683B6800F059
S1131DC00FF8F86900F086F80123BB6102E04FF0D8
S1131DD0FF33BB61BB6918462037BD4680BD00BFD9
S1131DE080B586B000AFF860B9607A603B60BB6ACA
S1131DF01A6B7B6803F18043013B9B0013443B61F6
S1131E003B6923F007033B613B6903F00703002BA5
S1131E1004D02F4840F22B3101F0DCF900237B6120
S1131E2013E0BA687B6913441978BA6A7B6913446E
S1131E3030330A461A71BA687B6913441B78002B45
S1131E4000D105E07B6901337B617B69092BE8D90B
S1131E50BB6A002283F83D203B6A022B01D902238E
S1131E603B62BB6A3A6ADA62BB6A3A6A1A64BB6A60
S1131E7000225A64BB6A04331846FFF7C9F8BB6AE8
S1131E8018331846FFF7C4F8BB6ABA6A1A613B6A8A
S1131E90C3F10302BB6A9A61BB6ABA6A5A62BB6A3B
S1131EA000229A64BB6A002283F84C203869F968DE
S1131EB03A68FFF73FF90246BB6A1A607B6A002B57
S1131EC002D07B6ABA6A1A601837BD4680BD00BF6B
S1131ED0E07C000080B582B000AF7860FFF7F8F9CD
S1131EE02B4B1B6801332A4A13602A4B1B68002BB7
S1131EF009D1284A7B681360254B1B68012B10D13C
S1131F0000F070FC0DE0244B1B68002B09D1214B21
S1131F101B68DA6A7B68DB6A9A4202D81D4A7B68CE
S1131F2013601E4B1B6801331C4A13607B68DB6A19
S1131F301A46012303FA02F2194B1B681343184A89
S1131F4013607B68DA6A13469B0013449B00154AAE
S1131F501A447B68043310461946FFF765F8FFF707
S1131F60DFF90D4B1B68002B0ED00A4B1B68DA6A95
S1131F707B68DB6A9A4207D20B4B4FF080521A609F
S1131F80BFF34F8FBFF36F8F0837BD4680BD00BFCF
S1131F90B824002008240020C4240020D4240020D5
S1131FA0C02400200C24002004ED00E080B584B09F
S1131FB000AF78600023FB607B68002B11D0104BCE
S1131FC01B68002B04D00F4840F2CF4101F002F906
S1131FD000F064F87868002100F0D8FD00F0A6F85D
S1131FE0F860FB68002B07D1074B4FF080521A6052
S1131FF0BFF34F8FBFF36F8F1037BD4680BD00BF57
S1132000E0240020E07C000004ED00E080B584B012
S113201002AF002300931A4B01931A481A498C22E9
S11320200023FFF79BFE78607B68012B02D100F050
S113203011FE78607B68012B15D14FF0BF0383F349
S11320401188BFF36F8FBFF34F8F3B600F4B4FF07F
S1132050FF321A600E4B01221A600E4B00221A60E6
S1132060FFF7D8F808E07B68B3F1FF3F04D10A48D2
S113207040F2847101F0AEF80837BD4680BD00BF60
S1132080DC24002031270000507D0000D8240020EB
S1132090C4240020BC240020E07C000080B400AFF5
S11320A0044B1B680133034A1360BD465DF8047B8F
S11320B0704700BFE024002080B485B000AF002347
S11320C0BB6001237B60144B1A687B689A4201D978
S11320D00123BB60114B1B68DB6A002B02D0002379
S11320E0FB6012E00E4B1B68012B02D90023FB603E
S11320F00BE0BB68002B02D00023FB6005E0094B1A
S11321001A68094B1B68D31AFB60FB68184614371E
S1132110BD465DF8047B7047C024002008240020DD
S11321200C240020D8240020BC24002080B584B0D6
S113213000AF0023FB600023BB603F4B1B68002BF8
S113214004D13E484FF4FD6101F044F8FFF7C0F8B4
S1132150394B1B68013B384A1360374B1B68002B13
S113216063D1374B1B68002B5FD030E0354BDB6805
S1132170DB68FB60FB6818331846FEF7B1FFFB68A9
S113218004331846FEF7ACFFFB68DB6A1A460123EA
S113219003FA02F22C4B1B6813432B4A1360FB68AF
S11321A0DA6A13469B0013449B00284A1A44FB68CE
S11321B0043310461946FEF737FFFB68DA6A244BEE
S11321C01B68DB6A9A4202D3224B01221A601D4B20
S11321D01B68002BCAD1FB68002B01D000F08AFBDE
S11321E01D4B1B687B607B68002B10D000F068F8E7
S11321F00346002B02D0174B01221A607B68013B77
S11322007B607B68002BF1D1134B00221A60114BC9
S11322101B68002B09D00123BB60104B4FF0805288
S11322201A60BFF34F8FBFF36F8FFFF779F8BB6866
S113223018461037BD4680BDE0240020E07C000035
S1132240B824002078240020C02400200C2400207E
S113225008240020CC240020C824002004ED00E041
S113226080B483B000AF054B1B687B607B68184665
S11322700C37BD465DF8047B704700BFBC240020CA
S113228080B582B000AF78600A4B1A687B681A4444
S1132290094B1B689A4204D9084840F6711100F0B2
S11322A099FF044B1A687B681344024A1360083789
S11322B0BD4680BDBC240020D8240020E07C000062
S11322C080B586B000AF00237B614F4B1B68002BA9
S11322D040F089804D4B1B6801333B614B4A3B699D
S11322E013603B69002B1AD1494B1B681B68002BF8
S11322F004D0484840F6D91100F06CFF444B1B68E9
S1132300FB60454B1B68424A1360434AFB681360F9
S1132310424B1B680133414A136000F0EBFA404B17
S11323201B683A699A424FD3394B1B681B68002BD0
S113233001D1012300E00023002B04D0384B4FF0DF
S1132340FF321A6040E0324B1B68DB68DB68BB601D
S1132350BB685B687B603A697B689A4203D2304A07
S11323607B68136030E0BB6804331846FEF7B8FEA0
S1132370BB689B6A002B04D0BB6818331846FEF771
S1132380AFFEBB68DB6A1A46012303FA02F2254B4F
S11323901B681343234A1360BB68DA6A13469B0025
S11323A013449B00204A1A44BB6804331046194660
S11323B0FEF73AFEBB68DA6A1C4B1B68DB6A9A427A
S11323C001D301237B61AFE7184B1B68DA6A164916
S11323D013469B0013449B000B441B68012B01D93B
S11323E001237B6104E0124B1B680133104A136024
S11323F0104B1B68002B01D001237B617B691846BD
S11324001837BD4680BD00BFE0240020BC24002056
S113241070240020E07C000074240020D0240020DC
S1132420D8240020C02400200C24002008240020EC
S1132430C8240020CC24002080B584B000AF224BF7
S11324401B68002B03D0214B01221A6039E01F4B7B
S113245000221A601E4B1B687B607B68B3FA83F30F
S1132460FB70FB78C3F11F03FB601A49FA6813463B
S11324709B0013449B000B441B68002B04D116489B
S113248040F6F62100F0A6FEFA6813469B001344BA
S11324909B00104A1344BB60BB685B685A68BB6806
S11324A05A60BB685A68BB6808339A4204D1BB6857
S11324B05B685A68BB685A60BB685B68DB68074A3C
S11324C013601037BD4680BDE0240020CC240020DA
S11324D0C02400200C240020E07C000008240020FC
S11324E080B582B000AF786039607B68002B04D17E
S11324F0094840F6063100F06DFE084B1B6818339E
S113250078681946FEF7B4FD3868012100F03EFBF7
S11325100837BD4680BD00BFE07C000008240020D1
S113252080B584B000AFF860B9607A60FB68002BB6
S113253004D10C4840F6313100F04CFE0A4B1B68C4
S11325401833F8681946FEF76FFD7B68002B02D03C
S11325504FF0FF33BB60B868796800F017FB1037A1
S1132560BD4680BDE07C00000824002080B584B016
S113257000AF78607B68DB68DB68BB60BB68002BFE
S113258004D1244840F6613100F024FEBB681833BE
S11325901846FEF7A5FD204B1B68002B1ED1BB6817
S11325A004331846FEF79CFDBB68DB6A1A46012318
S11325B003FA02F2194B1B681343184A1360BB68F1
S11325C0DA6A13469B0013449B00154A1A44BB68FD
S11325D0043310461946FEF727FD05E0BB6818339F
S11325E010481946FEF720FDBB68DA6A0E4B1B68DB
S11325F0DB6A9A4205D90123FB600C4B01221A6065
S113260001E00023FB6000F075F9FB681846103701
S1132610BD4680BDE07C0000E0240020C0240020F2
S11326200C2400207824002008240020CC2400203E
S113263080B582B000AF78607B68002B04D1084875
S113264040F6C13100F0C6FD064B1A687B681A607B
S1132650054B1A687B685A600837BD4680BD00BFC9
S1132660E07C0000D0240020BC24002080B584B08D
S113267000AF786039607B68002B04D1234840F6B2
S1132680CB3100F0A7FD3B68002B04D11F4840F676
S1132690CC3100F09FFDFEF71BFE1D4B1B68BB6099
S11326A03B681B68B3F1FF3F02D10023FB6026E0C7
S11326B07B681A68174B1B689A4207D07B685A6874
S11326C0BB689A4202D80123FB6018E07B685B6810
S11326D0BA68D21A3B681B689A420ED23B681A68E1
S11326E07B685968BB68CB1A1A443B681A607868DF
S11326F0FFF79EFF0023FB6001E00123FB60FEF770
S11327000FFEFB6818461037BD4680BDE07C000014
S1132710BC240020D024002080B400AF034B01224D
S11327201A60BD465DF8047B704700BFCC240020CE
S113273080B584B000AF786000F092F8FFF7BCFC7D
S1132740F860FB68012B17D9FFF7A8FC0B4B1A683C
S11327500B4B1B689A4204D20A4840F68C4100F0A5
S113276039FDFFF7A9FCF860FB68012B02D9F86872
S113277003F088F9FFF7DAFCDEE700BFD824002075
S1132780BC240020E07C000080B483B000AF0123AF
S11327903B600123FB710F4B1B68002B02D000230D
S11327A0FB7110E00C4B1B68002B02D00023FB7163
S11327B009E00A4B1A680A4B19683B68CB1A9A421B
S11327C001D10223FB71FB7918460C37BD465DF835
S11327D0047B704778240020CC240020A42400200B
S11327E0B824002080B582B000AF00237B600CE0E9
S11327F07A6813469B0013449B00114A13441846FD
S1132800FEF7E6FB7B6801337B607B68022BEFD924
S11328100C48FEF7DDFB0C48FEF7DAFB0B48FEF72D
S1132820D7FB0B48FEF7D4FB0A48FEF7D1FB0A4B53
S1132830044A1A60094B044A1A600837BD4680BD31
S11328400C240020482400205C240020782400204C
S11328508C240020A4240020702400207424002050
S113286080B582B000AF28E0FFF718FC164B1B6858
S1132870002B0CBF01230023DBB27B60FFF756FC67
S11328807B68002B19D1FEF723FD0F4BDB68DB6857
S11328903B603B6804331846FEF722FC0B4B1B6875
S11328A0013B0A4A13600A4B1B68013B084A136048
S11328B0FEF736FD386800F00DF8054B1B68002B59
S11328C0D2D10837BD4680BD8C240020B824002016
S11328D0A024002080B582B000AF78607B681B6BB9
S11328E01846FEF765FB7868FEF762FB0837BD46BD
S11328F080BD00BF80B483B000AF0E4B1B681B6863
S1132900002B01D1012300E00023002B04D00A4B4B
S11329104FF0FF321A6008E0064B1B68DB68DB6887
S11329207B607B685B68044A13600C37BD465DF8C6
S1132930047B704770240020D824002080B483B026
S113294000AF0B4B1B68002B02D101237B6008E016
S1132950084B1B68002B02D102237B6001E000239B
S11329607B607B6818460C37BD465DF8047B704776
S1132970C4240020E024002080B584B000AF786037
S11329807B68FB607B68002B64D0FB68DA6A334B9E
S11329901B68DB6A9A425DD2FB689B69002B06DBED
S11329A02E4B1B68DB6AC3F10302FB689A61FB6868
S11329B05969FB68DA6A13469B0013449B00284A52
S11329C01344994201D1012300E00023002B3CD0A1
S11329D0FB6804331846FEF783FB0346002B15D12E
S11329E0FB68DA6A1E4913469B0013449B000B44A0
S11329F01B68002B0AD1FB68DB6A1A46012393404B
S1132A00DA43184B1B681340164A1360134B1B68B8
S1132A10DA6AFB68DA62FB68DB6A1A46012303FAA6
S1132A2002F2104B1B6813430E4A1360FB68DA6A08
S1132A3013469B0013449B00094A1A44FB68043361
S1132A4010461946FEF7F0FA04E0044B1B68DA6AF4
S1132A50FB68DA621037BD4680BD00BF0824002041
S1132A600C240020C024002080B584B000AF78601E
S1132A707B68BB600023FB607B68002B64D0354B14
S1132A801B68BA689A4204D0334840F6C76100F024
S1132A90A1FBBB685B6C002B04D12F4840F6C961D5
S1132AA000F098FBBB685B6C5A1EBB685A64BB6839
S1132AB0DA6ABB681B6C9A4246D0BB685B6C002B1D
S1132AC042D1BB6804331846FEF70AFB0346002BC9
S1132AD015D1BB68DA6A214913469B0013449B0055
S1132AE00B441B68002B0AD1BB68DB6A1A4601231E
S1132AF09340DA431A4B1B681340194A1360BB68AE
S1132B001A6CBB68DA62BB68DB6AC3F10302BB6898
S1132B109A61BB68DB6A1A46012303FA02F2104B7E
S1132B201B6813430E4A1360BB68DA6A13469B00A2
S1132B3013449B00094A1A44BB68043310461946DF
S1132B40FEF772FA0123FB60FB6818461037BD4696
S1132B5080BD00BF08240020E07C00000C2400207D
S1132B60C024002080B400AF074B1B68002B04D0A6
S1132B70054B1B685A6C01325A64034B1B68184698
S1132B80BD465DF8047B70470824002080B584B0FE
S1132B9000AF78603960284B1B68FB60274B1B68CB
S1132BA004331846FEF79CFA0346002B0BD1234B43
S1132BB01B68DB6A1A4601239340DA43204B1B68E7
S1132BC013401F4A13607B68B3F1FF3F0AD13B688F
S1132BD0002B07D0194B1B6804331A481946FEF71B
S1132BE023FA26E0FA687B681344BB60134B1B6826
S1132BF0BA685A60BA68FB689A4209D2124B1A68DA
S1132C000E4B1B68043310461946FEF731FA10E0E8
S1132C100E4B1A68094B1B68043310461946FEF71D
S1132C2027FA0B4B1B68BA689A4202D2084ABB685F
S1132C3013601037BD4680BDBC240020082400204A
S1132C40C0240020A4240020742400207024002028
S1132C50D824002080B584B002AF00237B6000F04C
S1132C6083FA0E4B1B68002B0AD0022300930C4BF3
S1132C7001930C480C498C220023FFF76FF878600D
S1132C807B68002B04D1094840F2331100F0A2FA0A
S1132C907B6818460837BD4680BD00BF1425002058
S1132CA018250020C92D0000587D0000607D00001B
S1132CB080B588B000AFF860B9607A603B600023EB
S1132CC0FB61FB68002B04D11F484FF4D37100F063
S1132CD081FA1E4B1B68002B30D0BB683B617B68BC
S1132CE07B61FB68BB61BB68052B1CDCFFF726FE20
S1132CF00346022B0BD1154B1A6807F1100310463B
S1132D001946BA6A0023FEF75FFCF86116E00F4B20
S1132D101A6807F110031046194600220023FEF733
S1132D2053FCF8610AE0094B1A6807F110031046D6
S1132D3019463A680023FEF725FDF861FB69184639
S1132D402037BD4680BD00BF607D000014250020F3
S1132D5080B586B002AF78603960194B1B68DB68B8
S1132D60DB68FB60FB6804331846FEF7B9F9FB68BF
S1132D70DB69012B1DD1FB689A697B681344F868F1
S1132D8019463A687B6800F0C3F80346002B10D05C
S1132D9000230093F86800217A680023FFF788FF76
S1132DA0B860BB68002B04D106484FF4027100F0F0
S1132DB011FAFB685B6AF86898471037BD4680BD16
S1132DC00C250020607D000080B584B000AF7860E1
S1132DD007F10803184600F057F8F860BB68F86874
S1132DE0194600F003F800F0D5F8F1E780B584B097
S1132DF000AF78603960FFF751F907F1080318460E
S1132E0000F066F8F860BB68002B31D13B68002BFA
S1132E100AD17A68FB689A4206D8FFF787F978687E
S1132E20F968FFF795FF25E03B68002B08D0134BAA
S1132E301B681B68002B0CBF01230023DBB23B6023
S1132E400F4B19687A68FB68D31A084619463A6822
S1132E50FEF74EFFFFF76AF90346002B0AD1094B30
S1132E604FF080521A60BFF34F8FBFF36F8F01E0B2
S1132E70FFF75CF91037BD4680BD00BF1025002068
S1132E801425002004ED00E080B485B000AF786024
S1132E900E4B1B681B68002B0CBF01230023DBB205
S1132EA01A467B681A607B681B68002B05D1074BA8
S1132EB01B68DB681B68FB6001E00023FB60FB68A8
S1132EC018461437BD465DF8047B70470C25002076
S1132ED080B584B000AF7860FFF7C2F9F8600B4B9F
S1132EE01B68FA689A4205D200F0E2F87B68012276
S1132EF01A6002E07B6800221A60044AFB681360CF
S1132F00FB6818461037BD4680BD00BF1C25002055
S1132F1080B586B000AFF860B9607A603B6000238A
S1132F207B61FB68BA685A60FB68FA681A61BA6820
S1132F307B689A4212D87A683B68D21AFB689B690C
S1132F409A4202D301237B611BE0104B1A68FB6891
S1132F50043310461946FEF78BF812E07A683B6892
S1132F609A4206D2BA683B689A4202D301237B6133
S1132F7007E0074B1A68FB68043310461946FEF74E
S1132F8077F87B6918461837BD4680BD10250020A8
S1132F900C25002080B58AB002AF73E0BB68002B1B
S1132FA070DB3B69FB61FB695B69002B04D0FB6947
S1132FB004331846FEF794F83B1D1846FFF788FFC4
S1132FC0B861BB68092B5CD801A252F823F000BF9A
S1132FD0F92F0000F92F0000F92F000085300000C0
S1132FE04D3000007B300000F92F0000F92F000065
S1132FF0853000004D300000FA68FB699B691A4473
S1133000FB68F8691146BA69FFF782FF0346002B93
S11330101BD0FB695B6AF8699847FB69DB69012B84
S113302013D1FA68FB699B691A4400230093F86979
S113303000210023FFF73CFE78617B69002B04D15B
S1133040194840F2213100F0C5F81BE0FA68FB6929
S11330509A61FB699B69002B04D113484FF44E71AC
S113306000F0B8F8FB699A69BB691344F86919461A
S1133070BA69BB69FFF74CFF04E0F869FDF798FFF4
S113308000E000BF094B1A6807F10803104619460F
S113309000220023FEF7F4FB0346002B7FF47EAFEF
S11330A02037BD4680BD00BF607D00001425002090
S11330B080B588B002AF3FE0284B1B68DB681B6813
S11330C07B61264B1B68DB68DB683B613B6904332F
S11330D01846FEF705F83B695B6A386998473B690F
S11330E0DB69012B28D13B699A697B691344FB6036
S11330F0FA687B699A420ED93B69FA685A603B695F
S11331003A691A61154B1A683B690433104619462B
S1133110FDF7AEFF10E000230093386900217A69BF
S11331200023FFF7C5FDB860BB68002B04D10C4831
S113313040F2923100F04EF8084B1B681B68002BDC
S1133140BAD1064B1B687B60064B1B68034A1360AD
S1133150044A7B6813601837BD4680BD0C250020E7
S1133160607D00001025002080B500AFFEF7B0F8A8
S1133170124B1B68002B1DD11148FDF729FF114884
S1133180FDF726FF104B0E4A1A60104B0D4A1A60C9
S11331900A200C210022FEF7C3F90246074B1A60ED
S11331A0064B1B68002B05D0044B1B6818460849C6
S11331B0FEF776FDFEF7B4F880BD00BF14250020AD
S11331C0E4240020F82400200C25002010250020F1
S11331D0D47D000080B483B000AF78603960FEE72E
S11331E080B487B000AFF860B9607A60FB6803F11F
S11331F00473DA00BB6813449B007B617B697A68C3
S11332001A601C37BD465DF8047B704780B485B0F6
S113321000AF786039607B6803F10473DA003B68BF
S113322013449B00FB60FB681B6818461437BD46BB
S11332305DF8047B704700BF80B584B000AF786050
S11332407B68002B03D07B68B3F5004F04D9084892
S113325040F2AB61FFF7BEFF7B68B3FA83F3C3F1BF
S11332601F03FB60FB6818461037BD4680BD00BFD6
S1133270DC7D000080B400AF044BDB6C1B0EDBB2C2
S11332801846BD465DF8047B704700BFB081E00F6F
S113329080B400AF054BDB6C03F47F031B0CDBB283
S11332A01846BD465DF8047B704700BFB081E00F4F
S11332B080B582B000AFFFF7EBFF03464A2B04D082
S11332C0792B02D0482B21D022E0164B1B699BB2EC
S11332D003F03F039BB21B02FB80124B9B6903F07C
S11332E0F0039AB2FB881343FB800E4BDB6903F0B7
S11332F0F0031B099AB2FB881343FB80FB88B3F5E8
S1133300017F01D3084B09E0084B07E0074B05E0B8
S113331007484FF49F71FFF75DFF002318460837F5
S1133320BD4680BDD0FF0FE000366E010048E801C5
S1133330407E000080B584B000AF78600123FB605C
S1133340FFF7B6FF02467B689A4204D30023FB6072
S11333500023BB600BE0FFF7ABFF03465A007B681A
S11333609A4202D30123BB6001E00223BB600848F8
S11333701E21FA68FFF734FF0549054B5B6823F407
S11333808072BB681B0213434B601037BD4680BD7F
S113339000800C4080B582B000AF05481E21FFF7C5
S11333A035FF78607B6818460837BD4680BD00BF8E
S11333B000800C4080B582B000AF244B5B6903F4FD
S11333C0E063B3F5007F1CD0B3F5007F05D8002B74
S11333D025D0B3F5807F1FD02AE0B3F5C06F24D089
S11333E0B3F5E06F1ED0B3F5407F21D1FFF742FF64
S11333F00346122B02D9164B7B6021E0154B7B60F0
S11334001EE0FFF737FF0346122B02D9124B7B60F5
S113341016E0124B7B6013E0114B7B6010E0114B04
S11334207B600DE0104B7B600AE0104B7B6007E093
S113343000237B600E4840F2BD11FFF7CBFE00BFB6
S11334407B6818460837BD4680BD00BF00800C402D
S1133450804F120040420F0040B56400C0CF6A00A4
S1133460C0D8A700809FD500406F4001003FAB014A
S1133470407E000080B582B000AF0F4800F034FCFD
S11334800346FB70FB78072B05D0092B07D1FCF70B
S113349063FF78600BE0FFF78DFF786007E000239F
S11334A07B60064840F2F711FFF794FE00BF7B688B
S11334B018460837BD4680BD06000C00407E00005B
S11334C080B485B000AF78603960204B5B6803F04E
S11334D00703FB60FB68012B01D9042B02D10023F5
S11334E0FB7202E00123FB7200BF7B68184A93421F
S11334F007D9FB7A002B01D0052300E00423FB60ED
S113350016E07B68124A93420BD87B68114A9342B7
S113351007D9FB7A002B01D0032300E00123FB60D1
S113352006E0FB7A002B01D0022300E00023FB60BD
S11335300649064B5B6823F00702FB6813434B60A4
S11335401437BD465DF8047B704700BF00000C4093
S11335500048E8010024F40080B582B000AF0D4BB0
S1133560DB6B002B14BF01230023FB71094B41F6D5
S11335707132DA63FCF7E6FE034618460021FFF7D2
S11335809FFFFB79002B02D0024B0022DA6308373D
S1133590BD4680BD00000C4080B584B000AF7860AB
S11335A039600C4BDB6B002B14BF01230023FB732E
S11335B0084B41F67132DA6378683968FFF780FFA7
S11335C0FB7B002B02D0034B0022DA631037BD468D
S11335D080BD00BF00000C4090B585B000AF78609E
S11335E00023BB607B683B4A934208D03A4A93422B
S11335F005D03A484FF48061FFF7ECFD00E000BFCE
S1133600786800F071FB0346FB607B68314A9342A3
S113361003D0314A934206D00CE0314B9B6A03F04D
S11336200303FB600CE02E4B9B6A03F00C039B0826
S1133630FB6005E0294840F22F41FFF7CBFD00BFB6
S1133640FB68032B39D801A252F823F0833600001B
S11336505D360000653600006D360000FCF70EFF95
S1133660B86032E0FCF71EFFB8602EE0FCF750FEB5
S11336700446FFF78FFE0346013324FA03F3BB60CD
S113368023E00023BB607B68124A934203D07B682B
S1133690114A934210D1124B9A6A7B680D498B42AE
S11336A001D1102300E0142322FA03F3002B03D0EA
S11336B0FCF7EEFEB86008E007E00023BB600748B3
S11336C040F25A41FFF786FD00BFBB681846143725
S11336D0BD4690BD02001A0003001C00407E00009D
S11336E000800C4080B483B000AF7860094B5B6D00
S11336F003F00103002B00D006E000BF054B1A6D58
S11337007B681340002BF9D10C37BD465DF8047B70
S1133710704700BF00800C4080B582B000AF1048F5
S113372000F0E2FA0346FB70FB78032B07D0092B69
S113373009D0022B0BD1FCF7B5FE78600AE0FCF748
S11337409DFE786006E0FCF707FE786002E0002347
S11337507B6000BF7B6818460837BD4680BD00BF4C
S113376007232200B0B584B000AF786039607B686D
S11337701B0903F00F03FB60FB68013B062B00F2FF
S11337803A8101A252F823F0A5370000F73900006E
S1133790F7390000E3370000153800006B380000EB
S11337A0773900003B68002B02D03B68082B04D912
S11337B095484FF4E261FFF70DFDFFF7CDFE934905
S11337C0924B1B6823F4E0323B68013B9B03134399
S11337D00B60FCF79DFDB860B8680021FFF7DCFEC4
S11337E00FE13B68002B03D03B68B3F5007F04D99D
S11337F0854840F22371FFF7EDFC3868FFF71CFDA4
S113380038608249814B9B6823F00F023B68134365
S11338108B60F6E03B68002B03D03B68B3F5007F78
S113382004D9794840F22B71FFF7D4FCFFF794FEDA
S1133830FCF792FD02463B68B2FBF3F31846FFF730
S113384079FD3868FFF7F8FC386070496F4B5B68A6
S113385023F00F023B6813434B60FCF759FDB8603B
S1133860B8680021FFF798FECBE07B68684A934272
S113387027D0674A934203D8664A934207D073E03D
S1133880654A934237D0654A934255D06CE03B6811
S1133890B3F5004F04D95C4840F24671FFF79AFC37
S11338A00420FFF71FFF3868FFF7C6FC386057494C
S11338B0564B9B6E23F0F0023B681B0113438B664F
S11338C058E03B68B3F5004F04D94F4840F25471B7
S11338D0FFF780FC0420FFF705FF3868FFF7ACFC16
S11338E038604A49494B9B6E23F470623B681B0263
S11338F013438B663EE03B680F2B02D93B68802B59
S113390004D9414840F26371FFF764FC0420FFF7D7
S1133910E9FE3868FFF790FC38603C4D3B4B9B6EEA
S113392023F440541020FFF787FC02463B689B1A9F
S11339301B032343AB661DE03B68082B04D93248C4
S113394040F27371FFF746FC0420FFF7CBFE3868A2
S1133950FFF772FC38602D492C4B9B6E23F0030259
S11339603B6813438B6605E0274840F28171FFF7FB
S113397031FC00BF45E07B68294A934203D0294AC1
S1133980934218D030E03B68082B04D91E4840F21B
S11339908A71FFF71FFC4020FFF7A4FE3868FFF789
S11339A04BFC38601949194B1B6F23F003023B6829
S11339B013430B671EE03B68082B04D9124840F2FE
S11339C09971FFF707FC4020FFF78CFE3868FFF77A
S11339D033FC38600D490D4B1B6F23F030023B68FC
S11339E01B0113430B6705E0074840F2A771FFF77B
S11339F0F1FB00BF05E0044840F2AD71FFF7EAFBBC
S1133A0000BF1037BD46B0BD407E000000800C40B2
S1133A1060261400601610006000260060062A006C
S1133A20700716007017180080B586B000AF786074
S1133A300B46FB7000233B617B681B0A03F00F03FA
S1133A40013B092B33D801A252F823F0893A000034
S1133A508F3A0000753A0000AF3A0000AF3A000018
S1133A60953A00009F3A0000AF3A0000AF3A0000D8
S1133A70A93A00001B4B7B611B4800F043F8034646
S1133A801846FFF757FC18E0184B7B6115E0184BFC
S1133A907B6112E0174B7B6101233B610DE0164B08
S1133AA07B6110233B6108E0144B7B6105E0144803
S1133AB040F62B01FFF78EFB10E07B681B0B03F035
S1133AC01F03FB603B69002B02D03869FFF70AFE35
S1133AD0FB787869F9681A46FFF782FB1837BD4608
S1133AE080BD00BF40800C400043020008800C40B1
S1133AF044800C4058800C4060800C4078800C401E
S1133B00407E000090B585B000AF78607B6803F418
S1133B107813B3F5B01F00F0AB80B3F5B01F1AD81B
S1133B20B3F5402F00F0BF80B3F5402F08D8B3F5AC
S1133B30003F3CD0B3F5802F2DD0002B27D0BEE022
S1133B40B3F5801F3CD0B3F5A01F47D0B3F5602F69
S1133B5000F0AD80B3E0B3F5081F00F0AC80B3F51E
S1133B60081F0AD8B3F5D01F25D0B3F5E01F7AD0CB
S1133B70B3F5C01F00F08980A1E0B3F5201F4ED03B
S1133B80B3F5281F62D0B3F5181F35D097E0FCF7C2
S1133B90E3FBF8609BE0FCF7DFFBF8604E4B9B68AF
S1133BA003F00F031A46FB68D340FB608FE0FCF779
S1133BB0AFFBF8608BE04948FFF70EFDF86086E044
S1133BC04648FFF709FDF860434B9B6E03F0F00392
S1133BD01B091A46FB68D340FB6078E03F48FFF7B7
S1133BE0FBFCF8603C4B9B6E03F470631B0A1A46A3
S1133BF0FB68D340FB606AE03848FFF7EDFCF860EF
S1133C00354B9B6E03F440531C0B1020FFF714FB41
S1133C10034623441A46FB68D340FB6057E02F4811
S1133C20FFF7DAFCF8602C4B9B6E03F440531B0B3C
S1133C301A46FB68D340FB60274BDB6F03F0070396
S1133C400133FA68B2FBF3F3FB6040E02348FFF76B
S1133C50C3FCF860204B9B6E03F003031A46FB6819
S1133C60D340FB6033E01E48FFF7B6FCF8602EE05B
S1133C701B48FFF7B1FCF860174B1B6F03F00303FD
S1133C801A46FB68D340FB6021E01548FFF7A4FC0B
S1133C90F860114B1B6F03F030031B091A46FB68D5
S1133CA0D340FB6013E0FFF7E5FBF8600FE0FFF79C
S1133CB081FBF8600BE0FFF72FFDF86007E00023BD
S1133CC0FB6008484FF41261FFF784FA00BFFB68F9
S1133CD018461437BD4690BD00800C4002001A00FF
S1133CE003001C00407E000080B584B000AF786003
S1133CF00123FB737B6803F00F03BB60BB68013BCC
S1133D00062B00F2938001A252F823F0293D000013
S1133D105F3D00009B3D00002D3E00002D3E000055
S1133D20D73D0000F93D0000474BDB6A03F47053B4
S1133D30B3F5805F09D0B3F5005F03D0B3F5006F2E
S1133D4006D008E00223FB7308E00323FB7305E0BD
S1133D500423FB7302E00523FB7300BF6EE03A4BC0
S1133D609B6A03F00303022B06D0032B07D0012B1D
S1133D7008D10323FB730FE00223FB730CE006233B
S1133D80FB7309E0304B9B6A03F48033002B02D0B1
S1133D900A23FB7300E000BF50E02B4B9B6A03F047
S1133DA00C03082B06D00C2B07D0042B08D10323BB
S1133DB0FB730FE00223FB730CE00623FB7309E0A3
S1133DC0214B9B6A03F48013002B02D00A23FB735C
S1133DD000E000BF32E01C4B1B6803F08053002B53
S1133DE003D0B3F1805F03D028E00723FB7302E024
S1133DF00923FB7300BF21E0134BDB6A03F4603338
S1133E00B3F5803F08D0B3F5003F08D0B3F5004FB9
S1133E1008D10923FB7308E00223FB7305E00323A5
S1133E20FB7302E00123FB7300BF07E00023FB7375
S1133E30064840F6D141FFF7CDF900BFFB7B184699
S1133E401037BD4680BD00BF00800C40407E00009E
S1133E5080B588B000AF78600B46FB700323FB612C
S1133E600323FB7600233B617B6803F00F03FB60B5
S1133E70FB68013B062B00F2438101A252F823F0B8
S1133E809D3E00008B3F00008B3F0000014100007D
S1133E9001410000594000008F400000FB78023BC4
S1133EA0082B52D801A252F823F000BFD13E0000E3
S1133EB0DB3E0000E53E0000273F00004B3F0000D2
S1133EC04B3F00004B3F00004B3F00003F3F0000D2
S1133ED00423FB610023FB763DE00323FB61012304
S1133EE0FB7638E00223FB610223FB76FFF7E0F95F
S1133EF0034601331846FFF71DFAFCF7ADFA0246F4
S1133F00844B9A4206D9844A834B1B6843F060036E
S1133F10136020E0804A804B1B6823F0600343F069
S1133F202003136017E00123FB610323FB76FFF7F3
S1133F30BFF9034601331846FFF7FCF90BE0774855
S1133F4040F67651FFF746F9E0E0744840F67B51BD
S1133F50FFF740F9DAE0FB7E18460121012200F068
S1133F6009F9FFF7F9FA6C4AFB6953626C48FFF7E9
S1133F70C9FD03461846FFF7DDF9FCF7C9F9B86037
S1133F80B8680021FFF708FBC0E0FB78013B092B70
S1133F903CD801A252F823F0C13F0000C73F000003
S1133FA0D73F00000D4000000D400000E73F000037
S1133FB00D4000000D4000000D40000003400000D3
S1133FC000237B6128E000200121012200F0D2F8C7
S1133FD002237B6120E001200121012200F0CAF8C4
S1133FE001237B6118E0FCF793F9B860B868FFF728
S1133FF0A1F94C4804210122FFF7F2F803237B6165
S11340000AE000237B6101233B6105E0434840F65D
S11340101D61FFF7DFF879E0FB68022B0DD13E4903
S11340203D4B9B6A23F4803323F003037A691A43DC
S11340303B691B0413438B6268E03749364B9B6A28
S113404023F4801323F00C037A6992001A433B692A
S11340501B0513438B6259E0FB78072B02D0092B15
S113406007D00DE02C4A2C4B1B6823F080531360BF
S11340700CE0294A284B1B6843F08053136005E089
S1134080264840F67861FFF7A5F83FE03EE0FB786C
S1134090032B13D0092B21D0022B2AD1002001217C
S11340A0012200F067F81C4B40225A6200BF1A4BF1
S11340B0DB6A03F48033002BF9D020E001200121D6
S11340C0012200F057F8144B60225A6200BF124BD1
S11340D0DB6A03F40033002BF9D010E00E4B2022EE
S11340E05A6200BF0C4BDB6A03F40043002BF9D087
S11340F005E00A4840F6B761FFF76CF806E005E012
S1134100064840F68C71FFF765F800BF2037BD46BE
S113411080BD00BF0048E80100800C40407E0000E4
S11341200043020040800C4080B582B000AF78604C
S11341307B68802B04D90D4841F2AB21FFF74AF884
S11341400B4B9B6D03F00803002B00D00BE07B6846
S113415003F007037B600649054BDB6F23F007027E
S11341607B681343CB670837BD4680BD407E0000A3
S113417000800C4080B586B000AF0346FB710B464F
S1134180BB7113467B71FB79042B32D801A252F820
S113419023F000BFE1410000D3410000B74100001B
S11341A0A9410000C541000001233B610223FB60DB
S11341B001237B6123E004233B610823FB60032389
S11341C07B611CE010233B612023FB6005237B61A2
S11341D015E040233B618023FB6007237B610EE0F5
S11341E04FF480733B614FF40073FB6009237B61E0
S11341F005E00F4841F25631FEF7ECFF14E0BB79BD
S1134200002B0ED00B4A3B6913627B79002B0BD039
S113421000BF09487969FEF7F9FF0346002BF8D07F
S113422002E0044AFB6813621837BD4680BD00BF34
S1134230407E000000800C402C800C4080B483B091
S113424000AFEFF310833B603B687B6072B67B6822
S113425018460C37BD465DF8047B704780B483B0C4
S113426000AF78607B68002B00D162B60C37BD4686
S11342705DF8047B704700BF80B483B000AFEFF3F8
S113428010833B603B687B6072B67B6818460C37D2
S1134290BD465DF8047B704780B483B000AF78609E
S11342A07B68002B00D162B60C37BD465DF8047BF9
S11342B0704700BF80B500AFFCF72AF880BD00BF8F
S11342C080B400AF034B4AF6E8529A60BD465DF8ED
S11342D0047B704700600C4080B400AF034B0022A5
S11342E0C3F88420BD465DF8047B704700800C4011
S11342F080B400AF044B45F60E02C3F88420BD46DB
S11343005DF8047B704700BF00800C4080B584B02A
S113431000AF0346FB71FB79002B0BD12B4BDB6AFF
S11343202B4A13601120FFF7DFFC03461A46294B82
S11343301A7047E0254BD3F8843003F00103FB6087
S1134340FFF7D6FF0023BB60214B1B6803F001037A
S1134350BA681343BB601E4B1B6803F01003BA68B2
S11343601343BB601A4B1B6803F04003BA68134342
S1134370BB60174B1B6803F00403BA681343BB60AC
S1134380134B1B6803F48073BA681343BB600F4A72
S1134390BB6813620F4B1B78052B05D00D4B1B78A4
S11343A011201946FFF754FD094B1B6803F0010364
S11343B0002B02D1054B02221A62FB68002B01D0AC
S11343C0FFF78AFF1037BD4680BD00BF00800C4058
S11343D0202500202425002080B483B000AF164B94
S11343E01B699BB203F03F039BB21B02FB80124B81
S11343F09B6903F0F0039AB2FB881343FB800E4BD6
S1134400DB6903F0F0031B099AB2FB881343FB80BA
S1134410FB88B3F5827F03D3FB88B3F5017F01D119
S1134420012300E0002303F00103DBB218460C373C
S1134430BD465DF8047B7047D0FF0FE080B586B0C1
S113444000AF0346FB71FB79002B02D00020FFF77D
S11344505DFF1A4A194B1B6943F004031361FFF70C
S1134460BBFF0346FB75FB7D002B11D0144B1A6870
S1134470144B1340FB60124AFB68C2F88030104BA7
S11344805B6823F046033B610D4A3B69C2F8843004
S113449030BFFB7D002B05D0094AFB681360084A36
S11344A03B695360FB79002B03D00120FFF72EFFFB
S11344B001E0FFF7FFFE1837BD4680BD00ED00E0C8
S11344C000E100E09CF1FD0080B586B000AF03463A
S11344D0FB71FB79002B02D00020FFF717FF234B61
S11344E0D3F8843003F001037B61FFF701FF1F4B16
S11344F04FF420721A627B69002B01D0FFF7ECFEA7
S11345001B4A1B4B1B6943F004031361FFF764FF51
S11345100346FB74FB7C002B11D0164B1A68164B18
S11345201340BB60134ABB68C2F88030114B5B6810
S113453023F04603FB600F4AFB68C2F8843030BFA7
S1134540FB7C002B05D00B4ABB681360094AFB684F
S11345505360FB79002B03D00120FFF7D7FE01E065
S1134560FFF7A8FE1837BD4680BD00BF00800C4091
S113457000ED00E000E100E09CF1FD0080B500AF3B
S11345800020FFF7C3FE80BD80B500AF0120FFF718
S1134590BDFE80BD80B584B000AF114B1B6823F015
S11345A00C0343F00803BB600D4B1B6843F00C0382
S11345B07B60FFF785FE0023FB6008E0084ABB68C8
S11345C01360074A7B681360FB680133FB60FB6878
S11345D0032BF3DD024ABB6813601037BD4680BD70
S11345E000600C4080B487B000AFF860B9607A60B6
S11345F0FB6803F10473DA00BB6813449B007B611E
S11346007B697A681A601C37BD465DF8047B704785
S113461080B485B000AFF860B9607A60FB681A684E
S1134620BB68DB431A407B681A43FB681A60143783
S1134630BD465DF8047B704780B582B000AF034689
S11346403960FB71FB79002B1FD0FB79012B19D04A
S1134650FB79022B13D0FB79032B0DD0FB79042BB0
S113466007D0FB79052B02D141F6FF730FE000233D
S11346700DE04FF6FF730AE04FF6FF7307E04FF6C5
S1134680FF7304E04FF6FF7301E04FF6FF733A68DF
S1134690134103F00103002B04D10B484FF45D7167
S11346A0FEF798FD0949FA793B68012000FA03F303
S11346B018461346DB0013449B000B441033586028
S11346C00837BD4680BD00BFA47E000000600040E6
S11346D080B582B000AF03463960FB71FB79002BD3
S11346E01FD0FB79012B19D0FB79022B13D0FB7956
S11346F0032B0DD0FB79042B07D0FB79052B02D1BA
S113470041F6FF730FE000230DE04FF6FF730AE05C
S11347104FF6FF7307E04FF6FF7304E04FF6FF73A5
S113472001E04FF6FF733A68134103F00103002BD5
S113473004D10B4840F2A131FEF74CFD0949FA7946
S11347403B68012000FA03F318461346DB001344C8
S11347509B000B44103318600837BD4680BD00BF72
S1134760A47E00000060004080B586B000AFB96050
S11347707A601A460346FB731346BB7300237B61BE
S1134780FB7B002B1FD0FB7B012B19D0FB7B022B67
S113479013D0FB7B032B0DD0FB7B042B07D0FB7BBF
S11347A0052B02D141F6FF730FE000230DE04FF615
S11347B0FF730AE04FF6FF7307E04FF6FF7304E060
S11347C04FF6FF7301E04FF6FF73BA68134103F02D
S11347D00103002B03D12248C421FEF7FBFC7B68B4
S11347E0072B0ED87B689B001A46072303FA02F1B5
S11347F0FB7B7A68920093401A481A46FFF708FF39
S113480010E07B68083B7B617B699B001A460723A9
S113481003FA02F1FB7B7A699200934012481A462C
S1134820FFF7F6FEBB7B114879681A46FFF7DAFEFC
S113483097F820300E4879681A46FFF7D3FE0D4AE0
S11348407B68012101FA03F3C2F81C3197F8243084
S1134850094879681A46FFF7C5FE1837BD4680BD7A
S1134860087F0000006100400461004008610040CE
S11348700C610040006000401061004090B585B0BC
S113488000AFB9607B600346FB731346BB73FB7BCD
S1134890002B1FD0FB7B012B19D0FB7B022B13D0E9
S11348A0FB7B032B0DD0FB7B042B07D0FB7B052B61
S11348B002D141F6FF730FE000230DE04FF6FF73C2
S11348C00AE04FF6FF7307E04FF6FF7304E04FF67C
S11348D0FF7301E04FF6FF73BA68134103F001035D
S11348E0002B04D1374840F20F11FEF773FCBB7B59
S11348F0002B0DD07B68002B05D0FB7B1846B968D4
S1134900FFF7E6FE04E0FB7B1846B968FFF794FE68
S1134910BB68072B1CD82C4CFA7B2B48F97B0B4625
S1134920DB000B449B0003445968BB689B0018469A
S11349300F238340DB430B40B97BB8688000814080
S113494019431346DB0013449B002344596024E0BD
S11349501D4CFA7B1C48F97B0B46DB000B449B0087
S1134960034408331968BB6803F18043083B9B0088
S113497018460F238340DB431940B87BBB6803F11F
S11349808043083B9B0000FA03F319431346DB0002
S113499013449B00234408331960BB7B002B0DD1C7
S11349A07B68002B05D0FB7B1846B968FFF790FEA7
S11349B004E0FB7B1846B968FFF73EFE1437BD469A
S11349C090BD00BF087F00000060004080B483B049
S11349D000AF0346FB71FB79002B06D0084A084B55
S11349E01B6843F00103136005E0054A044B1B6890
S11349F023F0010313600C37BD465DF8047B704758
S1134A0000A0084080B487B000AFF860B9607A6055
S1134A10FB6803F10473DA00BB6813449B007B61F9
S1134A207B697A681A601C37BD465DF8047B704761
S1134A3080B584B000AF78601D4B5B68FB607B6819
S1134A40002B03D11B484721FEF7C4FB0020FFF7CE
S1134A50BDFFFB6823F4830323F01F03FB607B6823
S1134A605B68FA681343FB607B681B7A1A46FB6831
S1134A701343FB607B685B7A1A46FB681343FB6055
S1134A807B68DB68FA681343FB607B681B8A1A4601
S1134A90FB681343FB60064AFB6853607B681B7822
S1134AA0002B02D00120FFF791FF1037BD4680BDD7
S1134AB000A008406C7F000080B485B000AF78602F
S1134AC00D4B5B68FB60FB6823F48033FB607B6801
S1134AD0002B08D0B3F5803F00D005E0FB6843F419
S1134AE08033FB6000E000BF034AFB685360143767
S1134AF0BD465DF8047B704700A0084080B483B0D5
S1134B0000AF03460A46FB8013467B717B79002B7A
S1134B1006D00949084B9A68FB8813438B6006E06A
S1134B200549054B9A68FB88DB4313408B600C37BF
S1134B30BD465DF8047B704700A0084080B584B092
S1134B4000AFF860B9601346FB71FB68072B04DD06
S1134B506E4840F21911FEF73DFBBB68272B04DDBC
S1134B606A484FF49071FEF735FBFB68072B00F29F
S1134B70C38001A252F823F0994B0000C54B0000FA
S1134B80F14B00001D4C0000494C0000754C000026
S1134B90A14C0000CD4C0000BB681F2B07DCBA6899
S1134BA0FB795B4811461A46FFF72CFFAAE0BB6865
S1134BB0203BBB60BA68FB79564811461A46FFF79A
S1134BC021FF9FE0BB681F2B07DCBA68FB795248C2
S1134BD011461A46FFF716FF94E0BB68203BBB6002
S1134BE0BA68FB794D4811461A46FFF70BFF89E076
S1134BF0BB681F2B07DCBA68FB79494811461A4683
S1134C00FFF700FF7EE0BB68203BBB60BA68FB791E
S1134C10444811461A46FFF7F5FE73E0BB681F2BA4
S1134C2007DCBA68FB79404811461A46FFF7EAFEEA
S1134C3068E0BB68203BBB60BA68FB793B4811461F
S1134C401A46FFF7DFFE5DE0BB681F2B07DCBA687E
S1134C50FB79374811461A46FFF7D4FE52E0BB6889
S1134C60203BBB60BA68FB79324811461A46FFF70D
S1134C70C9FE47E0BB681F2B07DCBA68FB792E48E6
S1134C8011461A46FFF7BEFE3CE0BB68203BBB6002
S1134C90BA68FB79294811461A46FFF7B3FE31E09A
S1134CA0BB681F2B07DCBA68FB79254811461A46F6
S1134CB0FFF7A8FE26E0BB68203BBB60BA68FB791F
S1134CC0204811461A46FFF79DFE1BE0BB681F2BC8
S1134CD007DCBA68FB791C4811461A46FFF792FEB6
S1134CE010E0BB68203BBB60BA68FB7917481146EB
S1134CF01A46FFF787FE05E004484FF4C571FEF736
S1134D0069FA00BF1037BD4680BD00BF6C7F00004C
S1134D1040A0084050A0084044A0084054A00840C7
S1134D2048A0084058A008404CA008405CA0084097
S1134D30CCA00840B4A00840D0A00840B8A00840C7
S1134D40D4A00840BCA00840D8A00840C0A0084097
S1134D5080B586B000AFF860B9607A60FB68072B55
S1134D6004DD5F4840F2A311FEF734FAFB68072B19
S1134D7000F2AC8001A252F823F000BF9D4D000068
S1134D80C14D0000E54D0000094E00002D4E00000D
S1134D90554E00007D4E0000A54E0000514B1B6C8B
S1134DA07B61BB68DB437A6913407B61BA687B68CB
S1134DB013407A6913437B614A4A7B6913648BE02D
S1134DC0484B5B6C7B61BB68DB437A6913407B6156
S1134DD0BA687B6813407A6913437B61414A7B69F3
S1134DE0536479E03F4B9B6C7B61BB68DB437A691E
S1134DF013407B61BA687B6813407A6913437B6113
S1134E00384A7B69936467E0364BDB6C7B61BB6833
S1134E10DB437A6913407B61BA687B6813407A6923
S1134E2013437B612F4A7B69D36455E02D4BD3F840
S1134E30CC307B61BB68DB437A6913407B61BA6821
S1134E407B6813407A6913437B61264A7B69C2F805
S1134E50CC3041E0234BD3F8D0307B61BB68DB43DB
S1134E607A6913407B61BA687B6813407A6913439B
S1134E707B611C4A7B69C2F8D0302DE0194BD3F812
S1134E80D4307B61BB68DB437A6913407B61BA68C9
S1134E907B6813407A6913437B61124A7B69C2F8C9
S1134EA0D43019E00F4BD3F8D8307B61BB68DB43B7
S1134EB07A6913407B61BA687B6813407A6913434B
S1134EC07B61084A7B69C2F8D83005E0044840F2A7
S1134ED0E311FEF77FF900BF1837BD4680BD00BF60
S1134EE06C7F000000A0084080B586B000AFF86079
S1134EF0B9607A60FB68072B04DD5C4840F2FB1163
S1134F00FEF768F9FB68072B00F2AC8001A252F8A7
S1134F1023F000BF354F0000594F00007D4F0000C3
S1134F20A14F0000C54F0000ED4F000015500000D8
S1134F303D5000004E4B1B6D7B61BB68DB437A69BF
S1134F4013407B61BA687B6813407A6913437B61C1
S1134F50474A7B69136586E0454B5B6D7B61BB68A3
S1134F60DB437A6913407B61BA687B6813407A69D2
S1134F7013437B613E4A7B69536574E03C4B9B6DF4
S1134F807B61BB68DB437A6913407B61BA687B68E9
S1134F9013407A6913437B61354A7B69936562E008
S1134FA0334BDB6D7B61BB68DB437A6913407B6108
S1134FB0BA687B6813407A6913437B612C4A7B6926
S1134FC0D36550E02A4BD3F8B4307B61BB68DB4334
S1134FD07A6913407B61BA687B6813407A6913432A
S1134FE07B61234A7B69C2F8B4303CE0204BD3F8A0
S1134FF0B8307B61BB68DB437A6913407B61BA6874
S11350007B6813407A6913437B61194A7B69C2F850
S1135010B83028E0164BD3F8BC307B61BB68DB4367
S11350207A6913407B61BA687B6813407A691343D9
S11350307B610F4A7B69C2F8BC3014E00C4BD3F897
S1135040C0307B61BB68DB437A6913407B61BA681B
S11350507B6813407A6913437B61054A7B69C2F814
S1135060C03000E000BF1837BD4680BD6C7F000033
S113507000A0084080B483B000AF78600649064BB6
S11350805B6823F4E0127B6813434B600C37BD4626
S11350905DF8047B704700BF00A0084080B487B06F
S11350A000AFF860B9607A60FB6803F10473DA005A
S11350B0BB6813449B007B617B697A681A601C3768
S11350C0BD465DF8047B704780B400AF034B0022FB
S11350D09A60BD465DF8047B704700BF00600C40D9
S11350E080B400AF034B4AF6E8529A60BD465DF8BF
S11350F0047B704700600C4080B582B000AF0F4B5A
S113510001229A600E4B9B6803F001037B607B686D
S1135110002B01D0FFF7E4FF0A4800210122FFF72A
S1135120BDFF084800210022FFF7B8FF7B68002B71
S113513001D0FFF7C9FF0837BD4680BD00A00C4071
S113514000600C4024600C4080B485B000AF174B65
S11351505B687B600023FB600023BB601CE0144A97
S1135160BB68DB0013445B683B60114ABB6852F8C0
S113517033207B681340002B0BD07A683B681340C4
S1135180002B06D10A4ABB6852F83330FA6813433D
S1135190FB60BB680133BB60BB680F2BDFD9FB68C6
S11351A018461437BD465DF8047B704700A00C40D8
S11351B0D07F000080B487B000AFF860B9607A6037
S11351C0FB6803F10473DA00BB6813449B007B6142
S11351D07B697A681A601C37BD465DF8047B7047AA
S11351E080B584B000AF78607B68012B03D90D488B
S11351F07921FDF7EFFF7B68002B02D0012B04D04F
S113520007E0094B9B68FB6006E0074BDB68FB602B
S113521002E00023FB6000BFFB6818461037BD4660
S113522080BD00BF508000000000084080B584B0FD
S113523000AF786039607B68012B03D90F48A9213E
S1135240FDF7C8FF3B6803F07F43002B03D00B48F6
S1135250AE21FDF7BFFF7B68002B02D0012B03D0EA
S113526008E0074BFB6002E0064BFB6000BFFB68F5
S11352703A681A601037BD4680BD00BF50800000F8
S1135280080008400C00084080B582B000AF034617
S1135290FB71FB79034800211A46FFF78BFF08379F
S11352A0BD4680BD0000084080B485B000AF786082
S11352B07B681B78002B02D00123FB6001E00023F4
S11352C0FB607B685B78002B03D0FB6843F0020330
S11352D0FB607B689B78002B03D0FB6843F00403DE
S11352E0FB60044AFB6813601437BD465DF8047B19
S11352F0704700BF0000084080B584B000AF7860FC
S11353007B68002B03D11B483E21FDF763FF1A4B3A
S11353105B69DBB203F00F03DBB29B00FB73164B3C
S11353201B6903F0C0039B09DAB2FB7B1343FB73D5
S11353307B68FA7B9A70104B1B69DBB203F03F0366
S1135340DAB27B685A700C4B9B6903F0F0031B09BB
S1135350DBB21B01FB73084BDB6903F0F0031B0991
S1135360DAB2FB7B1343FB737B68FA7B1A7010374A
S1135370BD4680BDB4800000D0FF0FE080B483B090
S113538000AF78607B680D4A93420BD07B680C4A6F
S1135390934207D07B680B4A934203D07B680A4A46
S11353A0934201D1012300E0002303F00103DBB2A7
S11353B018460C37BD465DF8047B70470000014079
S11353C00004014000080140000C014080B582B097
S11353D000AF786039607868FFF7D0FF0346002B90
S11353E003D134484D21FDF7F5FE3B681B7883F06B
S11353F00103DBB2002B02D07B6802225A607B6877
S113540000225A623B689B781A063B68DB781B04CF
S11354101A433B689B799B021A433B68DB791B0266
S113542013433A68127A1A433B685B78002B01D025
S1135430402300E000231A433B685B7A002B01D031
S1135440802300E000231A433B689B7A002B01D0A1
S1135450202300E000231A433B68DB7A002B01D0B1
S1135460102300E000231A433B681B79002B02D071
S11354704FF4005300E000231A433B685B79002B90
S113548002D04FF0805300E000231A433B681B7B9B
S1135490002B01D0082300E000231A437B681A6024
S11354A03B681B78002B02D07B6801225A600837C6
S11354B0BD4680BD8481000080B586B000AFF86031
S11354C0B9607A60FB707B68002B03D14248B72136
S11354D0FDF780FEBB68002B03D14048FEF712FBAA
S11354E0B860FB78202B15D0202B02DC002B05D0D4
S11354F037E0402B1AD0602B27D032E0BB681A0962
S11355007B689A4203D23448DD21FDF763FE102301
S11355107B612BE0BB68DA087B689A4203D22E4891
S1135520E221FDF757FE08237B611FE0BB682C4A8C
S1135530A2FB03239A087B689A4203D22648E721F8
S1135540FDF748FE06237B6110E0BB689A087B6880
S11355509A4203D22048EC21FDF73CFE04237B61F0
S113556004E01D48F221FDF735FE32E0BB689A00E5
S11355707B69796801FB03F35B0813443B617B6936
S11355807A6802FB03F33A69B2FBF3F33B613B69CC
S1135590043B3B613B699B013B613B69114A93427C
S11355A004D90D484FF48471FDF714FE3A690D4B8C
S11355B013403B61FB681B6823F06002FB681A60C0
S11355C0FB681A68FB781A43FB681A60FB683A693F
S11355D05A611837BD4680BD98810000408104009F
S11355E0ABAAAAAAC0FF1F0080B584B000AF786040
S11355F00B46FB707B68144A934214D07B68134AB1
S1135600934210D07B68124A93420CD07B68114AB3
S1135610934208D07B68104A934204D00F4840F26A
S11356200F21FDF7D7FDFB78DB43FB60FB6803F03C
S11356300503FB60FB685A007B68DA60FA787B68D4
S1135640DA601037BD4680BD00C0004000C4004091
S113565000C8004000E0004000E4004098810000E1
S113566080B582B000AF786039607B68264A934287
S113567014D07B68254A934210D07B68244A934215
S11356800CD07B68234A934208D07B68224A934219
S113569004D0224840F23621FDF79CFD786800F0E2
S11356A03FF83B689B7C002B05D07B681B6843F06C
S11356B080427B681A603B68DB7C002B07D03B6828
S11356C01B7D43F01003DBB21A467B689A653B6886
S11356D05B7B1A463B681B8A13433A68D2891A4398
S11356E07B685A603B6859683B689A683B681B7BD7
S11356F07868FFF7E1FE3B681B781A467B68DA603E
S11357000837BD4680BD00BF00C0004000C4004053
S113571000C8004000E0004000E400409881000020
S113572080B582B000AF78607B68254A934214D07C
S11357307B68244A934210D07B68234A93420CD05E
S11357407B68224A934208D07B68214A934204D062
S1135750204840F24731FDF73DFD7B6840F6AA62E0
S1135760DA607B6800221A607B6841F205025A60A5
S11357707B6800229A607B6800225A617B68002261
S1135780DA647B6841F6F9729A647B6800225A6590
S11357907B680B4A934202D17B6800221A657B68BE
S11357A000229A657B68074A934203D07B68064AC5
S11357B0934202D17B680022DA650837BD4680BD7A
S11357C000C0004000C4004000C8004000E00040A9
S11357D000E400409881000080B483B000AF78609A
S11357E000BF7B681B6903F08003002BF9D07B6842
S11357F0DB69DBB218460C37BD465DF8047B7047A5
S113580080B483B000AF78600B46FB7000BF7B6848
S11358101B6903F04003002BF9D0FA787B685A63C4
S11358200C37BD465DF8047B704700BF80B483B07D
S113583000AF0346FB71084997F907305B09FA7911
S113584002F01F02012000FA02F241F823200C3773
S1135850BD465DF8047B704700E100E080B483B08E
S113586000AF0346FB71094997F907305B09FA79E0
S113587002F01F02012000FA02F2603341F82320F3
S11358800C37BD465DF8047B704700BF00E100E0C3
S113589080B483B000AF03463960FB7197F90730D9
S11358A0002B0BDA0D49FB7903F00F03043B3A6834
S11358B0D2B25201D2B20B441A7609E0084997F9E0
S11358C007303A68D2B25201D2B20B4483F80023B3
S11358D00C37BD465DF8047B704700BF00ED00E067
S11358E000E100E080B400AF034B5B681846BD469E
S11358F05DF8047B704700BF0000084080B483B0AB
S113590000AF7860034A7B6893610C37BD465DF84D
S1135910047B70470000084080B483B000AF786017
S11359200549054BDA697B68DB431340CB610C37CF
S1135930BD465DF8047B70470000084080B483B026
S113594000AF78600549054BDA697B681343CB6186
S11359500C37BD465DF8047B704700BF000008406B
S113596080B400AF034B1B691846BD465DF8047B49
S1135970704700BF0000084080B584B000AF00202D
S1135980FFF72EFC024680239A420AD00020FFF73C
S11359907BFC802300201946FFF748FC0120FFF719
S11359A073FC0720FFF7AAFFEFF311824FF0BF0348
S11359B083F31188BFF36F8FBFF34F8FBA607B609F
S11359C0FCF77EFCF860FB68002B07D0074B4FF018
S11359D080521A60BFF34F8FBFF36F8F00233B6079
S11359E03B6883F311881037BD4680BD04ED00E0A9
S11359F080B582B000AF80236FF07F42B2FBF3F337
S1135A001C4A13601C480121FEF70EF81B480221B2
S1135A10FEF71EFA1A480221FDF7A4FE18480121D8
S1135A20FEF702F800233B7100237B710123BB7155
S1135A303B1D1846FFF738FC0220FFF76DFF1E20C0
S1135A40FF21FFF725FF1E20FFF708FF1E20FFF7A9
S1135A50EDFE802300201946FFF7E8FB0220FFF744
S1135A604DFF0220FFF76AFF0120FFF70DFC083706
S1135A70BD4680BD282500200043020002001A0014
S1135A806016100090B58BB000AF7860454B1B6872
S1135A907A689A4202D9434B1B687B6080227B68F8
S1135AA003FB02F37B6200227B6A934203D9002248
S1135AB07B6A9B1A7B62FFF715FFF8610020FFF7F2
S1135AC0E3FB80240020FFF78BFB0346E31AFA690B
S1135AD01344FB61FEF7B2FBB861FCF755FE0346C5
S1135AE0002B0DD18022FB69D31A00201946FFF741
S1135AF09DFB0120FFF7C8FBB869FEF7AFFB4DE043
S1135B007A6AFB69D31A7B620020796AFFF78EFBFD
S1135B100120FFF7B9FB7B687B617B69002B05D013
S1135B20FBF70CF9BFF34F8FBFF36F8FFFF7DAFE6C
S1135B3038610020FFF7A8FBFFF712FF034603F0CC
S1135B400203002B14BF01230023FB73B869FEF783
S1135B5085FBFB7B002B03D07B68013B3B6217E09A
S1135B603A69FB6913443B6180223B69B3FBF2F35E
S1135B703B6280223B6A03FB02F33A69D31A3B611E
S1135B8080223B69D31A7B620020796AFFF74EFBBF
S1135B900120FFF779FB386AFCF772FB2C37BD460E
S1135BA090BD00BF2825002080B483B000AF034619
S1135BB0FB71084997F907305B09FA7902F01F0273
S1135BC0012000FA02F241F823200C37BD465DF8AB
S1135BD0047B704700E100E080B483B000AF03466B
S1135BE0FB71094997F907305B09FA7902F01F0242
S1135BF0012000FA02F2603341F823200C37BD463D
S1135C005DF8047B704700BF00E100E080B483B01E
S1135C1000AF03463960FB7197F90730002B0BDAAC
S1135C200D49FB7903F00F03043B3A68D2B25201E9
S1135C30D2B20B441A7609E0084997F907303A685A
S1135C40D2B25201D2B20B4483F800230C37BD46C2
S1135C505DF8047B704700BF00ED00E000E100E068
S1135C6080B483B000AF7860044A7B68C2F81C310A
S1135C700C37BD465DF8047B704700BF00600040F0
S1135C8090B585B002AF396011461A460346FB71E0
S1135C900B46BB7113467B71FA79BC797B7900930F
S1135CA03B7E0193104639683A682346FEF75CFD53
S1135CB00C37BD4690BD00BF80B400AF044BDB6C15
S1135CC01B0EDBB21846BD465DF8047B704700BF6F
S1135CD0B081E00F80B582B000AFFFF7EDFF03465F
S1135CE0FB713B1D1846FFF707FBFB790F2B0AD905
