:1000000000000220AD010000D9010000D90100006C
:10001000D9010000D9010000D9010000D901000078
:10002000D9010000D9010000D9010000410F0000F2
:10003000D9010000D9010000E110000025110000E5
:10004000D9010000D90100000D520000D9010000C3
:10005000D9010000D9010000D9010000D901000038
:10006000D9010000D9010000D9010000315200007F
:10007000D9010000D9010000D9010000D901000018
:10008000D9010000D9010000D9010000D901000008
:10009000C9050000D9010000D9010000D901000004
:1000A000D9010000D9010000D9010000D9010000E8
:1000B000D9010000D9010000D9010000D9010000D8
:1000C000D9010000D9010000D9010000D9010000C8
:1000D000D9010000D9010000D901000010B5054C7C
:1000E000237833B9044B13B10448AFF300800123E4
:1000F000237010BD8800002000000000546900003B
:10010000084B10B51BB108480849AFF300800848F8
:10011000036803B910BD074B002BFBD0BDE81040AE
:10012000184700BF00000000546900008C00002048
:100130008400002000000000154B002B08BF134B6B
:100140009D46A3F5803A00218B460F461348144A7A
:10015000121A05F02AFA0F4B002B00D098470E4BCD
:10016000002B00D098470020002104000D000D480E
:10017000002802D00C48AFF3008005F0E5F920001C
:10018000290005F089F805F0D5F800BF0000080047
:100190000000022000000000000000008800002095
:1001A000D425002000000000000000000648804721
:1001B0000649074A074B9A42BEBF51F8040B42F862
:1001C000040BF8E7FFF7B8FF59030000606900006F
:1001D0000000002088000020FEE700BF80B400AFD0
:1001E000044BDB6C1B0EDBB21846BD465DF8047B8E
:1001F000704700BFB081E00F80B582B000AF00F063
:100200001FF87860074B5B6803F00F031A467B68A2
:10021000D3407B60044A7B6813607B6818460837CC
:10022000BD4680BD00800C400800002080B400AFB7
:10023000024B1846BD465DF8047B7047006CDC023B
:1002400080B582B000AF334BDB6A03F47053B3F573
:10025000805F0AD0B3F5005F03D0B3F5006F08D01C
:100260000BE02D4B1B687B6047E04FF400437B6045
:1002700043E02A4B1B687B603FE0264BDB6803F4BE
:10028000E063B3F5007F1BD0B3F5007F05D8002BEA
:1002900024D0B3F5807F16D02BE0B3F5806F09D062
:1002A000B3F5A06F03D0B3F5407F06D021E01C4B1F
:1002B0007B6021E01B4B7B601EE01B4B7B601BE0E7
:1002C0001A4B7B6018E0FFF789FF0346122B02D917
:1002D000174B7B6010E0174B7B600DE0FFF77EFF54
:1002E0000346122B02D9144B7B6005E0134B7B6055
:1002F00002E000237B6000BF00BF064B1B6803F4D5
:10030000E0339B0B01337A68B2FBF3F318460837EE
:10031000BD4680BD00800C4004000020000000208D
:10032000003FAB01406F4001809FD500C0D8A700BF
:1003300040B56400C0CF6A00804F120040420F00F9
:1003400080B400AF034B1B681846BD465DF8047BC4
:10035000704700BF0000002080B400AFBD465DF8CC
:10036000047B704780B400AF4FF400431846BD468D
:100370005DF8047B704700BF80B400AF4FF47A7320
:100380001846BD465DF8047B704700BF80B400AFDF
:10039000034B1B681846BD465DF8047B704700BFE1
:1003A0000400002080B483B000AF786000231846BA
:1003B0000C37BD465DF8047B704700BF80B483B046
:1003C00000AF7860FEE700BF80B483B000AF786014
:1003D00039603B684FF400525A60002318460C37CE
:1003E000BD465DF8047B704780B483B000AF786091
:1003F000012318460C37BD465DF8047B704700BFEB
:1004000080B485B000AFF860B9607A600023184608
:100410001437BD465DF8047B704700BF80B586B0D9
:1004200000AFF860B9607A6000237B6111E000F0F2
:1004300081F938613B69B3F1FF3F09D0BB685A1CB1
:10044000BA603A69D2B21A707B6901337B6100E00D
:1004500004E07B685A1E7A60002BE8D17B69002B90
:1004600002DC4FF0FF3300E07B6918461837BD46C9
:1004700080BD00BF90B585B000AF7860184B1B6899
:10048000002B02D1164B174A1A60154B1B68FB60F4
:10049000134B1A687B681344EFF308821446224614
:1004A000934212D9104B1B689B68184604F056FF04
:1004B00004460E4805F0CBF9034620460B491A4680
:1004C00000F016F8012004F035FF054B1A687B6830
:1004D0001344034A1360FB6818461437BD4690BDA9
:1004E000A4000020D825002078000020FC62000035
:1004F00080B586B000AFF860B9607A6000237B6198
:1005000009E0BB685A1CBA601B78184600F050F925
:100510007B6901337B617A697B689A42F1DB7B6896
:1005200018461837BD4680BD80B483B000AF03467F
:10053000FB71084997F907305B09FA7902F01F024D
:10054000012000FA02F241F823200C37BD465DF885
:10055000047B704700E100E080B483B000AF034645
:10056000FB71094997F907305B09FA7902F01F021C
:10057000012000FA02F2603341F823200C37BD4617
:100580005DF8047B704700BF00E100E080B483B0F9
:1005900000AF786039607B683A689A640C37BD4672
:1005A0005DF8047B704700BF80B483B000AF786013
:1005B00039607B68DA6C3B681A437B68DA640C3715
:1005C000BD465DF8047B704798B500AF164B1B69BC
:1005D00003F08003002B26D0144B1C68124804F053
:1005E00017FC03461A46124B1A55104B1B68013371
:1005F0000E4A13600F4B1B6801330E4A13600B4BFE
:100600001B68082B02D1094B00221A60094B1B689A
:10061000082B08DD054B00221A60064B00221A60E9
:10062000054B00221A6098BD00E00040AC0000209D
:10063000B4000020B0000020A800002080B483B0E7
:1006400000AF78607B68002B03D0064B01221A7044
:1006500002E0044B00221A700C37BD465DF8047BA3
:10066000704700BFBC000020B0B588B000AF2A487A
:10067000012102F0DBFF2948012102F0D7FF04200D
:1006800000210422012303F045FD04200121012261
:10069000002303F03FFD224BFB61224B3C1D1D4616
:1006A0000FCD0FC495E8030084E80300052007215F
:1006B0000422012303F02EFD1B48012102F0B6FFA6
:1006C00000233B713B1DF869194604F0E5FAFB690C
:1006D00040F203125A6512480421FFF757FF142015
:1006E000FFF73AFF0E480421FFF75EFF1420FFF7E3
:1006F0001BFFF869052104F093FA0C4B1B689B68FB
:10070000184600210222002304F0D6FF084B0122E4
:100710001A702037BD46B0BD4081040000D20400ED
:1007200000E0004018630000003204007800002060
:10073000BD00002080B582B000AF4FF0FF337B607A
:10074000174B1B7883F00103DBB2002B01D0FFF7BE
:100750008BFF03F075FB3860124B1B68002B16DD16
:10076000114B1B68114AD35CDBB27B600E4B1B68DC
:1007700001330D4A13600C4B1B68082B02D10A4B46
:1007800000221A60074B1B68013B064A1360386859
:1007900003F066FB7B6818460837BD4680BD00BF86
:1007A000BD000020B0000020A8000020B400002000
:1007B00080B582B000AF0346FB71144B1B7883F009
:1007C0000103DBB2002B01D0FFF74EFF104B1B786B
:1007D000002B06D0FB790A2B03D10E480D2104F023
:1007E0002BFBFB790B48194604F026FB084B1B78C2
:1007F000002B06D0FB790D2B03D106480A2104F00B
:100800001BFBFB7918460837BD4680BDBD000020A4
:10081000BC00002000E0004080B483B000AF03467D
:10082000FB71FB79002B03D0054B01221A6602E015
:10083000034B00221A660C37BD465DF8047B7047F7
:1008400000A0084080B483B000AF786000BF054BC3
:100850005A6E7B681340002BF9D10C37BD465DF80A
:10086000047B704700A0084080B483B000AF78607C
:100870000549054B9A6A7B68DB4313408B620C3752
:10088000BD465DF8047B704700A0084080B500AF0E
:1008900000202849002203F0A7FE0120254900225C
:1008A00003F0A2FE02202349002203F09DFE032054
:1008B0002049002203F098FE04201E49002203F084
:1008C00093FE05201B49002203F08EFE06201949E5
:1008D000002203F089FE07201649002203F084FE5F
:1008E0000020FF21002203F04BFF0120FF21002206
:1008F00003F046FF0220FF21002203F041FF032006
:10090000FF21002203F03CFF0420FF21002203F01E
:1009100037FF0520FF21002203F032FF0620FF21D0
:10092000002203F02DFF0720FF21002203F028FF03
:1009300080BD00BF00F00FF080B500AF0720264952
:10094000002203F051FE06202449002203F04CFE51
:1009500005202249002203F047FE04201F490022FF
:1009600003F042FE03201D49002203F03DFE022059
:100970001A49002203F038FE01201849002203F032
:1009800033FE00204FF02041002203F02DFE07200F
:100990000721002203F0F4FE06200721002203F0C5
:1009A000EFFE05200721002203F0EAFE04200721C4
:1009B000002203F0E5FE03200721002203F0E0FE01
:1009C00002200721002203F0DBFE01200721002284
:1009D00003F0D6FE00BF80BD00E00F5000E00FF036
:1009E00080B582B000AF0346FB712548012102F0BB
:1009F0001DFE2448032103F02DF82348402102F076
:100A0000B3FC012003F092F92048012102F00EFE10
:100A10004FF0FF30FFF728FF1D4803F055FC08207A
:100A2000012103F0B7FC1020012103F0B3FC80206A
:100A3000012103F0AFFC4FF48070012103F0AAFC08
:100A40004FF40070012103F0A5FCFB79002B0DD0C1
:100A50004FF4402003F05AFF4FF4803003F078FC4D
:100A60000C4A0C4BDB6F43F00803D367FFF70EFF14
:100A70004FF0FF30FFF7E6FE0837BD4680BD00BFF0
:100A80000043020002001A00600026000036280021
:100A9000E865000000800C4080B58AB000AF786047
:100AA000786804F0D4FE0346BB6100233B624FF03C
:100AB000FF30FFF7C7FE0120FFF7AEFEFFF73CFF58
:100AC00000233B6246E03A6ABB699A4203DA7B68DC
:100AD0001B787B6201E020237B627B6A203B7B6288
:100AE000214A7B6A32F81330FB820023FB6128E045
:100AF0001E493A6A1346DB009B1A9B00CA18FB6921
:100B0000134408339B793B6118493A6A1346DB006A
:100B10009B1A9B00FA6913440B441B78FB60FA8A0A
:100B2000FB6942FA03F303F00103002B06D0FA68D5
:100B30003B6910461946012203F04CFCFB69013366
:100B4000FB61FB690D2BD3DD7B6801337B603B6A66
:100B500001333B623B6A062BB5DD0020FFF75CFEEC
:100B60002837BD4680BD00BF3065000030630000FF
:100B700080B588B000AF786000237B6101F058F940
:100B80003E4B1B68002B04D100F0B8F83B4B012210
:100B90001A607B68002B0ED008231A467B6813442A
:100BA0007B607B6803F00703002B04D07B6823F095
:100BB000070308337B607B68002B57D07B6842F2C9
:100BC0001F32934252D82E4BBB612D4B1B68FB61E9
:100BD00004E0FB69BB61FB691B68FB61FB695A6848
:100BE0007B689A4203D2FB691B68002BF1D1FB6939
:100BF000244A93423AD0BB691B68082213447B61A4
:100C0000FB691A68BB691A60FB695A687B68D31A6A
:100C100008225200934222D9FA697B681344FB6090
:100C2000FB695A687B68D21AFB685A60FB697A686C
:100C30005A60FB685B68BB60114B3B6102E03B693B
:100C40001B683B613B691B685A68BB689A42F6D3D4
:100C50003B691A68FB681A603B69FA681A600A4BBC
:100C60001A68FB695B68D31A074A136001F0EEF853
:100C70007B6918462037BD4680BD00BFF8230020A1
:100C8000E8230020F02300200C00002080B586B06F
:100C900000AF78607B683B617B68002B27D008231E
:100CA0005B423A6913443B613B69FB6001F0C0F869
:100CB000FB685B68BB600F4B7B6102E07B691B6874
:100CC0007B617B691B685A68BB689A42F6D37B6973
:100CD0001A68FB681A607B69FA681A60FB685A68D0
:100CE000054B1B681344044A136001F0AFF8183732
:100CF000BD4680BDE82300200C00002080B483B0F6
:100D000000AF0F4B23F007037B600E4A7B68136034
:100D10000C4B00225A600C4B42F220325A600A4BB4
:100D200000221A607B683B603B6842F220325A60C6
:100D30003B68054A1A600C37BD465DF8047B704776
:100D4000C8000020E8230020F023002080B483B0F6
:100D500000AF78607B6803F108027B685A607B68AB
:100D60004FF0FF329A607B6803F108027B68DA601B
:100D70007B6803F108027B681A617B6800221A60B5
:100D80000C37BD465DF8047B704700BF80B483B06C
:100D900000AF78607B6800221A610C37BD465DF8B1
:100DA000047B704780B485B000AF786039607B68A1
:100DB0005B68FB603B68FA685A60FB689A683B684E
:100DC0009A60FB689B683A685A60FB683A689A6068
:100DD0003B687A681A617B681B685A1C7B681A60DA
:100DE0001437BD465DF8047B704700BF80B485B002
:100DF00000AF786039603B681B68BB60BB68B3F1CB
:100E0000FF3F03D17B681B69FB600CE07B68083304
:100E1000FB6002E0FB685B68FB60FB685B681A686C
:100E2000BB689A42F6D9FB685A683B685A603B68CF
:100E30005B683A689A603B68FA689A60FB683A684F
:100E40005A603B687A681A617B681B685A1C7B6829
:100E50001A601437BD465DF8047B704780B485B0D6
:100E600000AF78607B681B69FB607B685B687A68B1
:100E700092689A607B689B687A6852685A60FB68DF
:100E80005A687B689A4203D17B689A68FB685A600B
:100E90007B6800221A61FB681B685A1EFB681A6097
:100EA000FB681B6818461437BD465DF8047B704725
:100EB00080B485B000AFF860B9607A60FB68043B2D
:100EC000FB60FB684FF080721A60FB68043BFB60BC
:100ED000BB6823F00102FB681A60FB68043BFB60FF
:100EE000094AFB681A60FB68143BFB607A68FB6880
:100EF0001A60FB68203BFB60FB6818461437BD4650
:100F00005DF8047B704700BF0D0F000080B582B014
:100F100000AF094B1B68B3F1FF3F03D00748F22134
:100F200001F074FF4FF0BF0383F31188BFF36F8F9D
:100F3000BFF34F8F7B60FEE710000020FC650000D0
:100F4000074B19680868B0E8F00F80F30988BFF311
:100F50006F8F4FF0000080F311884EF00D0E704738
:100F60000424002006480068006880F3088862B600
:100F700061B6BFF34F8FBFF36F8F00DF00BF00007C
:100F800008ED00E080B584B000AF284BFB60FB6843
:100F90001B78DBB2BB60FB68FF221A70FB681B7812
:100FA000DBB2FB71FB79DBB223F04003DAB2204BFA
:100FB0001A70204B07221A6009E01E4B1B68013B88
:100FC0001C4A1360FB79DBB25B00DBB2FB71FB797F
:100FD000DBB2DBB25BB2002BEFDB164B1B681B02F4
:100FE000144A1360134B1B6803F4E063114A136047
:100FF000BB68DAB2FB681A700F4A0F4B1B6843F4E8
:101000007F0313600C4A0C4B1B6843F07F43136053
:1010100000F0A8F8094B00221A60FFF7A3FFFFF7C2
:1010200075FF002318461037BD4680BD00E400E080
:10103000FC2300200024002020ED00E01000002010
:1010400080B582B000AF4FF0BF0383F31188BFF3C8
:101050006F8FBFF34F8F7B600A4B1B680133094AC8
:101060001360084B1B68012B09D1074B1B68DBB2CF
:10107000002B04D0054840F27F1101F0C7FE08376D
:10108000BD4680BD1000002004ED00E0FC650000BE
:1010900080B582B000AF0D4B1B68002B04D10C480B
:1010A0004FF4C37101F0B2FE084B1B68013B074AC5
:1010B0001360064B1B68002B04D100237B607B6808
:1010C00083F311880837BD4680BD00BF10000020A3
:1010D000FC650000000000000000000000000000AF
:1010E000EFF30980BFF36F8F0D4B1A6820E9F00F03
:1010F00010602DE908404FF0BF0080F3118801F027
:101100000BF84FF0000080F31188BDE80840196823
:101110000868B0E8F00F80F30988BFF36F8F70475D
:101120000424002080B582B000AF4FF0BF0383F3EA
:101130001188BFF36F8FBFF34F8F7B6000F030FFDC
:101140000346002B03D0064B4FF080521A60002359
:101150003B603B6883F311880837BD4680BD00BF04
:1011600004ED00E080B400AF054B43F2AF621A60BB
:10117000044B07221A60BD465DF8047B704700BF30
:1011800014E000E010E000E080B582B000AFEFF3C3
:1011900005837B607B680F2B0ED90F4A7B68134455
:1011A0001B78FB700D4B1B78FA789A4204D20C48DE
:1011B00040F29E2101F02AFE0A4B1B6803F4E06214
:1011C000094B1B689A4204D9054840F2AE2101F050
:1011D0001DFE0837BD4680BDF0E300E0FC23002083
:1011E000FC6500000CED00E00024002080B584B018
:1011F00000AF786039607B68FB60FB68002B04D12E
:101200002A4840F21B1101F001FEFFF719FFFB68AD
:101210001A68FB68DB6BF968096C01FB03F31A447D
:10122000FB685A60FB6800229A63FB681A68FB68D7
:101230009A60FB681A68FB68DB6B013BF968096C14
:1012400001FB03F31A44FB68DA60FB68FF2283F8B2
:101250004420FB68FF2283F845203B68002B14D113
:10126000FB681B69002B1AD0FB681033184600F08E
:10127000EDFF0346002B12D00D4B4FF080521A6049
:10128000BFF34F8FBFF36F8F09E0FB681033184631
:10129000FFF75CFDFB6824331846FFF757FDFFF7A7
:1012A000F7FE012318461037BD4680BD1C660000BE
:1012B00004ED00E090B58BB002AFF860B960134662
:1012C000FB71FB68002B04D114484FF4C47101F08A
:1012D0009DFDBB68002B02D10023FB6104E0FB688D
:1012E000BA6802FB03F3FB61FB6948331846FFF75A
:1012F0003FFCB861BB69002B0BD0BB6948337B61F5
:10130000FC79BB690093F868B9687A69234600F0F4
:1013100007F8BB6918462437BD4690BD1C6600001F
:1013200080B584B000AFF860B9607A60FB70BB68CC
:10133000002B03D1BB69BA691A6002E0BB697A6805
:101340001A60BB69FA68DA63BB69BA681A64B8697B
:101350000121FFF74BFF1037BD4680BD80B58AB035
:1013600000AFF860B9607A603B6000237B62FB6885
:101370003B623B6A002B04D1654840F2D92101F061
:1013800045FDBB68002B08D13B6A1B6C002B04D0C9
:101390005F4840F2DA2101F039FD3B68022B08D1A9
:1013A0003B6ADB6B012B04D0594840F2DB2101F092
:1013B0002DFD01F0DFF80346002B07D17B68002BE1
:1013C00004D0534840F2DE2101F020FDFFF738FE43
:1013D0003B6A9A6B3B6ADB6B9A4202D33B68022BF7
:1013E00029D1386AB9683A6800F012FAF8613B6AA4
:1013F0005B6A002B10D03B6A2433184600F026FFAE
:101400000346002B13D0434B4FF080521A60BFF3BA
:101410004F8FBFF36F8F0AE0FB69002B07D03D4B66
:101420004FF080521A60BFF34F8FBFF36F8FFFF7FB
:101430002FFE012367E07B68002B03D1FFF728FE16
:10144000002360E07B6A002B06D107F114031846E5
:1014500000F05CFF01237B62FFF71AFE00F0E8FC5E
:10146000FFF7EEFD3B6A93F84430DBB25BB2B3F1B9
:10147000FF3F03D13B6A002283F844203B6A93F884
:101480004530DBB25BB2B3F1FF3F03D13B6A0022D0
:1014900083F84520FFF7FCFD07F114023B1D1046C1
:1014A000194600F051FF0346002B24D1386A00F0A2
:1014B000A9FA0346002B18D03B6A03F110027B689F
:1014C0001046194600F07CFE386A00F033FA00F04E
:1014D000BDFC0346002B15D10E4B4FF080521A6015
:1014E000BFF34F8FBFF36F8F0CE0386A00F022FA22
:1014F00000F0ACFC6AE7386A00F01CFA00F0A6FCC9
:10150000002300E062E718462837BD4680BD00BFD3
:101510001C66000004ED00E080B58CB000AFF86000
:10152000B9607A603B60FB68BB62BB6A002B04D188
:10153000374840F29F3101F069FCBB68002B08D1AD
:10154000BB6A1B6C002B04D031484FF4687101F06A
:101550005DFC3B68022B08D1BB6ADB6B012B04D01E
:101560002B4840F2A13101F051FCFFF70DFEEFF3E3
:1015700011824FF0BF0383F31188BFF36F8FBFF366
:101580004F8FFA61BB61FB697B62BB6A9A6BBB6A76
:10159000DB6B9A4202D33B68022B2CD1BB6A93F8D7
:1015A000453087F82330B86AB9683A6800F030F9F6
:1015B00097F92330B3F1FF3F12D1BB6A5B6A002B6E
:1015C00016D0BB6A2433184600F040FE0346002BB9
:1015D0000ED07B68002B0BD07B6801221A6007E0DD
:1015E00097F823300133DBB2DAB2BB6A83F84520C7
:1015F0000123FB6201E00023FB627B6A7B617B6964
:1016000083F31188FB6A18463037BD4680BD00BFA2
:101610001C66000080B58AB000AFF860B9607A60DF
:101620003B6000237B62FB683B623B6A002B04D17A
:10163000754840F2DC4101F0E9FBBB68002B08D1A2
:101640003B6A1B6C002B04D06F4840F2DD4101F077
:10165000DDFB00F08FFF0346002B07D17B68002BDA
:1016600004D069484FF49C6101F0D0FBFFF7E8FC1F
:101670003B6A9B6BFB61FB69002B46D03B6ADB68D6
:10168000BB61386AB96800F02FF93B68002B21D1A3
:10169000FB695A1E3B6A9A633B6A1B68002B04D1A4
:1016A00001F07CF802463B6A5A603B6A1B69002BDA
:1016B00027D03B6A1033184600F0C8FD0346002BC4
:1016C0001FD0524B4FF080521A60BFF34F8FBFF3C1
:1016D0006F8F16E03B6ABA69DA603B6A5B6A002B7F
:1016E0000FD03B6A2433184600F0B0FD0346002BB0
:1016F00007D0464B4FF080521A60BFF34F8FBFF3B5
:101700006F8FFFF7C5FC01237AE07B68002B03D1C4
:10171000FFF7BEFC002373E07B6A002B06D107F1C4
:101720001003184600F0F2FD01237B62FFF7B0FCC6
:1017300000F07EFBFFF784FC3B6A93F84430DBB299
:101740005BB2B3F1FF3F03D13B6A002283F8442030
:101750003B6A93F84530DBB25BB2B3F1FF3F03D194
:101760003B6A002283F84520FFF792FC07F1100244
:101770003B1D1046194600F0E7FD0346002B31D112
:10178000386A00F029F90346002B25D03B6A1B6814
:10179000002B08D1FFF754FC3B6A5B68184600F049
:1017A00007FFFFF775FC3B6A03F124027B681046D4
:1017B000194600F005FD386A00F0BCF800F046FB61
:1017C0000346002B1BD1114B4FF080521A60BFF320
:1017D0004F8FBFF36F8F12E0386A00F0ABF800F064
:1017E00035FB43E7386A00F0A5F800F02FFB386AB4
:1017F00000F0F2F80346002B01D0002300E035E7AB
:1018000018462837BD4680BD1C66000004ED00E088
:1018100080B586B000AFF860B9607A6000237B6164
:10182000FB689B6B3B61FB681B6C002B0DD1FB685D
:101830001B68002B4FD1FB685B68184600F030FF37
:101840007861FB6800225A6045E07B68002B1AD162
:10185000FB689A68FB681B6C1046B9681A4603F06F
:1018600099FEFB689A68FB681B6C1A44FB689A60D7
:10187000FB689A68FB685B689A422CD3FB681A681D
:10188000FB689A6027E0FB68DA68FB681B6C10460F
:10189000B9681A4603F07EFEFB68DA68FB681B6CC9
:1018A0005B421A44FB68DA60FB68DA68FB681B6815
:1018B0009A4207D2FB685A68FB681B6C5B421A4469
:1018C000FB68DA607B68022B05D13B69002B02D0F4
:1018D0003B69013B3B613B695A1CFB689A637B692E
:1018E00018461837BD4680BD80B582B000AF78601D
:1018F00039607B681B6C002B19D07B68DA687B68C9
:101900001B6C1A447B68DA607B68DA687B685B680A
:101910009A4203D37B681A687B68DA607B68DA686E
:101920007B681B6C386811461A4603F033FE083793
:10193000BD4680BD80B584B000AF7860FFF780FB06
:101940007B6893F84530FB7313E07B685B6A002B80
:101950000AD07B682433184600F078FC0346002B3D
:1019600003D000F047FD00E007E0FB7B013BDBB26A
:10197000FB7397F90F30002BE7DC7B68FF2283F8BD
:101980004520FFF785FBFFF75BFB7B6893F844304E
:10199000BB7313E07B681B69002B0ED07B68103390
:1019A000184600F053FC0346002B01D000F022FD46
:1019B000BB7B013BDBB2BB7300E003E097F90E3069
:1019C000002BE7DC7B68FF2283F84420FFF760FBF5
:1019D0001037BD4680BD00BF80B584B000AF7860D1
:1019E000FFF72EFB7B689B6B002B02D10123FB6072
:1019F00001E00023FB60FFF74BFBFB681846103744
:101A0000BD4680BD80B584B000AF7860FFF718FB9D
:101A10007B689A6B7B68DB6B9A4202D10123FB6087
:101A200001E00023FB60FFF733FBFB68184610372B
:101A3000BD4680BD80B485B000AF786039600023BA
:101A4000FB6014E00E4AFB6852F83330002B0BD1D8
:101A50000B49FB683A6841F83320094AFB68DB0010
:101A600013447A685A6005E0FB680133FB60FB6849
:101A7000092BE7D91437BD465DF8047B704700BFDA
:101A80006825002080B586B000AFF860B9607A6044
:101A9000FB687B61FFF7D4FA7B6993F84430DBB2D3
:101AA0005BB2B3F1FF3F03D17B69002283F844208E
:101AB0007B6993F84530DBB25BB2B3F1FF3F03D1F2
:101AC0007B69002283F84520FFF7E2FA7B699B6B74
:101AD000002B06D17B6924331846B9687A6800F078
:101AE0008FFB7869FFF726FF1837BD4680BD00BF22
:101AF00080B58CB004AFF860B9603B601346FB80E2
:101B0000FB889B001846FFF733F878617B69002B50
:101B10000ED05020FFF72CF8F861FB69002B03D0A2
:101B2000FB697A691A6305E07869FFF7AFF801E0AD
:101B30000023FB61FB69002B13D0FA88BB6A00937A
:101B4000FB6A0193FB69029300230393F868B96869
:101B50003B6800F00FF8F86900F086F80123BB61DC
:101B600002E04FF0FF33BB61BB6918462037BD462A
:101B700080BD00BF80B586B000AFF860B9607A6004
:101B80003B60BB6A1A6B7B6803F18043013B9B009F
:101B900013443B613B6923F007033B613B6903F05E
:101BA0000703002B04D02F4840F22B3101F02EF90F
:101BB00000237B6113E0BA687B6913441978BA6A21
:101BC0007B69134430330A461A71BA687B6913443F
:101BD0001B78002B00D105E07B6901337B617B69B9
:101BE000092BE8D9BB6A002283F83D203B6A052B0C
:101BF00001D905233B62BB6A3A6ADA62BB6A3A6A78
:101C00001A64BB6A00225A64BB6A04331846FFF7A1
:101C1000BDF8BB6A18331846FFF7B8F8BB6ABA6A52
:101C20001A613B6AC3F10602BB6A9A61BB6ABA6A6F
:101C30005A62BB6A00229A64BB6A002283F84C2075
:101C40003869F9683A68FFF733F90246BB6A1A60E7
:101C50007B6A002B02D07B6ABA6A1A601837BD46CD
:101C600080BD00BF3866000080B582B000AF7860EC
:101C7000FFF7E6F92B4B1B6801332A4A13602A4B06
:101C80001B68002B09D1284A7B681360254B1B6811
:101C9000012B10D100F0C2FB0DE0244B1B68002B80
:101CA00009D1214B1B68DA6A7B68DB6A9A4202D849
:101CB0001D4A7B6813601E4B1B6801331C4A13606E
:101CC0007B68DB6A1A46012303FA02F2194B1B6890
:101CD0001343184A13607B68DA6A13469B00134467
:101CE0009B00154A1A447B68043310461946FFF7D7
:101CF00059F8FFF7CDF90D4B1B68002B0ED00A4B9E
:101D00001B68DA6A7B68DB6A9A4207D20B4B4FF09A
:101D100080521A60BFF34F8FBFF36F8F0837BD46F5
:101D200080BD00BFF024002004240020FC240020FB
:101D30000C250020F82400200824002004ED00E0F9
:101D400080B584B000AF78600023FB607B68002B17
:101D500011D0104B1B68002B04D00F4840F2CF412C
:101D600001F054F800F064F87868002100F02AFDD2
:101D700000F06CF8F860FB68002B07D1074B4FF0C0
:101D800080521A60BFF34F8FBFF36F8F1037BD467D
:101D900080BD00BF182500203866000004ED00E07B
:101DA00080B584B002AF002300931A4B01931A4808
:101DB0001A498C220023FFF79BFE78607B68012B79
:101DC00002D100F063FD78607B68012B15D14FF0E4
:101DD000BF0383F31188BFF36F8FBFF34F8F3B6057
:101DE0000F4B4FF0FF321A600E4B01221A600E4B60
:101DF00000221A60FFF7C6F808E07B68B3F1FF3FE6
:101E000004D10A4840F2847101F000F80837BD4659
:101E100080BD00BF142500200D2400005466000082
:101E200010250020FC240020F42400203866000047
:101E300080B400AF044B1B680133034A1360BD46F6
:101E40005DF8047B704700BF1825002080B584B082
:101E500000AF0023FB600023BB603F4B1B68002BDF
:101E600004D13E484FF4FD6100F0D0FFFFF7E8F8E1
:101E7000394B1B68013B384A1360374B1B68002BFA
:101E800063D1374B1B68002B5FD030E0354BDB68EC
:101E9000DB68FB60FB6818331846FEF7DFFFFB6862
:101EA00004331846FEF7DAFFFB68DB6A1A460123A3
:101EB00003FA02F22C4B1B6813432B4A1360FB6896
:101EC000DA6A13469B0013449B00284A1A44FB68B5
:101ED000043310461946FEF765FFFB68DA6A244BA7
:101EE0001B68DB6A9A4202D3224B01221A601D4B07
:101EF0001B68002BCAD1FB68002B01D000F016FB39
:101F00001D4B1B687B607B68002B10D000F048F8ED
:101F10000346002B02D0174B01221A607B68013B5D
:101F20007B607B68002BF1D1134B00221A60114BB0
:101F30001B68002B09D00123BB60104B4FF080526F
:101F40001A60BFF34F8FBFF36F8FFFF7A1F8BB6825
:101F500018461037BD4680BD1825002038660000A1
:101F6000F0240020B0240020F824002008240020C1
:101F700004240020042500200025002004ED00E0BA
:101F800080B483B000AF054B1B687B607B6818464C
:101F90000C37BD465DF8047B704700BFF424002079
:101FA00080B586B000AF00237B614F4B1B68002BD0
:101FB00040F089804D4B1B6801333B614B4A3B69C4
:101FC00013603B69002B1AD1494B1B681B68002B1F
:101FD00004D0484840F6D91100F018FF444B1B6864
:101FE000FB60454B1B68424A1360434AFB68136021
:101FF000424B1B680133414A136000F097FA404B93
:102000001B683A699A424FD3394B1B681B68002BF7
:1020100001D1012300E00023002B04D0384B4FF006
:10202000FF321A6040E0324B1B68DB68DB68BB6044
:10203000BB685B687B603A697B689A4203D2304A2E
:102040007B68136030E0BB6804331846FEF706FF78
:10205000BB689B6A002B04D0BB6818331846FEF798
:10206000FDFEBB68DB6A1A46012303FA02F2254B28
:102070001B681343234A1360BB68DA6A13469B004C
:1020800013449B00204A1A44BB6804331046194687
:10209000FEF788FEBB68DA6A1C4B1B68DB6A9A4253
:1020A00001D301237B61AFE7184B1B68DA6A16493D
:1020B00013469B0013449B000B441B68012B01D962
:1020C00001237B6104E0124B1B680133104A13604B
:1020D000104B1B68002B01D001237B617B691846E4
:1020E0001837BD4680BD00BF18250020F42400200D
:1020F000A824002038660000AC2400200825002019
:1021000010250020F82400200824002004240020AA
:10211000002500200425002080B584B000AF224BAC
:102120001B68002B03D0214B01221A6039E01F4BA2
:1021300000221A601E4B1B687B607B68B3FA83F336
:10214000FB70FB78C3F11F03FB601A49FA68134662
:102150009B0013449B000B441B68002B04D11648C2
:1021600040F6F62100F052FEFA6813469B00134435
:102170009B00104A1344BB60BB685B685A68BB682D
:102180005A60BB685A68BB6808339A4204D1BB687E
:102190005B685A68BB685A60BB685B68DB68074A63
:1021A00013601037BD4680BD18250020042500208F
:1021B000F8240020082400203866000004240020B1
:1021C00080B582B000AF786039607B68002B04D1A5
:1021D000094840F6063100F019FE084B1B68183319
:1021E00078681946FEF702FE3868012100F0EAFA25
:1021F0000837BD4680BD00BF3866000004240020BB
:1022000080B584B000AFF860B9607A60FB68002BDD
:1022100004D10C4840F6313100F0F8FD0A4B1B6840
:102220001833F8681946FEF7BDFD7B68002B02D015
:102230004FF0FF33BB60B868796800F0C3FA10371D
:10224000BD4680BD386600000424002080B584B0FF
:1022500000AF78607B68DB68DB68BB60BB68002B25
:1022600004D1234840F6613100F0D0FDBB6818333B
:102270001846FEF7F3FD1F4B1B68002B1ED1BB68F1
:1022800004331846FEF7EAFDBB68DB6A1A460123F1
:1022900003FA02F2184B1B681343174A1360BB681A
:1022A000DA6A13469B0013449B00144A1A44BB6825
:1022B000043310461946FEF775FD05E0BB68183378
:1022C0000F481946FEF76EFDBB68DA6A0D4B1B68B6
:1022D000DB6A9A4205D90123FB600B4B01221A608D
:1022E00001E00023FB60FB6818461037BD4680BD47
:1022F0003866000018250020F8240020082400205B
:10230000B0240020042400200425002080B582B0E1
:1023100000AF78607B68002B04D1084840F6C131DB
:1023200000F074FD064B1A687B681A60054B1A684A
:102330007B685A600837BD4680BD00BF3866000024
:1023400008250020F424002080B584B000AF786018
:1023500039607B68002B04D1234840F6CB3100F074
:1023600055FD3B68002B04D11F4840F6CC3100F0EE
:102370004DFDFEF765FE1D4B1B68BB603B681B688F
:10238000B3F1FF3F02D10023FB6026E07B681A68AF
:10239000174B1B689A4207D07B685A68BB689A4201
:1023A00002D80123FB6018E07B685B68BA68D21A28
:1023B0003B681B689A420ED23B681A687B68596872
:1023C000BB68CB1A1A443B681A607868FFF79EFF17
:1023D0000023FB6001E00123FB60FEF759FEFB6870
:1023E00018461037BD4680BD38660000F424002032
:1023F0000825002080B400AF034B01221A60BD46BF
:102400005DF8047B704700BF0425002080B582B0D2
:1024100000AF786000F040F8FCE700BF80B582B004
:1024200000AF00237B600CE07A6813469B001344E6
:102430009B00114A13441846FEF788FC7B68013361
:102440007B607B68052BEFD90C48FEF77FFC0C48BE
:10245000FEF77CFC0B48FEF779FC0B48FEF776FC98
:102460000A48FEF773FC0A4B044A1A60094B044AF7
:102470001A600837BD4680BD082400208024002053
:1024800094240020B0240020C4240020DC24002058
:10249000A8240020AC24002080B582B000AF28E042
:1024A000FFF7C6FC164B1B68002B0CBF0123002353
:1024B000DBB27B60FFF7CAFC7B68002B19D1FEF70B
:1024C000BFFD0F4BDB68DB683B603B68043318469D
:1024D000FEF7C4FC0B4B1B68013B0A4A13600A4B16
:1024E0001B68013B084A1360FEF7D2FD386800F014
:1024F0000DF8054B1B68002BD2D10837BD4680BDB7
:10250000C4240020F0240020D824002080B582B00C
:1025100000AF78607B681B6B1846FEF7B7FB7868E6
:10252000FEF7B4FB0837BD4680BD00BF80B483B062
:1025300000AF0E4B1B681B68002B01D1012300E08C
:102540000023002B04D00A4B4FF0FF321A6008E042
:10255000064B1B68DB68DB687B607B685B68044A52
:1025600013600C37BD465DF8047B7047A82400203B
:102570001025002080B483B000AF0B4B1B68002BEC
:1025800002D101237B6008E0084B1B68002B02D1BD
:1025900002237B6001E000237B607B6818460C37D8
:1025A000BD465DF8047B7047FC2400201825002000
:1025B00080B584B000AF78607B68FB607B68002BDF
:1025C00064D0FB68DA6A334B1B68DB6A9A425DD2DF
:1025D000FB689B69002B06DB2E4B1B68DB6AC3F193
:1025E0000602FB689A61FB685969FB68DA6A134660
:1025F0009B0013449B00284A1344994201D10123B4
:1026000000E00023002B3CD0FB6804331846FEF7A3
:1026100025FC0346002B15D1FB68DA6A1E491346D8
:102620009B0013449B000B441B68002B0AD1FB68E2
:10263000DB6A1A4601239340DA43184B1B681340A8
:10264000164A1360134B1B68DA6AFB68DA62FB6890
:10265000DB6A1A46012303FA02F2104B1B6813438C
:102660000E4A1360FB68DA6A13469B0013449B0012
:10267000094A1A44FB68043310461946FEF792FBD8
:1026800004E0044B1B68DA6AFB68DA621037BD4667
:1026900080BD00BF0424002008240020F82400206E
:1026A00080B584B000AF78607B68BB600023FB60BE
:1026B0007B68002B64D0354B1B68BA689A4204D003
:1026C000334840F6C76100F0A1FBBB685B6C002B90
:1026D00004D12F4840F6C96100F098FBBB685B6CE1
:1026E0005A1EBB685A64BB68DA6ABB681B6C9A42A4
:1026F00046D0BB685B6C002B42D1BB6804331846E4
:10270000FEF7ACFB0346002B15D1BB68DA6A214902
:1027100013469B0013449B000B441B68002B0AD1FB
:10272000BB68DB6A1A4601239340DA431A4B1B68E5
:102730001340194A1360BB681A6CBB68DA62BB6845
:10274000DB6AC3F10602BB689A61BB68DB6A1A46A2
:10275000012303FA02F2104B1B6813430E4A136065
:10276000BB68DA6A13469B0013449B00094A1A446B
:10277000BB68043310461946FEF714FB0123FB60C7
:10278000FB6818461037BD4680BD00BF04240020FA
:102790003866000008240020F824002080B400AF30
:1027A000074B1B68002B04D0054B1B685A6C013289
:1027B0005A64034B1B681846BD465DF8047B70479E
:1027C0000424002080B584B000AF78603960284BC5
:1027D0001B68FB60274B1B6804331846FEF73EFB63
:1027E0000346002B0BD1234B1B68DB6A1A460123DF
:1027F0009340DA43204B1B6813401F4A13607B68E9
:10280000B3F1FF3F0AD13B68002B07D0194B1B687F
:1028100004331A481946FEF7C5FA26E0FA687B68C1
:102820001344BB60134B1B68BA685A60BA68FB68F4
:102830009A4209D2124B1A680E4B1B680433104699
:102840001946FEF7D3FA10E00E4B1A68094B1B68C5
:10285000043310461946FEF7C9FA0B4B1B68BA68D9
:102860009A4202D2084ABB6813601037BD4680BD49
:10287000F424002004240020F8240020DC2400207C
:10288000AC240020A82400201025002080B584B0AE
:1028900002AF00237B6000F083FA0E4B1B68002B15
:1028A0000AD0052300930C4B01930C480C498C2251
:1028B0000023FFF71DF978607B68002B04D10948DD
:1028C00040F2331100F0A2FA7B6818460837BD4683
:1028D00080BD00BF4C25002050250020012A0000AB
:1028E0005C6600006466000080B588B000AFF860E8
:1028F000B9607A603B600023FB61FB68002B04D168
:102900001F484FF4D37100F081FA1E4B1B68002B57
:1029100030D0BB683B617B687B61FB68BB61BB6897
:10292000052B1CDCFFF726FE0346022B0BD1154BB3
:102930001A6807F1100310461946BA6A0023FEF719
:102940000DFDF86116E00F4B1A6807F110031046F1
:10295000194600220023FEF701FDF8610AE0094B49
:102960001A6807F11003104619463A680023FEF76B
:10297000D3FDF861FB6918462037BD4680BD00BF16
:10298000646600004C25002080B586B002AF7860F8
:102990003960194B1B68DB68DB68FB60FB6804333C
:1029A0001846FEF75BFAFB68DB69012B1DD1FB685B
:1029B0009A697B681344F86819463A687B6800F0A6
:1029C000C3F80346002B10D000230093F8680021C1
:1029D0007A680023FFF788FFB860BB68002B04D13A
:1029E00006484FF4027100F011FAFB685B6AF86860
:1029F00098471037BD4680BD44250020646600001E
:102A000080B584B000AF786007F10803184600F085
:102A100057F8F860BB68F868194600F003F800F052
:102A2000D5F8F1E780B584B000AF78603960FFF782
:102A3000FFF907F10803184600F066F8F860BB6874
:102A4000002B31D13B68002B0AD17A68FB689A428F
:102A500006D8FFF7FBF97868F968FFF795FF25E0DE
:102A60003B68002B08D0134B1B681B68002B0CBF66
:102A700001230023DBB23B600F4B19687A68FB68C7
:102A8000D31A084619463A68FEF7FCFFFFF7DEF94D
:102A90000346002B0AD1094B4FF080521A60BFF356
:102AA0004F8FBFF36F8F01E0FFF7D0F91037BD46AE
:102AB00080BD00BF482500204C25002004ED00E02B
:102AC00080B485B000AF78600E4B1B681B68002B8C
:102AD0000CBF01230023DBB21A467B681A607B68B7
:102AE0001B68002B05D1074B1B68DB681B68FB606C
:102AF00001E00023FB60FB6818461437BD465DF813
:102B0000047B70474425002080B584B000AF786016
:102B1000FFF736FAF8600B4B1B68FA689A4205D249
:102B200000F0E2F87B6801221A6002E07B68002274
:102B30001A60044AFB681360FB6818461037BD46EC
:102B400080BD00BF5425002080B586B000AFF8607E
:102B5000B9607A603B6000237B61FB68BA685A60A9
:102B6000FB68FA681A61BA687B689A4212D87A6878
:102B70003B68D21AFB689B699A4202D301237B61AE
:102B80001BE0104B1A68FB68043310461946FEF729
:102B90002DF912E07A683B689A4206D2BA683B681F
:102BA0009A4202D301237B6107E0074B1A68FB6856
:102BB000043310461946FEF719F97B691846183791
:102BC000BD4680BD482500204425002080B58AB040
:102BD00002AF73E0BB68002B70DB3B69FB61FB69F4
:102BE0005B69002B04D0FB6904331846FEF736F905
:102BF0003B1D1846FFF788FFB861BB68092B5CD8FE
:102C000001A252F823F000BF312C0000312C00004B
:102C1000312C0000BD2C0000852C0000B32C0000DE
:102C2000312C0000312C0000BD2C0000852C000050
:102C3000FA68FB699B691A44FB68F8691146BA692E
:102C4000FFF782FF0346002B1BD0FB695B6AF86924
:102C50009847FB69DB69012B13D1FA68FB699B6913
:102C60001A4400230093F86900210023FFF73CFE7B
:102C700078617B69002B04D1194840F2213100F0C2
:102C8000C5F81BE0FA68FB699A61FB699B69002B38
:102C900004D113484FF44E7100F0B8F8FB699A69FB
:102CA000BB691344F8691946BA69BB69FFF74CFF61
:102CB00004E0F869FDF7EAFF00E000BF094B1A687D
:102CC00007F108031046194600220023FEF7A2FC74
:102CD0000346002B7FF47EAF2037BD4680BD00BF8A
:102CE000646600004C25002080B588B002AF3FE04C
:102CF000284B1B68DB681B687B61264B1B68DB6805
:102D0000DB683B613B6904331846FEF7A7F83B6973
:102D10005B6A386998473B69DB69012B28D13B69BD
:102D20009A697B691344FB60FA687B699A420ED901
:102D30003B69FA685A603B693A691A61154B1A682F
:102D40003B69043310461946FEF750F810E00023A3
:102D50000093386900217A690023FFF7C5FDB86048
:102D6000BB68002B04D10C4840F2923100F04EF8C1
:102D7000084B1B681B68002BBAD1064B1B687B6095
:102D8000064B1B68034A1360044A7B6813601837BC
:102D9000BD4680BD44250020646600004825002013
:102DA00080B500AFFEF74CF9124B1B68002B1DD10C
:102DB0001148FDF7CBFF1148FDF7C8FF104B0E4A35
:102DC0001A60104B0D4A1A600A200C210022FEF7EF
:102DD00071FA0246074B1A60064B1B68002B05D0A0
:102DE000044B1B6818460849FEF724FEFEF750F90D
:102DF00080BD00BF4C2500201C2500203025002070
:102E000044250020482500208466000080B483B05B
:102E100000AF78603960FEE780B487B000AFF8603B
:102E2000B9607A60FB6803F10473DA00BB6813448D
:102E30009B007B617B697A681A601C37BD465DF830
:102E4000047B704780B485B000AF786039607B68E0
:102E500003F10473DA003B6813449B00FB60FB68DA
:102E60001B6818461437BD465DF8047B704700BFE9
:102E700080B584B000AF78607B68002B03D07B689E
:102E8000B3F5004F04D9084840F29661FFF7BEFF42
:102E90007B68B3FA83F3C3F11F03FB60FB6818463A
:102EA0001037BD4680BD00BF8C66000080B400AF07
:102EB000044BDB6C1B0EDBB21846BD465DF8047B91
:102EC000704700BFB081E00F80B400AF054BDB6CF2
:102ED00003F47F031B0CDBB21846BD465DF8047B90
:102EE000704700BFB081E00F80B582B000AFFFF740
:102EF000EBFF03464A2B04D0792B02D0482B21D07C
:102F000022E0164B1B699BB203F03F039BB21B02EE
:102F1000FB80124B9B6903F0F0039AB2FB881343CA
:102F2000FB800E4BDB6903F0F0031B099AB2FB88B0
:102F30001343FB80FB88B3F5017F01D3084B09E005
:102F4000084B07E0074B05E007484FF48771FFF790
:102F50005DFF002318460837BD4680BDD0FF0FE057
:102F600000366E010048E801F066000080B584B0CC
:102F700000AF78600123FB60FFF7B6FF02467B6875
:102F80009A4204D30023FB600023BB600BE0FFF7F1
:102F9000ABFF03465A007B689A4202D30123BB6011
:102FA00001E00223BB6008481E21FA68FFF734FFE6
:102FB0000549054B5B6823F48072BB681B02134311
:102FC0004B601037BD4680BD00800C4080B582B09C
:102FD00000AF05481E21FFF735FF78607B68184673
:102FE0000837BD4680BD00BF00800C4080B582B070
:102FF00000AF244B5B6903F4E063B3F5007F1CD0A2
:10300000B3F5007F05D8002B25D0B3F5807F1FD006
:103010002AE0B3F5C06F24D0B3F5E06F1ED0B3F54E
:10302000407F21D1FFF742FF0346122B02D9164BF6
:103030007B6021E0154B7B601EE0FFF737FF034606
:10304000122B02D9124B7B6016E0124B7B6013E00F
:10305000114B7B6010E0114B7B600DE0104B7B60EF
:103060000AE0104B7B6007E00F484FF4C671FFF792
:10307000CDFE00237B6000BF7B6818460837BD4645
:1030800080BD00BF00800C40804F120040420F0006
:1030900040B56400C0CF6A00C0D8A700809FD500AB
:1030A000406F4001003FAB01F066000080B582B088
:1030B00000AF0F4800F01AFC0346FB70FB78072BAB
:1030C00005D0092B07D1FDF7BBF878600BE0FFF7BF
:1030D0008DFF786007E007484FF4E371FFF796FE35
:1030E00000237B6000BF7B6818460837BD4680BD63
:1030F00006000C00F066000080B485B000AF786078
:103100003960284BDB6B002B14BF01230023BB72FB
:10311000244B41F67132DA63224B5B6803F00703FC
:10312000FB60FB68012B01D9042B02D10023FB7249
:1031300002E00123FB7200BF7B681B4A934207D960
:10314000FB7A002B01D0052300E00423FB6016E08E
:103150007B68154A93420BD87B68144A934207D97F
:10316000FB7A002B01D0032300E00123FB6006E083
:10317000FB7A002B01D0022300E00023FB60094909
:10318000084B5B6823F00702FB6813434B60BB7A74
:10319000002B02D0034B0022DA631437BD465DF8E2
:1031A000047B704700000C400048E8010024F40054
:1031B00080B500AFFDF73AF8034618460021FFF747
:1031C0009BFF80BD80B582B000AF786039607868C1
:1031D0003968FFF791FF0837BD4680BD90B585B0CF
:1031E00000AF78600023BB607B683B4A934208D005
:1031F0003A4A934205D03A4840F2B531FFF706FE0D
:1032000000E000BF786800F071FB0346FB607B685C
:10321000314A934203D0314A934206D00CE0314BFD
:103220009B6A03F00303FB600CE02E4B9B6A03F0E8
:103230000C039B08FB6005E029484FF47971FFF708
:10324000E5FD00BFFB68032B39D801A252F823F03B
:1032500087320000613200006932000071320000E4
:10326000FDF780F8B86032E0FDF790F8B8602EE026
:10327000FCF7C2FF0446FFF7A9FE0346013324FA18
:1032800003F3BB6023E00023BB607B68124A9342D8
:1032900003D07B68114A934210D1124B9A6A7B6823
:1032A0000D498B4201D1102300E0142322FA03F3CD
:1032B000002B03D0FDF760F8B86008E007E008488D
:1032C00040F20E41FFF7A2FD0023BB6000BFBB68C8
:1032D00018461437BD4690BD02001A0003001C00BA
:1032E000F066000000800C4080B483B000AF7860CE
:1032F000094B5B6D03F00103002B00D006E000BF1B
:10330000054B1A6D7B681340002BF9D10C37BD4675
:103310005DF8047B704700BF00800C4080B582B030
:1033200000AF104800F0E2FA0346FB70FB78032B75
:1033300007D0092B09D0022B0BD1FDF727F87860B5
:103340000AE0FDF70FF8786006E0FCF779FF786097
:1033500002E000237B6000BF7B6818460837BD464B
:1033600080BD00BF07232200B0B584B000AF7860F5
:1033700039607B681B0903F00F03FB60FB68013BAE
:10338000062B00F23A8101A252F823F0A933000083
:10339000FB350000FB350000E73300001934000066
:1033A0006F3400007B3500003B68002B02D03B6887
:1033B000082B04D9954840F2BD61FFF727FDFFF7C0
:1033C000F7FE9349924B1B6823F4E0323B68013BC4
:1033D0009B0313430B60FCF70FFFB860B868002134
:1033E000FFF7F0FE0FE13B68002B03D03B68B3F51D
:1033F000007F04D985484FF4DA61FFF707FD38688C
:10340000FFF736FD38608249814B9B6823F00F023D
:103410003B6813438B60F6E03B68002B03D03B68AE
:10342000B3F5007F04D979484FF4DB61FFF7EEFC78
:10343000FFF7BEFEFCF704FF02463B68B2FBF3F366
:103440001846FFF793FD3868FFF712FD38607049A2
:103450006F4B5B6823F00F023B6813434B60FCF734
:10346000CBFEB860B8680021FFF7ACFECBE07B680C
:10347000684A934227D0674A934203D8664A9342E8
:1034800007D073E0654A934237D0654A934255D0DE
:103490006CE03B68B3F5004F04D95C4840F2F3613F
:1034A000FFF7B4FC0420FFF71FFF3868FFF7E0FCCC
:1034B00038605749564B9B6E23F0F0023B681B0166
:1034C00013438B6658E03B68B3F5004F04D94F486F
:1034D00040F20171FFF79AFC0420FFF705FF3868FE
:1034E000FFF7C6FC38604A49494B9B6E23F4706273
:1034F0003B681B0213438B663EE03B680F2B02D9EF
:103500003B68802B04D941484FF4E261FFF77EFC11
:103510000420FFF7E9FE3868FFF7AAFC38603C4D4D
:103520003B4B9B6E23F440541020FFF7A1FC024656
:103530003B689B1A1B032343AB661DE03B68082BCB
:1035400004D932484FF4E461FFF760FC0420FFF730
:10355000CBFE3868FFF78CFC38602D492C4B9B6EF6
:1035600023F003023B6813438B6605E0274840F2D3
:103570002E71FFF74BFC00BF45E07B68294A934260
:1035800003D0294A934218D030E03B68082B04D975
:103590001E4840F23771FFF739FC4020FFF7A4FEC8
:1035A0003868FFF765FC38601949194B1B6F23F029
:1035B00003023B6813430B671EE03B68082B04D9EA
:1035C000124840F24671FFF721FC4020FFF78CFEC5
:1035D0003868FFF74DFC38600D490D4B1B6F23F029
:1035E00030023B681B0113430B6705E0074840F2BC
:1035F0005471FFF70BFC00BF05E0044840F25A711C
:10360000FFF704FC00BF1037BD46B0BDF0660000F8
:1036100000800C4060261400601610006000260038
:1036200060062A00700716007017180080B586B073
:1036300000AF78600B46FB7000233B617B681B0A80
:1036400003F00F03013B092B33D801A252F823F0FA
:103650008D3600009336000079360000B336000046
:10366000B336000099360000A3360000B3360000E0
:10367000B3360000AD3600001B4B7B611B4800F0E9
:1036800043F803461846FFF771FC18E0184B7B61BE
:1036900015E0184B7B6112E0174B7B6101233B6106
:1036A0000DE0164B7B6110233B6108E0144B7B61FE
:1036B00005E014484FF4FB61FFF7A8FB10E07B68BE
:1036C0001B0B03F01F03FB603B69002B02D0386922
:1036D000FFF70AFEFB787869F9681A46FFF79CFB4A
:1036E0001837BD4680BD00BF40800C40004302003B
:1036F00008800C4044800C4058800C4060800C4096
:1037000078800C40F066000090B585B000AF78601E
:103710007B6803F47813B3F5B01F00F0AB80B3F50A
:10372000B01F1AD8B3F5402F00F0BF80B3F5402F7B
:1037300008D8B3F5003F3CD0B3F5802F2DD0002B37
:1037400027D0BEE0B3F5801F3CD0B3F5A01F47D013
:10375000B3F5602F00F0AD80B3E0B3F5081F00F0C3
:10376000AC80B3F5081F0AD8B3F5D01F25D0B3F548
:10377000E01F7AD0B3F5C01F00F08980A1E0B3F557
:10378000201F4ED0B3F5281F62D0B3F5181F35D0D7
:1037900097E0FCF755FDF8609BE0FCF751FDF86001
:1037A0004E4B9B6803F00F031A46FB68D340FB6047
:1037B0008FE0FCF721FDF8608BE04948FFF70EFD34
:1037C000F86086E04648FFF709FDF860434B9B6EC2
:1037D00003F0F0031B091A46FB68D340FB6078E056
:1037E0003F48FFF7FBFCF8603C4B9B6E03F47063B3
:1037F0001B0A1A46FB68D340FB606AE03848FFF7B3
:10380000EDFCF860354B9B6E03F440531C0B10200D
:10381000FFF72EFB034623441A46FB68D340FB60A8
:1038200057E02F48FFF7DAFCF8602C4B9B6E03F44F
:1038300040531B0B1A46FB68D340FB60274BDB6FE2
:1038400003F007030133FA68B2FBF3F3FB6040E0D7
:103850002348FFF7C3FCF860204B9B6E03F0030383
:103860001A46FB68D340FB6033E01E48FFF7B6FC06
:10387000F8602EE01B48FFF7B1FCF860174B1B6F98
:1038800003F003031A46FB68D340FB6021E01548B0
:10389000FFF7A4FCF860114B1B6F03F030031B090A
:1038A0001A46FB68D340FB6013E0FFF7FFFBF860AC
:1038B0000FE0FFF79BFBF8600BE0FFF72FFDF860D0
:1038C00007E0094840F6CC01FFF7A0FA0023FB60AF
:1038D00000BFFB6818461437BD4690BD00800C4001
:1038E00002001A0003001C00F066000080B584B0DE
:1038F00000AF78600123FB737B6803F00F03BB60AC
:10390000BB68013B062B00F2938001A252F823F022
:103910002D390000633900009F390000313A000062
:10392000313A0000DB390000FD390000474BDB6A0B
:1039300003F47053B3F5805F09D0B3F5005F03D093
:10394000B3F5006F06D008E00223FB7308E0032301
:10395000FB7305E00423FB7302E00523FB7300BF48
:103960006EE03A4B9B6A03F00303022B06D0032B55
:1039700007D0012B08D10323FB730FE00223FB7355
:103980000CE00623FB7309E0304B9B6A03F48033A1
:10399000002B02D00A23FB7300E000BF50E02B4B4A
:1039A0009B6A03F00C03082B06D00C2B07D0042BCA
:1039B00008D10323FB730FE00223FB730CE0062303
:1039C000FB7309E0214B9B6A03F48013002B02D0A8
:1039D0000A23FB7300E000BF32E01C4B1B6803F0BE
:1039E0008053002B03D0B3F1805F03D028E007237E
:1039F000FB7302E00923FB7300BF21E0134BDB6A7A
:103A000003F46033B3F5803F08D0B3F5003F08D02E
:103A1000B3F5004F08D10923FB7308E00223FB73C1
:103A200005E00323FB7302E00123FB7300BF07E003
:103A300007484FF44761FFF7E9F90023FB7300BF24
:103A4000FB7B18461037BD4680BD00BF00800C4090
:103A5000F066000080B588B000AF78600B46FB7060
:103A60000323FB610323FB7600233B617B6803F0A8
:103A70000F03FB60FB68013B062B00F2438101A2B0
:103A800052F823F0A13A00008F3B00008F3B00006A
:103A9000053D0000053D00005D3C0000933C00003A
:103AA000FB78023B082B52D801A252F823F000BF4A
:103AB000D53A0000DF3A0000E93A00002B3B000055
:103AC0004F3B00004F3B00004F3B00004F3B0000CE
:103AD000433B00000423FB610023FB763DE003230E
:103AE000FB610123FB7638E00223FB610223FB76B6
:103AF000FFF7FAF9034601331846FFF737FAFCF7E8
:103B00001FFC0246844B9A4206D9844A834B1B68A9
:103B100043F06003136020E0804A804B1B6823F071
:103B2000600343F02003136017E00123FB610323CC
:103B3000FB76FFF7D9F9034601331846FFF716FA6B
:103B40000BE0774840F61451FFF760F9E0E0744865
:103B500040F61951FFF75AF9DAE0FB7E18460121C9
:103B6000012200F009F9FFF723FB6C4AFB6953625D
:103B70006C48FFF7C9FD03461846FFF7F7F9FCF755
:103B80003BFBB860B8680021FFF71CFBC0E0FB7886
:103B9000013B092B3CD801A252F823F0C53B0000A1
:103BA000CB3B0000DB3B0000113C0000113C00005F
:103BB000EB3B0000113C0000113C0000113C0000F8
:103BC000073C000000237B6128E000200121012246
:103BD00000F0D2F802237B6120E0012001210122C4
:103BE00000F0CAF801237B6118E0FCF705FBB86020
:103BF000B868FFF7BBF94C4804210122FFF70CF924
:103C000003237B610AE000237B6101233B6105E024
:103C1000434840F6B851FFF7F9F879E0FB68022B0A
:103C20000DD13E493D4B9B6A23F4803323F00303BF
:103C30007A691A433B691B0413438B6268E0374976
:103C4000364B9B6A23F4801323F00C037A699200AD
:103C50001A433B691B0513438B6259E0FB78072B22
:103C600002D0092B07D00DE02C4A2C4B1B6823F007
:103C7000805313600CE0294A284B1B6843F08053A3
:103C8000136005E0264840F61361FFF7BFF83FE0F8
:103C90003EE0FB78032B13D0092B21D0022B2AD135
:103CA00000200121012200F067F81C4B40225A62DB
:103CB00000BF1A4BDB6A03F48033002BF9D020E0FD
:103CC00001200121012200F057F8144B60225A62B2
:103CD00000BF124BDB6A03F40033002BF9D010E075
:103CE0000E4B20225A6200BF0C4BDB6A03F40043E8
:103CF000002BF9D005E00A4840F65261FFF786F83C
:103D000006E005E0064840F62771FFF77FF800BFA0
:103D10002037BD4680BD00BF0048E80100800C4050
:103D2000F06600000043020040800C4080B582B085
:103D300000AF78607B68802B04D90D4841F22321C5
:103D4000FFF764F80B4B9B6D03F00803002B00D0CA
:103D50000BE07B6803F007037B600649054BDB6FD4
:103D600023F007027B681343CB670837BD4680BD4D
:103D7000F066000000800C4080B586B000AF0346BE
:103D8000FB710B46BB7113467B71FB79042B32D858
:103D900001A252F823F000BFE53D0000D73D00002E
:103DA000BB3D0000AD3D0000C93D000001233B616B
:103DB0000223FB6001237B6123E004233B61082392
:103DC000FB6003237B611CE010233B612023FB602D
:103DD00005237B6115E040233B618023FB600723C3
:103DE0007B610EE04FF480733B614FF40073FB6026
:103DF00009237B6105E00F4841F2CC21FFF706F86B
:103E000014E0BB79002B0ED00B4A3B6913627B791F
:103E1000002B0BD000BF09487969FFF713F8034660
:103E2000002BF8D002E0044AFB6813621837BD4645
:103E300080BD00BFF066000000800C402C800C406C
:103E400080B483B000AFEFF310833B603B687B60CE
:103E500072B67B6818460C37BD465DF8047B704728
:103E600080B483B000AF78607B68002B00D162B66D
:103E70000C37BD465DF8047B704700BF80B487B047
:103E800000AFF860B9607A60FB6803F10473DA0090
:103E9000BB6813449B007B617B697A681A601C379E
:103EA000BD465DF8047B704780B485B000AFF86014
:103EB000B9607A60FB681A68BB68DB431A407B68AC
:103EC0001A43FB681A601437BD465DF8047B7047DF
:103ED00080B582B000AF03463960FB71FB79002BDF
:103EE0001FD0FB79012B19D0FB79022B13D0FB7962
:103EF000032B0DD0FB79042B07D0FB79052B02D1C6
:103F000041F6FF730FE000230DE04FF6FF730AE068
:103F10004FF6FF7307E04FF6FF7304E04FF6FF73B1
:103F200001E04FF6FF733A68134103F00103002BE1
:103F300004D10B4840F25931FEF768FF0949FA797C
:103F40003B68012000FA03F318461346DB001344D4
:103F50009B000B44103358600837BD4680BD00BF3E
:103F6000046700000060004080B582B000AF0346E7
:103F70003960FB71FB79002B1FD0FB79012B19D025
:103F8000FB79022B13D0FB79032B0DD0FB79042B8B
:103F900007D0FB79052B02D141F6FF730FE0002318
:103FA0000DE04FF6FF730AE04FF6FF7307E04FF6A0
:103FB000FF7304E04FF6FF7301E04FF6FF733A68BA
:103FC000134103F00103002B04D10B4840F286316A
:103FD000FEF71CFF0949FA793B68012000FA03F358
:103FE00018461346DB0013449B000B441033186043
:103FF0000837BD4680BD00BF046700000060004078
:1040000080B586B000AFB9607A601A460346FB738C
:104010001346BB7300237B61FB7B002B1FD0FB7B14
:10402000012B19D0FB7B022B13D0FB7B032B0DD074
:10403000FB7B042B07D0FB7B052B02D141F6FF73E2
:104040000FE000230DE04FF6FF730AE04FF6FF7319
:1040500007E04FF6FF7304E04FF6FF7301E04FF601
:10406000FF73BA68134103F00103002B03D1224808
:10407000BF21FEF7CBFE7B68072B0ED87B689B0029
:104080001A46072303FA02F1FB7B7A6892009340F9
:104090001A481A46FFF708FF10E07B68083B7B616F
:1040A0007B699B001A46072303FA02F1FB7B7A69BE
:1040B0009200934012481A46FFF7F6FEBB7B114868
:1040C00079681A46FFF7DAFE97F820300E487968CB
:1040D0001A46FFF7D3FE0D4A7B68012101FA03F36C
:1040E000C2F81C3197F82430094879681A46FFF75E
:1040F000C5FE1837BD4680BD6867000000610040FE
:1041000004610040086100400C6100400060004014
:104110001061004090B585B000AFB9607B60034688
:10412000FB731346BB73FB7B002B1FD0FB7B012B68
:1041300019D0FB7B022B13D0FB7B032B0DD0FB7B19
:10414000042B07D0FB7B052B02D141F6FF730FE058
:1041500000230DE04FF6FF730AE04FF6FF7307E010
:104160004FF6FF7304E04FF6FF7301E04FF6FF7365
:10417000BA68134103F00103002B04D137484FF410
:104180008571FEF743FEBB7B002B0DD07B68002BB7
:1041900005D0FB7B1846B968FFF7E6FE04E0FB7B21
:1041A0001846B968FFF794FEBB68072B1CD82C4C47
:1041B000FA7B2B48F97B0B46DB000B449B00034446
:1041C0005968BB689B0018460F238340DB430B40B4
:1041D000B97BB8688000814019431346DB00134463
:1041E0009B002344596024E01D4CFA7B1C48F97B5A
:1041F0000B46DB000B449B00034408331968BB6883
:1042000003F18043083B9B0018460F238340DB43A8
:104210001940B87BBB6803F18043083B9B0000FA60
:1042200003F319431346DB0013449B002344083374
:104230001960BB7B002B0DD17B68002B05D0FB7B6D
:104240001846B968FFF790FE04E0FB7B1846B96892
:10425000FFF73EFE1437BD4690BD00BF6867000003
:104260000060004080B483B000AF0346FB71FB796F
:10427000002B06D0084A084B1B6843F0010313606B
:1042800005E0054A044B1B6823F0010313600C375B
:10429000BD465DF8047B704700A0084080B487B03D
:1042A00000AFF860B9607A60FB6803F10473DA006C
:1042B000BB6813449B007B617B697A681A601C377A
:1042C000BD465DF8047B704780B584B000AF786070
:1042D0001D4B5B68FB607B68002B03D11B484A21A8
:1042E000FEF794FD0020FFF7BDFFFB6823F4830376
:1042F00023F01F03FB607B685B68FA681343FB6075
:104300007B681B7A1A46FB681343FB607B685B7A09
:104310001A46FB681343FB607B68DB68FA6813434B
:10432000FB607B681B8A1A46FB681343FB60064AE6
:10433000FB6853607B681B78002B02D00120FFF7DD
:1043400091FF1037BD4680BD00A008407C6700008B
:1043500080B485B000AF78600D4B5B68FB60FB6894
:1043600023F48033FB607B68002B08D0B3F5803FDB
:1043700000D005E0FB6843F48033FB6000E000BF41
:10438000034AFB6853601437BD465DF8047B7047F1
:1043900000A0084080B483B000AF03460A46FB800B
:1043A00013467B717B79002B06D00949084B9A682C
:1043B000FB8813438B6006E00549054B9A68FB8830
:1043C000DB4313408B600C37BD465DF8047B7047C0
:1043D00000A0084080B584B000AFF860B960134613
:1043E000FB71FB68072B04DD6E484FF48171FEF70B
:1043F0000DFDBB68272B04DD6A4840F20911FEF76A
:1044000005FDFB68072B00F2C38001A252F823F0E0
:10441000314400005D44000089440000B5440000C0
:10442000E14400000D4500003945000065450000ED
:10443000BB681F2B07DCBA68FB795B4811461A463C
:10444000FFF72CFFAAE0BB68203BBB60BA68FB7992
:10445000564811461A46FFF721FF9FE0BB681F2B05
:1044600007DCBA68FB79524811461A46FFF716FF77
:1044700094E0BB68203BBB60BA68FB794D481146AD
:104480001A46FFF70BFF89E0BB681F2B07DCBA68F1
:10449000FB79494811461A46FFF700FF7EE0BB68EA
:1044A000203BBB60BA68FB79444811461A46FFF7C7
:1044B000F5FE73E0BB681F2B07DCBA68FB79404848
:1044C00011461A46FFF7EAFE68E0BB68203BBB6076
:1044D000BA68FB793B4811461A46FFF7DFFE5DE0FC
:1044E000BB681F2B07DCBA68FB79374811461A46B0
:1044F000FFF7D4FE52E0BB68203BBB60BA68FB7993
:10450000324811461A46FFF7C9FE47E0BB681F2B29
:1045100007DCBA68FB792E4811461A46FFF7BEFE43
:104520003CE0BB68203BBB60BA68FB792948114678
:104530001A46FFF7B3FE31E0BB681F2B07DCBA68F1
:10454000FB79254811461A46FFF7A8FE26E0BB680E
:10455000203BBB60BA68FB79204811461A46FFF73A
:104560009DFE1BE0BB681F2B07DCBA68FB791C486B
:1045700011461A46FFF792FE10E0BB68203BBB6075
:10458000BA68FB79174811461A46FFF787FE05E01F
:10459000044840F27311FEF739FC00BF1037BD46E6
:1045A00080BD00BF7C67000040A0084050A00840CC
:1045B00044A0084054A0084048A0084058A0084023
:1045C0004CA008405CA00840CCA00840B4A0084023
:1045D000D0A00840B8A00840D4A00840BCA0084023
:1045E000D8A00840C0A0084080B586B000AFF860F1
:1045F000B9607A60FB68072B04DD5F484FF4C67131
:10460000FEF704FCFB68072B00F2AC8001A252F815
:1046100023F000BF35460000594600007D460000EB
:10462000A1460000C5460000ED4600001547000009
:104630003D470000514B1B6C7B61BB68DB437A69D3
:1046400013407B61BA687B6813407A6913437B61CE
:104650004A4A7B6913648BE0484B5B6C7B61BB68A7
:10466000DB437A6913407B61BA687B6813407A69DF
:1046700013437B61414A7B69536479E03F4B9B6CF8
:104680007B61BB68DB437A6913407B61BA687B68F6
:1046900013407A6913437B61384A7B69936467E00E
:1046A000364BDB6C7B61BB68DB437A6913407B6113
:1046B000BA687B6813407A6913437B612F4A7B6930
:1046C000D36455E02D4BD3F8CC307B61BB68DB4322
:1046D0007A6913407B61BA687B6813407A69134337
:1046E0007B61264A7B69C2F8CC3041E0234BD3F88A
:1046F000D0307B61BB68DB437A6913407B61BA6869
:104700007B6813407A6913437B611C4A7B69C2F85A
:10471000D0302DE0194BD3F8D4307B61BB68DB433C
:104720007A6913407B61BA687B6813407A691343E6
:104730007B61124A7B69C2F8D43019E00F4BD3F881
:10474000D8307B61BB68DB437A6913407B61BA6810
:104750007B6813407A6913437B61084A7B69C2F81E
:10476000D83005E004484FF4E671FEF74FFB00BF78
:104770001837BD4680BD00BF7C67000000A0084020
:1047800080B586B000AFF860B9607A60FB68072B2F
:1047900004DD5C484FF4F271FEF738FBFB68072B31
:1047A00000F2AC8001A252F823F000BFCD47000018
:1047B000F147000015480000394800005D4800003E
:1047C00085480000AD480000D54800004E4B1B6DE9
:1047D0007B61BB68DB437A6913407B61BA687B68A5
:1047E00013407A6913437B61474A7B69136586E00E
:1047F000454B5B6D7B61BB68DB437A6913407B6132
:10480000BA687B6813407A6913437B613E4A7B69CF
:10481000536574E03C4B9B6D7B61BB68DB437A69FD
:1048200013407B61BA687B6813407A6913437B61EC
:10483000354A7B69936562E0334BDB6D7B61BB6816
:10484000DB437A6913407B61BA687B6813407A69FD
:1048500013437B612C4A7B69D36550E02A4BD3F824
:10486000B4307B61BB68DB437A6913407B61BA6813
:104870007B6813407A6913437B61234A7B69C2F8E2
:10488000B4303CE0204BD3F8B8307B61BB68DB43ED
:104890007A6913407B61BA687B6813407A69134375
:1048A0007B61194A7B69C2F8B83028E0164BD3F80F
:1048B000BC307B61BB68DB437A6913407B61BA68BB
:1048C0007B6813407A6913437B610F4A7B69C2F8A6
:1048D000BC3014E00C4BD3F8C0307B61BB68DB43C9
:1048E0007A6913407B61BA687B6813407A69134325
:1048F0007B61054A7B69C2F8C03000E000BF183711
:10490000BD4680BD7C67000000A0084080B483B035
:1049100000AF78600649064B5B6823F4E0127B68C1
:1049200013434B600C37BD465DF8047B704700BFF6
:1049300000A0084080B584B000AF78607B68002B91
:1049400003D11A483E21FEF761FA194B5B69DBB2CD
:1049500003F00F03DBB29B00FB73154B1B6903F0E5
:10496000C0039B09DAB2FB7B1343FB737B68FA7BC2
:104970009A700F4B1B69DBB203F03F03DAB27B681E
:104980005A700B4B9B69DBB223F00F03FB73084B90
:10499000DB6903F0F0031B09DAB2FB7B1343FB7303
:1049A0007B68FA7B1A701037BD4680BD90670000A7
:1049B000D0FF0FE080B483B000AF78607B680D4A11
:1049C00093420BD07B680C4A934207D07B680B4A1A
:1049D000934203D07B680A4A934201D1012300E04D
:1049E000002303F00103DBB218460C37BD465DF827
:1049F000047B7047000001400004014000080140B2
:104A0000000C014080B582B000AF786039607868F2
:104A1000FFF7D0FF0346002B03D134484D21FEF7AA
:104A2000F5F93B681B7883F00103DBB2002B02D061
:104A30007B6802225A607B6800225A623B689B783E
:104A40001A063B68DB781B041A433B689B799B0280
:104A50001A433B68DB791B0213433A68127A1A4304
:104A60003B685B78002B01D0402300E000231A4311
:104A70003B685B7A002B01D0802300E000231A43BF
:104A80003B689B7A002B01D0202300E000231A43CF
:104A90003B68DB7A002B01D0102300E000231A438F
:104AA0003B681B79002B02D04FF4005300E0002339
:104AB0001A433B685B79002B02D04FF0805300E033
:104AC00000231A433B681B7B002B01D0082300E026
:104AD00000231A437B681A603B681B78002B02D0C6
:104AE0007B6801225A600837BD4680BD106800000F
:104AF00080B586B000AFF860B9607A60FB707B6803
:104B0000002B03D14248B721FEF780F9BB68002B88
:104B100003D14048FEF7F8FDB860FB78202B15D094
:104B2000202B02DC002B05D037E0402B1AD0602B65
:104B300027D032E0BB681A097B689A4203D2344816
:104B4000DD21FEF763F910237B612BE0BB68DA08F7
:104B50007B689A4203D22E48E221FEF757F90823D8
:104B60007B611FE0BB682C4AA2FB03239A087B6889
:104B70009A4203D22648E721FEF748F906237B61D3
:104B800010E0BB689A087B689A4203D22048EC2167
:104B9000FEF73CF904237B6104E01D48F221FEF797
:104BA00035F932E0BB689A007B69796801FB03F351
:104BB0005B0813443B617B697A6802FB03F33A6943
:104BC000B2FBF3F33B613B69043B3B613B699B01F7
:104BD0003B613B69114A934204D90D484FF48471FB
:104BE000FEF714F93A690D4B13403B61FB681B68F3
:104BF00023F06002FB681A60FB681A68FB781A43AE
:104C0000FB681A60FB683A695A611837BD4680BD77
:104C10002468000040810400ABAAAAAAC0FF1F00BC
:104C200080B584B000AF78600B46FB707B68144A97
:104C3000934214D07B68134A934210D07B68124A87
:104C400093420CD07B68114A934208D07B68104A8B
:104C5000934204D00F4840F20F21FEF7D7F8FB78BB
:104C6000DB43FB60FB6803F00503FB60FB685A0055
:104C70007B68DA60FA787B68DA601037BD4680BD01
:104C800000C0004000C4004000C8004000E00040F8
:104C900000E400402468000080B582B000AF786076
:104CA00039607B68264A934214D07B68254A934238
:104CB00010D07B68244A93420CD07B68234A9342ED
:104CC00008D07B68224A934204D0224840F2362121
:104CD000FEF79CF8786800F03FF83B689B7C002B5F
:104CE00005D07B681B6843F080427B681A603B6894
:104CF000DB7C002B07D03B681B7D43F01003DBB24D
:104D00001A467B689A653B685B7B1A463B681B8A40
:104D100013433A68D2891A437B685A603B685968E2
:104D20003B689A683B681B7B7868FFF7E1FE3B684D
:104D30001B781A467B68DA600837BD4680BD00BF25
:104D400000C0004000C4004000C8004000E0004037
:104D500000E400402468000080B582B000AF7860B5
:104D60007B68254A934214D07B68244A934210D032
:104D70007B68234A93420CD07B68224A934208D036
:104D80007B68214A934204D0204840F24731FEF725
:104D90003DF87B6840F6AA62DA607B6800221A6000
:104DA0007B6841F205025A607B6800229A607B684A
:104DB00000225A617B680022DA647B6841F6F9724E
:104DC0009A647B6800225A657B680B4A934202D141
:104DD0007B6800221A657B6800229A657B68074A17
:104DE000934203D07B68064A934202D17B6800223B
:104DF000DA650837BD4680BD00C0004000C40040F1
:104E000000C8004000E0004000E4004024680000CA
:104E100080B483B000AF786000BF7B681B6903F08B
:104E20008003002BF9D07B68DB69DBB218460C37B6
:104E3000BD465DF8047B704780B483B000AF7860F6
:104E40000B46FB7000BF7B681B6903F04003002B1F
:104E5000F9D0FA787B685A630C37BD465DF8047B5D
:104E6000704700BF80B483B000AF0346FB710849B0
:104E700097F907305B09FA7902F01F02012000FA66
:104E800002F241F823200C37BD465DF8047B7047E1
:104E900000E100E080B483B000AF0346FB71094934
:104EA00097F907305B09FA7902F01F02012000FA36
:104EB00002F2603341F823200C37BD465DF8047BD5
:104EC000704700BF00E100E080B483B000AF03464C
:104ED0003960FB7197F90730002B0BDA0D49FB792C
:104EE00003F00F03043B3A68D2B25201D2B20B4432
:104EF0001A7609E0084997F907303A68D2B25201A8
:104F0000D2B20B4483F800230C37BD465DF8047B16
:104F1000704700BF00ED00E000E100E080B483B026
:104F200000AF7860044A7B68C2F81C310C37BD467C
:104F30005DF8047B704700BF0060004090B585B00D
:104F400002AF396011461A460346FB710B46BB712E
:104F500013467B71FA79BC797B7900933B7E019390
:104F6000104639683A682346FFF74AF80C37BD46C1
:104F700090BD00BF80B400AF044BDB6C1B0EDBB2F6
:104F80001846BD465DF8047B704700BFB081E00F56
:104F900080B582B000AFFFF7EDFF0346FB713B1D0C
:104FA0001846FFF7C7FCFB790F2B0AD93B79022B78
:104FB00007D9054A044B1B6823F0500343F0100344
:104FC00013600837BD4680BDC0800C4080B483B0FC
:104FD00000AF78604FF6FF7318460C37BD465DF89A
:104FE000047B704780B483B000AF78607B685B6AF5
:104FF00018460C37BD465DF8047B704780B483B01B
:1050000000AF786039607B683A689A610C37BD46BA
:105010005DF8047B704700BF80B483B000AF786058
:1050200039607B68DA683B681A437B68DA600C3762
:10503000BD465DF8047B704780B582B000AF7860F4
:1050400039607868FFF7C2FF02463B689A4204D293
:10505000054840F29B31FDF7D9FE7B683A68DA617A
:105060000837BD4680BD00BF3868000080B582B0FB
:1050700000AF7860074B1B68184600214FF0FF32E5
:105080000023FCF7C7FA0346012B02D10248FBF7C5
:1050900003FDEFE7B8250020C425002080B582B0CD
:1050A00000AF7860254B1B68042B17DC244B57227C
:1050B0001A70234B41225A70214B49229A70204B7F
:1050C00054221A711E4B00225A711E4B1B6818463F
:1050D000002100220023FCF741F92EE0174B1B684A
:1050E000013B164A1360154B1B68092B01DD312269
:1050F00000E03022124B1A70104B1A68124B83FBDF
:1051000002139910D317C91A0B469B000B445B007E
:10511000D11ACBB23033DAB2094B5A70084B0022A5
:105120009A70084B1B681846002100220023FCF7E8
:1051300015F94FF47A70FCF703FEB3E71400002072
:10514000C4250020B82500206766666680B584B057
:1051500000AF17480121FEF769FA16480121FFF751
:105160005BFF144843F26851FFF766FF3B4600229D
:105170001A60043300221A60043300221A600433D8
:1051800000221A70013301233B7001237B700A2334
:10519000BB703B4607481946FFF734FC0220FFF777
:1051A00061FE04480121FFF737FF1037BD4680BD7F
:1051B000005204000000014080B582B002AF1248E6
:1051C0000121FEF733FA0120092101220023FEF715
:1051D000A1FF012300930120092101220023FFF7F1
:1051E000ADFE0B20FFF756FE0120FFF73BFE0B2024
:1051F000FFF750FE0B20FFF735FE0B200021FFF7D5
:1052000063FEBD4680BD00BF00D2040080B500AF84
:10521000054B1B78DBB20133DAB2034B1A7003483B
:105220000121FFF7EBFE80BD5C250020000001405E
:1052300080B500AF1348FFF7D5FE0246124B1A6047
:10524000124B1B78DBB21A4643F2685303FB02F39E
:105250001A460D4B1B6813441A460D4B1A600C4B33
:105260001B68C3F5053303F50473094A1360084B43
:105270001B680848194600F0F7F94FF40070FFF773
:105280004DFE80BD00000140C02500205C250020AF
:1052900058250020A068000080B582B002AFFFF75B
:1052A00077FEFFF789FFFFF751FFFBF7DDF90120DC
:1052B000FBF7C4F90020FBF793FB01200021032238
:1052C000FBF7F8FF0246144B1A60134B1B68002BC8
:1052D00007D0114B1B681846002100220023FCF761
:1052E0003DF8012300930D4B01930D480D49962283
:1052F0000023FCF7FDFB012300930B4B01930B48AC
:105300000B4996220023FCF7F3FBFCF749FD002331
:105310001846BD4680BD00BFB8250020CC25002022
:105320009D500000A4680000BC2500206D500000C6
:10533000AC68000008B5074B044613B10021AFF379
:105340000080054B1868836A03B198472046FBF735
:1053500035F800BF000000001C690000124B70B55A
:105360001D6804461E4625B1AB6913B9284600F0F6
:1053700063F80E4B9C4201D16C6808E00C4B9C42D8
:1053800001D1AC6803E00B4B9C4208BFEC68B4F958
:105390000C3013B1B4F90E0070BD336809221A60E5
:1053A0004FF0FF3070BD00BF78000020B8680000EB
:1053B000D8680000F8680000014900F0A7B800BFF5
:1053C000AD59000010B504460023036043608360BC
:1053D00081814366C28103614361836119465C3008
:1053E000082200F0E2F8054B24626362044BA362DA
:1053F000044BE362044B236310BD00BFC957000098
:10540000EB570000235800004758000070B5682390
:105410004D1E5D430E4605F1740100F0CFF80446C1
:1054200040B1002180E842000C30A06005F1680224
:1054300000F0BBF8204670BD836910B5044633BB4D
:105440008364C3640365124B124A1B6882629842EC
:1054500004BF0123836100F01FF86060204600F064
:105460001BF8A060204600F017F80421E06000223D
:105470006068FFF7A7FFA06809210122FFF7A2FFDC
:10548000E06812210222FFF79DFF0123A36110BDF6
:105490001C690000B9530000F8B51B4B07461E6895
:1054A000B36913B93046FFF7C7FF4836B46873686D
:1054B000013B04D4B4F90C5075B16834F8E7336893
:1054C0002BB938460421FFF7A1FF306008B13668D8
:1054D000ECE70C233B60F8BD4FF6FF73E38101233B
:1054E000A38165662560A560656025616561A5612C
:1054F00004F15C002946082200F057F86563A563B3
:10550000A564E5642046F8BD1C6900002DE9F84358
:105510008046894600F14804002694B1A568676872
:10552000013F0CD4AB89012B07D9B5F90E300133FB
:1055300003D040462946C84706436835F0E724684B
:10554000EBE73046BDE8F8830E4B70B51E460E4CB7
:105550000025E41AA410A54204D056F82530984737
:105560000135F8E700F0BEFE084B094C1E46E41A70
:10557000A4100025A54204D056F8253098470135DF
:10558000F8E770BD7C0000207C0000207C0000203B
:105590008000002010B5431E0A44914204D011F847
:1055A000014B03F8014FF8E710BD03460244934254
:1055B00002D003F8011BFAE77047000070B5CC1C5D
:1055C00024F0030408340C2C38BF0C24002C0646AD
:1055D00003DA0C233360002070BD8C42F9D3204ADB
:1055E000136810461946A1B10A68121B0ED40B2A83
:1055F00003D90A608B188C501FE08B420BBF5A688E
:105600004A6802605A6018BF0B4616E00B464968AC
:10561000E9E7144D2B681BB9304600F03DF82860CF
:105620003046214600F038F8421C0346D1D0C51C54
:1056300025F0030585420AD11C6003F10B001A1DF9
:1056400020F00700821A0AD05142995070BD3046AE
:10565000E91A00F021F80130BBD02B46ECE770BD11
:1056600064250020602500200FB40A4B13B51C6888
:1056700024B1A36913B92046FFF7DEFE05AB20462F
:10568000A168049A019300F041FA02B0BDE810400D
:1056900004B070477800002038B5064C002305465A
:1056A00008462360FAF7E6FE431C02D1236803B1E3
:1056B0002B6038BDD02500202DE9F0411D463D4B23
:1056C00004461E680F46904626B1B36913B93046AA
:1056D000FFF7B2FE384B9C4201D1746808E0374BAB
:1056E0009C4201D1B46803E0354B9C4208BFF4688A
:1056F000B8F1020F5AD8002D58DB3046214600F091
:1057000055F900236360A361A3891B0603D53046C6
:10571000216900F08FF9A389B8F1020F23F0830308
:10572000A38112D037BB002D08BF4FF480652846F7
:1057300000F078F90746C8B94FF4806000F072F9BC
:10574000074688B94FF0FF3000E00020A38943F0FE
:105750000203A3810023A36004F1470323602361B4
:1057600001236361BDE8F0814FF48065A38943F0B4
:105770008003A381B8F1010F01BFA38943F00103A6
:10578000A3816B4208BFA3610E4BB362A38927605C
:1057900003F0080080B22761656148B113F0030F80
:1057A00018BF0025A5600020BDE8F0814FF0FF3054
:1057B000BDE8F08178000020B8680000D8680000DB
:1057C000F8680000B953000010B50C46B1F90E108E
:1057D00000F03AFC0028ABBF636DA3891B1823F4CB
:1057E0008053ACBF6365A38110BD2DE9F0411D4618
:1057F0008B890746DB050C46164605D5B1F90E1018
:105800000022022300F0FCF8A389384623F48053D9
:10581000A381B4F90E1032462B46BDE8F04100F0EA
:105820001FB810B50C46B1F90E1000F0E9F8431C92
:10583000A38915BF606523F4805343F48053A3818B
:1058400018BFA38110BDB1F90E1000F01BB80346BC
:1058500013F8012B002AFBD1181A013870470000F9
:1058600038B5074C054600202060084611461A4608
:10587000FAF73EFE431C02D1236803B12B6038BD0A
:10588000D025002038B5064C002305460846236085
:10589000FAF788FD431C02D1236803B12B6038BDA1
:1058A000D02500208A892DE9F041054610070C46D5
:1058B00057D44B68002B02DC0B6C002B18DDE66A1A
:1058C000B6B102F48052002392B22F682B600AB165
:1058D000626D10E0216A28460123B047411C024650
:1058E00009D12B683BB11D2B01D0162B46D12F605F
:1058F0000020BDE8F081A3895B0705D56368D21A53
:10590000636B0BB1236CD21AE66A00232846216A26
:10591000B047461CA38905D12A681AB11D2A01D0B7
:10592000162A19D1002262602269D904226004D5A6
:10593000421C01D12B6803B96065616B2F6000299F
:10594000D6D004F14403994202D0284600F072F800
:1059500000206063BDE8F08143F04003A381BDE80F
:10596000F0810F69002FC3D093070E680CBF4B69FD
:105970000023C7EB06080F608B6012E0A3894FF08D
:10598000FF3043F04003A381BDE8F0812846216A3F
:105990003A464346A66AB0470028EFDD0744C0EB0D
:1059A0000808B8F1000FF1DCA2E7000038B50B6978
:1059B00005460C46DBB118B183690BB9FFF73CFD16
:1059C0000C4B9C4201D16C6808E00B4B9C4201D10E
:1059D000AC6803E0094B9C4208BFEC68B4F90C309A
:1059E0002BB128462146BDE83840FFF75BBF0020B9
:1059F00038BD00BFB8680000D8680000F868000033
:105A000038B5074C054600202060084611461A4666
:105A1000FAF7F6FC431C02D1236803B12B6038BDB2
:105A2000D0250020024B01461868FFF7C7BD00BF14
:105A30007800002030B500293CD051F8042C0B1F11
:105A40001D49002AB8BF9B180A680C4612B95A6053
:105A50000B6030BD93420DD219685818904201BFB7
:105A60005A5852181A60426823605A6030BD9942F1
:105A700003D80A4651680029F9D1146815199D42C6
:105A80000AD11B682344D0188842136012D10868D9
:105A9000034413604B680CE002D90C23036030BD53
:105AA0001C681819884201BF086849680019186005
:105AB0005960536030BD00BF64250020936810B565
:105AC000013B002B936009DA9469A34202DBCBB25D
:105AD0000A2B03D1BDE8104000F0C8BA1368581C67
